{
	"contracts/NftAuction.sol": {
		"NftAuction": {
			"abi": [
				{
					"inputs": [],
					"stateMutability": "nonpayable",
					"type": "constructor"
				},
				{
					"inputs": [],
					"name": "admin",
					"outputs": [
						{
							"internalType": "address",
							"name": "",
							"type": "address"
						}
					],
					"stateMutability": "view",
					"type": "function"
				},
				{
					"inputs": [
						{
							"internalType": "uint256",
							"name": "",
							"type": "uint256"
						}
					],
					"name": "auctions",
					"outputs": [
						{
							"internalType": "address",
							"name": "seller",
							"type": "address"
						},
						{
							"internalType": "uint256",
							"name": "duration",
							"type": "uint256"
						},
						{
							"internalType": "uint256",
							"name": "startPrice",
							"type": "uint256"
						},
						{
							"internalType": "uint256",
							"name": "startTime",
							"type": "uint256"
						},
						{
							"internalType": "bool",
							"name": "ended",
							"type": "bool"
						},
						{
							"internalType": "address",
							"name": "highestBidder",
							"type": "address"
						},
						{
							"internalType": "uint256",
							"name": "highestBid",
							"type": "uint256"
						},
						{
							"internalType": "address",
							"name": "nftContract",
							"type": "address"
						},
						{
							"internalType": "uint256",
							"name": "tokenId",
							"type": "uint256"
						}
					],
					"stateMutability": "view",
					"type": "function"
				},
				{
					"inputs": [
						{
							"internalType": "uint256",
							"name": "duration",
							"type": "uint256"
						},
						{
							"internalType": "uint256",
							"name": "startPrice",
							"type": "uint256"
						},
						{
							"internalType": "address",
							"name": "_ntfAddredd",
							"type": "address"
						},
						{
							"internalType": "uint256",
							"name": "tokenId",
							"type": "uint256"
						}
					],
					"name": "createAuction",
					"outputs": [],
					"stateMutability": "nonpayable",
					"type": "function"
				},
				{
					"inputs": [],
					"name": "nextAuctionId",
					"outputs": [
						{
							"internalType": "uint256",
							"name": "",
							"type": "uint256"
						}
					],
					"stateMutability": "view",
					"type": "function"
				},
				{
					"inputs": [
						{
							"internalType": "uint256",
							"name": "_auctionID",
							"type": "uint256"
						}
					],
					"name": "placeBid",
					"outputs": [],
					"stateMutability": "payable",
					"type": "function"
				}
			],
			"devdoc": {
				"kind": "dev",
				"methods": {},
				"version": 1
			},
			"evm": {
				"assembly": "    /* \"contracts/NftAuction.sol\":58:2490  contract NftAuction{... */\n  mstore(0x40, 0x80)\n    /* \"contracts/NftAuction.sol\":770:819  constructor() {... */\n  callvalue\n  dup1\n  iszero\n  tag_1\n  jumpi\n  revert(0x00, 0x00)\ntag_1:\n  pop\n    /* \"contracts/NftAuction.sol\":802:812  msg.sender */\n  caller\n    /* \"contracts/NftAuction.sol\":794:799  admin */\n  0x02\n  0x00\n    /* \"contracts/NftAuction.sol\":794:812  admin = msg.sender */\n  0x0100\n  exp\n  dup2\n  sload\n  dup2\n  0xffffffffffffffffffffffffffffffffffffffff\n  mul\n  not\n  and\n  swap1\n  dup4\n  0xffffffffffffffffffffffffffffffffffffffff\n  and\n  mul\n  or\n  swap1\n  sstore\n  pop\n    /* \"contracts/NftAuction.sol\":58:2490  contract NftAuction{... */\n  dataSize(sub_0)\n  dup1\n  dataOffset(sub_0)\n  0x00\n  codecopy\n  0x00\n  return\nstop\n\nsub_0: assembly {\n        /* \"contracts/NftAuction.sol\":58:2490  contract NftAuction{... */\n      mstore(0x40, 0x80)\n      jumpi(tag_1, lt(calldatasize, 0x04))\n      shr(0xe0, calldataload(0x00))\n      dup1\n      0x571a26a0\n      eq\n      tag_2\n      jumpi\n      dup1\n      0x9979ef45\n      eq\n      tag_3\n      jumpi\n      dup1\n      0xb1cb48ef\n      eq\n      tag_4\n      jumpi\n      dup1\n      0xf851a440\n      eq\n      tag_5\n      jumpi\n      dup1\n      0xfc528482\n      eq\n      tag_6\n      jumpi\n    tag_1:\n      revert(0x00, 0x00)\n        /* \"contracts/NftAuction.sol\":610:653  mapping(uint256 => Auction) public auctions */\n    tag_2:\n      callvalue\n      dup1\n      iszero\n      tag_7\n      jumpi\n      revert(0x00, 0x00)\n    tag_7:\n      pop\n      tag_8\n      0x04\n      dup1\n      calldatasize\n      sub\n      dup2\n      add\n      swap1\n      tag_9\n      swap2\n      swap1\n      tag_10\n      jump\t// in\n    tag_9:\n      tag_11\n      jump\t// in\n    tag_8:\n      mload(0x40)\n      tag_12\n      swap10\n      swap9\n      swap8\n      swap7\n      swap6\n      swap5\n      swap4\n      swap3\n      swap2\n      swap1\n      tag_13\n      jump\t// in\n    tag_12:\n      mload(0x40)\n      dup1\n      swap2\n      sub\n      swap1\n      return\n        /* \"contracts/NftAuction.sol\":1660:2482  function placeBid(uint256 _auctionID) external payable{... */\n    tag_3:\n      tag_14\n      0x04\n      dup1\n      calldatasize\n      sub\n      dup2\n      add\n      swap1\n      tag_15\n      swap2\n      swap1\n      tag_10\n      jump\t// in\n    tag_15:\n      tag_16\n      jump\t// in\n    tag_14:\n      stop\n        /* \"contracts/NftAuction.sol\":845:1629  function createAuction(uint256 duration, uint256 startPrice, address _ntfAddredd, uint256 tokenId) public{... */\n    tag_4:\n      callvalue\n      dup1\n      iszero\n      tag_17\n      jumpi\n      revert(0x00, 0x00)\n    tag_17:\n      pop\n      tag_18\n      0x04\n      dup1\n      calldatasize\n      sub\n      dup2\n      add\n      swap1\n      tag_19\n      swap2\n      swap1\n      tag_20\n      jump\t// in\n    tag_19:\n      tag_21\n      jump\t// in\n    tag_18:\n      stop\n        /* \"contracts/NftAuction.sol\":743:763  address public admin */\n    tag_5:\n      callvalue\n      dup1\n      iszero\n      tag_22\n      jumpi\n      revert(0x00, 0x00)\n    tag_22:\n      pop\n      tag_23\n      tag_24\n      jump\t// in\n    tag_23:\n      mload(0x40)\n      tag_25\n      swap2\n      swap1\n      tag_26\n      jump\t// in\n    tag_25:\n      mload(0x40)\n      dup1\n      swap2\n      sub\n      swap1\n      return\n        /* \"contracts/NftAuction.sol\":685:713  uint256 public nextAuctionId */\n    tag_6:\n      callvalue\n      dup1\n      iszero\n      tag_27\n      jumpi\n      revert(0x00, 0x00)\n    tag_27:\n      pop\n      tag_28\n      tag_29\n      jump\t// in\n    tag_28:\n      mload(0x40)\n      tag_30\n      swap2\n      swap1\n      tag_31\n      jump\t// in\n    tag_30:\n      mload(0x40)\n      dup1\n      swap2\n      sub\n      swap1\n      return\n        /* \"contracts/NftAuction.sol\":610:653  mapping(uint256 => Auction) public auctions */\n    tag_11:\n      mstore(0x20, 0x00)\n      dup1\n      0x00\n      mstore\n      keccak256(0x00, 0x40)\n      0x00\n      swap2\n      pop\n      swap1\n      pop\n      dup1\n      0x00\n      add\n      0x00\n      swap1\n      sload\n      swap1\n      0x0100\n      exp\n      swap1\n      div\n      0xffffffffffffffffffffffffffffffffffffffff\n      and\n      swap1\n      dup1\n      0x01\n      add\n      sload\n      swap1\n      dup1\n      0x02\n      add\n      sload\n      swap1\n      dup1\n      0x03\n      add\n      sload\n      swap1\n      dup1\n      0x04\n      add\n      0x00\n      swap1\n      sload\n      swap1\n      0x0100\n      exp\n      swap1\n      div\n      0xff\n      and\n      swap1\n      dup1\n      0x04\n      add\n      0x01\n      swap1\n      sload\n      swap1\n      0x0100\n      exp\n      swap1\n      div\n      0xffffffffffffffffffffffffffffffffffffffff\n      and\n      swap1\n      dup1\n      0x05\n      add\n      sload\n      swap1\n      dup1\n      0x06\n      add\n      0x00\n      swap1\n      sload\n      swap1\n      0x0100\n      exp\n      swap1\n      div\n      0xffffffffffffffffffffffffffffffffffffffff\n      and\n      swap1\n      dup1\n      0x07\n      add\n      sload\n      swap1\n      pop\n      dup10\n      jump\t// out\n        /* \"contracts/NftAuction.sol\":1660:2482  function placeBid(uint256 _auctionID) external payable{... */\n    tag_16:\n        /* \"contracts/NftAuction.sol\":1724:1747  Auction storage auction */\n      0x00\n        /* \"contracts/NftAuction.sol\":1750:1758  auctions */\n      0x00\n        /* \"contracts/NftAuction.sol\":1750:1770  auctions[_auctionID] */\n      0x00\n        /* \"contracts/NftAuction.sol\":1759:1769  _auctionID */\n      dup4\n        /* \"contracts/NftAuction.sol\":1750:1770  auctions[_auctionID] */\n      dup2\n      mstore\n      0x20\n      add\n      swap1\n      dup2\n      mstore\n      0x20\n      add\n      0x00\n      keccak256\n        /* \"contracts/NftAuction.sol\":1724:1770  Auction storage auction = auctions[_auctionID] */\n      swap1\n      pop\n        /* \"contracts/NftAuction.sol\":1831:1838  auction */\n      dup1\n        /* \"contracts/NftAuction.sol\":1831:1844  auction.ended */\n      0x04\n      add\n      0x00\n      swap1\n      sload\n      swap1\n      0x0100\n      exp\n      swap1\n      div\n      0xff\n      and\n        /* \"contracts/NftAuction.sol\":1830:1844  !auction.ended */\n      iszero\n        /* \"contracts/NftAuction.sol\":1822:1868  require(!auction.ended  , \"Auction has ended\") */\n      tag_33\n      jumpi\n      mload(0x40)\n      0x08c379a000000000000000000000000000000000000000000000000000000000\n      dup2\n      mstore\n      0x04\n      add\n      tag_34\n      swap1\n      tag_35\n      jump\t// in\n    tag_34:\n      mload(0x40)\n      dup1\n      swap2\n      sub\n      swap1\n      revert\n    tag_33:\n        /* \"contracts/NftAuction.sol\":1926:1941  block.timestamp */\n      timestamp\n        /* \"contracts/NftAuction.sol\":1907:1914  auction */\n      dup2\n        /* \"contracts/NftAuction.sol\":1907:1923  auction.duration */\n      0x01\n      add\n      sload\n        /* \"contracts/NftAuction.sol\":1887:1894  auction */\n      dup3\n        /* \"contracts/NftAuction.sol\":1887:1904  auction.startTime */\n      0x03\n      add\n      sload\n        /* \"contracts/NftAuction.sol\":1887:1923  auction.startTime + auction.duration */\n      tag_36\n      swap2\n      swap1\n      tag_37\n      jump\t// in\n    tag_36:\n        /* \"contracts/NftAuction.sol\":1887:1941  auction.startTime + auction.duration > block.timestamp */\n      gt\n        /* \"contracts/NftAuction.sol\":1878:1974  require( auction.startTime + auction.duration > block.timestamp , \"Auction has not started yet\") */\n      tag_38\n      jumpi\n      mload(0x40)\n      0x08c379a000000000000000000000000000000000000000000000000000000000\n      dup2\n      mstore\n      0x04\n      add\n      tag_39\n      swap1\n      tag_40\n      jump\t// in\n    tag_39:\n      mload(0x40)\n      dup1\n      swap2\n      sub\n      swap1\n      revert\n    tag_38:\n        /* \"contracts/NftAuction.sol\":2059:2066  auction */\n      dup1\n        /* \"contracts/NftAuction.sol\":2059:2077  auction.highestBid */\n      0x05\n      add\n      sload\n        /* \"contracts/NftAuction.sol\":2047:2056  msg.value */\n      callvalue\n        /* \"contracts/NftAuction.sol\":2047:2077  msg.value > auction.highestBid */\n      gt\n        /* \"contracts/NftAuction.sol\":2047:2111  msg.value > auction.highestBid && msg.value > auction.startPrice */\n      dup1\n      iszero\n      tag_41\n      jumpi\n      pop\n        /* \"contracts/NftAuction.sol\":2093:2100  auction */\n      dup1\n        /* \"contracts/NftAuction.sol\":2093:2111  auction.startPrice */\n      0x02\n      add\n      sload\n        /* \"contracts/NftAuction.sol\":2081:2090  msg.value */\n      callvalue\n        /* \"contracts/NftAuction.sol\":2081:2111  msg.value > auction.startPrice */\n      gt\n        /* \"contracts/NftAuction.sol\":2047:2111  msg.value > auction.highestBid && msg.value > auction.startPrice */\n    tag_41:\n        /* \"contracts/NftAuction.sol\":2039:2175  require(msg.value > auction.highestBid && msg.value > auction.startPrice,\" Bid must be higher than current highest bid and start price\") */\n      tag_42\n      jumpi\n      mload(0x40)\n      0x08c379a000000000000000000000000000000000000000000000000000000000\n      dup2\n      mstore\n      0x04\n      add\n      tag_43\n      swap1\n      tag_44\n      jump\t// in\n    tag_43:\n      mload(0x40)\n      dup1\n      swap2\n      sub\n      swap1\n      revert\n    tag_42:\n        /* \"contracts/NftAuction.sol\":2272:2273  0 */\n      0x00\n        /* \"contracts/NftAuction.sol\":2239:2274  auction.highestBidder != address(0) */\n      0xffffffffffffffffffffffffffffffffffffffff\n      and\n        /* \"contracts/NftAuction.sol\":2239:2246  auction */\n      dup2\n        /* \"contracts/NftAuction.sol\":2239:2260  auction.highestBidder */\n      0x04\n      add\n      0x01\n      swap1\n      sload\n      swap1\n      0x0100\n      exp\n      swap1\n      div\n      0xffffffffffffffffffffffffffffffffffffffff\n      and\n        /* \"contracts/NftAuction.sol\":2239:2274  auction.highestBidder != address(0) */\n      0xffffffffffffffffffffffffffffffffffffffff\n      and\n      eq\n        /* \"contracts/NftAuction.sol\":2236:2359  if(auction.highestBidder != address(0)){... */\n      tag_45\n      jumpi\n        /* \"contracts/NftAuction.sol\":2297:2304  auction */\n      dup1\n        /* \"contracts/NftAuction.sol\":2297:2318  auction.highestBidder */\n      0x04\n      add\n      0x01\n      swap1\n      sload\n      swap1\n      0x0100\n      exp\n      swap1\n      div\n      0xffffffffffffffffffffffffffffffffffffffff\n      and\n        /* \"contracts/NftAuction.sol\":2289:2328  payable(auction.highestBidder).transfer */\n      0xffffffffffffffffffffffffffffffffffffffff\n      and\n        /* \"contracts/NftAuction.sol\":2289:2348  payable(auction.highestBidder).transfer(auction.highestBid) */\n      0x08fc\n        /* \"contracts/NftAuction.sol\":2329:2336  auction */\n      dup3\n        /* \"contracts/NftAuction.sol\":2329:2347  auction.highestBid */\n      0x05\n      add\n      sload\n        /* \"contracts/NftAuction.sol\":2289:2348  payable(auction.highestBidder).transfer(auction.highestBid) */\n      swap1\n      dup2\n      iszero\n      mul\n      swap1\n      mload(0x40)\n      0x00\n      mload(0x40)\n      dup1\n      dup4\n      sub\n      dup2\n      dup6\n      dup9\n      dup9\n      call\n      swap4\n      pop\n      pop\n      pop\n      pop\n      iszero\n      dup1\n      iszero\n      tag_47\n      jumpi\n      returndatacopy(0x00, 0x00, returndatasize)\n      revert(0x00, returndatasize)\n    tag_47:\n      pop\n        /* \"contracts/NftAuction.sol\":2236:2359  if(auction.highestBidder != address(0)){... */\n    tag_45:\n        /* \"contracts/NftAuction.sol\":2425:2435  msg.sender */\n      caller\n        /* \"contracts/NftAuction.sol\":2401:2408  auction */\n      dup2\n        /* \"contracts/NftAuction.sol\":2401:2422  auction.highestBidder */\n      0x04\n      add\n      0x01\n        /* \"contracts/NftAuction.sol\":2401:2435  auction.highestBidder = msg.sender */\n      0x0100\n      exp\n      dup2\n      sload\n      dup2\n      0xffffffffffffffffffffffffffffffffffffffff\n      mul\n      not\n      and\n      swap1\n      dup4\n      0xffffffffffffffffffffffffffffffffffffffff\n      and\n      mul\n      or\n      swap1\n      sstore\n      pop\n        /* \"contracts/NftAuction.sol\":2466:2475  msg.value */\n      callvalue\n        /* \"contracts/NftAuction.sol\":2445:2452  auction */\n      dup2\n        /* \"contracts/NftAuction.sol\":2445:2463  auction.highestBid */\n      0x05\n      add\n        /* \"contracts/NftAuction.sol\":2445:2475  auction.highestBid = msg.value */\n      dup2\n      swap1\n      sstore\n      pop\n        /* \"contracts/NftAuction.sol\":1714:2482  {... */\n      pop\n        /* \"contracts/NftAuction.sol\":1660:2482  function placeBid(uint256 _auctionID) external payable{... */\n      pop\n      jump\t// out\n        /* \"contracts/NftAuction.sol\":845:1629  function createAuction(uint256 duration, uint256 startPrice, address _ntfAddredd, uint256 tokenId) public{... */\n    tag_21:\n        /* \"contracts/NftAuction.sol\":1027:1032  admin */\n      0x02\n      0x00\n      swap1\n      sload\n      swap1\n      0x0100\n      exp\n      swap1\n      div\n      0xffffffffffffffffffffffffffffffffffffffff\n      and\n        /* \"contracts/NftAuction.sol\":1013:1032  msg.sender == admin */\n      0xffffffffffffffffffffffffffffffffffffffff\n      and\n        /* \"contracts/NftAuction.sol\":1013:1023  msg.sender */\n      caller\n        /* \"contracts/NftAuction.sol\":1013:1032  msg.sender == admin */\n      0xffffffffffffffffffffffffffffffffffffffff\n      and\n      eq\n        /* \"contracts/NftAuction.sol\":1005:1066  require(msg.sender == admin, \"Only admin can create auction\") */\n      tag_49\n      jumpi\n      mload(0x40)\n      0x08c379a000000000000000000000000000000000000000000000000000000000\n      dup2\n      mstore\n      0x04\n      add\n      tag_50\n      swap1\n      tag_51\n      jump\t// in\n    tag_50:\n      mload(0x40)\n      dup1\n      swap2\n      sub\n      swap1\n      revert\n    tag_49:\n        /* \"contracts/NftAuction.sol\":1120:1127  1000*60 */\n      0xea60\n        /* \"contracts/NftAuction.sol\":1109:1117  duration */\n      dup5\n        /* \"contracts/NftAuction.sol\":1109:1127  duration > 1000*60 */\n      gt\n        /* \"contracts/NftAuction.sol\":1101:1166  require(duration > 1000*60, \"Duration must be at least 1 minute\") */\n      tag_52\n      jumpi\n      mload(0x40)\n      0x08c379a000000000000000000000000000000000000000000000000000000000\n      dup2\n      mstore\n      0x04\n      add\n      tag_53\n      swap1\n      tag_54\n      jump\t// in\n    tag_53:\n      mload(0x40)\n      dup1\n      swap2\n      sub\n      swap1\n      revert\n    tag_52:\n        /* \"contracts/NftAuction.sol\":1197:1198  0 */\n      0x00\n        /* \"contracts/NftAuction.sol\":1184:1194  startPrice */\n      dup4\n        /* \"contracts/NftAuction.sol\":1184:1198  startPrice > 0 */\n      gt\n        /* \"contracts/NftAuction.sol\":1176:1240  require(startPrice > 0, \"Start price must be greater than zero\") */\n      tag_55\n      jumpi\n      mload(0x40)\n      0x08c379a000000000000000000000000000000000000000000000000000000000\n      dup2\n      mstore\n      0x04\n      add\n      tag_56\n      swap1\n      tag_57\n      jump\t// in\n    tag_56:\n      mload(0x40)\n      dup1\n      swap2\n      sub\n      swap1\n      revert\n    tag_55:\n        /* \"contracts/NftAuction.sol\":1277:1596  Auction({... */\n      mload(0x40)\n      dup1\n      0x0120\n      add\n      0x40\n      mstore\n      dup1\n        /* \"contracts/NftAuction.sol\":1307:1317  msg.sender */\n      caller\n        /* \"contracts/NftAuction.sol\":1277:1596  Auction({... */\n      0xffffffffffffffffffffffffffffffffffffffff\n      and\n      dup2\n      mstore\n      0x20\n      add\n        /* \"contracts/NftAuction.sol\":1341:1349  duration */\n      dup6\n        /* \"contracts/NftAuction.sol\":1277:1596  Auction({... */\n      dup2\n      mstore\n      0x20\n      add\n        /* \"contracts/NftAuction.sol\":1375:1385  startPrice */\n      dup5\n        /* \"contracts/NftAuction.sol\":1277:1596  Auction({... */\n      dup2\n      mstore\n      0x20\n      add\n        /* \"contracts/NftAuction.sol\":1502:1517  block.timestamp */\n      timestamp\n        /* \"contracts/NftAuction.sol\":1277:1596  Auction({... */\n      dup2\n      mstore\n      0x20\n      add\n        /* \"contracts/NftAuction.sol\":1406:1411  false */\n      0x00\n        /* \"contracts/NftAuction.sol\":1277:1596  Auction({... */\n      iszero\n      iszero\n      dup2\n      mstore\n      0x20\n      add\n        /* \"contracts/NftAuction.sol\":1448:1449  0 */\n      0x00\n        /* \"contracts/NftAuction.sol\":1277:1596  Auction({... */\n      0xffffffffffffffffffffffffffffffffffffffff\n      and\n      dup2\n      mstore\n      0x20\n      add\n        /* \"contracts/NftAuction.sol\":1476:1477  0 */\n      0x00\n        /* \"contracts/NftAuction.sol\":1277:1596  Auction({... */\n      dup2\n      mstore\n      0x20\n      add\n        /* \"contracts/NftAuction.sol\":1544:1555  _ntfAddredd */\n      dup4\n        /* \"contracts/NftAuction.sol\":1277:1596  Auction({... */\n      0xffffffffffffffffffffffffffffffffffffffff\n      and\n      dup2\n      mstore\n      0x20\n      add\n        /* \"contracts/NftAuction.sol\":1578:1585  tokenId */\n      dup3\n        /* \"contracts/NftAuction.sol\":1277:1596  Auction({... */\n      dup2\n      mstore\n      pop\n        /* \"contracts/NftAuction.sol\":1251:1259  auctions */\n      0x00\n        /* \"contracts/NftAuction.sol\":1251:1274  auctions[nextAuctionId] */\n      0x00\n        /* \"contracts/NftAuction.sol\":1260:1273  nextAuctionId */\n      sload(0x01)\n        /* \"contracts/NftAuction.sol\":1251:1274  auctions[nextAuctionId] */\n      dup2\n      mstore\n      0x20\n      add\n      swap1\n      dup2\n      mstore\n      0x20\n      add\n      0x00\n      keccak256\n        /* \"contracts/NftAuction.sol\":1251:1596  auctions[nextAuctionId] = Auction({... */\n      0x00\n      dup3\n      add\n      mload\n      dup2\n      0x00\n      add\n      exp(0x0100, 0x00)\n      dup2\n      sload\n      dup2\n      0xffffffffffffffffffffffffffffffffffffffff\n      mul\n      not\n      and\n      swap1\n      dup4\n      0xffffffffffffffffffffffffffffffffffffffff\n      and\n      mul\n      or\n      swap1\n      sstore\n      pop\n      0x20\n      dup3\n      add\n      mload\n      dup2\n      0x01\n      add\n      sstore\n      0x40\n      dup3\n      add\n      mload\n      dup2\n      0x02\n      add\n      sstore\n      0x60\n      dup3\n      add\n      mload\n      dup2\n      0x03\n      add\n      sstore\n      0x80\n      dup3\n      add\n      mload\n      dup2\n      0x04\n      add\n      exp(0x0100, 0x00)\n      dup2\n      sload\n      dup2\n      0xff\n      mul\n      not\n      and\n      swap1\n      dup4\n      iszero\n      iszero\n      mul\n      or\n      swap1\n      sstore\n      pop\n      0xa0\n      dup3\n      add\n      mload\n      dup2\n      0x04\n      add\n      exp(0x0100, 0x01)\n      dup2\n      sload\n      dup2\n      0xffffffffffffffffffffffffffffffffffffffff\n      mul\n      not\n      and\n      swap1\n      dup4\n      0xffffffffffffffffffffffffffffffffffffffff\n      and\n      mul\n      or\n      swap1\n      sstore\n      pop\n      0xc0\n      dup3\n      add\n      mload\n      dup2\n      0x05\n      add\n      sstore\n      0xe0\n      dup3\n      add\n      mload\n      dup2\n      0x06\n      add\n      exp(0x0100, 0x00)\n      dup2\n      sload\n      dup2\n      0xffffffffffffffffffffffffffffffffffffffff\n      mul\n      not\n      and\n      swap1\n      dup4\n      0xffffffffffffffffffffffffffffffffffffffff\n      and\n      mul\n      or\n      swap1\n      sstore\n      pop\n      0x0100\n      dup3\n      add\n      mload\n      dup2\n      0x07\n      add\n      sstore\n      swap1\n      pop\n      pop\n        /* \"contracts/NftAuction.sol\":1606:1619  nextAuctionId */\n      0x01\n      0x00\n        /* \"contracts/NftAuction.sol\":1606:1621  nextAuctionId++ */\n      dup2\n      sload\n      dup1\n      swap3\n      swap2\n      swap1\n      tag_58\n      swap1\n      tag_59\n      jump\t// in\n    tag_58:\n      swap2\n      swap1\n      pop\n      sstore\n      pop\n        /* \"contracts/NftAuction.sol\":845:1629  function createAuction(uint256 duration, uint256 startPrice, address _ntfAddredd, uint256 tokenId) public{... */\n      pop\n      pop\n      pop\n      pop\n      jump\t// out\n        /* \"contracts/NftAuction.sol\":743:763  address public admin */\n    tag_24:\n      0x02\n      0x00\n      swap1\n      sload\n      swap1\n      0x0100\n      exp\n      swap1\n      div\n      0xffffffffffffffffffffffffffffffffffffffff\n      and\n      dup2\n      jump\t// out\n        /* \"contracts/NftAuction.sol\":685:713  uint256 public nextAuctionId */\n    tag_29:\n      sload(0x01)\n      dup2\n      jump\t// out\n        /* \"#utility.yul\":88:205   */\n    tag_61:\n        /* \"#utility.yul\":197:198   */\n      0x00\n        /* \"#utility.yul\":194:195   */\n      0x00\n        /* \"#utility.yul\":187:199   */\n      revert\n        /* \"#utility.yul\":334:411   */\n    tag_63:\n        /* \"#utility.yul\":371:378   */\n      0x00\n        /* \"#utility.yul\":400:405   */\n      dup2\n        /* \"#utility.yul\":389:405   */\n      swap1\n      pop\n        /* \"#utility.yul\":334:411   */\n      swap2\n      swap1\n      pop\n      jump\t// out\n        /* \"#utility.yul\":417:539   */\n    tag_64:\n        /* \"#utility.yul\":490:514   */\n      tag_94\n        /* \"#utility.yul\":508:513   */\n      dup2\n        /* \"#utility.yul\":490:514   */\n      tag_63\n      jump\t// in\n    tag_94:\n        /* \"#utility.yul\":483:488   */\n      dup2\n        /* \"#utility.yul\":480:515   */\n      eq\n        /* \"#utility.yul\":470:533   */\n      tag_95\n      jumpi\n        /* \"#utility.yul\":529:530   */\n      0x00\n        /* \"#utility.yul\":526:527   */\n      0x00\n        /* \"#utility.yul\":519:531   */\n      revert\n        /* \"#utility.yul\":470:533   */\n    tag_95:\n        /* \"#utility.yul\":417:539   */\n      pop\n      jump\t// out\n        /* \"#utility.yul\":545:684   */\n    tag_65:\n        /* \"#utility.yul\":591:596   */\n      0x00\n        /* \"#utility.yul\":629:635   */\n      dup2\n        /* \"#utility.yul\":616:636   */\n      calldataload\n        /* \"#utility.yul\":607:636   */\n      swap1\n      pop\n        /* \"#utility.yul\":645:678   */\n      tag_97\n        /* \"#utility.yul\":672:677   */\n      dup2\n        /* \"#utility.yul\":645:678   */\n      tag_64\n      jump\t// in\n    tag_97:\n        /* \"#utility.yul\":545:684   */\n      swap3\n      swap2\n      pop\n      pop\n      jump\t// out\n        /* \"#utility.yul\":690:1019   */\n    tag_10:\n        /* \"#utility.yul\":749:755   */\n      0x00\n        /* \"#utility.yul\":798:800   */\n      0x20\n        /* \"#utility.yul\":786:795   */\n      dup3\n        /* \"#utility.yul\":777:784   */\n      dup5\n        /* \"#utility.yul\":773:796   */\n      sub\n        /* \"#utility.yul\":769:801   */\n      slt\n        /* \"#utility.yul\":766:885   */\n      iszero\n      tag_99\n      jumpi\n        /* \"#utility.yul\":804:883   */\n      tag_100\n      tag_61\n      jump\t// in\n    tag_100:\n        /* \"#utility.yul\":766:885   */\n    tag_99:\n        /* \"#utility.yul\":924:925   */\n      0x00\n        /* \"#utility.yul\":949:1002   */\n      tag_101\n        /* \"#utility.yul\":994:1001   */\n      dup5\n        /* \"#utility.yul\":985:991   */\n      dup3\n        /* \"#utility.yul\":974:983   */\n      dup6\n        /* \"#utility.yul\":970:992   */\n      add\n        /* \"#utility.yul\":949:1002   */\n      tag_65\n      jump\t// in\n    tag_101:\n        /* \"#utility.yul\":939:1002   */\n      swap2\n      pop\n        /* \"#utility.yul\":895:1012   */\n      pop\n        /* \"#utility.yul\":690:1019   */\n      swap3\n      swap2\n      pop\n      pop\n      jump\t// out\n        /* \"#utility.yul\":1025:1151   */\n    tag_66:\n        /* \"#utility.yul\":1062:1069   */\n      0x00\n        /* \"#utility.yul\":1102:1144   */\n      0xffffffffffffffffffffffffffffffffffffffff\n        /* \"#utility.yul\":1095:1100   */\n      dup3\n        /* \"#utility.yul\":1091:1145   */\n      and\n        /* \"#utility.yul\":1080:1145   */\n      swap1\n      pop\n        /* \"#utility.yul\":1025:1151   */\n      swap2\n      swap1\n      pop\n      jump\t// out\n        /* \"#utility.yul\":1157:1253   */\n    tag_67:\n        /* \"#utility.yul\":1194:1201   */\n      0x00\n        /* \"#utility.yul\":1223:1247   */\n      tag_104\n        /* \"#utility.yul\":1241:1246   */\n      dup3\n        /* \"#utility.yul\":1223:1247   */\n      tag_66\n      jump\t// in\n    tag_104:\n        /* \"#utility.yul\":1212:1247   */\n      swap1\n      pop\n        /* \"#utility.yul\":1157:1253   */\n      swap2\n      swap1\n      pop\n      jump\t// out\n        /* \"#utility.yul\":1259:1377   */\n    tag_68:\n        /* \"#utility.yul\":1346:1370   */\n      tag_106\n        /* \"#utility.yul\":1364:1369   */\n      dup2\n        /* \"#utility.yul\":1346:1370   */\n      tag_67\n      jump\t// in\n    tag_106:\n        /* \"#utility.yul\":1341:1344   */\n      dup3\n        /* \"#utility.yul\":1334:1371   */\n      mstore\n        /* \"#utility.yul\":1259:1377   */\n      pop\n      pop\n      jump\t// out\n        /* \"#utility.yul\":1383:1501   */\n    tag_69:\n        /* \"#utility.yul\":1470:1494   */\n      tag_108\n        /* \"#utility.yul\":1488:1493   */\n      dup2\n        /* \"#utility.yul\":1470:1494   */\n      tag_63\n      jump\t// in\n    tag_108:\n        /* \"#utility.yul\":1465:1468   */\n      dup3\n        /* \"#utility.yul\":1458:1495   */\n      mstore\n        /* \"#utility.yul\":1383:1501   */\n      pop\n      pop\n      jump\t// out\n        /* \"#utility.yul\":1507:1597   */\n    tag_70:\n        /* \"#utility.yul\":1541:1548   */\n      0x00\n        /* \"#utility.yul\":1584:1589   */\n      dup2\n        /* \"#utility.yul\":1577:1590   */\n      iszero\n        /* \"#utility.yul\":1570:1591   */\n      iszero\n        /* \"#utility.yul\":1559:1591   */\n      swap1\n      pop\n        /* \"#utility.yul\":1507:1597   */\n      swap2\n      swap1\n      pop\n      jump\t// out\n        /* \"#utility.yul\":1603:1712   */\n    tag_71:\n        /* \"#utility.yul\":1684:1705   */\n      tag_111\n        /* \"#utility.yul\":1699:1704   */\n      dup2\n        /* \"#utility.yul\":1684:1705   */\n      tag_70\n      jump\t// in\n    tag_111:\n        /* \"#utility.yul\":1679:1682   */\n      dup3\n        /* \"#utility.yul\":1672:1706   */\n      mstore\n        /* \"#utility.yul\":1603:1712   */\n      pop\n      pop\n      jump\t// out\n        /* \"#utility.yul\":1718:2814   */\n    tag_13:\n        /* \"#utility.yul\":2029:2033   */\n      0x00\n        /* \"#utility.yul\":2067:2070   */\n      0x0120\n        /* \"#utility.yul\":2056:2065   */\n      dup3\n        /* \"#utility.yul\":2052:2071   */\n      add\n        /* \"#utility.yul\":2044:2071   */\n      swap1\n      pop\n        /* \"#utility.yul\":2081:2152   */\n      tag_113\n        /* \"#utility.yul\":2149:2150   */\n      0x00\n        /* \"#utility.yul\":2138:2147   */\n      dup4\n        /* \"#utility.yul\":2134:2151   */\n      add\n        /* \"#utility.yul\":2125:2131   */\n      dup13\n        /* \"#utility.yul\":2081:2152   */\n      tag_68\n      jump\t// in\n    tag_113:\n        /* \"#utility.yul\":2162:2234   */\n      tag_114\n        /* \"#utility.yul\":2230:2232   */\n      0x20\n        /* \"#utility.yul\":2219:2228   */\n      dup4\n        /* \"#utility.yul\":2215:2233   */\n      add\n        /* \"#utility.yul\":2206:2212   */\n      dup12\n        /* \"#utility.yul\":2162:2234   */\n      tag_69\n      jump\t// in\n    tag_114:\n        /* \"#utility.yul\":2244:2316   */\n      tag_115\n        /* \"#utility.yul\":2312:2314   */\n      0x40\n        /* \"#utility.yul\":2301:2310   */\n      dup4\n        /* \"#utility.yul\":2297:2315   */\n      add\n        /* \"#utility.yul\":2288:2294   */\n      dup11\n        /* \"#utility.yul\":2244:2316   */\n      tag_69\n      jump\t// in\n    tag_115:\n        /* \"#utility.yul\":2326:2398   */\n      tag_116\n        /* \"#utility.yul\":2394:2396   */\n      0x60\n        /* \"#utility.yul\":2383:2392   */\n      dup4\n        /* \"#utility.yul\":2379:2397   */\n      add\n        /* \"#utility.yul\":2370:2376   */\n      dup10\n        /* \"#utility.yul\":2326:2398   */\n      tag_69\n      jump\t// in\n    tag_116:\n        /* \"#utility.yul\":2408:2475   */\n      tag_117\n        /* \"#utility.yul\":2470:2473   */\n      0x80\n        /* \"#utility.yul\":2459:2468   */\n      dup4\n        /* \"#utility.yul\":2455:2474   */\n      add\n        /* \"#utility.yul\":2446:2452   */\n      dup9\n        /* \"#utility.yul\":2408:2475   */\n      tag_71\n      jump\t// in\n    tag_117:\n        /* \"#utility.yul\":2485:2558   */\n      tag_118\n        /* \"#utility.yul\":2553:2556   */\n      0xa0\n        /* \"#utility.yul\":2542:2551   */\n      dup4\n        /* \"#utility.yul\":2538:2557   */\n      add\n        /* \"#utility.yul\":2529:2535   */\n      dup8\n        /* \"#utility.yul\":2485:2558   */\n      tag_68\n      jump\t// in\n    tag_118:\n        /* \"#utility.yul\":2568:2641   */\n      tag_119\n        /* \"#utility.yul\":2636:2639   */\n      0xc0\n        /* \"#utility.yul\":2625:2634   */\n      dup4\n        /* \"#utility.yul\":2621:2640   */\n      add\n        /* \"#utility.yul\":2612:2618   */\n      dup7\n        /* \"#utility.yul\":2568:2641   */\n      tag_69\n      jump\t// in\n    tag_119:\n        /* \"#utility.yul\":2651:2724   */\n      tag_120\n        /* \"#utility.yul\":2719:2722   */\n      0xe0\n        /* \"#utility.yul\":2708:2717   */\n      dup4\n        /* \"#utility.yul\":2704:2723   */\n      add\n        /* \"#utility.yul\":2695:2701   */\n      dup6\n        /* \"#utility.yul\":2651:2724   */\n      tag_68\n      jump\t// in\n    tag_120:\n        /* \"#utility.yul\":2734:2807   */\n      tag_121\n        /* \"#utility.yul\":2802:2805   */\n      0x0100\n        /* \"#utility.yul\":2791:2800   */\n      dup4\n        /* \"#utility.yul\":2787:2806   */\n      add\n        /* \"#utility.yul\":2778:2784   */\n      dup5\n        /* \"#utility.yul\":2734:2807   */\n      tag_69\n      jump\t// in\n    tag_121:\n        /* \"#utility.yul\":1718:2814   */\n      swap11\n      swap10\n      pop\n      pop\n      pop\n      pop\n      pop\n      pop\n      pop\n      pop\n      pop\n      pop\n      jump\t// out\n        /* \"#utility.yul\":2820:2942   */\n    tag_72:\n        /* \"#utility.yul\":2893:2917   */\n      tag_123\n        /* \"#utility.yul\":2911:2916   */\n      dup2\n        /* \"#utility.yul\":2893:2917   */\n      tag_67\n      jump\t// in\n    tag_123:\n        /* \"#utility.yul\":2886:2891   */\n      dup2\n        /* \"#utility.yul\":2883:2918   */\n      eq\n        /* \"#utility.yul\":2873:2936   */\n      tag_124\n      jumpi\n        /* \"#utility.yul\":2932:2933   */\n      0x00\n        /* \"#utility.yul\":2929:2930   */\n      0x00\n        /* \"#utility.yul\":2922:2934   */\n      revert\n        /* \"#utility.yul\":2873:2936   */\n    tag_124:\n        /* \"#utility.yul\":2820:2942   */\n      pop\n      jump\t// out\n        /* \"#utility.yul\":2948:3087   */\n    tag_73:\n        /* \"#utility.yul\":2994:2999   */\n      0x00\n        /* \"#utility.yul\":3032:3038   */\n      dup2\n        /* \"#utility.yul\":3019:3039   */\n      calldataload\n        /* \"#utility.yul\":3010:3039   */\n      swap1\n      pop\n        /* \"#utility.yul\":3048:3081   */\n      tag_126\n        /* \"#utility.yul\":3075:3080   */\n      dup2\n        /* \"#utility.yul\":3048:3081   */\n      tag_72\n      jump\t// in\n    tag_126:\n        /* \"#utility.yul\":2948:3087   */\n      swap3\n      swap2\n      pop\n      pop\n      jump\t// out\n        /* \"#utility.yul\":3093:3858   */\n    tag_20:\n        /* \"#utility.yul\":3179:3185   */\n      0x00\n        /* \"#utility.yul\":3187:3193   */\n      0x00\n        /* \"#utility.yul\":3195:3201   */\n      0x00\n        /* \"#utility.yul\":3203:3209   */\n      0x00\n        /* \"#utility.yul\":3252:3255   */\n      0x80\n        /* \"#utility.yul\":3240:3249   */\n      dup6\n        /* \"#utility.yul\":3231:3238   */\n      dup8\n        /* \"#utility.yul\":3227:3250   */\n      sub\n        /* \"#utility.yul\":3223:3256   */\n      slt\n        /* \"#utility.yul\":3220:3340   */\n      iszero\n      tag_128\n      jumpi\n        /* \"#utility.yul\":3259:3338   */\n      tag_129\n      tag_61\n      jump\t// in\n    tag_129:\n        /* \"#utility.yul\":3220:3340   */\n    tag_128:\n        /* \"#utility.yul\":3379:3380   */\n      0x00\n        /* \"#utility.yul\":3404:3457   */\n      tag_130\n        /* \"#utility.yul\":3449:3456   */\n      dup8\n        /* \"#utility.yul\":3440:3446   */\n      dup3\n        /* \"#utility.yul\":3429:3438   */\n      dup9\n        /* \"#utility.yul\":3425:3447   */\n      add\n        /* \"#utility.yul\":3404:3457   */\n      tag_65\n      jump\t// in\n    tag_130:\n        /* \"#utility.yul\":3394:3457   */\n      swap5\n      pop\n        /* \"#utility.yul\":3350:3467   */\n      pop\n        /* \"#utility.yul\":3506:3508   */\n      0x20\n        /* \"#utility.yul\":3532:3585   */\n      tag_131\n        /* \"#utility.yul\":3577:3584   */\n      dup8\n        /* \"#utility.yul\":3568:3574   */\n      dup3\n        /* \"#utility.yul\":3557:3566   */\n      dup9\n        /* \"#utility.yul\":3553:3575   */\n      add\n        /* \"#utility.yul\":3532:3585   */\n      tag_65\n      jump\t// in\n    tag_131:\n        /* \"#utility.yul\":3522:3585   */\n      swap4\n      pop\n        /* \"#utility.yul\":3477:3595   */\n      pop\n        /* \"#utility.yul\":3634:3636   */\n      0x40\n        /* \"#utility.yul\":3660:3713   */\n      tag_132\n        /* \"#utility.yul\":3705:3712   */\n      dup8\n        /* \"#utility.yul\":3696:3702   */\n      dup3\n        /* \"#utility.yul\":3685:3694   */\n      dup9\n        /* \"#utility.yul\":3681:3703   */\n      add\n        /* \"#utility.yul\":3660:3713   */\n      tag_73\n      jump\t// in\n    tag_132:\n        /* \"#utility.yul\":3650:3713   */\n      swap3\n      pop\n        /* \"#utility.yul\":3605:3723   */\n      pop\n        /* \"#utility.yul\":3762:3764   */\n      0x60\n        /* \"#utility.yul\":3788:3841   */\n      tag_133\n        /* \"#utility.yul\":3833:3840   */\n      dup8\n        /* \"#utility.yul\":3824:3830   */\n      dup3\n        /* \"#utility.yul\":3813:3822   */\n      dup9\n        /* \"#utility.yul\":3809:3831   */\n      add\n        /* \"#utility.yul\":3788:3841   */\n      tag_65\n      jump\t// in\n    tag_133:\n        /* \"#utility.yul\":3778:3841   */\n      swap2\n      pop\n        /* \"#utility.yul\":3733:3851   */\n      pop\n        /* \"#utility.yul\":3093:3858   */\n      swap3\n      swap6\n      swap2\n      swap5\n      pop\n      swap3\n      pop\n      jump\t// out\n        /* \"#utility.yul\":3864:4086   */\n    tag_26:\n        /* \"#utility.yul\":3957:3961   */\n      0x00\n        /* \"#utility.yul\":3995:3997   */\n      0x20\n        /* \"#utility.yul\":3984:3993   */\n      dup3\n        /* \"#utility.yul\":3980:3998   */\n      add\n        /* \"#utility.yul\":3972:3998   */\n      swap1\n      pop\n        /* \"#utility.yul\":4008:4079   */\n      tag_135\n        /* \"#utility.yul\":4076:4077   */\n      0x00\n        /* \"#utility.yul\":4065:4074   */\n      dup4\n        /* \"#utility.yul\":4061:4078   */\n      add\n        /* \"#utility.yul\":4052:4058   */\n      dup5\n        /* \"#utility.yul\":4008:4079   */\n      tag_68\n      jump\t// in\n    tag_135:\n        /* \"#utility.yul\":3864:4086   */\n      swap3\n      swap2\n      pop\n      pop\n      jump\t// out\n        /* \"#utility.yul\":4092:4314   */\n    tag_31:\n        /* \"#utility.yul\":4185:4189   */\n      0x00\n        /* \"#utility.yul\":4223:4225   */\n      0x20\n        /* \"#utility.yul\":4212:4221   */\n      dup3\n        /* \"#utility.yul\":4208:4226   */\n      add\n        /* \"#utility.yul\":4200:4226   */\n      swap1\n      pop\n        /* \"#utility.yul\":4236:4307   */\n      tag_137\n        /* \"#utility.yul\":4304:4305   */\n      0x00\n        /* \"#utility.yul\":4293:4302   */\n      dup4\n        /* \"#utility.yul\":4289:4306   */\n      add\n        /* \"#utility.yul\":4280:4286   */\n      dup5\n        /* \"#utility.yul\":4236:4307   */\n      tag_69\n      jump\t// in\n    tag_137:\n        /* \"#utility.yul\":4092:4314   */\n      swap3\n      swap2\n      pop\n      pop\n      jump\t// out\n        /* \"#utility.yul\":4320:4489   */\n    tag_74:\n        /* \"#utility.yul\":4404:4415   */\n      0x00\n        /* \"#utility.yul\":4438:4444   */\n      dup3\n        /* \"#utility.yul\":4433:4436   */\n      dup3\n        /* \"#utility.yul\":4426:4445   */\n      mstore\n        /* \"#utility.yul\":4478:4482   */\n      0x20\n        /* \"#utility.yul\":4473:4476   */\n      dup3\n        /* \"#utility.yul\":4469:4483   */\n      add\n        /* \"#utility.yul\":4454:4483   */\n      swap1\n      pop\n        /* \"#utility.yul\":4320:4489   */\n      swap3\n      swap2\n      pop\n      pop\n      jump\t// out\n        /* \"#utility.yul\":4495:4662   */\n    tag_75:\n        /* \"#utility.yul\":4635:4654   */\n      0x41756374696f6e2068617320656e646564000000000000000000000000000000\n        /* \"#utility.yul\":4631:4632   */\n      0x00\n        /* \"#utility.yul\":4623:4629   */\n      dup3\n        /* \"#utility.yul\":4619:4633   */\n      add\n        /* \"#utility.yul\":4612:4655   */\n      mstore\n        /* \"#utility.yul\":4495:4662   */\n      pop\n      jump\t// out\n        /* \"#utility.yul\":4668:5034   */\n    tag_76:\n        /* \"#utility.yul\":4810:4813   */\n      0x00\n        /* \"#utility.yul\":4831:4898   */\n      tag_141\n        /* \"#utility.yul\":4895:4897   */\n      0x11\n        /* \"#utility.yul\":4890:4893   */\n      dup4\n        /* \"#utility.yul\":4831:4898   */\n      tag_74\n      jump\t// in\n    tag_141:\n        /* \"#utility.yul\":4824:4898   */\n      swap2\n      pop\n        /* \"#utility.yul\":4907:5000   */\n      tag_142\n        /* \"#utility.yul\":4996:4999   */\n      dup3\n        /* \"#utility.yul\":4907:5000   */\n      tag_75\n      jump\t// in\n    tag_142:\n        /* \"#utility.yul\":5025:5027   */\n      0x20\n        /* \"#utility.yul\":5020:5023   */\n      dup3\n        /* \"#utility.yul\":5016:5028   */\n      add\n        /* \"#utility.yul\":5009:5028   */\n      swap1\n      pop\n        /* \"#utility.yul\":4668:5034   */\n      swap2\n      swap1\n      pop\n      jump\t// out\n        /* \"#utility.yul\":5040:5459   */\n    tag_35:\n        /* \"#utility.yul\":5206:5210   */\n      0x00\n        /* \"#utility.yul\":5244:5246   */\n      0x20\n        /* \"#utility.yul\":5233:5242   */\n      dup3\n        /* \"#utility.yul\":5229:5247   */\n      add\n        /* \"#utility.yul\":5221:5247   */\n      swap1\n      pop\n        /* \"#utility.yul\":5293:5302   */\n      dup2\n        /* \"#utility.yul\":5287:5291   */\n      dup2\n        /* \"#utility.yul\":5283:5303   */\n      sub\n        /* \"#utility.yul\":5279:5280   */\n      0x00\n        /* \"#utility.yul\":5268:5277   */\n      dup4\n        /* \"#utility.yul\":5264:5281   */\n      add\n        /* \"#utility.yul\":5257:5304   */\n      mstore\n        /* \"#utility.yul\":5321:5452   */\n      tag_144\n        /* \"#utility.yul\":5447:5451   */\n      dup2\n        /* \"#utility.yul\":5321:5452   */\n      tag_76\n      jump\t// in\n    tag_144:\n        /* \"#utility.yul\":5313:5452   */\n      swap1\n      pop\n        /* \"#utility.yul\":5040:5459   */\n      swap2\n      swap1\n      pop\n      jump\t// out\n        /* \"#utility.yul\":5465:5645   */\n    tag_77:\n        /* \"#utility.yul\":5513:5590   */\n      0x4e487b7100000000000000000000000000000000000000000000000000000000\n        /* \"#utility.yul\":5510:5511   */\n      0x00\n        /* \"#utility.yul\":5503:5591   */\n      mstore\n        /* \"#utility.yul\":5610:5614   */\n      0x11\n        /* \"#utility.yul\":5607:5608   */\n      0x04\n        /* \"#utility.yul\":5600:5615   */\n      mstore\n        /* \"#utility.yul\":5634:5638   */\n      0x24\n        /* \"#utility.yul\":5631:5632   */\n      0x00\n        /* \"#utility.yul\":5624:5639   */\n      revert\n        /* \"#utility.yul\":5651:5842   */\n    tag_37:\n        /* \"#utility.yul\":5691:5694   */\n      0x00\n        /* \"#utility.yul\":5710:5730   */\n      tag_147\n        /* \"#utility.yul\":5728:5729   */\n      dup3\n        /* \"#utility.yul\":5710:5730   */\n      tag_63\n      jump\t// in\n    tag_147:\n        /* \"#utility.yul\":5705:5730   */\n      swap2\n      pop\n        /* \"#utility.yul\":5744:5764   */\n      tag_148\n        /* \"#utility.yul\":5762:5763   */\n      dup4\n        /* \"#utility.yul\":5744:5764   */\n      tag_63\n      jump\t// in\n    tag_148:\n        /* \"#utility.yul\":5739:5764   */\n      swap3\n      pop\n        /* \"#utility.yul\":5787:5788   */\n      dup3\n        /* \"#utility.yul\":5784:5785   */\n      dup3\n        /* \"#utility.yul\":5780:5789   */\n      add\n        /* \"#utility.yul\":5773:5789   */\n      swap1\n      pop\n        /* \"#utility.yul\":5808:5811   */\n      dup1\n        /* \"#utility.yul\":5805:5806   */\n      dup3\n        /* \"#utility.yul\":5802:5812   */\n      gt\n        /* \"#utility.yul\":5799:5835   */\n      iszero\n      tag_149\n      jumpi\n        /* \"#utility.yul\":5815:5833   */\n      tag_150\n      tag_77\n      jump\t// in\n    tag_150:\n        /* \"#utility.yul\":5799:5835   */\n    tag_149:\n        /* \"#utility.yul\":5651:5842   */\n      swap3\n      swap2\n      pop\n      pop\n      jump\t// out\n        /* \"#utility.yul\":5848:6025   */\n    tag_78:\n        /* \"#utility.yul\":5988:6017   */\n      0x41756374696f6e20686173206e6f742073746172746564207965740000000000\n        /* \"#utility.yul\":5984:5985   */\n      0x00\n        /* \"#utility.yul\":5976:5982   */\n      dup3\n        /* \"#utility.yul\":5972:5986   */\n      add\n        /* \"#utility.yul\":5965:6018   */\n      mstore\n        /* \"#utility.yul\":5848:6025   */\n      pop\n      jump\t// out\n        /* \"#utility.yul\":6031:6397   */\n    tag_79:\n        /* \"#utility.yul\":6173:6176   */\n      0x00\n        /* \"#utility.yul\":6194:6261   */\n      tag_153\n        /* \"#utility.yul\":6258:6260   */\n      0x1b\n        /* \"#utility.yul\":6253:6256   */\n      dup4\n        /* \"#utility.yul\":6194:6261   */\n      tag_74\n      jump\t// in\n    tag_153:\n        /* \"#utility.yul\":6187:6261   */\n      swap2\n      pop\n        /* \"#utility.yul\":6270:6363   */\n      tag_154\n        /* \"#utility.yul\":6359:6362   */\n      dup3\n        /* \"#utility.yul\":6270:6363   */\n      tag_78\n      jump\t// in\n    tag_154:\n        /* \"#utility.yul\":6388:6390   */\n      0x20\n        /* \"#utility.yul\":6383:6386   */\n      dup3\n        /* \"#utility.yul\":6379:6391   */\n      add\n        /* \"#utility.yul\":6372:6391   */\n      swap1\n      pop\n        /* \"#utility.yul\":6031:6397   */\n      swap2\n      swap1\n      pop\n      jump\t// out\n        /* \"#utility.yul\":6403:6822   */\n    tag_40:\n        /* \"#utility.yul\":6569:6573   */\n      0x00\n        /* \"#utility.yul\":6607:6609   */\n      0x20\n        /* \"#utility.yul\":6596:6605   */\n      dup3\n        /* \"#utility.yul\":6592:6610   */\n      add\n        /* \"#utility.yul\":6584:6610   */\n      swap1\n      pop\n        /* \"#utility.yul\":6656:6665   */\n      dup2\n        /* \"#utility.yul\":6650:6654   */\n      dup2\n        /* \"#utility.yul\":6646:6666   */\n      sub\n        /* \"#utility.yul\":6642:6643   */\n      0x00\n        /* \"#utility.yul\":6631:6640   */\n      dup4\n        /* \"#utility.yul\":6627:6644   */\n      add\n        /* \"#utility.yul\":6620:6667   */\n      mstore\n        /* \"#utility.yul\":6684:6815   */\n      tag_156\n        /* \"#utility.yul\":6810:6814   */\n      dup2\n        /* \"#utility.yul\":6684:6815   */\n      tag_79\n      jump\t// in\n    tag_156:\n        /* \"#utility.yul\":6676:6815   */\n      swap1\n      pop\n        /* \"#utility.yul\":6403:6822   */\n      swap2\n      swap1\n      pop\n      jump\t// out\n        /* \"#utility.yul\":6828:7075   */\n    tag_80:\n        /* \"#utility.yul\":6968:7002   */\n      0x20426964206d75737420626520686967686572207468616e2063757272656e74\n        /* \"#utility.yul\":6964:6965   */\n      0x00\n        /* \"#utility.yul\":6956:6962   */\n      dup3\n        /* \"#utility.yul\":6952:6966   */\n      add\n        /* \"#utility.yul\":6945:7003   */\n      mstore\n        /* \"#utility.yul\":7037:7067   */\n      0x20686967686573742062696420616e6420737461727420707269636500000000\n        /* \"#utility.yul\":7032:7034   */\n      0x20\n        /* \"#utility.yul\":7024:7030   */\n      dup3\n        /* \"#utility.yul\":7020:7035   */\n      add\n        /* \"#utility.yul\":7013:7068   */\n      mstore\n        /* \"#utility.yul\":6828:7075   */\n      pop\n      jump\t// out\n        /* \"#utility.yul\":7081:7447   */\n    tag_81:\n        /* \"#utility.yul\":7223:7226   */\n      0x00\n        /* \"#utility.yul\":7244:7311   */\n      tag_159\n        /* \"#utility.yul\":7308:7310   */\n      0x3c\n        /* \"#utility.yul\":7303:7306   */\n      dup4\n        /* \"#utility.yul\":7244:7311   */\n      tag_74\n      jump\t// in\n    tag_159:\n        /* \"#utility.yul\":7237:7311   */\n      swap2\n      pop\n        /* \"#utility.yul\":7320:7413   */\n      tag_160\n        /* \"#utility.yul\":7409:7412   */\n      dup3\n        /* \"#utility.yul\":7320:7413   */\n      tag_80\n      jump\t// in\n    tag_160:\n        /* \"#utility.yul\":7438:7440   */\n      0x40\n        /* \"#utility.yul\":7433:7436   */\n      dup3\n        /* \"#utility.yul\":7429:7441   */\n      add\n        /* \"#utility.yul\":7422:7441   */\n      swap1\n      pop\n        /* \"#utility.yul\":7081:7447   */\n      swap2\n      swap1\n      pop\n      jump\t// out\n        /* \"#utility.yul\":7453:7872   */\n    tag_44:\n        /* \"#utility.yul\":7619:7623   */\n      0x00\n        /* \"#utility.yul\":7657:7659   */\n      0x20\n        /* \"#utility.yul\":7646:7655   */\n      dup3\n        /* \"#utility.yul\":7642:7660   */\n      add\n        /* \"#utility.yul\":7634:7660   */\n      swap1\n      pop\n        /* \"#utility.yul\":7706:7715   */\n      dup2\n        /* \"#utility.yul\":7700:7704   */\n      dup2\n        /* \"#utility.yul\":7696:7716   */\n      sub\n        /* \"#utility.yul\":7692:7693   */\n      0x00\n        /* \"#utility.yul\":7681:7690   */\n      dup4\n        /* \"#utility.yul\":7677:7694   */\n      add\n        /* \"#utility.yul\":7670:7717   */\n      mstore\n        /* \"#utility.yul\":7734:7865   */\n      tag_162\n        /* \"#utility.yul\":7860:7864   */\n      dup2\n        /* \"#utility.yul\":7734:7865   */\n      tag_81\n      jump\t// in\n    tag_162:\n        /* \"#utility.yul\":7726:7865   */\n      swap1\n      pop\n        /* \"#utility.yul\":7453:7872   */\n      swap2\n      swap1\n      pop\n      jump\t// out\n        /* \"#utility.yul\":7878:8057   */\n    tag_82:\n        /* \"#utility.yul\":8018:8049   */\n      0x4f6e6c792061646d696e2063616e206372656174652061756374696f6e000000\n        /* \"#utility.yul\":8014:8015   */\n      0x00\n        /* \"#utility.yul\":8006:8012   */\n      dup3\n        /* \"#utility.yul\":8002:8016   */\n      add\n        /* \"#utility.yul\":7995:8050   */\n      mstore\n        /* \"#utility.yul\":7878:8057   */\n      pop\n      jump\t// out\n        /* \"#utility.yul\":8063:8429   */\n    tag_83:\n        /* \"#utility.yul\":8205:8208   */\n      0x00\n        /* \"#utility.yul\":8226:8293   */\n      tag_165\n        /* \"#utility.yul\":8290:8292   */\n      0x1d\n        /* \"#utility.yul\":8285:8288   */\n      dup4\n        /* \"#utility.yul\":8226:8293   */\n      tag_74\n      jump\t// in\n    tag_165:\n        /* \"#utility.yul\":8219:8293   */\n      swap2\n      pop\n        /* \"#utility.yul\":8302:8395   */\n      tag_166\n        /* \"#utility.yul\":8391:8394   */\n      dup3\n        /* \"#utility.yul\":8302:8395   */\n      tag_82\n      jump\t// in\n    tag_166:\n        /* \"#utility.yul\":8420:8422   */\n      0x20\n        /* \"#utility.yul\":8415:8418   */\n      dup3\n        /* \"#utility.yul\":8411:8423   */\n      add\n        /* \"#utility.yul\":8404:8423   */\n      swap1\n      pop\n        /* \"#utility.yul\":8063:8429   */\n      swap2\n      swap1\n      pop\n      jump\t// out\n        /* \"#utility.yul\":8435:8854   */\n    tag_51:\n        /* \"#utility.yul\":8601:8605   */\n      0x00\n        /* \"#utility.yul\":8639:8641   */\n      0x20\n        /* \"#utility.yul\":8628:8637   */\n      dup3\n        /* \"#utility.yul\":8624:8642   */\n      add\n        /* \"#utility.yul\":8616:8642   */\n      swap1\n      pop\n        /* \"#utility.yul\":8688:8697   */\n      dup2\n        /* \"#utility.yul\":8682:8686   */\n      dup2\n        /* \"#utility.yul\":8678:8698   */\n      sub\n        /* \"#utility.yul\":8674:8675   */\n      0x00\n        /* \"#utility.yul\":8663:8672   */\n      dup4\n        /* \"#utility.yul\":8659:8676   */\n      add\n        /* \"#utility.yul\":8652:8699   */\n      mstore\n        /* \"#utility.yul\":8716:8847   */\n      tag_168\n        /* \"#utility.yul\":8842:8846   */\n      dup2\n        /* \"#utility.yul\":8716:8847   */\n      tag_83\n      jump\t// in\n    tag_168:\n        /* \"#utility.yul\":8708:8847   */\n      swap1\n      pop\n        /* \"#utility.yul\":8435:8854   */\n      swap2\n      swap1\n      pop\n      jump\t// out\n        /* \"#utility.yul\":8860:9081   */\n    tag_84:\n        /* \"#utility.yul\":9000:9034   */\n      0x4475726174696f6e206d757374206265206174206c656173742031206d696e75\n        /* \"#utility.yul\":8996:8997   */\n      0x00\n        /* \"#utility.yul\":8988:8994   */\n      dup3\n        /* \"#utility.yul\":8984:8998   */\n      add\n        /* \"#utility.yul\":8977:9035   */\n      mstore\n        /* \"#utility.yul\":9069:9073   */\n      0x7465000000000000000000000000000000000000000000000000000000000000\n        /* \"#utility.yul\":9064:9066   */\n      0x20\n        /* \"#utility.yul\":9056:9062   */\n      dup3\n        /* \"#utility.yul\":9052:9067   */\n      add\n        /* \"#utility.yul\":9045:9074   */\n      mstore\n        /* \"#utility.yul\":8860:9081   */\n      pop\n      jump\t// out\n        /* \"#utility.yul\":9087:9453   */\n    tag_85:\n        /* \"#utility.yul\":9229:9232   */\n      0x00\n        /* \"#utility.yul\":9250:9317   */\n      tag_171\n        /* \"#utility.yul\":9314:9316   */\n      0x22\n        /* \"#utility.yul\":9309:9312   */\n      dup4\n        /* \"#utility.yul\":9250:9317   */\n      tag_74\n      jump\t// in\n    tag_171:\n        /* \"#utility.yul\":9243:9317   */\n      swap2\n      pop\n        /* \"#utility.yul\":9326:9419   */\n      tag_172\n        /* \"#utility.yul\":9415:9418   */\n      dup3\n        /* \"#utility.yul\":9326:9419   */\n      tag_84\n      jump\t// in\n    tag_172:\n        /* \"#utility.yul\":9444:9446   */\n      0x40\n        /* \"#utility.yul\":9439:9442   */\n      dup3\n        /* \"#utility.yul\":9435:9447   */\n      add\n        /* \"#utility.yul\":9428:9447   */\n      swap1\n      pop\n        /* \"#utility.yul\":9087:9453   */\n      swap2\n      swap1\n      pop\n      jump\t// out\n        /* \"#utility.yul\":9459:9878   */\n    tag_54:\n        /* \"#utility.yul\":9625:9629   */\n      0x00\n        /* \"#utility.yul\":9663:9665   */\n      0x20\n        /* \"#utility.yul\":9652:9661   */\n      dup3\n        /* \"#utility.yul\":9648:9666   */\n      add\n        /* \"#utility.yul\":9640:9666   */\n      swap1\n      pop\n        /* \"#utility.yul\":9712:9721   */\n      dup2\n        /* \"#utility.yul\":9706:9710   */\n      dup2\n        /* \"#utility.yul\":9702:9722   */\n      sub\n        /* \"#utility.yul\":9698:9699   */\n      0x00\n        /* \"#utility.yul\":9687:9696   */\n      dup4\n        /* \"#utility.yul\":9683:9700   */\n      add\n        /* \"#utility.yul\":9676:9723   */\n      mstore\n        /* \"#utility.yul\":9740:9871   */\n      tag_174\n        /* \"#utility.yul\":9866:9870   */\n      dup2\n        /* \"#utility.yul\":9740:9871   */\n      tag_85\n      jump\t// in\n    tag_174:\n        /* \"#utility.yul\":9732:9871   */\n      swap1\n      pop\n        /* \"#utility.yul\":9459:9878   */\n      swap2\n      swap1\n      pop\n      jump\t// out\n        /* \"#utility.yul\":9884:10108   */\n    tag_86:\n        /* \"#utility.yul\":10024:10058   */\n      0x5374617274207072696365206d7573742062652067726561746572207468616e\n        /* \"#utility.yul\":10020:10021   */\n      0x00\n        /* \"#utility.yul\":10012:10018   */\n      dup3\n        /* \"#utility.yul\":10008:10022   */\n      add\n        /* \"#utility.yul\":10001:10059   */\n      mstore\n        /* \"#utility.yul\":10093:10100   */\n      0x207a65726f000000000000000000000000000000000000000000000000000000\n        /* \"#utility.yul\":10088:10090   */\n      0x20\n        /* \"#utility.yul\":10080:10086   */\n      dup3\n        /* \"#utility.yul\":10076:10091   */\n      add\n        /* \"#utility.yul\":10069:10101   */\n      mstore\n        /* \"#utility.yul\":9884:10108   */\n      pop\n      jump\t// out\n        /* \"#utility.yul\":10114:10480   */\n    tag_87:\n        /* \"#utility.yul\":10256:10259   */\n      0x00\n        /* \"#utility.yul\":10277:10344   */\n      tag_177\n        /* \"#utility.yul\":10341:10343   */\n      0x25\n        /* \"#utility.yul\":10336:10339   */\n      dup4\n        /* \"#utility.yul\":10277:10344   */\n      tag_74\n      jump\t// in\n    tag_177:\n        /* \"#utility.yul\":10270:10344   */\n      swap2\n      pop\n        /* \"#utility.yul\":10353:10446   */\n      tag_178\n        /* \"#utility.yul\":10442:10445   */\n      dup3\n        /* \"#utility.yul\":10353:10446   */\n      tag_86\n      jump\t// in\n    tag_178:\n        /* \"#utility.yul\":10471:10473   */\n      0x40\n        /* \"#utility.yul\":10466:10469   */\n      dup3\n        /* \"#utility.yul\":10462:10474   */\n      add\n        /* \"#utility.yul\":10455:10474   */\n      swap1\n      pop\n        /* \"#utility.yul\":10114:10480   */\n      swap2\n      swap1\n      pop\n      jump\t// out\n        /* \"#utility.yul\":10486:10905   */\n    tag_57:\n        /* \"#utility.yul\":10652:10656   */\n      0x00\n        /* \"#utility.yul\":10690:10692   */\n      0x20\n        /* \"#utility.yul\":10679:10688   */\n      dup3\n        /* \"#utility.yul\":10675:10693   */\n      add\n        /* \"#utility.yul\":10667:10693   */\n      swap1\n      pop\n        /* \"#utility.yul\":10739:10748   */\n      dup2\n        /* \"#utility.yul\":10733:10737   */\n      dup2\n        /* \"#utility.yul\":10729:10749   */\n      sub\n        /* \"#utility.yul\":10725:10726   */\n      0x00\n        /* \"#utility.yul\":10714:10723   */\n      dup4\n        /* \"#utility.yul\":10710:10727   */\n      add\n        /* \"#utility.yul\":10703:10750   */\n      mstore\n        /* \"#utility.yul\":10767:10898   */\n      tag_180\n        /* \"#utility.yul\":10893:10897   */\n      dup2\n        /* \"#utility.yul\":10767:10898   */\n      tag_87\n      jump\t// in\n    tag_180:\n        /* \"#utility.yul\":10759:10898   */\n      swap1\n      pop\n        /* \"#utility.yul\":10486:10905   */\n      swap2\n      swap1\n      pop\n      jump\t// out\n        /* \"#utility.yul\":10911:11144   */\n    tag_59:\n        /* \"#utility.yul\":10950:10953   */\n      0x00\n        /* \"#utility.yul\":10973:10997   */\n      tag_182\n        /* \"#utility.yul\":10991:10996   */\n      dup3\n        /* \"#utility.yul\":10973:10997   */\n      tag_63\n      jump\t// in\n    tag_182:\n        /* \"#utility.yul\":10964:10997   */\n      swap2\n      pop\n        /* \"#utility.yul\":11019:11085   */\n      0xffffffffffffffffffffffffffffffffffffffffffffffffffffffffffffffff\n        /* \"#utility.yul\":11012:11017   */\n      dup3\n        /* \"#utility.yul\":11009:11086   */\n      sub\n        /* \"#utility.yul\":11006:11109   */\n      tag_183\n      jumpi\n        /* \"#utility.yul\":11089:11107   */\n      tag_184\n      tag_77\n      jump\t// in\n    tag_184:\n        /* \"#utility.yul\":11006:11109   */\n    tag_183:\n        /* \"#utility.yul\":11136:11137   */\n      0x01\n        /* \"#utility.yul\":11129:11134   */\n      dup3\n        /* \"#utility.yul\":11125:11138   */\n      add\n        /* \"#utility.yul\":11118:11138   */\n      swap1\n      pop\n        /* \"#utility.yul\":10911:11144   */\n      swap2\n      swap1\n      pop\n      jump\t// out\n\n    auxdata: 0xa2646970667358221220094695bc4cb30d9e20e3f8ba7c88ab25edd3c85588b4fdd96754704150e6101064736f6c634300081e0033\n}\n",
				"bytecode": {
					"linkReferences": {},
					"object": "6080604052348015600e575f5ffd5b503360025f6101000a81548173ffffffffffffffffffffffffffffffffffffffff021916908373ffffffffffffffffffffffffffffffffffffffff160217905550610cfb8061005c5f395ff3fe608060405260043610610049575f3560e01c8063571a26a01461004d5780639979ef4514610091578063b1cb48ef146100ad578063f851a440146100d5578063fc528482146100ff575b5f5ffd5b348015610058575f5ffd5b50610073600480360381019061006e919061074e565b610129565b604051610088999897969594939291906107e1565b60405180910390f35b6100ab60048036038101906100a6919061074e565b6101dc565b005b3480156100b8575f5ffd5b506100d360048036038101906100ce9190610896565b6103fe565b005b3480156100e0575f5ffd5b506100e96106ec565b6040516100f691906108fa565b60405180910390f35b34801561010a575f5ffd5b50610113610711565b6040516101209190610913565b60405180910390f35b5f602052805f5260405f205f91509050805f015f9054906101000a900473ffffffffffffffffffffffffffffffffffffffff1690806001015490806002015490806003015490806004015f9054906101000a900460ff16908060040160019054906101000a900473ffffffffffffffffffffffffffffffffffffffff1690806005015490806006015f9054906101000a900473ffffffffffffffffffffffffffffffffffffffff16908060070154905089565b5f5f5f8381526020019081526020015f209050806004015f9054906101000a900460ff1615610240576040517f08c379a000000000000000000000000000000000000000000000000000000000815260040161023790610986565b60405180910390fd5b428160010154826003015461025591906109d1565b11610295576040517f08c379a000000000000000000000000000000000000000000000000000000000815260040161028c90610a4e565b60405180910390fd5b8060050154341180156102ab5750806002015434115b6102ea576040517f08c379a00000000000000000000000000000000000000000000000000000000081526004016102e190610adc565b60405180910390fd5b5f73ffffffffffffffffffffffffffffffffffffffff168160040160019054906101000a900473ffffffffffffffffffffffffffffffffffffffff1673ffffffffffffffffffffffffffffffffffffffff16146103ae578060040160019054906101000a900473ffffffffffffffffffffffffffffffffffffffff1673ffffffffffffffffffffffffffffffffffffffff166108fc826005015490811502906040515f60405180830381858888f193505050501580156103ac573d5f5f3e3d5ffd5b505b338160040160016101000a81548173ffffffffffffffffffffffffffffffffffffffff021916908373ffffffffffffffffffffffffffffffffffffffff1602179055503481600501819055505050565b60025f9054906101000a900473ffffffffffffffffffffffffffffffffffffffff1673ffffffffffffffffffffffffffffffffffffffff163373ffffffffffffffffffffffffffffffffffffffff161461048d576040517f08c379a000000000000000000000000000000000000000000000000000000000815260040161048490610b44565b60405180910390fd5b61ea6084116104d1576040517f08c379a00000000000000000000000000000000000000000000000000000000081526004016104c890610bd2565b60405180910390fd5b5f8311610513576040517f08c379a000000000000000000000000000000000000000000000000000000000815260040161050a90610c60565b60405180910390fd5b6040518061012001604052803373ffffffffffffffffffffffffffffffffffffffff1681526020018581526020018481526020014281526020015f151581526020015f73ffffffffffffffffffffffffffffffffffffffff1681526020015f81526020018373ffffffffffffffffffffffffffffffffffffffff168152602001828152505f5f60015481526020019081526020015f205f820151815f015f6101000a81548173ffffffffffffffffffffffffffffffffffffffff021916908373ffffffffffffffffffffffffffffffffffffffff1602179055506020820151816001015560408201518160020155606082015181600301556080820151816004015f6101000a81548160ff02191690831515021790555060a08201518160040160016101000a81548173ffffffffffffffffffffffffffffffffffffffff021916908373ffffffffffffffffffffffffffffffffffffffff16021790555060c0820151816005015560e0820151816006015f6101000a81548173ffffffffffffffffffffffffffffffffffffffff021916908373ffffffffffffffffffffffffffffffffffffffff160217905550610100820151816007015590505060015f8154809291906106e190610c7e565b919050555050505050565b60025f9054906101000a900473ffffffffffffffffffffffffffffffffffffffff1681565b60015481565b5f5ffd5b5f819050919050565b61072d8161071b565b8114610737575f5ffd5b50565b5f8135905061074881610724565b92915050565b5f6020828403121561076357610762610717565b5b5f6107708482850161073a565b91505092915050565b5f73ffffffffffffffffffffffffffffffffffffffff82169050919050565b5f6107a282610779565b9050919050565b6107b281610798565b82525050565b6107c18161071b565b82525050565b5f8115159050919050565b6107db816107c7565b82525050565b5f610120820190506107f55f83018c6107a9565b610802602083018b6107b8565b61080f604083018a6107b8565b61081c60608301896107b8565b61082960808301886107d2565b61083660a08301876107a9565b61084360c08301866107b8565b61085060e08301856107a9565b61085e6101008301846107b8565b9a9950505050505050505050565b61087581610798565b811461087f575f5ffd5b50565b5f813590506108908161086c565b92915050565b5f5f5f5f608085870312156108ae576108ad610717565b5b5f6108bb8782880161073a565b94505060206108cc8782880161073a565b93505060406108dd87828801610882565b92505060606108ee8782880161073a565b91505092959194509250565b5f60208201905061090d5f8301846107a9565b92915050565b5f6020820190506109265f8301846107b8565b92915050565b5f82825260208201905092915050565b7f41756374696f6e2068617320656e6465640000000000000000000000000000005f82015250565b5f61097060118361092c565b915061097b8261093c565b602082019050919050565b5f6020820190508181035f83015261099d81610964565b9050919050565b7f4e487b71000000000000000000000000000000000000000000000000000000005f52601160045260245ffd5b5f6109db8261071b565b91506109e68361071b565b92508282019050808211156109fe576109fd6109a4565b5b92915050565b7f41756374696f6e20686173206e6f7420737461727465642079657400000000005f82015250565b5f610a38601b8361092c565b9150610a4382610a04565b602082019050919050565b5f6020820190508181035f830152610a6581610a2c565b9050919050565b7f20426964206d75737420626520686967686572207468616e2063757272656e745f8201527f20686967686573742062696420616e6420737461727420707269636500000000602082015250565b5f610ac6603c8361092c565b9150610ad182610a6c565b604082019050919050565b5f6020820190508181035f830152610af381610aba565b9050919050565b7f4f6e6c792061646d696e2063616e206372656174652061756374696f6e0000005f82015250565b5f610b2e601d8361092c565b9150610b3982610afa565b602082019050919050565b5f6020820190508181035f830152610b5b81610b22565b9050919050565b7f4475726174696f6e206d757374206265206174206c656173742031206d696e755f8201527f7465000000000000000000000000000000000000000000000000000000000000602082015250565b5f610bbc60228361092c565b9150610bc782610b62565b604082019050919050565b5f6020820190508181035f830152610be981610bb0565b9050919050565b7f5374617274207072696365206d7573742062652067726561746572207468616e5f8201527f207a65726f000000000000000000000000000000000000000000000000000000602082015250565b5f610c4a60258361092c565b9150610c5582610bf0565b604082019050919050565b5f6020820190508181035f830152610c7781610c3e565b9050919050565b5f610c888261071b565b91507fffffffffffffffffffffffffffffffffffffffffffffffffffffffffffffffff8203610cba57610cb96109a4565b5b60018201905091905056fea2646970667358221220094695bc4cb30d9e20e3f8ba7c88ab25edd3c85588b4fdd96754704150e6101064736f6c634300081e0033",
					"opcodes": "PUSH1 0x80 PUSH1 0x40 MSTORE CALLVALUE DUP1 ISZERO PUSH1 0xE JUMPI PUSH0 PUSH0 REVERT JUMPDEST POP CALLER PUSH1 0x2 PUSH0 PUSH2 0x100 EXP DUP2 SLOAD DUP2 PUSH20 0xFFFFFFFFFFFFFFFFFFFFFFFFFFFFFFFFFFFFFFFF MUL NOT AND SWAP1 DUP4 PUSH20 0xFFFFFFFFFFFFFFFFFFFFFFFFFFFFFFFFFFFFFFFF AND MUL OR SWAP1 SSTORE POP PUSH2 0xCFB DUP1 PUSH2 0x5C PUSH0 CODECOPY PUSH0 RETURN INVALID PUSH1 0x80 PUSH1 0x40 MSTORE PUSH1 0x4 CALLDATASIZE LT PUSH2 0x49 JUMPI PUSH0 CALLDATALOAD PUSH1 0xE0 SHR DUP1 PUSH4 0x571A26A0 EQ PUSH2 0x4D JUMPI DUP1 PUSH4 0x9979EF45 EQ PUSH2 0x91 JUMPI DUP1 PUSH4 0xB1CB48EF EQ PUSH2 0xAD JUMPI DUP1 PUSH4 0xF851A440 EQ PUSH2 0xD5 JUMPI DUP1 PUSH4 0xFC528482 EQ PUSH2 0xFF JUMPI JUMPDEST PUSH0 PUSH0 REVERT JUMPDEST CALLVALUE DUP1 ISZERO PUSH2 0x58 JUMPI PUSH0 PUSH0 REVERT JUMPDEST POP PUSH2 0x73 PUSH1 0x4 DUP1 CALLDATASIZE SUB DUP2 ADD SWAP1 PUSH2 0x6E SWAP2 SWAP1 PUSH2 0x74E JUMP JUMPDEST PUSH2 0x129 JUMP JUMPDEST PUSH1 0x40 MLOAD PUSH2 0x88 SWAP10 SWAP9 SWAP8 SWAP7 SWAP6 SWAP5 SWAP4 SWAP3 SWAP2 SWAP1 PUSH2 0x7E1 JUMP JUMPDEST PUSH1 0x40 MLOAD DUP1 SWAP2 SUB SWAP1 RETURN JUMPDEST PUSH2 0xAB PUSH1 0x4 DUP1 CALLDATASIZE SUB DUP2 ADD SWAP1 PUSH2 0xA6 SWAP2 SWAP1 PUSH2 0x74E JUMP JUMPDEST PUSH2 0x1DC JUMP JUMPDEST STOP JUMPDEST CALLVALUE DUP1 ISZERO PUSH2 0xB8 JUMPI PUSH0 PUSH0 REVERT JUMPDEST POP PUSH2 0xD3 PUSH1 0x4 DUP1 CALLDATASIZE SUB DUP2 ADD SWAP1 PUSH2 0xCE SWAP2 SWAP1 PUSH2 0x896 JUMP JUMPDEST PUSH2 0x3FE JUMP JUMPDEST STOP JUMPDEST CALLVALUE DUP1 ISZERO PUSH2 0xE0 JUMPI PUSH0 PUSH0 REVERT JUMPDEST POP PUSH2 0xE9 PUSH2 0x6EC JUMP JUMPDEST PUSH1 0x40 MLOAD PUSH2 0xF6 SWAP2 SWAP1 PUSH2 0x8FA JUMP JUMPDEST PUSH1 0x40 MLOAD DUP1 SWAP2 SUB SWAP1 RETURN JUMPDEST CALLVALUE DUP1 ISZERO PUSH2 0x10A JUMPI PUSH0 PUSH0 REVERT JUMPDEST POP PUSH2 0x113 PUSH2 0x711 JUMP JUMPDEST PUSH1 0x40 MLOAD PUSH2 0x120 SWAP2 SWAP1 PUSH2 0x913 JUMP JUMPDEST PUSH1 0x40 MLOAD DUP1 SWAP2 SUB SWAP1 RETURN JUMPDEST PUSH0 PUSH1 0x20 MSTORE DUP1 PUSH0 MSTORE PUSH1 0x40 PUSH0 KECCAK256 PUSH0 SWAP2 POP SWAP1 POP DUP1 PUSH0 ADD PUSH0 SWAP1 SLOAD SWAP1 PUSH2 0x100 EXP SWAP1 DIV PUSH20 0xFFFFFFFFFFFFFFFFFFFFFFFFFFFFFFFFFFFFFFFF AND SWAP1 DUP1 PUSH1 0x1 ADD SLOAD SWAP1 DUP1 PUSH1 0x2 ADD SLOAD SWAP1 DUP1 PUSH1 0x3 ADD SLOAD SWAP1 DUP1 PUSH1 0x4 ADD PUSH0 SWAP1 SLOAD SWAP1 PUSH2 0x100 EXP SWAP1 DIV PUSH1 0xFF AND SWAP1 DUP1 PUSH1 0x4 ADD PUSH1 0x1 SWAP1 SLOAD SWAP1 PUSH2 0x100 EXP SWAP1 DIV PUSH20 0xFFFFFFFFFFFFFFFFFFFFFFFFFFFFFFFFFFFFFFFF AND SWAP1 DUP1 PUSH1 0x5 ADD SLOAD SWAP1 DUP1 PUSH1 0x6 ADD PUSH0 SWAP1 SLOAD SWAP1 PUSH2 0x100 EXP SWAP1 DIV PUSH20 0xFFFFFFFFFFFFFFFFFFFFFFFFFFFFFFFFFFFFFFFF AND SWAP1 DUP1 PUSH1 0x7 ADD SLOAD SWAP1 POP DUP10 JUMP JUMPDEST PUSH0 PUSH0 PUSH0 DUP4 DUP2 MSTORE PUSH1 0x20 ADD SWAP1 DUP2 MSTORE PUSH1 0x20 ADD PUSH0 KECCAK256 SWAP1 POP DUP1 PUSH1 0x4 ADD PUSH0 SWAP1 SLOAD SWAP1 PUSH2 0x100 EXP SWAP1 DIV PUSH1 0xFF AND ISZERO PUSH2 0x240 JUMPI PUSH1 0x40 MLOAD PUSH32 0x8C379A000000000000000000000000000000000000000000000000000000000 DUP2 MSTORE PUSH1 0x4 ADD PUSH2 0x237 SWAP1 PUSH2 0x986 JUMP JUMPDEST PUSH1 0x40 MLOAD DUP1 SWAP2 SUB SWAP1 REVERT JUMPDEST TIMESTAMP DUP2 PUSH1 0x1 ADD SLOAD DUP3 PUSH1 0x3 ADD SLOAD PUSH2 0x255 SWAP2 SWAP1 PUSH2 0x9D1 JUMP JUMPDEST GT PUSH2 0x295 JUMPI PUSH1 0x40 MLOAD PUSH32 0x8C379A000000000000000000000000000000000000000000000000000000000 DUP2 MSTORE PUSH1 0x4 ADD PUSH2 0x28C SWAP1 PUSH2 0xA4E JUMP JUMPDEST PUSH1 0x40 MLOAD DUP1 SWAP2 SUB SWAP1 REVERT JUMPDEST DUP1 PUSH1 0x5 ADD SLOAD CALLVALUE GT DUP1 ISZERO PUSH2 0x2AB JUMPI POP DUP1 PUSH1 0x2 ADD SLOAD CALLVALUE GT JUMPDEST PUSH2 0x2EA JUMPI PUSH1 0x40 MLOAD PUSH32 0x8C379A000000000000000000000000000000000000000000000000000000000 DUP2 MSTORE PUSH1 0x4 ADD PUSH2 0x2E1 SWAP1 PUSH2 0xADC JUMP JUMPDEST PUSH1 0x40 MLOAD DUP1 SWAP2 SUB SWAP1 REVERT JUMPDEST PUSH0 PUSH20 0xFFFFFFFFFFFFFFFFFFFFFFFFFFFFFFFFFFFFFFFF AND DUP2 PUSH1 0x4 ADD PUSH1 0x1 SWAP1 SLOAD SWAP1 PUSH2 0x100 EXP SWAP1 DIV PUSH20 0xFFFFFFFFFFFFFFFFFFFFFFFFFFFFFFFFFFFFFFFF AND PUSH20 0xFFFFFFFFFFFFFFFFFFFFFFFFFFFFFFFFFFFFFFFF AND EQ PUSH2 0x3AE JUMPI DUP1 PUSH1 0x4 ADD PUSH1 0x1 SWAP1 SLOAD SWAP1 PUSH2 0x100 EXP SWAP1 DIV PUSH20 0xFFFFFFFFFFFFFFFFFFFFFFFFFFFFFFFFFFFFFFFF AND PUSH20 0xFFFFFFFFFFFFFFFFFFFFFFFFFFFFFFFFFFFFFFFF AND PUSH2 0x8FC DUP3 PUSH1 0x5 ADD SLOAD SWAP1 DUP2 ISZERO MUL SWAP1 PUSH1 0x40 MLOAD PUSH0 PUSH1 0x40 MLOAD DUP1 DUP4 SUB DUP2 DUP6 DUP9 DUP9 CALL SWAP4 POP POP POP POP ISZERO DUP1 ISZERO PUSH2 0x3AC JUMPI RETURNDATASIZE PUSH0 PUSH0 RETURNDATACOPY RETURNDATASIZE PUSH0 REVERT JUMPDEST POP JUMPDEST CALLER DUP2 PUSH1 0x4 ADD PUSH1 0x1 PUSH2 0x100 EXP DUP2 SLOAD DUP2 PUSH20 0xFFFFFFFFFFFFFFFFFFFFFFFFFFFFFFFFFFFFFFFF MUL NOT AND SWAP1 DUP4 PUSH20 0xFFFFFFFFFFFFFFFFFFFFFFFFFFFFFFFFFFFFFFFF AND MUL OR SWAP1 SSTORE POP CALLVALUE DUP2 PUSH1 0x5 ADD DUP2 SWAP1 SSTORE POP POP POP JUMP JUMPDEST PUSH1 0x2 PUSH0 SWAP1 SLOAD SWAP1 PUSH2 0x100 EXP SWAP1 DIV PUSH20 0xFFFFFFFFFFFFFFFFFFFFFFFFFFFFFFFFFFFFFFFF AND PUSH20 0xFFFFFFFFFFFFFFFFFFFFFFFFFFFFFFFFFFFFFFFF AND CALLER PUSH20 0xFFFFFFFFFFFFFFFFFFFFFFFFFFFFFFFFFFFFFFFF AND EQ PUSH2 0x48D JUMPI PUSH1 0x40 MLOAD PUSH32 0x8C379A000000000000000000000000000000000000000000000000000000000 DUP2 MSTORE PUSH1 0x4 ADD PUSH2 0x484 SWAP1 PUSH2 0xB44 JUMP JUMPDEST PUSH1 0x40 MLOAD DUP1 SWAP2 SUB SWAP1 REVERT JUMPDEST PUSH2 0xEA60 DUP5 GT PUSH2 0x4D1 JUMPI PUSH1 0x40 MLOAD PUSH32 0x8C379A000000000000000000000000000000000000000000000000000000000 DUP2 MSTORE PUSH1 0x4 ADD PUSH2 0x4C8 SWAP1 PUSH2 0xBD2 JUMP JUMPDEST PUSH1 0x40 MLOAD DUP1 SWAP2 SUB SWAP1 REVERT JUMPDEST PUSH0 DUP4 GT PUSH2 0x513 JUMPI PUSH1 0x40 MLOAD PUSH32 0x8C379A000000000000000000000000000000000000000000000000000000000 DUP2 MSTORE PUSH1 0x4 ADD PUSH2 0x50A SWAP1 PUSH2 0xC60 JUMP JUMPDEST PUSH1 0x40 MLOAD DUP1 SWAP2 SUB SWAP1 REVERT JUMPDEST PUSH1 0x40 MLOAD DUP1 PUSH2 0x120 ADD PUSH1 0x40 MSTORE DUP1 CALLER PUSH20 0xFFFFFFFFFFFFFFFFFFFFFFFFFFFFFFFFFFFFFFFF AND DUP2 MSTORE PUSH1 0x20 ADD DUP6 DUP2 MSTORE PUSH1 0x20 ADD DUP5 DUP2 MSTORE PUSH1 0x20 ADD TIMESTAMP DUP2 MSTORE PUSH1 0x20 ADD PUSH0 ISZERO ISZERO DUP2 MSTORE PUSH1 0x20 ADD PUSH0 PUSH20 0xFFFFFFFFFFFFFFFFFFFFFFFFFFFFFFFFFFFFFFFF AND DUP2 MSTORE PUSH1 0x20 ADD PUSH0 DUP2 MSTORE PUSH1 0x20 ADD DUP4 PUSH20 0xFFFFFFFFFFFFFFFFFFFFFFFFFFFFFFFFFFFFFFFF AND DUP2 MSTORE PUSH1 0x20 ADD DUP3 DUP2 MSTORE POP PUSH0 PUSH0 PUSH1 0x1 SLOAD DUP2 MSTORE PUSH1 0x20 ADD SWAP1 DUP2 MSTORE PUSH1 0x20 ADD PUSH0 KECCAK256 PUSH0 DUP3 ADD MLOAD DUP2 PUSH0 ADD PUSH0 PUSH2 0x100 EXP DUP2 SLOAD DUP2 PUSH20 0xFFFFFFFFFFFFFFFFFFFFFFFFFFFFFFFFFFFFFFFF MUL NOT AND SWAP1 DUP4 PUSH20 0xFFFFFFFFFFFFFFFFFFFFFFFFFFFFFFFFFFFFFFFF AND MUL OR SWAP1 SSTORE POP PUSH1 0x20 DUP3 ADD MLOAD DUP2 PUSH1 0x1 ADD SSTORE PUSH1 0x40 DUP3 ADD MLOAD DUP2 PUSH1 0x2 ADD SSTORE PUSH1 0x60 DUP3 ADD MLOAD DUP2 PUSH1 0x3 ADD SSTORE PUSH1 0x80 DUP3 ADD MLOAD DUP2 PUSH1 0x4 ADD PUSH0 PUSH2 0x100 EXP DUP2 SLOAD DUP2 PUSH1 0xFF MUL NOT AND SWAP1 DUP4 ISZERO ISZERO MUL OR SWAP1 SSTORE POP PUSH1 0xA0 DUP3 ADD MLOAD DUP2 PUSH1 0x4 ADD PUSH1 0x1 PUSH2 0x100 EXP DUP2 SLOAD DUP2 PUSH20 0xFFFFFFFFFFFFFFFFFFFFFFFFFFFFFFFFFFFFFFFF MUL NOT AND SWAP1 DUP4 PUSH20 0xFFFFFFFFFFFFFFFFFFFFFFFFFFFFFFFFFFFFFFFF AND MUL OR SWAP1 SSTORE POP PUSH1 0xC0 DUP3 ADD MLOAD DUP2 PUSH1 0x5 ADD SSTORE PUSH1 0xE0 DUP3 ADD MLOAD DUP2 PUSH1 0x6 ADD PUSH0 PUSH2 0x100 EXP DUP2 SLOAD DUP2 PUSH20 0xFFFFFFFFFFFFFFFFFFFFFFFFFFFFFFFFFFFFFFFF MUL NOT AND SWAP1 DUP4 PUSH20 0xFFFFFFFFFFFFFFFFFFFFFFFFFFFFFFFFFFFFFFFF AND MUL OR SWAP1 SSTORE POP PUSH2 0x100 DUP3 ADD MLOAD DUP2 PUSH1 0x7 ADD SSTORE SWAP1 POP POP PUSH1 0x1 PUSH0 DUP2 SLOAD DUP1 SWAP3 SWAP2 SWAP1 PUSH2 0x6E1 SWAP1 PUSH2 0xC7E JUMP JUMPDEST SWAP2 SWAP1 POP SSTORE POP POP POP POP POP JUMP JUMPDEST PUSH1 0x2 PUSH0 SWAP1 SLOAD SWAP1 PUSH2 0x100 EXP SWAP1 DIV PUSH20 0xFFFFFFFFFFFFFFFFFFFFFFFFFFFFFFFFFFFFFFFF AND DUP2 JUMP JUMPDEST PUSH1 0x1 SLOAD DUP2 JUMP JUMPDEST PUSH0 PUSH0 REVERT JUMPDEST PUSH0 DUP2 SWAP1 POP SWAP2 SWAP1 POP JUMP JUMPDEST PUSH2 0x72D DUP2 PUSH2 0x71B JUMP JUMPDEST DUP2 EQ PUSH2 0x737 JUMPI PUSH0 PUSH0 REVERT JUMPDEST POP JUMP JUMPDEST PUSH0 DUP2 CALLDATALOAD SWAP1 POP PUSH2 0x748 DUP2 PUSH2 0x724 JUMP JUMPDEST SWAP3 SWAP2 POP POP JUMP JUMPDEST PUSH0 PUSH1 0x20 DUP3 DUP5 SUB SLT ISZERO PUSH2 0x763 JUMPI PUSH2 0x762 PUSH2 0x717 JUMP JUMPDEST JUMPDEST PUSH0 PUSH2 0x770 DUP5 DUP3 DUP6 ADD PUSH2 0x73A JUMP JUMPDEST SWAP2 POP POP SWAP3 SWAP2 POP POP JUMP JUMPDEST PUSH0 PUSH20 0xFFFFFFFFFFFFFFFFFFFFFFFFFFFFFFFFFFFFFFFF DUP3 AND SWAP1 POP SWAP2 SWAP1 POP JUMP JUMPDEST PUSH0 PUSH2 0x7A2 DUP3 PUSH2 0x779 JUMP JUMPDEST SWAP1 POP SWAP2 SWAP1 POP JUMP JUMPDEST PUSH2 0x7B2 DUP2 PUSH2 0x798 JUMP JUMPDEST DUP3 MSTORE POP POP JUMP JUMPDEST PUSH2 0x7C1 DUP2 PUSH2 0x71B JUMP JUMPDEST DUP3 MSTORE POP POP JUMP JUMPDEST PUSH0 DUP2 ISZERO ISZERO SWAP1 POP SWAP2 SWAP1 POP JUMP JUMPDEST PUSH2 0x7DB DUP2 PUSH2 0x7C7 JUMP JUMPDEST DUP3 MSTORE POP POP JUMP JUMPDEST PUSH0 PUSH2 0x120 DUP3 ADD SWAP1 POP PUSH2 0x7F5 PUSH0 DUP4 ADD DUP13 PUSH2 0x7A9 JUMP JUMPDEST PUSH2 0x802 PUSH1 0x20 DUP4 ADD DUP12 PUSH2 0x7B8 JUMP JUMPDEST PUSH2 0x80F PUSH1 0x40 DUP4 ADD DUP11 PUSH2 0x7B8 JUMP JUMPDEST PUSH2 0x81C PUSH1 0x60 DUP4 ADD DUP10 PUSH2 0x7B8 JUMP JUMPDEST PUSH2 0x829 PUSH1 0x80 DUP4 ADD DUP9 PUSH2 0x7D2 JUMP JUMPDEST PUSH2 0x836 PUSH1 0xA0 DUP4 ADD DUP8 PUSH2 0x7A9 JUMP JUMPDEST PUSH2 0x843 PUSH1 0xC0 DUP4 ADD DUP7 PUSH2 0x7B8 JUMP JUMPDEST PUSH2 0x850 PUSH1 0xE0 DUP4 ADD DUP6 PUSH2 0x7A9 JUMP JUMPDEST PUSH2 0x85E PUSH2 0x100 DUP4 ADD DUP5 PUSH2 0x7B8 JUMP JUMPDEST SWAP11 SWAP10 POP POP POP POP POP POP POP POP POP POP JUMP JUMPDEST PUSH2 0x875 DUP2 PUSH2 0x798 JUMP JUMPDEST DUP2 EQ PUSH2 0x87F JUMPI PUSH0 PUSH0 REVERT JUMPDEST POP JUMP JUMPDEST PUSH0 DUP2 CALLDATALOAD SWAP1 POP PUSH2 0x890 DUP2 PUSH2 0x86C JUMP JUMPDEST SWAP3 SWAP2 POP POP JUMP JUMPDEST PUSH0 PUSH0 PUSH0 PUSH0 PUSH1 0x80 DUP6 DUP8 SUB SLT ISZERO PUSH2 0x8AE JUMPI PUSH2 0x8AD PUSH2 0x717 JUMP JUMPDEST JUMPDEST PUSH0 PUSH2 0x8BB DUP8 DUP3 DUP9 ADD PUSH2 0x73A JUMP JUMPDEST SWAP5 POP POP PUSH1 0x20 PUSH2 0x8CC DUP8 DUP3 DUP9 ADD PUSH2 0x73A JUMP JUMPDEST SWAP4 POP POP PUSH1 0x40 PUSH2 0x8DD DUP8 DUP3 DUP9 ADD PUSH2 0x882 JUMP JUMPDEST SWAP3 POP POP PUSH1 0x60 PUSH2 0x8EE DUP8 DUP3 DUP9 ADD PUSH2 0x73A JUMP JUMPDEST SWAP2 POP POP SWAP3 SWAP6 SWAP2 SWAP5 POP SWAP3 POP JUMP JUMPDEST PUSH0 PUSH1 0x20 DUP3 ADD SWAP1 POP PUSH2 0x90D PUSH0 DUP4 ADD DUP5 PUSH2 0x7A9 JUMP JUMPDEST SWAP3 SWAP2 POP POP JUMP JUMPDEST PUSH0 PUSH1 0x20 DUP3 ADD SWAP1 POP PUSH2 0x926 PUSH0 DUP4 ADD DUP5 PUSH2 0x7B8 JUMP JUMPDEST SWAP3 SWAP2 POP POP JUMP JUMPDEST PUSH0 DUP3 DUP3 MSTORE PUSH1 0x20 DUP3 ADD SWAP1 POP SWAP3 SWAP2 POP POP JUMP JUMPDEST PUSH32 0x41756374696F6E2068617320656E646564000000000000000000000000000000 PUSH0 DUP3 ADD MSTORE POP JUMP JUMPDEST PUSH0 PUSH2 0x970 PUSH1 0x11 DUP4 PUSH2 0x92C JUMP JUMPDEST SWAP2 POP PUSH2 0x97B DUP3 PUSH2 0x93C JUMP JUMPDEST PUSH1 0x20 DUP3 ADD SWAP1 POP SWAP2 SWAP1 POP JUMP JUMPDEST PUSH0 PUSH1 0x20 DUP3 ADD SWAP1 POP DUP2 DUP2 SUB PUSH0 DUP4 ADD MSTORE PUSH2 0x99D DUP2 PUSH2 0x964 JUMP JUMPDEST SWAP1 POP SWAP2 SWAP1 POP JUMP JUMPDEST PUSH32 0x4E487B7100000000000000000000000000000000000000000000000000000000 PUSH0 MSTORE PUSH1 0x11 PUSH1 0x4 MSTORE PUSH1 0x24 PUSH0 REVERT JUMPDEST PUSH0 PUSH2 0x9DB DUP3 PUSH2 0x71B JUMP JUMPDEST SWAP2 POP PUSH2 0x9E6 DUP4 PUSH2 0x71B JUMP JUMPDEST SWAP3 POP DUP3 DUP3 ADD SWAP1 POP DUP1 DUP3 GT ISZERO PUSH2 0x9FE JUMPI PUSH2 0x9FD PUSH2 0x9A4 JUMP JUMPDEST JUMPDEST SWAP3 SWAP2 POP POP JUMP JUMPDEST PUSH32 0x41756374696F6E20686173206E6F742073746172746564207965740000000000 PUSH0 DUP3 ADD MSTORE POP JUMP JUMPDEST PUSH0 PUSH2 0xA38 PUSH1 0x1B DUP4 PUSH2 0x92C JUMP JUMPDEST SWAP2 POP PUSH2 0xA43 DUP3 PUSH2 0xA04 JUMP JUMPDEST PUSH1 0x20 DUP3 ADD SWAP1 POP SWAP2 SWAP1 POP JUMP JUMPDEST PUSH0 PUSH1 0x20 DUP3 ADD SWAP1 POP DUP2 DUP2 SUB PUSH0 DUP4 ADD MSTORE PUSH2 0xA65 DUP2 PUSH2 0xA2C JUMP JUMPDEST SWAP1 POP SWAP2 SWAP1 POP JUMP JUMPDEST PUSH32 0x20426964206D75737420626520686967686572207468616E2063757272656E74 PUSH0 DUP3 ADD MSTORE PUSH32 0x20686967686573742062696420616E6420737461727420707269636500000000 PUSH1 0x20 DUP3 ADD MSTORE POP JUMP JUMPDEST PUSH0 PUSH2 0xAC6 PUSH1 0x3C DUP4 PUSH2 0x92C JUMP JUMPDEST SWAP2 POP PUSH2 0xAD1 DUP3 PUSH2 0xA6C JUMP JUMPDEST PUSH1 0x40 DUP3 ADD SWAP1 POP SWAP2 SWAP1 POP JUMP JUMPDEST PUSH0 PUSH1 0x20 DUP3 ADD SWAP1 POP DUP2 DUP2 SUB PUSH0 DUP4 ADD MSTORE PUSH2 0xAF3 DUP2 PUSH2 0xABA JUMP JUMPDEST SWAP1 POP SWAP2 SWAP1 POP JUMP JUMPDEST PUSH32 0x4F6E6C792061646D696E2063616E206372656174652061756374696F6E000000 PUSH0 DUP3 ADD MSTORE POP JUMP JUMPDEST PUSH0 PUSH2 0xB2E PUSH1 0x1D DUP4 PUSH2 0x92C JUMP JUMPDEST SWAP2 POP PUSH2 0xB39 DUP3 PUSH2 0xAFA JUMP JUMPDEST PUSH1 0x20 DUP3 ADD SWAP1 POP SWAP2 SWAP1 POP JUMP JUMPDEST PUSH0 PUSH1 0x20 DUP3 ADD SWAP1 POP DUP2 DUP2 SUB PUSH0 DUP4 ADD MSTORE PUSH2 0xB5B DUP2 PUSH2 0xB22 JUMP JUMPDEST SWAP1 POP SWAP2 SWAP1 POP JUMP JUMPDEST PUSH32 0x4475726174696F6E206D757374206265206174206C656173742031206D696E75 PUSH0 DUP3 ADD MSTORE PUSH32 0x7465000000000000000000000000000000000000000000000000000000000000 PUSH1 0x20 DUP3 ADD MSTORE POP JUMP JUMPDEST PUSH0 PUSH2 0xBBC PUSH1 0x22 DUP4 PUSH2 0x92C JUMP JUMPDEST SWAP2 POP PUSH2 0xBC7 DUP3 PUSH2 0xB62 JUMP JUMPDEST PUSH1 0x40 DUP3 ADD SWAP1 POP SWAP2 SWAP1 POP JUMP JUMPDEST PUSH0 PUSH1 0x20 DUP3 ADD SWAP1 POP DUP2 DUP2 SUB PUSH0 DUP4 ADD MSTORE PUSH2 0xBE9 DUP2 PUSH2 0xBB0 JUMP JUMPDEST SWAP1 POP SWAP2 SWAP1 POP JUMP JUMPDEST PUSH32 0x5374617274207072696365206D7573742062652067726561746572207468616E PUSH0 DUP3 ADD MSTORE PUSH32 0x207A65726F000000000000000000000000000000000000000000000000000000 PUSH1 0x20 DUP3 ADD MSTORE POP JUMP JUMPDEST PUSH0 PUSH2 0xC4A PUSH1 0x25 DUP4 PUSH2 0x92C JUMP JUMPDEST SWAP2 POP PUSH2 0xC55 DUP3 PUSH2 0xBF0 JUMP JUMPDEST PUSH1 0x40 DUP3 ADD SWAP1 POP SWAP2 SWAP1 POP JUMP JUMPDEST PUSH0 PUSH1 0x20 DUP3 ADD SWAP1 POP DUP2 DUP2 SUB PUSH0 DUP4 ADD MSTORE PUSH2 0xC77 DUP2 PUSH2 0xC3E JUMP JUMPDEST SWAP1 POP SWAP2 SWAP1 POP JUMP JUMPDEST PUSH0 PUSH2 0xC88 DUP3 PUSH2 0x71B JUMP JUMPDEST SWAP2 POP PUSH32 0xFFFFFFFFFFFFFFFFFFFFFFFFFFFFFFFFFFFFFFFFFFFFFFFFFFFFFFFFFFFFFFFF DUP3 SUB PUSH2 0xCBA JUMPI PUSH2 0xCB9 PUSH2 0x9A4 JUMP JUMPDEST JUMPDEST PUSH1 0x1 DUP3 ADD SWAP1 POP SWAP2 SWAP1 POP JUMP INVALID LOG2 PUSH5 0x6970667358 0x22 SLT KECCAK256 MULMOD CHAINID SWAP6 0xBC 0x4C 0xB3 0xD SWAP15 KECCAK256 CALLF 0xF8BA PUSH29 0x88AB25EDD3C85588B4FDD96754704150E6101064736F6C634300081E00 CALLER "
				},
				"gasEstimates": {
					"creation": {
						"codeDepositCost": "664600",
						"executionCost": "24959",
						"totalCost": "689559"
					},
					"external": {
						"admin()": "2552",
						"auctions(uint256)": "infinite",
						"createAuction(uint256,uint256,address,uint256)": "infinite",
						"nextAuctionId()": "2491",
						"placeBid(uint256)": "infinite"
					}
				},
				"methodIdentifiers": {
					"admin()": "f851a440",
					"auctions(uint256)": "571a26a0",
					"createAuction(uint256,uint256,address,uint256)": "b1cb48ef",
					"nextAuctionId()": "fc528482",
					"placeBid(uint256)": "9979ef45"
				}
			},
			"storageLayout": {
				"storage": [
					{
						"astId": 25,
						"contract": "contracts/NftAuction.sol:NftAuction",
						"label": "auctions",
						"offset": 0,
						"slot": "0",
						"type": "t_mapping(t_uint256,t_struct(Auction)20_storage)"
					},
					{
						"astId": 27,
						"contract": "contracts/NftAuction.sol:NftAuction",
						"label": "nextAuctionId",
						"offset": 0,
						"slot": "1",
						"type": "t_uint256"
					},
					{
						"astId": 29,
						"contract": "contracts/NftAuction.sol:NftAuction",
						"label": "admin",
						"offset": 0,
						"slot": "2",
						"type": "t_address"
					}
				],
				"types": {
					"t_address": {
						"encoding": "inplace",
						"label": "address",
						"numberOfBytes": "20"
					},
					"t_bool": {
						"encoding": "inplace",
						"label": "bool",
						"numberOfBytes": "1"
					},
					"t_mapping(t_uint256,t_struct(Auction)20_storage)": {
						"encoding": "mapping",
						"key": "t_uint256",
						"label": "mapping(uint256 => struct NftAuction.Auction)",
						"numberOfBytes": "32",
						"value": "t_struct(Auction)20_storage"
					},
					"t_struct(Auction)20_storage": {
						"encoding": "inplace",
						"label": "struct NftAuction.Auction",
						"members": [
							{
								"astId": 3,
								"contract": "contracts/NftAuction.sol:NftAuction",
								"label": "seller",
								"offset": 0,
								"slot": "0",
								"type": "t_address"
							},
							{
								"astId": 5,
								"contract": "contracts/NftAuction.sol:NftAuction",
								"label": "duration",
								"offset": 0,
								"slot": "1",
								"type": "t_uint256"
							},
							{
								"astId": 7,
								"contract": "contracts/NftAuction.sol:NftAuction",
								"label": "startPrice",
								"offset": 0,
								"slot": "2",
								"type": "t_uint256"
							},
							{
								"astId": 9,
								"contract": "contracts/NftAuction.sol:NftAuction",
								"label": "startTime",
								"offset": 0,
								"slot": "3",
								"type": "t_uint256"
							},
							{
								"astId": 11,
								"contract": "contracts/NftAuction.sol:NftAuction",
								"label": "ended",
								"offset": 0,
								"slot": "4",
								"type": "t_bool"
							},
							{
								"astId": 13,
								"contract": "contracts/NftAuction.sol:NftAuction",
								"label": "highestBidder",
								"offset": 1,
								"slot": "4",
								"type": "t_address"
							},
							{
								"astId": 15,
								"contract": "contracts/NftAuction.sol:NftAuction",
								"label": "highestBid",
								"offset": 0,
								"slot": "5",
								"type": "t_uint256"
							},
							{
								"astId": 17,
								"contract": "contracts/NftAuction.sol:NftAuction",
								"label": "nftContract",
								"offset": 0,
								"slot": "6",
								"type": "t_address"
							},
							{
								"astId": 19,
								"contract": "contracts/NftAuction.sol:NftAuction",
								"label": "tokenId",
								"offset": 0,
								"slot": "7",
								"type": "t_uint256"
							}
						],
						"numberOfBytes": "256"
					},
					"t_uint256": {
						"encoding": "inplace",
						"label": "uint256",
						"numberOfBytes": "32"
					}
				}
			},
			"userdoc": {
				"kind": "user",
				"methods": {},
				"version": 1
			}
		}
	}
}