{
	"contracts/NftAuction.sol": {
		"NftAuction": {
			"abi": [
				{
					"inputs": [],
					"stateMutability": "nonpayable",
					"type": "constructor"
				},
				{
					"inputs": [],
					"name": "admin",
					"outputs": [
						{
							"internalType": "address",
							"name": "",
							"type": "address"
						}
					],
					"stateMutability": "view",
					"type": "function"
				},
				{
					"inputs": [
						{
							"internalType": "uint256",
							"name": "",
							"type": "uint256"
						}
					],
					"name": "auctions",
					"outputs": [
						{
							"internalType": "address",
							"name": "seller",
							"type": "address"
						},
						{
							"internalType": "uint256",
							"name": "duration",
							"type": "uint256"
						},
						{
							"internalType": "uint256",
							"name": "startPrice",
							"type": "uint256"
						},
						{
							"internalType": "uint256",
							"name": "startTime",
							"type": "uint256"
						},
						{
							"internalType": "bool",
							"name": "ended",
							"type": "bool"
						},
						{
							"internalType": "address",
							"name": "highestBidder",
							"type": "address"
						},
						{
							"internalType": "uint256",
							"name": "highestBid",
							"type": "uint256"
						}
					],
					"stateMutability": "view",
					"type": "function"
				},
				{
					"inputs": [
						{
							"internalType": "uint256",
							"name": "_duration",
							"type": "uint256"
						},
						{
							"internalType": "uint256",
							"name": "_startPrice",
							"type": "uint256"
						}
					],
					"name": "createAuction",
					"outputs": [],
					"stateMutability": "nonpayable",
					"type": "function"
				},
				{
					"inputs": [],
					"name": "nextAuctionId",
					"outputs": [
						{
							"internalType": "uint256",
							"name": "",
							"type": "uint256"
						}
					],
					"stateMutability": "view",
					"type": "function"
				},
				{
					"inputs": [
						{
							"internalType": "uint256",
							"name": "_auctionID",
							"type": "uint256"
						}
					],
					"name": "placeBid",
					"outputs": [],
					"stateMutability": "payable",
					"type": "function"
				}
			],
			"devdoc": {
				"kind": "dev",
				"methods": {},
				"version": 1
			},
			"evm": {
				"assembly": "    /* \"contracts/NftAuction.sol\":75:2202  contract NftAuction {... */\n  mstore(0x40, 0x80)\n    /* \"contracts/NftAuction.sol\":683:732  constructor() {... */\n  callvalue\n  dup1\n  iszero\n  tag_1\n  jumpi\n  revert(0x00, 0x00)\ntag_1:\n  pop\n    /* \"contracts/NftAuction.sol\":715:725  msg.sender */\n  caller\n    /* \"contracts/NftAuction.sol\":707:712  admin */\n  0x02\n  0x00\n    /* \"contracts/NftAuction.sol\":707:725  admin = msg.sender */\n  0x0100\n  exp\n  dup2\n  sload\n  dup2\n  0xffffffffffffffffffffffffffffffffffffffff\n  mul\n  not\n  and\n  swap1\n  dup4\n  0xffffffffffffffffffffffffffffffffffffffff\n  and\n  mul\n  or\n  swap1\n  sstore\n  pop\n    /* \"contracts/NftAuction.sol\":75:2202  contract NftAuction {... */\n  dataSize(sub_0)\n  dup1\n  dataOffset(sub_0)\n  0x00\n  codecopy\n  0x00\n  return\nstop\n\nsub_0: assembly {\n        /* \"contracts/NftAuction.sol\":75:2202  contract NftAuction {... */\n      mstore(0x40, 0x80)\n      jumpi(tag_1, lt(calldatasize, 0x04))\n      shr(0xe0, calldataload(0x00))\n      dup1\n      0x0121683f\n      eq\n      tag_2\n      jumpi\n      dup1\n      0x571a26a0\n      eq\n      tag_3\n      jumpi\n      dup1\n      0x9979ef45\n      eq\n      tag_4\n      jumpi\n      dup1\n      0xf851a440\n      eq\n      tag_5\n      jumpi\n      dup1\n      0xfc528482\n      eq\n      tag_6\n      jumpi\n    tag_1:\n      revert(0x00, 0x00)\n        /* \"contracts/NftAuction.sol\":758:1447  function createAuction(uint256 _duration, uint256 _startPrice) public {... */\n    tag_2:\n      callvalue\n      dup1\n      iszero\n      tag_7\n      jumpi\n      revert(0x00, 0x00)\n    tag_7:\n      pop\n      tag_8\n      0x04\n      dup1\n      calldatasize\n      sub\n      dup2\n      add\n      swap1\n      tag_9\n      swap2\n      swap1\n      tag_10\n      jump\t// in\n    tag_9:\n      tag_11\n      jump\t// in\n    tag_8:\n      stop\n        /* \"contracts/NftAuction.sol\":525:568  mapping(uint256 => Auction) public auctions */\n    tag_3:\n      callvalue\n      dup1\n      iszero\n      tag_12\n      jumpi\n      revert(0x00, 0x00)\n    tag_12:\n      pop\n      tag_13\n      0x04\n      dup1\n      calldatasize\n      sub\n      dup2\n      add\n      swap1\n      tag_14\n      swap2\n      swap1\n      tag_15\n      jump\t// in\n    tag_14:\n      tag_16\n      jump\t// in\n    tag_13:\n      mload(0x40)\n      tag_17\n      swap8\n      swap7\n      swap6\n      swap5\n      swap4\n      swap3\n      swap2\n      swap1\n      tag_18\n      jump\t// in\n    tag_17:\n      mload(0x40)\n      dup1\n      swap2\n      sub\n      swap1\n      return\n        /* \"contracts/NftAuction.sol\":1479:2200  function placeBid(uint256 _auctionID) external payable {... */\n    tag_4:\n      tag_19\n      0x04\n      dup1\n      calldatasize\n      sub\n      dup2\n      add\n      swap1\n      tag_20\n      swap2\n      swap1\n      tag_15\n      jump\t// in\n    tag_20:\n      tag_21\n      jump\t// in\n    tag_19:\n      stop\n        /* \"contracts/NftAuction.sol\":656:676  address public admin */\n    tag_5:\n      callvalue\n      dup1\n      iszero\n      tag_22\n      jumpi\n      revert(0x00, 0x00)\n    tag_22:\n      pop\n      tag_23\n      tag_24\n      jump\t// in\n    tag_23:\n      mload(0x40)\n      tag_25\n      swap2\n      swap1\n      tag_26\n      jump\t// in\n    tag_25:\n      mload(0x40)\n      dup1\n      swap2\n      sub\n      swap1\n      return\n        /* \"contracts/NftAuction.sol\":599:627  uint256 public nextAuctionId */\n    tag_6:\n      callvalue\n      dup1\n      iszero\n      tag_27\n      jumpi\n      revert(0x00, 0x00)\n    tag_27:\n      pop\n      tag_28\n      tag_29\n      jump\t// in\n    tag_28:\n      mload(0x40)\n      tag_30\n      swap2\n      swap1\n      tag_31\n      jump\t// in\n    tag_30:\n      mload(0x40)\n      dup1\n      swap2\n      sub\n      swap1\n      return\n        /* \"contracts/NftAuction.sol\":758:1447  function createAuction(uint256 _duration, uint256 _startPrice) public {... */\n    tag_11:\n        /* \"contracts/NftAuction.sol\":905:910  admin */\n      0x02\n      0x00\n      swap1\n      sload\n      swap1\n      0x0100\n      exp\n      swap1\n      div\n      0xffffffffffffffffffffffffffffffffffffffff\n      and\n        /* \"contracts/NftAuction.sol\":891:910  msg.sender == admin */\n      0xffffffffffffffffffffffffffffffffffffffff\n      and\n        /* \"contracts/NftAuction.sol\":891:901  msg.sender */\n      caller\n        /* \"contracts/NftAuction.sol\":891:910  msg.sender == admin */\n      0xffffffffffffffffffffffffffffffffffffffff\n      and\n      eq\n        /* \"contracts/NftAuction.sol\":883:945  require(msg.sender == admin, \"Only admin can create auctions\") */\n      tag_33\n      jumpi\n      mload(0x40)\n      0x08c379a000000000000000000000000000000000000000000000000000000000\n      dup2\n      mstore\n      0x04\n      add\n      tag_34\n      swap1\n      tag_35\n      jump\t// in\n    tag_34:\n      mload(0x40)\n      dup1\n      swap2\n      sub\n      swap1\n      revert\n    tag_33:\n        /* \"contracts/NftAuction.sol\":999:1008  1000 * 60 */\n      0xea60\n        /* \"contracts/NftAuction.sol\":987:996  _duration */\n      dup3\n        /* \"contracts/NftAuction.sol\":987:1008  _duration > 1000 * 60 */\n      gt\n        /* \"contracts/NftAuction.sol\":979:1044  require(_duration > 1000 * 60, \"Duration must be greater than 0\") */\n      tag_36\n      jumpi\n      mload(0x40)\n      0x08c379a000000000000000000000000000000000000000000000000000000000\n      dup2\n      mstore\n      0x04\n      add\n      tag_37\n      swap1\n      tag_38\n      jump\t// in\n    tag_37:\n      mload(0x40)\n      dup1\n      swap2\n      sub\n      swap1\n      revert\n    tag_36:\n        /* \"contracts/NftAuction.sol\":1076:1077  0 */\n      0x00\n        /* \"contracts/NftAuction.sol\":1062:1073  _startPrice */\n      dup2\n        /* \"contracts/NftAuction.sol\":1062:1077  _startPrice > 0 */\n      gt\n        /* \"contracts/NftAuction.sol\":1054:1116  require(_startPrice > 0, \"Start price must be greater than 0\") */\n      tag_39\n      jumpi\n      mload(0x40)\n      0x08c379a000000000000000000000000000000000000000000000000000000000\n      dup2\n      mstore\n      0x04\n      add\n      tag_40\n      swap1\n      tag_41\n      jump\t// in\n    tag_40:\n      mload(0x40)\n      dup1\n      swap2\n      sub\n      swap1\n      revert\n    tag_39:\n        /* \"contracts/NftAuction.sol\":1152:1405  Auction({... */\n      mload(0x40)\n      dup1\n      0xe0\n      add\n      0x40\n      mstore\n      dup1\n        /* \"contracts/NftAuction.sol\":1182:1192  msg.sender */\n      caller\n        /* \"contracts/NftAuction.sol\":1152:1405  Auction({... */\n      0xffffffffffffffffffffffffffffffffffffffff\n      and\n      dup2\n      mstore\n      0x20\n      add\n        /* \"contracts/NftAuction.sol\":1216:1225  _duration */\n      dup4\n        /* \"contracts/NftAuction.sol\":1152:1405  Auction({... */\n      dup2\n      mstore\n      0x20\n      add\n        /* \"contracts/NftAuction.sol\":1251:1262  _startPrice */\n      dup3\n        /* \"contracts/NftAuction.sol\":1152:1405  Auction({... */\n      dup2\n      mstore\n      0x20\n      add\n        /* \"contracts/NftAuction.sol\":1379:1394  block.timestamp */\n      timestamp\n        /* \"contracts/NftAuction.sol\":1152:1405  Auction({... */\n      dup2\n      mstore\n      0x20\n      add\n        /* \"contracts/NftAuction.sol\":1283:1288  false */\n      0x00\n        /* \"contracts/NftAuction.sol\":1152:1405  Auction({... */\n      iszero\n      iszero\n      dup2\n      mstore\n      0x20\n      add\n        /* \"contracts/NftAuction.sol\":1325:1326  0 */\n      0x00\n        /* \"contracts/NftAuction.sol\":1152:1405  Auction({... */\n      0xffffffffffffffffffffffffffffffffffffffff\n      and\n      dup2\n      mstore\n      0x20\n      add\n        /* \"contracts/NftAuction.sol\":1353:1354  0 */\n      0x00\n        /* \"contracts/NftAuction.sol\":1152:1405  Auction({... */\n      dup2\n      mstore\n      pop\n        /* \"contracts/NftAuction.sol\":1126:1134  auctions */\n      0x00\n        /* \"contracts/NftAuction.sol\":1126:1149  auctions[nextAuctionId] */\n      0x00\n        /* \"contracts/NftAuction.sol\":1135:1148  nextAuctionId */\n      sload(0x01)\n        /* \"contracts/NftAuction.sol\":1126:1149  auctions[nextAuctionId] */\n      dup2\n      mstore\n      0x20\n      add\n      swap1\n      dup2\n      mstore\n      0x20\n      add\n      0x00\n      keccak256\n        /* \"contracts/NftAuction.sol\":1126:1405  auctions[nextAuctionId] = Auction({... */\n      0x00\n      dup3\n      add\n      mload\n      dup2\n      0x00\n      add\n      exp(0x0100, 0x00)\n      dup2\n      sload\n      dup2\n      0xffffffffffffffffffffffffffffffffffffffff\n      mul\n      not\n      and\n      swap1\n      dup4\n      0xffffffffffffffffffffffffffffffffffffffff\n      and\n      mul\n      or\n      swap1\n      sstore\n      pop\n      0x20\n      dup3\n      add\n      mload\n      dup2\n      0x01\n      add\n      sstore\n      0x40\n      dup3\n      add\n      mload\n      dup2\n      0x02\n      add\n      sstore\n      0x60\n      dup3\n      add\n      mload\n      dup2\n      0x03\n      add\n      sstore\n      0x80\n      dup3\n      add\n      mload\n      dup2\n      0x04\n      add\n      exp(0x0100, 0x00)\n      dup2\n      sload\n      dup2\n      0xff\n      mul\n      not\n      and\n      swap1\n      dup4\n      iszero\n      iszero\n      mul\n      or\n      swap1\n      sstore\n      pop\n      0xa0\n      dup3\n      add\n      mload\n      dup2\n      0x04\n      add\n      exp(0x0100, 0x01)\n      dup2\n      sload\n      dup2\n      0xffffffffffffffffffffffffffffffffffffffff\n      mul\n      not\n      and\n      swap1\n      dup4\n      0xffffffffffffffffffffffffffffffffffffffff\n      and\n      mul\n      or\n      swap1\n      sstore\n      pop\n      0xc0\n      dup3\n      add\n      mload\n      dup2\n      0x05\n      add\n      sstore\n      swap1\n      pop\n      pop\n        /* \"contracts/NftAuction.sol\":1416:1429  nextAuctionId */\n      0x01\n      0x00\n        /* \"contracts/NftAuction.sol\":1416:1431  nextAuctionId++ */\n      dup2\n      sload\n      dup1\n      swap3\n      swap2\n      swap1\n      tag_42\n      swap1\n      tag_43\n      jump\t// in\n    tag_42:\n      swap2\n      swap1\n      pop\n      sstore\n      pop\n        /* \"contracts/NftAuction.sol\":758:1447  function createAuction(uint256 _duration, uint256 _startPrice) public {... */\n      pop\n      pop\n      jump\t// out\n        /* \"contracts/NftAuction.sol\":525:568  mapping(uint256 => Auction) public auctions */\n    tag_16:\n      mstore(0x20, 0x00)\n      dup1\n      0x00\n      mstore\n      keccak256(0x00, 0x40)\n      0x00\n      swap2\n      pop\n      swap1\n      pop\n      dup1\n      0x00\n      add\n      0x00\n      swap1\n      sload\n      swap1\n      0x0100\n      exp\n      swap1\n      div\n      0xffffffffffffffffffffffffffffffffffffffff\n      and\n      swap1\n      dup1\n      0x01\n      add\n      sload\n      swap1\n      dup1\n      0x02\n      add\n      sload\n      swap1\n      dup1\n      0x03\n      add\n      sload\n      swap1\n      dup1\n      0x04\n      add\n      0x00\n      swap1\n      sload\n      swap1\n      0x0100\n      exp\n      swap1\n      div\n      0xff\n      and\n      swap1\n      dup1\n      0x04\n      add\n      0x01\n      swap1\n      sload\n      swap1\n      0x0100\n      exp\n      swap1\n      div\n      0xffffffffffffffffffffffffffffffffffffffff\n      and\n      swap1\n      dup1\n      0x05\n      add\n      sload\n      swap1\n      pop\n      dup8\n      jump\t// out\n        /* \"contracts/NftAuction.sol\":1479:2200  function placeBid(uint256 _auctionID) external payable {... */\n    tag_21:\n        /* \"contracts/NftAuction.sol\":1544:1567  Auction storage auction */\n      0x00\n        /* \"contracts/NftAuction.sol\":1570:1578  auctions */\n      0x00\n        /* \"contracts/NftAuction.sol\":1570:1590  auctions[_auctionID] */\n      0x00\n        /* \"contracts/NftAuction.sol\":1579:1589  _auctionID */\n      dup4\n        /* \"contracts/NftAuction.sol\":1570:1590  auctions[_auctionID] */\n      dup2\n      mstore\n      0x20\n      add\n      swap1\n      dup2\n      mstore\n      0x20\n      add\n      0x00\n      keccak256\n        /* \"contracts/NftAuction.sol\":1544:1590  Auction storage auction = auctions[_auctionID] */\n      swap1\n      pop\n        /* \"contracts/NftAuction.sol\":1651:1658  auction */\n      dup1\n        /* \"contracts/NftAuction.sol\":1651:1664  auction.ended */\n      0x04\n      add\n      0x00\n      swap1\n      sload\n      swap1\n      0x0100\n      exp\n      swap1\n      div\n      0xff\n      and\n        /* \"contracts/NftAuction.sol\":1650:1664  !auction.ended */\n      iszero\n        /* \"contracts/NftAuction.sol\":1650:1722  !auction.ended && auction.startTime + auction.duration > block.timestamp */\n      dup1\n      iszero\n      tag_45\n      jumpi\n      pop\n        /* \"contracts/NftAuction.sol\":1707:1722  block.timestamp */\n      timestamp\n        /* \"contracts/NftAuction.sol\":1688:1695  auction */\n      dup2\n        /* \"contracts/NftAuction.sol\":1688:1704  auction.duration */\n      0x01\n      add\n      sload\n        /* \"contracts/NftAuction.sol\":1668:1675  auction */\n      dup3\n        /* \"contracts/NftAuction.sol\":1668:1685  auction.startTime */\n      0x03\n      add\n      sload\n        /* \"contracts/NftAuction.sol\":1668:1704  auction.startTime + auction.duration */\n      tag_46\n      swap2\n      swap1\n      tag_47\n      jump\t// in\n    tag_46:\n        /* \"contracts/NftAuction.sol\":1668:1722  auction.startTime + auction.duration > block.timestamp */\n      gt\n        /* \"contracts/NftAuction.sol\":1650:1722  !auction.ended && auction.startTime + auction.duration > block.timestamp */\n    tag_45:\n        /* \"contracts/NftAuction.sol\":1642:1744  require(!auction.ended && auction.startTime + auction.duration > block.timestamp, \"Auction has ended\") */\n      tag_48\n      jumpi\n      mload(0x40)\n      0x08c379a000000000000000000000000000000000000000000000000000000000\n      dup2\n      mstore\n      0x04\n      add\n      tag_49\n      swap1\n      tag_50\n      jump\t// in\n    tag_49:\n      mload(0x40)\n      dup1\n      swap2\n      sub\n      swap1\n      revert\n    tag_48:\n        /* \"contracts/NftAuction.sol\":1828:1835  auction */\n      dup1\n        /* \"contracts/NftAuction.sol\":1828:1846  auction.highestBid */\n      0x05\n      add\n      sload\n        /* \"contracts/NftAuction.sol\":1816:1825  msg.value */\n      callvalue\n        /* \"contracts/NftAuction.sol\":1816:1846  msg.value > auction.highestBid */\n      gt\n        /* \"contracts/NftAuction.sol\":1816:1881  msg.value > auction.highestBid && msg.value >= auction.startPrice */\n      dup1\n      iszero\n      tag_51\n      jumpi\n      pop\n        /* \"contracts/NftAuction.sol\":1863:1870  auction */\n      dup1\n        /* \"contracts/NftAuction.sol\":1863:1881  auction.startPrice */\n      0x02\n      add\n      sload\n        /* \"contracts/NftAuction.sol\":1850:1859  msg.value */\n      callvalue\n        /* \"contracts/NftAuction.sol\":1850:1881  msg.value >= auction.startPrice */\n      lt\n      iszero\n        /* \"contracts/NftAuction.sol\":1816:1881  msg.value > auction.highestBid && msg.value >= auction.startPrice */\n    tag_51:\n        /* \"contracts/NftAuction.sol\":1808:1933  require(msg.value > auction.highestBid && msg.value >= auction.startPrice, \"Bid must be higher than the current highest bid\") */\n      tag_52\n      jumpi\n      mload(0x40)\n      0x08c379a000000000000000000000000000000000000000000000000000000000\n      dup2\n      mstore\n      0x04\n      add\n      tag_53\n      swap1\n      tag_54\n      jump\t// in\n    tag_53:\n      mload(0x40)\n      dup1\n      swap2\n      sub\n      swap1\n      revert\n    tag_52:\n        /* \"contracts/NftAuction.sol\":2022:2023  0 */\n      0x00\n        /* \"contracts/NftAuction.sol\":1989:2024  auction.highestBidder != address(0) */\n      0xffffffffffffffffffffffffffffffffffffffff\n      and\n        /* \"contracts/NftAuction.sol\":1989:1996  auction */\n      dup2\n        /* \"contracts/NftAuction.sol\":1989:2010  auction.highestBidder */\n      0x04\n      add\n      0x01\n      swap1\n      sload\n      swap1\n      0x0100\n      exp\n      swap1\n      div\n      0xffffffffffffffffffffffffffffffffffffffff\n      and\n        /* \"contracts/NftAuction.sol\":1989:2024  auction.highestBidder != address(0) */\n      0xffffffffffffffffffffffffffffffffffffffff\n      and\n      eq\n        /* \"contracts/NftAuction.sol\":1985:2110  if (auction.highestBidder != address(0)) {... */\n      tag_55\n      jumpi\n        /* \"contracts/NftAuction.sol\":2048:2055  auction */\n      dup1\n        /* \"contracts/NftAuction.sol\":2048:2069  auction.highestBidder */\n      0x04\n      add\n      0x01\n      swap1\n      sload\n      swap1\n      0x0100\n      exp\n      swap1\n      div\n      0xffffffffffffffffffffffffffffffffffffffff\n      and\n        /* \"contracts/NftAuction.sol\":2040:2079  payable(auction.highestBidder).transfer */\n      0xffffffffffffffffffffffffffffffffffffffff\n      and\n        /* \"contracts/NftAuction.sol\":2040:2099  payable(auction.highestBidder).transfer(auction.highestBid) */\n      0x08fc\n        /* \"contracts/NftAuction.sol\":2080:2087  auction */\n      dup3\n        /* \"contracts/NftAuction.sol\":2080:2098  auction.highestBid */\n      0x05\n      add\n      sload\n        /* \"contracts/NftAuction.sol\":2040:2099  payable(auction.highestBidder).transfer(auction.highestBid) */\n      swap1\n      dup2\n      iszero\n      mul\n      swap1\n      mload(0x40)\n      0x00\n      mload(0x40)\n      dup1\n      dup4\n      sub\n      dup2\n      dup6\n      dup9\n      dup9\n      call\n      swap4\n      pop\n      pop\n      pop\n      pop\n      iszero\n      dup1\n      iszero\n      tag_57\n      jumpi\n      returndatacopy(0x00, 0x00, returndatasize)\n      revert(0x00, returndatasize)\n    tag_57:\n      pop\n        /* \"contracts/NftAuction.sol\":1985:2110  if (auction.highestBidder != address(0)) {... */\n    tag_55:\n        /* \"contracts/NftAuction.sol\":2143:2153  msg.sender */\n      caller\n        /* \"contracts/NftAuction.sol\":2119:2126  auction */\n      dup2\n        /* \"contracts/NftAuction.sol\":2119:2140  auction.highestBidder */\n      0x04\n      add\n      0x01\n        /* \"contracts/NftAuction.sol\":2119:2153  auction.highestBidder = msg.sender */\n      0x0100\n      exp\n      dup2\n      sload\n      dup2\n      0xffffffffffffffffffffffffffffffffffffffff\n      mul\n      not\n      and\n      swap1\n      dup4\n      0xffffffffffffffffffffffffffffffffffffffff\n      and\n      mul\n      or\n      swap1\n      sstore\n      pop\n        /* \"contracts/NftAuction.sol\":2184:2193  msg.value */\n      callvalue\n        /* \"contracts/NftAuction.sol\":2163:2170  auction */\n      dup2\n        /* \"contracts/NftAuction.sol\":2163:2181  auction.highestBid */\n      0x05\n      add\n        /* \"contracts/NftAuction.sol\":2163:2193  auction.highestBid = msg.value */\n      dup2\n      swap1\n      sstore\n      pop\n        /* \"contracts/NftAuction.sol\":1534:2200  {... */\n      pop\n        /* \"contracts/NftAuction.sol\":1479:2200  function placeBid(uint256 _auctionID) external payable {... */\n      pop\n      jump\t// out\n        /* \"contracts/NftAuction.sol\":656:676  address public admin */\n    tag_24:\n      0x02\n      0x00\n      swap1\n      sload\n      swap1\n      0x0100\n      exp\n      swap1\n      div\n      0xffffffffffffffffffffffffffffffffffffffff\n      and\n      dup2\n      jump\t// out\n        /* \"contracts/NftAuction.sol\":599:627  uint256 public nextAuctionId */\n    tag_29:\n      sload(0x01)\n      dup2\n      jump\t// out\n        /* \"#utility.yul\":88:205   */\n    tag_59:\n        /* \"#utility.yul\":197:198   */\n      0x00\n        /* \"#utility.yul\":194:195   */\n      0x00\n        /* \"#utility.yul\":187:199   */\n      revert\n        /* \"#utility.yul\":334:411   */\n    tag_61:\n        /* \"#utility.yul\":371:378   */\n      0x00\n        /* \"#utility.yul\":400:405   */\n      dup2\n        /* \"#utility.yul\":389:405   */\n      swap1\n      pop\n        /* \"#utility.yul\":334:411   */\n      swap2\n      swap1\n      pop\n      jump\t// out\n        /* \"#utility.yul\":417:539   */\n    tag_62:\n        /* \"#utility.yul\":490:514   */\n      tag_88\n        /* \"#utility.yul\":508:513   */\n      dup2\n        /* \"#utility.yul\":490:514   */\n      tag_61\n      jump\t// in\n    tag_88:\n        /* \"#utility.yul\":483:488   */\n      dup2\n        /* \"#utility.yul\":480:515   */\n      eq\n        /* \"#utility.yul\":470:533   */\n      tag_89\n      jumpi\n        /* \"#utility.yul\":529:530   */\n      0x00\n        /* \"#utility.yul\":526:527   */\n      0x00\n        /* \"#utility.yul\":519:531   */\n      revert\n        /* \"#utility.yul\":470:533   */\n    tag_89:\n        /* \"#utility.yul\":417:539   */\n      pop\n      jump\t// out\n        /* \"#utility.yul\":545:684   */\n    tag_63:\n        /* \"#utility.yul\":591:596   */\n      0x00\n        /* \"#utility.yul\":629:635   */\n      dup2\n        /* \"#utility.yul\":616:636   */\n      calldataload\n        /* \"#utility.yul\":607:636   */\n      swap1\n      pop\n        /* \"#utility.yul\":645:678   */\n      tag_91\n        /* \"#utility.yul\":672:677   */\n      dup2\n        /* \"#utility.yul\":645:678   */\n      tag_62\n      jump\t// in\n    tag_91:\n        /* \"#utility.yul\":545:684   */\n      swap3\n      swap2\n      pop\n      pop\n      jump\t// out\n        /* \"#utility.yul\":690:1164   */\n    tag_10:\n        /* \"#utility.yul\":758:764   */\n      0x00\n        /* \"#utility.yul\":766:772   */\n      0x00\n        /* \"#utility.yul\":815:817   */\n      0x40\n        /* \"#utility.yul\":803:812   */\n      dup4\n        /* \"#utility.yul\":794:801   */\n      dup6\n        /* \"#utility.yul\":790:813   */\n      sub\n        /* \"#utility.yul\":786:818   */\n      slt\n        /* \"#utility.yul\":783:902   */\n      iszero\n      tag_93\n      jumpi\n        /* \"#utility.yul\":821:900   */\n      tag_94\n      tag_59\n      jump\t// in\n    tag_94:\n        /* \"#utility.yul\":783:902   */\n    tag_93:\n        /* \"#utility.yul\":941:942   */\n      0x00\n        /* \"#utility.yul\":966:1019   */\n      tag_95\n        /* \"#utility.yul\":1011:1018   */\n      dup6\n        /* \"#utility.yul\":1002:1008   */\n      dup3\n        /* \"#utility.yul\":991:1000   */\n      dup7\n        /* \"#utility.yul\":987:1009   */\n      add\n        /* \"#utility.yul\":966:1019   */\n      tag_63\n      jump\t// in\n    tag_95:\n        /* \"#utility.yul\":956:1019   */\n      swap3\n      pop\n        /* \"#utility.yul\":912:1029   */\n      pop\n        /* \"#utility.yul\":1068:1070   */\n      0x20\n        /* \"#utility.yul\":1094:1147   */\n      tag_96\n        /* \"#utility.yul\":1139:1146   */\n      dup6\n        /* \"#utility.yul\":1130:1136   */\n      dup3\n        /* \"#utility.yul\":1119:1128   */\n      dup7\n        /* \"#utility.yul\":1115:1137   */\n      add\n        /* \"#utility.yul\":1094:1147   */\n      tag_63\n      jump\t// in\n    tag_96:\n        /* \"#utility.yul\":1084:1147   */\n      swap2\n      pop\n        /* \"#utility.yul\":1039:1157   */\n      pop\n        /* \"#utility.yul\":690:1164   */\n      swap3\n      pop\n      swap3\n      swap1\n      pop\n      jump\t// out\n        /* \"#utility.yul\":1170:1499   */\n    tag_15:\n        /* \"#utility.yul\":1229:1235   */\n      0x00\n        /* \"#utility.yul\":1278:1280   */\n      0x20\n        /* \"#utility.yul\":1266:1275   */\n      dup3\n        /* \"#utility.yul\":1257:1264   */\n      dup5\n        /* \"#utility.yul\":1253:1276   */\n      sub\n        /* \"#utility.yul\":1249:1281   */\n      slt\n        /* \"#utility.yul\":1246:1365   */\n      iszero\n      tag_98\n      jumpi\n        /* \"#utility.yul\":1284:1363   */\n      tag_99\n      tag_59\n      jump\t// in\n    tag_99:\n        /* \"#utility.yul\":1246:1365   */\n    tag_98:\n        /* \"#utility.yul\":1404:1405   */\n      0x00\n        /* \"#utility.yul\":1429:1482   */\n      tag_100\n        /* \"#utility.yul\":1474:1481   */\n      dup5\n        /* \"#utility.yul\":1465:1471   */\n      dup3\n        /* \"#utility.yul\":1454:1463   */\n      dup6\n        /* \"#utility.yul\":1450:1472   */\n      add\n        /* \"#utility.yul\":1429:1482   */\n      tag_63\n      jump\t// in\n    tag_100:\n        /* \"#utility.yul\":1419:1482   */\n      swap2\n      pop\n        /* \"#utility.yul\":1375:1492   */\n      pop\n        /* \"#utility.yul\":1170:1499   */\n      swap3\n      swap2\n      pop\n      pop\n      jump\t// out\n        /* \"#utility.yul\":1505:1631   */\n    tag_64:\n        /* \"#utility.yul\":1542:1549   */\n      0x00\n        /* \"#utility.yul\":1582:1624   */\n      0xffffffffffffffffffffffffffffffffffffffff\n        /* \"#utility.yul\":1575:1580   */\n      dup3\n        /* \"#utility.yul\":1571:1625   */\n      and\n        /* \"#utility.yul\":1560:1625   */\n      swap1\n      pop\n        /* \"#utility.yul\":1505:1631   */\n      swap2\n      swap1\n      pop\n      jump\t// out\n        /* \"#utility.yul\":1637:1733   */\n    tag_65:\n        /* \"#utility.yul\":1674:1681   */\n      0x00\n        /* \"#utility.yul\":1703:1727   */\n      tag_103\n        /* \"#utility.yul\":1721:1726   */\n      dup3\n        /* \"#utility.yul\":1703:1727   */\n      tag_64\n      jump\t// in\n    tag_103:\n        /* \"#utility.yul\":1692:1727   */\n      swap1\n      pop\n        /* \"#utility.yul\":1637:1733   */\n      swap2\n      swap1\n      pop\n      jump\t// out\n        /* \"#utility.yul\":1739:1857   */\n    tag_66:\n        /* \"#utility.yul\":1826:1850   */\n      tag_105\n        /* \"#utility.yul\":1844:1849   */\n      dup2\n        /* \"#utility.yul\":1826:1850   */\n      tag_65\n      jump\t// in\n    tag_105:\n        /* \"#utility.yul\":1821:1824   */\n      dup3\n        /* \"#utility.yul\":1814:1851   */\n      mstore\n        /* \"#utility.yul\":1739:1857   */\n      pop\n      pop\n      jump\t// out\n        /* \"#utility.yul\":1863:1981   */\n    tag_67:\n        /* \"#utility.yul\":1950:1974   */\n      tag_107\n        /* \"#utility.yul\":1968:1973   */\n      dup2\n        /* \"#utility.yul\":1950:1974   */\n      tag_61\n      jump\t// in\n    tag_107:\n        /* \"#utility.yul\":1945:1948   */\n      dup3\n        /* \"#utility.yul\":1938:1975   */\n      mstore\n        /* \"#utility.yul\":1863:1981   */\n      pop\n      pop\n      jump\t// out\n        /* \"#utility.yul\":1987:2077   */\n    tag_68:\n        /* \"#utility.yul\":2021:2028   */\n      0x00\n        /* \"#utility.yul\":2064:2069   */\n      dup2\n        /* \"#utility.yul\":2057:2070   */\n      iszero\n        /* \"#utility.yul\":2050:2071   */\n      iszero\n        /* \"#utility.yul\":2039:2071   */\n      swap1\n      pop\n        /* \"#utility.yul\":1987:2077   */\n      swap2\n      swap1\n      pop\n      jump\t// out\n        /* \"#utility.yul\":2083:2192   */\n    tag_69:\n        /* \"#utility.yul\":2164:2185   */\n      tag_110\n        /* \"#utility.yul\":2179:2184   */\n      dup2\n        /* \"#utility.yul\":2164:2185   */\n      tag_68\n      jump\t// in\n    tag_110:\n        /* \"#utility.yul\":2159:2162   */\n      dup3\n        /* \"#utility.yul\":2152:2186   */\n      mstore\n        /* \"#utility.yul\":2083:2192   */\n      pop\n      pop\n      jump\t// out\n        /* \"#utility.yul\":2198:3072   */\n    tag_18:\n        /* \"#utility.yul\":2453:2457   */\n      0x00\n        /* \"#utility.yul\":2491:2494   */\n      0xe0\n        /* \"#utility.yul\":2480:2489   */\n      dup3\n        /* \"#utility.yul\":2476:2495   */\n      add\n        /* \"#utility.yul\":2468:2495   */\n      swap1\n      pop\n        /* \"#utility.yul\":2505:2576   */\n      tag_112\n        /* \"#utility.yul\":2573:2574   */\n      0x00\n        /* \"#utility.yul\":2562:2571   */\n      dup4\n        /* \"#utility.yul\":2558:2575   */\n      add\n        /* \"#utility.yul\":2549:2555   */\n      dup11\n        /* \"#utility.yul\":2505:2576   */\n      tag_66\n      jump\t// in\n    tag_112:\n        /* \"#utility.yul\":2586:2658   */\n      tag_113\n        /* \"#utility.yul\":2654:2656   */\n      0x20\n        /* \"#utility.yul\":2643:2652   */\n      dup4\n        /* \"#utility.yul\":2639:2657   */\n      add\n        /* \"#utility.yul\":2630:2636   */\n      dup10\n        /* \"#utility.yul\":2586:2658   */\n      tag_67\n      jump\t// in\n    tag_113:\n        /* \"#utility.yul\":2668:2740   */\n      tag_114\n        /* \"#utility.yul\":2736:2738   */\n      0x40\n        /* \"#utility.yul\":2725:2734   */\n      dup4\n        /* \"#utility.yul\":2721:2739   */\n      add\n        /* \"#utility.yul\":2712:2718   */\n      dup9\n        /* \"#utility.yul\":2668:2740   */\n      tag_67\n      jump\t// in\n    tag_114:\n        /* \"#utility.yul\":2750:2822   */\n      tag_115\n        /* \"#utility.yul\":2818:2820   */\n      0x60\n        /* \"#utility.yul\":2807:2816   */\n      dup4\n        /* \"#utility.yul\":2803:2821   */\n      add\n        /* \"#utility.yul\":2794:2800   */\n      dup8\n        /* \"#utility.yul\":2750:2822   */\n      tag_67\n      jump\t// in\n    tag_115:\n        /* \"#utility.yul\":2832:2899   */\n      tag_116\n        /* \"#utility.yul\":2894:2897   */\n      0x80\n        /* \"#utility.yul\":2883:2892   */\n      dup4\n        /* \"#utility.yul\":2879:2898   */\n      add\n        /* \"#utility.yul\":2870:2876   */\n      dup7\n        /* \"#utility.yul\":2832:2899   */\n      tag_69\n      jump\t// in\n    tag_116:\n        /* \"#utility.yul\":2909:2982   */\n      tag_117\n        /* \"#utility.yul\":2977:2980   */\n      0xa0\n        /* \"#utility.yul\":2966:2975   */\n      dup4\n        /* \"#utility.yul\":2962:2981   */\n      add\n        /* \"#utility.yul\":2953:2959   */\n      dup6\n        /* \"#utility.yul\":2909:2982   */\n      tag_66\n      jump\t// in\n    tag_117:\n        /* \"#utility.yul\":2992:3065   */\n      tag_118\n        /* \"#utility.yul\":3060:3063   */\n      0xc0\n        /* \"#utility.yul\":3049:3058   */\n      dup4\n        /* \"#utility.yul\":3045:3064   */\n      add\n        /* \"#utility.yul\":3036:3042   */\n      dup5\n        /* \"#utility.yul\":2992:3065   */\n      tag_67\n      jump\t// in\n    tag_118:\n        /* \"#utility.yul\":2198:3072   */\n      swap9\n      swap8\n      pop\n      pop\n      pop\n      pop\n      pop\n      pop\n      pop\n      pop\n      jump\t// out\n        /* \"#utility.yul\":3078:3300   */\n    tag_26:\n        /* \"#utility.yul\":3171:3175   */\n      0x00\n        /* \"#utility.yul\":3209:3211   */\n      0x20\n        /* \"#utility.yul\":3198:3207   */\n      dup3\n        /* \"#utility.yul\":3194:3212   */\n      add\n        /* \"#utility.yul\":3186:3212   */\n      swap1\n      pop\n        /* \"#utility.yul\":3222:3293   */\n      tag_120\n        /* \"#utility.yul\":3290:3291   */\n      0x00\n        /* \"#utility.yul\":3279:3288   */\n      dup4\n        /* \"#utility.yul\":3275:3292   */\n      add\n        /* \"#utility.yul\":3266:3272   */\n      dup5\n        /* \"#utility.yul\":3222:3293   */\n      tag_66\n      jump\t// in\n    tag_120:\n        /* \"#utility.yul\":3078:3300   */\n      swap3\n      swap2\n      pop\n      pop\n      jump\t// out\n        /* \"#utility.yul\":3306:3528   */\n    tag_31:\n        /* \"#utility.yul\":3399:3403   */\n      0x00\n        /* \"#utility.yul\":3437:3439   */\n      0x20\n        /* \"#utility.yul\":3426:3435   */\n      dup3\n        /* \"#utility.yul\":3422:3440   */\n      add\n        /* \"#utility.yul\":3414:3440   */\n      swap1\n      pop\n        /* \"#utility.yul\":3450:3521   */\n      tag_122\n        /* \"#utility.yul\":3518:3519   */\n      0x00\n        /* \"#utility.yul\":3507:3516   */\n      dup4\n        /* \"#utility.yul\":3503:3520   */\n      add\n        /* \"#utility.yul\":3494:3500   */\n      dup5\n        /* \"#utility.yul\":3450:3521   */\n      tag_67\n      jump\t// in\n    tag_122:\n        /* \"#utility.yul\":3306:3528   */\n      swap3\n      swap2\n      pop\n      pop\n      jump\t// out\n        /* \"#utility.yul\":3534:3703   */\n    tag_70:\n        /* \"#utility.yul\":3618:3629   */\n      0x00\n        /* \"#utility.yul\":3652:3658   */\n      dup3\n        /* \"#utility.yul\":3647:3650   */\n      dup3\n        /* \"#utility.yul\":3640:3659   */\n      mstore\n        /* \"#utility.yul\":3692:3696   */\n      0x20\n        /* \"#utility.yul\":3687:3690   */\n      dup3\n        /* \"#utility.yul\":3683:3697   */\n      add\n        /* \"#utility.yul\":3668:3697   */\n      swap1\n      pop\n        /* \"#utility.yul\":3534:3703   */\n      swap3\n      swap2\n      pop\n      pop\n      jump\t// out\n        /* \"#utility.yul\":3709:3889   */\n    tag_71:\n        /* \"#utility.yul\":3849:3881   */\n      0x4f6e6c792061646d696e2063616e206372656174652061756374696f6e730000\n        /* \"#utility.yul\":3845:3846   */\n      0x00\n        /* \"#utility.yul\":3837:3843   */\n      dup3\n        /* \"#utility.yul\":3833:3847   */\n      add\n        /* \"#utility.yul\":3826:3882   */\n      mstore\n        /* \"#utility.yul\":3709:3889   */\n      pop\n      jump\t// out\n        /* \"#utility.yul\":3895:4261   */\n    tag_72:\n        /* \"#utility.yul\":4037:4040   */\n      0x00\n        /* \"#utility.yul\":4058:4125   */\n      tag_126\n        /* \"#utility.yul\":4122:4124   */\n      0x1e\n        /* \"#utility.yul\":4117:4120   */\n      dup4\n        /* \"#utility.yul\":4058:4125   */\n      tag_70\n      jump\t// in\n    tag_126:\n        /* \"#utility.yul\":4051:4125   */\n      swap2\n      pop\n        /* \"#utility.yul\":4134:4227   */\n      tag_127\n        /* \"#utility.yul\":4223:4226   */\n      dup3\n        /* \"#utility.yul\":4134:4227   */\n      tag_71\n      jump\t// in\n    tag_127:\n        /* \"#utility.yul\":4252:4254   */\n      0x20\n        /* \"#utility.yul\":4247:4250   */\n      dup3\n        /* \"#utility.yul\":4243:4255   */\n      add\n        /* \"#utility.yul\":4236:4255   */\n      swap1\n      pop\n        /* \"#utility.yul\":3895:4261   */\n      swap2\n      swap1\n      pop\n      jump\t// out\n        /* \"#utility.yul\":4267:4686   */\n    tag_35:\n        /* \"#utility.yul\":4433:4437   */\n      0x00\n        /* \"#utility.yul\":4471:4473   */\n      0x20\n        /* \"#utility.yul\":4460:4469   */\n      dup3\n        /* \"#utility.yul\":4456:4474   */\n      add\n        /* \"#utility.yul\":4448:4474   */\n      swap1\n      pop\n        /* \"#utility.yul\":4520:4529   */\n      dup2\n        /* \"#utility.yul\":4514:4518   */\n      dup2\n        /* \"#utility.yul\":4510:4530   */\n      sub\n        /* \"#utility.yul\":4506:4507   */\n      0x00\n        /* \"#utility.yul\":4495:4504   */\n      dup4\n        /* \"#utility.yul\":4491:4508   */\n      add\n        /* \"#utility.yul\":4484:4531   */\n      mstore\n        /* \"#utility.yul\":4548:4679   */\n      tag_129\n        /* \"#utility.yul\":4674:4678   */\n      dup2\n        /* \"#utility.yul\":4548:4679   */\n      tag_72\n      jump\t// in\n    tag_129:\n        /* \"#utility.yul\":4540:4679   */\n      swap1\n      pop\n        /* \"#utility.yul\":4267:4686   */\n      swap2\n      swap1\n      pop\n      jump\t// out\n        /* \"#utility.yul\":4692:4873   */\n    tag_73:\n        /* \"#utility.yul\":4832:4865   */\n      0x4475726174696f6e206d7573742062652067726561746572207468616e203000\n        /* \"#utility.yul\":4828:4829   */\n      0x00\n        /* \"#utility.yul\":4820:4826   */\n      dup3\n        /* \"#utility.yul\":4816:4830   */\n      add\n        /* \"#utility.yul\":4809:4866   */\n      mstore\n        /* \"#utility.yul\":4692:4873   */\n      pop\n      jump\t// out\n        /* \"#utility.yul\":4879:5245   */\n    tag_74:\n        /* \"#utility.yul\":5021:5024   */\n      0x00\n        /* \"#utility.yul\":5042:5109   */\n      tag_132\n        /* \"#utility.yul\":5106:5108   */\n      0x1f\n        /* \"#utility.yul\":5101:5104   */\n      dup4\n        /* \"#utility.yul\":5042:5109   */\n      tag_70\n      jump\t// in\n    tag_132:\n        /* \"#utility.yul\":5035:5109   */\n      swap2\n      pop\n        /* \"#utility.yul\":5118:5211   */\n      tag_133\n        /* \"#utility.yul\":5207:5210   */\n      dup3\n        /* \"#utility.yul\":5118:5211   */\n      tag_73\n      jump\t// in\n    tag_133:\n        /* \"#utility.yul\":5236:5238   */\n      0x20\n        /* \"#utility.yul\":5231:5234   */\n      dup3\n        /* \"#utility.yul\":5227:5239   */\n      add\n        /* \"#utility.yul\":5220:5239   */\n      swap1\n      pop\n        /* \"#utility.yul\":4879:5245   */\n      swap2\n      swap1\n      pop\n      jump\t// out\n        /* \"#utility.yul\":5251:5670   */\n    tag_38:\n        /* \"#utility.yul\":5417:5421   */\n      0x00\n        /* \"#utility.yul\":5455:5457   */\n      0x20\n        /* \"#utility.yul\":5444:5453   */\n      dup3\n        /* \"#utility.yul\":5440:5458   */\n      add\n        /* \"#utility.yul\":5432:5458   */\n      swap1\n      pop\n        /* \"#utility.yul\":5504:5513   */\n      dup2\n        /* \"#utility.yul\":5498:5502   */\n      dup2\n        /* \"#utility.yul\":5494:5514   */\n      sub\n        /* \"#utility.yul\":5490:5491   */\n      0x00\n        /* \"#utility.yul\":5479:5488   */\n      dup4\n        /* \"#utility.yul\":5475:5492   */\n      add\n        /* \"#utility.yul\":5468:5515   */\n      mstore\n        /* \"#utility.yul\":5532:5663   */\n      tag_135\n        /* \"#utility.yul\":5658:5662   */\n      dup2\n        /* \"#utility.yul\":5532:5663   */\n      tag_74\n      jump\t// in\n    tag_135:\n        /* \"#utility.yul\":5524:5663   */\n      swap1\n      pop\n        /* \"#utility.yul\":5251:5670   */\n      swap2\n      swap1\n      pop\n      jump\t// out\n        /* \"#utility.yul\":5676:5897   */\n    tag_75:\n        /* \"#utility.yul\":5816:5850   */\n      0x5374617274207072696365206d7573742062652067726561746572207468616e\n        /* \"#utility.yul\":5812:5813   */\n      0x00\n        /* \"#utility.yul\":5804:5810   */\n      dup3\n        /* \"#utility.yul\":5800:5814   */\n      add\n        /* \"#utility.yul\":5793:5851   */\n      mstore\n        /* \"#utility.yul\":5885:5889   */\n      0x2030000000000000000000000000000000000000000000000000000000000000\n        /* \"#utility.yul\":5880:5882   */\n      0x20\n        /* \"#utility.yul\":5872:5878   */\n      dup3\n        /* \"#utility.yul\":5868:5883   */\n      add\n        /* \"#utility.yul\":5861:5890   */\n      mstore\n        /* \"#utility.yul\":5676:5897   */\n      pop\n      jump\t// out\n        /* \"#utility.yul\":5903:6269   */\n    tag_76:\n        /* \"#utility.yul\":6045:6048   */\n      0x00\n        /* \"#utility.yul\":6066:6133   */\n      tag_138\n        /* \"#utility.yul\":6130:6132   */\n      0x22\n        /* \"#utility.yul\":6125:6128   */\n      dup4\n        /* \"#utility.yul\":6066:6133   */\n      tag_70\n      jump\t// in\n    tag_138:\n        /* \"#utility.yul\":6059:6133   */\n      swap2\n      pop\n        /* \"#utility.yul\":6142:6235   */\n      tag_139\n        /* \"#utility.yul\":6231:6234   */\n      dup3\n        /* \"#utility.yul\":6142:6235   */\n      tag_75\n      jump\t// in\n    tag_139:\n        /* \"#utility.yul\":6260:6262   */\n      0x40\n        /* \"#utility.yul\":6255:6258   */\n      dup3\n        /* \"#utility.yul\":6251:6263   */\n      add\n        /* \"#utility.yul\":6244:6263   */\n      swap1\n      pop\n        /* \"#utility.yul\":5903:6269   */\n      swap2\n      swap1\n      pop\n      jump\t// out\n        /* \"#utility.yul\":6275:6694   */\n    tag_41:\n        /* \"#utility.yul\":6441:6445   */\n      0x00\n        /* \"#utility.yul\":6479:6481   */\n      0x20\n        /* \"#utility.yul\":6468:6477   */\n      dup3\n        /* \"#utility.yul\":6464:6482   */\n      add\n        /* \"#utility.yul\":6456:6482   */\n      swap1\n      pop\n        /* \"#utility.yul\":6528:6537   */\n      dup2\n        /* \"#utility.yul\":6522:6526   */\n      dup2\n        /* \"#utility.yul\":6518:6538   */\n      sub\n        /* \"#utility.yul\":6514:6515   */\n      0x00\n        /* \"#utility.yul\":6503:6512   */\n      dup4\n        /* \"#utility.yul\":6499:6516   */\n      add\n        /* \"#utility.yul\":6492:6539   */\n      mstore\n        /* \"#utility.yul\":6556:6687   */\n      tag_141\n        /* \"#utility.yul\":6682:6686   */\n      dup2\n        /* \"#utility.yul\":6556:6687   */\n      tag_76\n      jump\t// in\n    tag_141:\n        /* \"#utility.yul\":6548:6687   */\n      swap1\n      pop\n        /* \"#utility.yul\":6275:6694   */\n      swap2\n      swap1\n      pop\n      jump\t// out\n        /* \"#utility.yul\":6700:6880   */\n    tag_77:\n        /* \"#utility.yul\":6748:6825   */\n      0x4e487b7100000000000000000000000000000000000000000000000000000000\n        /* \"#utility.yul\":6745:6746   */\n      0x00\n        /* \"#utility.yul\":6738:6826   */\n      mstore\n        /* \"#utility.yul\":6845:6849   */\n      0x11\n        /* \"#utility.yul\":6842:6843   */\n      0x04\n        /* \"#utility.yul\":6835:6850   */\n      mstore\n        /* \"#utility.yul\":6869:6873   */\n      0x24\n        /* \"#utility.yul\":6866:6867   */\n      0x00\n        /* \"#utility.yul\":6859:6874   */\n      revert\n        /* \"#utility.yul\":6886:7119   */\n    tag_43:\n        /* \"#utility.yul\":6925:6928   */\n      0x00\n        /* \"#utility.yul\":6948:6972   */\n      tag_144\n        /* \"#utility.yul\":6966:6971   */\n      dup3\n        /* \"#utility.yul\":6948:6972   */\n      tag_61\n      jump\t// in\n    tag_144:\n        /* \"#utility.yul\":6939:6972   */\n      swap2\n      pop\n        /* \"#utility.yul\":6994:7060   */\n      0xffffffffffffffffffffffffffffffffffffffffffffffffffffffffffffffff\n        /* \"#utility.yul\":6987:6992   */\n      dup3\n        /* \"#utility.yul\":6984:7061   */\n      sub\n        /* \"#utility.yul\":6981:7084   */\n      tag_145\n      jumpi\n        /* \"#utility.yul\":7064:7082   */\n      tag_146\n      tag_77\n      jump\t// in\n    tag_146:\n        /* \"#utility.yul\":6981:7084   */\n    tag_145:\n        /* \"#utility.yul\":7111:7112   */\n      0x01\n        /* \"#utility.yul\":7104:7109   */\n      dup3\n        /* \"#utility.yul\":7100:7113   */\n      add\n        /* \"#utility.yul\":7093:7113   */\n      swap1\n      pop\n        /* \"#utility.yul\":6886:7119   */\n      swap2\n      swap1\n      pop\n      jump\t// out\n        /* \"#utility.yul\":7125:7316   */\n    tag_47:\n        /* \"#utility.yul\":7165:7168   */\n      0x00\n        /* \"#utility.yul\":7184:7204   */\n      tag_148\n        /* \"#utility.yul\":7202:7203   */\n      dup3\n        /* \"#utility.yul\":7184:7204   */\n      tag_61\n      jump\t// in\n    tag_148:\n        /* \"#utility.yul\":7179:7204   */\n      swap2\n      pop\n        /* \"#utility.yul\":7218:7238   */\n      tag_149\n        /* \"#utility.yul\":7236:7237   */\n      dup4\n        /* \"#utility.yul\":7218:7238   */\n      tag_61\n      jump\t// in\n    tag_149:\n        /* \"#utility.yul\":7213:7238   */\n      swap3\n      pop\n        /* \"#utility.yul\":7261:7262   */\n      dup3\n        /* \"#utility.yul\":7258:7259   */\n      dup3\n        /* \"#utility.yul\":7254:7263   */\n      add\n        /* \"#utility.yul\":7247:7263   */\n      swap1\n      pop\n        /* \"#utility.yul\":7282:7285   */\n      dup1\n        /* \"#utility.yul\":7279:7280   */\n      dup3\n        /* \"#utility.yul\":7276:7286   */\n      gt\n        /* \"#utility.yul\":7273:7309   */\n      iszero\n      tag_150\n      jumpi\n        /* \"#utility.yul\":7289:7307   */\n      tag_151\n      tag_77\n      jump\t// in\n    tag_151:\n        /* \"#utility.yul\":7273:7309   */\n    tag_150:\n        /* \"#utility.yul\":7125:7316   */\n      swap3\n      swap2\n      pop\n      pop\n      jump\t// out\n        /* \"#utility.yul\":7322:7489   */\n    tag_78:\n        /* \"#utility.yul\":7462:7481   */\n      0x41756374696f6e2068617320656e646564000000000000000000000000000000\n        /* \"#utility.yul\":7458:7459   */\n      0x00\n        /* \"#utility.yul\":7450:7456   */\n      dup3\n        /* \"#utility.yul\":7446:7460   */\n      add\n        /* \"#utility.yul\":7439:7482   */\n      mstore\n        /* \"#utility.yul\":7322:7489   */\n      pop\n      jump\t// out\n        /* \"#utility.yul\":7495:7861   */\n    tag_79:\n        /* \"#utility.yul\":7637:7640   */\n      0x00\n        /* \"#utility.yul\":7658:7725   */\n      tag_154\n        /* \"#utility.yul\":7722:7724   */\n      0x11\n        /* \"#utility.yul\":7717:7720   */\n      dup4\n        /* \"#utility.yul\":7658:7725   */\n      tag_70\n      jump\t// in\n    tag_154:\n        /* \"#utility.yul\":7651:7725   */\n      swap2\n      pop\n        /* \"#utility.yul\":7734:7827   */\n      tag_155\n        /* \"#utility.yul\":7823:7826   */\n      dup3\n        /* \"#utility.yul\":7734:7827   */\n      tag_78\n      jump\t// in\n    tag_155:\n        /* \"#utility.yul\":7852:7854   */\n      0x20\n        /* \"#utility.yul\":7847:7850   */\n      dup3\n        /* \"#utility.yul\":7843:7855   */\n      add\n        /* \"#utility.yul\":7836:7855   */\n      swap1\n      pop\n        /* \"#utility.yul\":7495:7861   */\n      swap2\n      swap1\n      pop\n      jump\t// out\n        /* \"#utility.yul\":7867:8286   */\n    tag_50:\n        /* \"#utility.yul\":8033:8037   */\n      0x00\n        /* \"#utility.yul\":8071:8073   */\n      0x20\n        /* \"#utility.yul\":8060:8069   */\n      dup3\n        /* \"#utility.yul\":8056:8074   */\n      add\n        /* \"#utility.yul\":8048:8074   */\n      swap1\n      pop\n        /* \"#utility.yul\":8120:8129   */\n      dup2\n        /* \"#utility.yul\":8114:8118   */\n      dup2\n        /* \"#utility.yul\":8110:8130   */\n      sub\n        /* \"#utility.yul\":8106:8107   */\n      0x00\n        /* \"#utility.yul\":8095:8104   */\n      dup4\n        /* \"#utility.yul\":8091:8108   */\n      add\n        /* \"#utility.yul\":8084:8131   */\n      mstore\n        /* \"#utility.yul\":8148:8279   */\n      tag_157\n        /* \"#utility.yul\":8274:8278   */\n      dup2\n        /* \"#utility.yul\":8148:8279   */\n      tag_79\n      jump\t// in\n    tag_157:\n        /* \"#utility.yul\":8140:8279   */\n      swap1\n      pop\n        /* \"#utility.yul\":7867:8286   */\n      swap2\n      swap1\n      pop\n      jump\t// out\n        /* \"#utility.yul\":8292:8526   */\n    tag_80:\n        /* \"#utility.yul\":8432:8466   */\n      0x426964206d75737420626520686967686572207468616e207468652063757272\n        /* \"#utility.yul\":8428:8429   */\n      0x00\n        /* \"#utility.yul\":8420:8426   */\n      dup3\n        /* \"#utility.yul\":8416:8430   */\n      add\n        /* \"#utility.yul\":8409:8467   */\n      mstore\n        /* \"#utility.yul\":8501:8518   */\n      0x656e742068696768657374206269640000000000000000000000000000000000\n        /* \"#utility.yul\":8496:8498   */\n      0x20\n        /* \"#utility.yul\":8488:8494   */\n      dup3\n        /* \"#utility.yul\":8484:8499   */\n      add\n        /* \"#utility.yul\":8477:8519   */\n      mstore\n        /* \"#utility.yul\":8292:8526   */\n      pop\n      jump\t// out\n        /* \"#utility.yul\":8532:8898   */\n    tag_81:\n        /* \"#utility.yul\":8674:8677   */\n      0x00\n        /* \"#utility.yul\":8695:8762   */\n      tag_160\n        /* \"#utility.yul\":8759:8761   */\n      0x2f\n        /* \"#utility.yul\":8754:8757   */\n      dup4\n        /* \"#utility.yul\":8695:8762   */\n      tag_70\n      jump\t// in\n    tag_160:\n        /* \"#utility.yul\":8688:8762   */\n      swap2\n      pop\n        /* \"#utility.yul\":8771:8864   */\n      tag_161\n        /* \"#utility.yul\":8860:8863   */\n      dup3\n        /* \"#utility.yul\":8771:8864   */\n      tag_80\n      jump\t// in\n    tag_161:\n        /* \"#utility.yul\":8889:8891   */\n      0x40\n        /* \"#utility.yul\":8884:8887   */\n      dup3\n        /* \"#utility.yul\":8880:8892   */\n      add\n        /* \"#utility.yul\":8873:8892   */\n      swap1\n      pop\n        /* \"#utility.yul\":8532:8898   */\n      swap2\n      swap1\n      pop\n      jump\t// out\n        /* \"#utility.yul\":8904:9323   */\n    tag_54:\n        /* \"#utility.yul\":9070:9074   */\n      0x00\n        /* \"#utility.yul\":9108:9110   */\n      0x20\n        /* \"#utility.yul\":9097:9106   */\n      dup3\n        /* \"#utility.yul\":9093:9111   */\n      add\n        /* \"#utility.yul\":9085:9111   */\n      swap1\n      pop\n        /* \"#utility.yul\":9157:9166   */\n      dup2\n        /* \"#utility.yul\":9151:9155   */\n      dup2\n        /* \"#utility.yul\":9147:9167   */\n      sub\n        /* \"#utility.yul\":9143:9144   */\n      0x00\n        /* \"#utility.yul\":9132:9141   */\n      dup4\n        /* \"#utility.yul\":9128:9145   */\n      add\n        /* \"#utility.yul\":9121:9168   */\n      mstore\n        /* \"#utility.yul\":9185:9316   */\n      tag_163\n        /* \"#utility.yul\":9311:9315   */\n      dup2\n        /* \"#utility.yul\":9185:9316   */\n      tag_81\n      jump\t// in\n    tag_163:\n        /* \"#utility.yul\":9177:9316   */\n      swap1\n      pop\n        /* \"#utility.yul\":8904:9323   */\n      swap2\n      swap1\n      pop\n      jump\t// out\n\n    auxdata: 0xa2646970667358221220ac29965ace1e805b0fed8f569ef73cdb3d3fbab4a0574e3d466b6b93134c739064736f6c634300081c0033\n}\n",
				"bytecode": {
					"linkReferences": {},
					"object": "6080604052348015600e575f5ffd5b503360025f6101000a81548173ffffffffffffffffffffffffffffffffffffffff021916908373ffffffffffffffffffffffffffffffffffffffff160217905550610b268061005c5f395ff3fe608060405260043610610049575f3560e01c80630121683f1461004d578063571a26a0146100755780639979ef45146100b7578063f851a440146100d3578063fc528482146100fd575b5f5ffd5b348015610058575f5ffd5b50610073600480360381019061006e9190610675565b610127565b005b348015610080575f5ffd5b5061009b600480360381019061009691906106b3565b61039f565b6040516100ae9796959493929190610746565b60405180910390f35b6100d160048036038101906100cc91906106b3565b610427565b005b3480156100de575f5ffd5b506100e7610613565b6040516100f491906107b3565b60405180910390f35b348015610108575f5ffd5b50610111610638565b60405161011e91906107cc565b60405180910390f35b60025f9054906101000a900473ffffffffffffffffffffffffffffffffffffffff1673ffffffffffffffffffffffffffffffffffffffff163373ffffffffffffffffffffffffffffffffffffffff16146101b6576040517f08c379a00000000000000000000000000000000000000000000000000000000081526004016101ad9061083f565b60405180910390fd5b61ea6082116101fa576040517f08c379a00000000000000000000000000000000000000000000000000000000081526004016101f1906108a7565b60405180910390fd5b5f811161023c576040517f08c379a000000000000000000000000000000000000000000000000000000000815260040161023390610935565b60405180910390fd5b6040518060e001604052803373ffffffffffffffffffffffffffffffffffffffff1681526020018381526020018281526020014281526020015f151581526020015f73ffffffffffffffffffffffffffffffffffffffff1681526020015f8152505f5f60015481526020019081526020015f205f820151815f015f6101000a81548173ffffffffffffffffffffffffffffffffffffffff021916908373ffffffffffffffffffffffffffffffffffffffff1602179055506020820151816001015560408201518160020155606082015181600301556080820151816004015f6101000a81548160ff02191690831515021790555060a08201518160040160016101000a81548173ffffffffffffffffffffffffffffffffffffffff021916908373ffffffffffffffffffffffffffffffffffffffff16021790555060c0820151816005015590505060015f81548092919061039690610980565b91905055505050565b5f602052805f5260405f205f91509050805f015f9054906101000a900473ffffffffffffffffffffffffffffffffffffffff1690806001015490806002015490806003015490806004015f9054906101000a900460ff16908060040160019054906101000a900473ffffffffffffffffffffffffffffffffffffffff16908060050154905087565b5f5f5f8381526020019081526020015f209050806004015f9054906101000a900460ff1615801561046a5750428160010154826003015461046891906109c7565b115b6104a9576040517f08c379a00000000000000000000000000000000000000000000000000000000081526004016104a090610a44565b60405180910390fd5b8060050154341180156104c0575080600201543410155b6104ff576040517f08c379a00000000000000000000000000000000000000000000000000000000081526004016104f690610ad2565b60405180910390fd5b5f73ffffffffffffffffffffffffffffffffffffffff168160040160019054906101000a900473ffffffffffffffffffffffffffffffffffffffff1673ffffffffffffffffffffffffffffffffffffffff16146105c3578060040160019054906101000a900473ffffffffffffffffffffffffffffffffffffffff1673ffffffffffffffffffffffffffffffffffffffff166108fc826005015490811502906040515f60405180830381858888f193505050501580156105c1573d5f5f3e3d5ffd5b505b338160040160016101000a81548173ffffffffffffffffffffffffffffffffffffffff021916908373ffffffffffffffffffffffffffffffffffffffff1602179055503481600501819055505050565b60025f9054906101000a900473ffffffffffffffffffffffffffffffffffffffff1681565b60015481565b5f5ffd5b5f819050919050565b61065481610642565b811461065e575f5ffd5b50565b5f8135905061066f8161064b565b92915050565b5f5f6040838503121561068b5761068a61063e565b5b5f61069885828601610661565b92505060206106a985828601610661565b9150509250929050565b5f602082840312156106c8576106c761063e565b5b5f6106d584828501610661565b91505092915050565b5f73ffffffffffffffffffffffffffffffffffffffff82169050919050565b5f610707826106de565b9050919050565b610717816106fd565b82525050565b61072681610642565b82525050565b5f8115159050919050565b6107408161072c565b82525050565b5f60e0820190506107595f83018a61070e565b610766602083018961071d565b610773604083018861071d565b610780606083018761071d565b61078d6080830186610737565b61079a60a083018561070e565b6107a760c083018461071d565b98975050505050505050565b5f6020820190506107c65f83018461070e565b92915050565b5f6020820190506107df5f83018461071d565b92915050565b5f82825260208201905092915050565b7f4f6e6c792061646d696e2063616e206372656174652061756374696f6e7300005f82015250565b5f610829601e836107e5565b9150610834826107f5565b602082019050919050565b5f6020820190508181035f8301526108568161081d565b9050919050565b7f4475726174696f6e206d7573742062652067726561746572207468616e2030005f82015250565b5f610891601f836107e5565b915061089c8261085d565b602082019050919050565b5f6020820190508181035f8301526108be81610885565b9050919050565b7f5374617274207072696365206d7573742062652067726561746572207468616e5f8201527f2030000000000000000000000000000000000000000000000000000000000000602082015250565b5f61091f6022836107e5565b915061092a826108c5565b604082019050919050565b5f6020820190508181035f83015261094c81610913565b9050919050565b7f4e487b71000000000000000000000000000000000000000000000000000000005f52601160045260245ffd5b5f61098a82610642565b91507fffffffffffffffffffffffffffffffffffffffffffffffffffffffffffffffff82036109bc576109bb610953565b5b600182019050919050565b5f6109d182610642565b91506109dc83610642565b92508282019050808211156109f4576109f3610953565b5b92915050565b7f41756374696f6e2068617320656e6465640000000000000000000000000000005f82015250565b5f610a2e6011836107e5565b9150610a39826109fa565b602082019050919050565b5f6020820190508181035f830152610a5b81610a22565b9050919050565b7f426964206d75737420626520686967686572207468616e2074686520637572725f8201527f656e742068696768657374206269640000000000000000000000000000000000602082015250565b5f610abc602f836107e5565b9150610ac782610a62565b604082019050919050565b5f6020820190508181035f830152610ae981610ab0565b905091905056fea2646970667358221220ac29965ace1e805b0fed8f569ef73cdb3d3fbab4a0574e3d466b6b93134c739064736f6c634300081c0033",
					"opcodes": "PUSH1 0x80 PUSH1 0x40 MSTORE CALLVALUE DUP1 ISZERO PUSH1 0xE JUMPI PUSH0 PUSH0 REVERT JUMPDEST POP CALLER PUSH1 0x2 PUSH0 PUSH2 0x100 EXP DUP2 SLOAD DUP2 PUSH20 0xFFFFFFFFFFFFFFFFFFFFFFFFFFFFFFFFFFFFFFFF MUL NOT AND SWAP1 DUP4 PUSH20 0xFFFFFFFFFFFFFFFFFFFFFFFFFFFFFFFFFFFFFFFF AND MUL OR SWAP1 SSTORE POP PUSH2 0xB26 DUP1 PUSH2 0x5C PUSH0 CODECOPY PUSH0 RETURN INVALID PUSH1 0x80 PUSH1 0x40 MSTORE PUSH1 0x4 CALLDATASIZE LT PUSH2 0x49 JUMPI PUSH0 CALLDATALOAD PUSH1 0xE0 SHR DUP1 PUSH4 0x121683F EQ PUSH2 0x4D JUMPI DUP1 PUSH4 0x571A26A0 EQ PUSH2 0x75 JUMPI DUP1 PUSH4 0x9979EF45 EQ PUSH2 0xB7 JUMPI DUP1 PUSH4 0xF851A440 EQ PUSH2 0xD3 JUMPI DUP1 PUSH4 0xFC528482 EQ PUSH2 0xFD JUMPI JUMPDEST PUSH0 PUSH0 REVERT JUMPDEST CALLVALUE DUP1 ISZERO PUSH2 0x58 JUMPI PUSH0 PUSH0 REVERT JUMPDEST POP PUSH2 0x73 PUSH1 0x4 DUP1 CALLDATASIZE SUB DUP2 ADD SWAP1 PUSH2 0x6E SWAP2 SWAP1 PUSH2 0x675 JUMP JUMPDEST PUSH2 0x127 JUMP JUMPDEST STOP JUMPDEST CALLVALUE DUP1 ISZERO PUSH2 0x80 JUMPI PUSH0 PUSH0 REVERT JUMPDEST POP PUSH2 0x9B PUSH1 0x4 DUP1 CALLDATASIZE SUB DUP2 ADD SWAP1 PUSH2 0x96 SWAP2 SWAP1 PUSH2 0x6B3 JUMP JUMPDEST PUSH2 0x39F JUMP JUMPDEST PUSH1 0x40 MLOAD PUSH2 0xAE SWAP8 SWAP7 SWAP6 SWAP5 SWAP4 SWAP3 SWAP2 SWAP1 PUSH2 0x746 JUMP JUMPDEST PUSH1 0x40 MLOAD DUP1 SWAP2 SUB SWAP1 RETURN JUMPDEST PUSH2 0xD1 PUSH1 0x4 DUP1 CALLDATASIZE SUB DUP2 ADD SWAP1 PUSH2 0xCC SWAP2 SWAP1 PUSH2 0x6B3 JUMP JUMPDEST PUSH2 0x427 JUMP JUMPDEST STOP JUMPDEST CALLVALUE DUP1 ISZERO PUSH2 0xDE JUMPI PUSH0 PUSH0 REVERT JUMPDEST POP PUSH2 0xE7 PUSH2 0x613 JUMP JUMPDEST PUSH1 0x40 MLOAD PUSH2 0xF4 SWAP2 SWAP1 PUSH2 0x7B3 JUMP JUMPDEST PUSH1 0x40 MLOAD DUP1 SWAP2 SUB SWAP1 RETURN JUMPDEST CALLVALUE DUP1 ISZERO PUSH2 0x108 JUMPI PUSH0 PUSH0 REVERT JUMPDEST POP PUSH2 0x111 PUSH2 0x638 JUMP JUMPDEST PUSH1 0x40 MLOAD PUSH2 0x11E SWAP2 SWAP1 PUSH2 0x7CC JUMP JUMPDEST PUSH1 0x40 MLOAD DUP1 SWAP2 SUB SWAP1 RETURN JUMPDEST PUSH1 0x2 PUSH0 SWAP1 SLOAD SWAP1 PUSH2 0x100 EXP SWAP1 DIV PUSH20 0xFFFFFFFFFFFFFFFFFFFFFFFFFFFFFFFFFFFFFFFF AND PUSH20 0xFFFFFFFFFFFFFFFFFFFFFFFFFFFFFFFFFFFFFFFF AND CALLER PUSH20 0xFFFFFFFFFFFFFFFFFFFFFFFFFFFFFFFFFFFFFFFF AND EQ PUSH2 0x1B6 JUMPI PUSH1 0x40 MLOAD PUSH32 0x8C379A000000000000000000000000000000000000000000000000000000000 DUP2 MSTORE PUSH1 0x4 ADD PUSH2 0x1AD SWAP1 PUSH2 0x83F JUMP JUMPDEST PUSH1 0x40 MLOAD DUP1 SWAP2 SUB SWAP1 REVERT JUMPDEST PUSH2 0xEA60 DUP3 GT PUSH2 0x1FA JUMPI PUSH1 0x40 MLOAD PUSH32 0x8C379A000000000000000000000000000000000000000000000000000000000 DUP2 MSTORE PUSH1 0x4 ADD PUSH2 0x1F1 SWAP1 PUSH2 0x8A7 JUMP JUMPDEST PUSH1 0x40 MLOAD DUP1 SWAP2 SUB SWAP1 REVERT JUMPDEST PUSH0 DUP2 GT PUSH2 0x23C JUMPI PUSH1 0x40 MLOAD PUSH32 0x8C379A000000000000000000000000000000000000000000000000000000000 DUP2 MSTORE PUSH1 0x4 ADD PUSH2 0x233 SWAP1 PUSH2 0x935 JUMP JUMPDEST PUSH1 0x40 MLOAD DUP1 SWAP2 SUB SWAP1 REVERT JUMPDEST PUSH1 0x40 MLOAD DUP1 PUSH1 0xE0 ADD PUSH1 0x40 MSTORE DUP1 CALLER PUSH20 0xFFFFFFFFFFFFFFFFFFFFFFFFFFFFFFFFFFFFFFFF AND DUP2 MSTORE PUSH1 0x20 ADD DUP4 DUP2 MSTORE PUSH1 0x20 ADD DUP3 DUP2 MSTORE PUSH1 0x20 ADD TIMESTAMP DUP2 MSTORE PUSH1 0x20 ADD PUSH0 ISZERO ISZERO DUP2 MSTORE PUSH1 0x20 ADD PUSH0 PUSH20 0xFFFFFFFFFFFFFFFFFFFFFFFFFFFFFFFFFFFFFFFF AND DUP2 MSTORE PUSH1 0x20 ADD PUSH0 DUP2 MSTORE POP PUSH0 PUSH0 PUSH1 0x1 SLOAD DUP2 MSTORE PUSH1 0x20 ADD SWAP1 DUP2 MSTORE PUSH1 0x20 ADD PUSH0 KECCAK256 PUSH0 DUP3 ADD MLOAD DUP2 PUSH0 ADD PUSH0 PUSH2 0x100 EXP DUP2 SLOAD DUP2 PUSH20 0xFFFFFFFFFFFFFFFFFFFFFFFFFFFFFFFFFFFFFFFF MUL NOT AND SWAP1 DUP4 PUSH20 0xFFFFFFFFFFFFFFFFFFFFFFFFFFFFFFFFFFFFFFFF AND MUL OR SWAP1 SSTORE POP PUSH1 0x20 DUP3 ADD MLOAD DUP2 PUSH1 0x1 ADD SSTORE PUSH1 0x40 DUP3 ADD MLOAD DUP2 PUSH1 0x2 ADD SSTORE PUSH1 0x60 DUP3 ADD MLOAD DUP2 PUSH1 0x3 ADD SSTORE PUSH1 0x80 DUP3 ADD MLOAD DUP2 PUSH1 0x4 ADD PUSH0 PUSH2 0x100 EXP DUP2 SLOAD DUP2 PUSH1 0xFF MUL NOT AND SWAP1 DUP4 ISZERO ISZERO MUL OR SWAP1 SSTORE POP PUSH1 0xA0 DUP3 ADD MLOAD DUP2 PUSH1 0x4 ADD PUSH1 0x1 PUSH2 0x100 EXP DUP2 SLOAD DUP2 PUSH20 0xFFFFFFFFFFFFFFFFFFFFFFFFFFFFFFFFFFFFFFFF MUL NOT AND SWAP1 DUP4 PUSH20 0xFFFFFFFFFFFFFFFFFFFFFFFFFFFFFFFFFFFFFFFF AND MUL OR SWAP1 SSTORE POP PUSH1 0xC0 DUP3 ADD MLOAD DUP2 PUSH1 0x5 ADD SSTORE SWAP1 POP POP PUSH1 0x1 PUSH0 DUP2 SLOAD DUP1 SWAP3 SWAP2 SWAP1 PUSH2 0x396 SWAP1 PUSH2 0x980 JUMP JUMPDEST SWAP2 SWAP1 POP SSTORE POP POP POP JUMP JUMPDEST PUSH0 PUSH1 0x20 MSTORE DUP1 PUSH0 MSTORE PUSH1 0x40 PUSH0 KECCAK256 PUSH0 SWAP2 POP SWAP1 POP DUP1 PUSH0 ADD PUSH0 SWAP1 SLOAD SWAP1 PUSH2 0x100 EXP SWAP1 DIV PUSH20 0xFFFFFFFFFFFFFFFFFFFFFFFFFFFFFFFFFFFFFFFF AND SWAP1 DUP1 PUSH1 0x1 ADD SLOAD SWAP1 DUP1 PUSH1 0x2 ADD SLOAD SWAP1 DUP1 PUSH1 0x3 ADD SLOAD SWAP1 DUP1 PUSH1 0x4 ADD PUSH0 SWAP1 SLOAD SWAP1 PUSH2 0x100 EXP SWAP1 DIV PUSH1 0xFF AND SWAP1 DUP1 PUSH1 0x4 ADD PUSH1 0x1 SWAP1 SLOAD SWAP1 PUSH2 0x100 EXP SWAP1 DIV PUSH20 0xFFFFFFFFFFFFFFFFFFFFFFFFFFFFFFFFFFFFFFFF AND SWAP1 DUP1 PUSH1 0x5 ADD SLOAD SWAP1 POP DUP8 JUMP JUMPDEST PUSH0 PUSH0 PUSH0 DUP4 DUP2 MSTORE PUSH1 0x20 ADD SWAP1 DUP2 MSTORE PUSH1 0x20 ADD PUSH0 KECCAK256 SWAP1 POP DUP1 PUSH1 0x4 ADD PUSH0 SWAP1 SLOAD SWAP1 PUSH2 0x100 EXP SWAP1 DIV PUSH1 0xFF AND ISZERO DUP1 ISZERO PUSH2 0x46A JUMPI POP TIMESTAMP DUP2 PUSH1 0x1 ADD SLOAD DUP3 PUSH1 0x3 ADD SLOAD PUSH2 0x468 SWAP2 SWAP1 PUSH2 0x9C7 JUMP JUMPDEST GT JUMPDEST PUSH2 0x4A9 JUMPI PUSH1 0x40 MLOAD PUSH32 0x8C379A000000000000000000000000000000000000000000000000000000000 DUP2 MSTORE PUSH1 0x4 ADD PUSH2 0x4A0 SWAP1 PUSH2 0xA44 JUMP JUMPDEST PUSH1 0x40 MLOAD DUP1 SWAP2 SUB SWAP1 REVERT JUMPDEST DUP1 PUSH1 0x5 ADD SLOAD CALLVALUE GT DUP1 ISZERO PUSH2 0x4C0 JUMPI POP DUP1 PUSH1 0x2 ADD SLOAD CALLVALUE LT ISZERO JUMPDEST PUSH2 0x4FF JUMPI PUSH1 0x40 MLOAD PUSH32 0x8C379A000000000000000000000000000000000000000000000000000000000 DUP2 MSTORE PUSH1 0x4 ADD PUSH2 0x4F6 SWAP1 PUSH2 0xAD2 JUMP JUMPDEST PUSH1 0x40 MLOAD DUP1 SWAP2 SUB SWAP1 REVERT JUMPDEST PUSH0 PUSH20 0xFFFFFFFFFFFFFFFFFFFFFFFFFFFFFFFFFFFFFFFF AND DUP2 PUSH1 0x4 ADD PUSH1 0x1 SWAP1 SLOAD SWAP1 PUSH2 0x100 EXP SWAP1 DIV PUSH20 0xFFFFFFFFFFFFFFFFFFFFFFFFFFFFFFFFFFFFFFFF AND PUSH20 0xFFFFFFFFFFFFFFFFFFFFFFFFFFFFFFFFFFFFFFFF AND EQ PUSH2 0x5C3 JUMPI DUP1 PUSH1 0x4 ADD PUSH1 0x1 SWAP1 SLOAD SWAP1 PUSH2 0x100 EXP SWAP1 DIV PUSH20 0xFFFFFFFFFFFFFFFFFFFFFFFFFFFFFFFFFFFFFFFF AND PUSH20 0xFFFFFFFFFFFFFFFFFFFFFFFFFFFFFFFFFFFFFFFF AND PUSH2 0x8FC DUP3 PUSH1 0x5 ADD SLOAD SWAP1 DUP2 ISZERO MUL SWAP1 PUSH1 0x40 MLOAD PUSH0 PUSH1 0x40 MLOAD DUP1 DUP4 SUB DUP2 DUP6 DUP9 DUP9 CALL SWAP4 POP POP POP POP ISZERO DUP1 ISZERO PUSH2 0x5C1 JUMPI RETURNDATASIZE PUSH0 PUSH0 RETURNDATACOPY RETURNDATASIZE PUSH0 REVERT JUMPDEST POP JUMPDEST CALLER DUP2 PUSH1 0x4 ADD PUSH1 0x1 PUSH2 0x100 EXP DUP2 SLOAD DUP2 PUSH20 0xFFFFFFFFFFFFFFFFFFFFFFFFFFFFFFFFFFFFFFFF MUL NOT AND SWAP1 DUP4 PUSH20 0xFFFFFFFFFFFFFFFFFFFFFFFFFFFFFFFFFFFFFFFF AND MUL OR SWAP1 SSTORE POP CALLVALUE DUP2 PUSH1 0x5 ADD DUP2 SWAP1 SSTORE POP POP POP JUMP JUMPDEST PUSH1 0x2 PUSH0 SWAP1 SLOAD SWAP1 PUSH2 0x100 EXP SWAP1 DIV PUSH20 0xFFFFFFFFFFFFFFFFFFFFFFFFFFFFFFFFFFFFFFFF AND DUP2 JUMP JUMPDEST PUSH1 0x1 SLOAD DUP2 JUMP JUMPDEST PUSH0 PUSH0 REVERT JUMPDEST PUSH0 DUP2 SWAP1 POP SWAP2 SWAP1 POP JUMP JUMPDEST PUSH2 0x654 DUP2 PUSH2 0x642 JUMP JUMPDEST DUP2 EQ PUSH2 0x65E JUMPI PUSH0 PUSH0 REVERT JUMPDEST POP JUMP JUMPDEST PUSH0 DUP2 CALLDATALOAD SWAP1 POP PUSH2 0x66F DUP2 PUSH2 0x64B JUMP JUMPDEST SWAP3 SWAP2 POP POP JUMP JUMPDEST PUSH0 PUSH0 PUSH1 0x40 DUP4 DUP6 SUB SLT ISZERO PUSH2 0x68B JUMPI PUSH2 0x68A PUSH2 0x63E JUMP JUMPDEST JUMPDEST PUSH0 PUSH2 0x698 DUP6 DUP3 DUP7 ADD PUSH2 0x661 JUMP JUMPDEST SWAP3 POP POP PUSH1 0x20 PUSH2 0x6A9 DUP6 DUP3 DUP7 ADD PUSH2 0x661 JUMP JUMPDEST SWAP2 POP POP SWAP3 POP SWAP3 SWAP1 POP JUMP JUMPDEST PUSH0 PUSH1 0x20 DUP3 DUP5 SUB SLT ISZERO PUSH2 0x6C8 JUMPI PUSH2 0x6C7 PUSH2 0x63E JUMP JUMPDEST JUMPDEST PUSH0 PUSH2 0x6D5 DUP5 DUP3 DUP6 ADD PUSH2 0x661 JUMP JUMPDEST SWAP2 POP POP SWAP3 SWAP2 POP POP JUMP JUMPDEST PUSH0 PUSH20 0xFFFFFFFFFFFFFFFFFFFFFFFFFFFFFFFFFFFFFFFF DUP3 AND SWAP1 POP SWAP2 SWAP1 POP JUMP JUMPDEST PUSH0 PUSH2 0x707 DUP3 PUSH2 0x6DE JUMP JUMPDEST SWAP1 POP SWAP2 SWAP1 POP JUMP JUMPDEST PUSH2 0x717 DUP2 PUSH2 0x6FD JUMP JUMPDEST DUP3 MSTORE POP POP JUMP JUMPDEST PUSH2 0x726 DUP2 PUSH2 0x642 JUMP JUMPDEST DUP3 MSTORE POP POP JUMP JUMPDEST PUSH0 DUP2 ISZERO ISZERO SWAP1 POP SWAP2 SWAP1 POP JUMP JUMPDEST PUSH2 0x740 DUP2 PUSH2 0x72C JUMP JUMPDEST DUP3 MSTORE POP POP JUMP JUMPDEST PUSH0 PUSH1 0xE0 DUP3 ADD SWAP1 POP PUSH2 0x759 PUSH0 DUP4 ADD DUP11 PUSH2 0x70E JUMP JUMPDEST PUSH2 0x766 PUSH1 0x20 DUP4 ADD DUP10 PUSH2 0x71D JUMP JUMPDEST PUSH2 0x773 PUSH1 0x40 DUP4 ADD DUP9 PUSH2 0x71D JUMP JUMPDEST PUSH2 0x780 PUSH1 0x60 DUP4 ADD DUP8 PUSH2 0x71D JUMP JUMPDEST PUSH2 0x78D PUSH1 0x80 DUP4 ADD DUP7 PUSH2 0x737 JUMP JUMPDEST PUSH2 0x79A PUSH1 0xA0 DUP4 ADD DUP6 PUSH2 0x70E JUMP JUMPDEST PUSH2 0x7A7 PUSH1 0xC0 DUP4 ADD DUP5 PUSH2 0x71D JUMP JUMPDEST SWAP9 SWAP8 POP POP POP POP POP POP POP POP JUMP JUMPDEST PUSH0 PUSH1 0x20 DUP3 ADD SWAP1 POP PUSH2 0x7C6 PUSH0 DUP4 ADD DUP5 PUSH2 0x70E JUMP JUMPDEST SWAP3 SWAP2 POP POP JUMP JUMPDEST PUSH0 PUSH1 0x20 DUP3 ADD SWAP1 POP PUSH2 0x7DF PUSH0 DUP4 ADD DUP5 PUSH2 0x71D JUMP JUMPDEST SWAP3 SWAP2 POP POP JUMP JUMPDEST PUSH0 DUP3 DUP3 MSTORE PUSH1 0x20 DUP3 ADD SWAP1 POP SWAP3 SWAP2 POP POP JUMP JUMPDEST PUSH32 0x4F6E6C792061646D696E2063616E206372656174652061756374696F6E730000 PUSH0 DUP3 ADD MSTORE POP JUMP JUMPDEST PUSH0 PUSH2 0x829 PUSH1 0x1E DUP4 PUSH2 0x7E5 JUMP JUMPDEST SWAP2 POP PUSH2 0x834 DUP3 PUSH2 0x7F5 JUMP JUMPDEST PUSH1 0x20 DUP3 ADD SWAP1 POP SWAP2 SWAP1 POP JUMP JUMPDEST PUSH0 PUSH1 0x20 DUP3 ADD SWAP1 POP DUP2 DUP2 SUB PUSH0 DUP4 ADD MSTORE PUSH2 0x856 DUP2 PUSH2 0x81D JUMP JUMPDEST SWAP1 POP SWAP2 SWAP1 POP JUMP JUMPDEST PUSH32 0x4475726174696F6E206D7573742062652067726561746572207468616E203000 PUSH0 DUP3 ADD MSTORE POP JUMP JUMPDEST PUSH0 PUSH2 0x891 PUSH1 0x1F DUP4 PUSH2 0x7E5 JUMP JUMPDEST SWAP2 POP PUSH2 0x89C DUP3 PUSH2 0x85D JUMP JUMPDEST PUSH1 0x20 DUP3 ADD SWAP1 POP SWAP2 SWAP1 POP JUMP JUMPDEST PUSH0 PUSH1 0x20 DUP3 ADD SWAP1 POP DUP2 DUP2 SUB PUSH0 DUP4 ADD MSTORE PUSH2 0x8BE DUP2 PUSH2 0x885 JUMP JUMPDEST SWAP1 POP SWAP2 SWAP1 POP JUMP JUMPDEST PUSH32 0x5374617274207072696365206D7573742062652067726561746572207468616E PUSH0 DUP3 ADD MSTORE PUSH32 0x2030000000000000000000000000000000000000000000000000000000000000 PUSH1 0x20 DUP3 ADD MSTORE POP JUMP JUMPDEST PUSH0 PUSH2 0x91F PUSH1 0x22 DUP4 PUSH2 0x7E5 JUMP JUMPDEST SWAP2 POP PUSH2 0x92A DUP3 PUSH2 0x8C5 JUMP JUMPDEST PUSH1 0x40 DUP3 ADD SWAP1 POP SWAP2 SWAP1 POP JUMP JUMPDEST PUSH0 PUSH1 0x20 DUP3 ADD SWAP1 POP DUP2 DUP2 SUB PUSH0 DUP4 ADD MSTORE PUSH2 0x94C DUP2 PUSH2 0x913 JUMP JUMPDEST SWAP1 POP SWAP2 SWAP1 POP JUMP JUMPDEST PUSH32 0x4E487B7100000000000000000000000000000000000000000000000000000000 PUSH0 MSTORE PUSH1 0x11 PUSH1 0x4 MSTORE PUSH1 0x24 PUSH0 REVERT JUMPDEST PUSH0 PUSH2 0x98A DUP3 PUSH2 0x642 JUMP JUMPDEST SWAP2 POP PUSH32 0xFFFFFFFFFFFFFFFFFFFFFFFFFFFFFFFFFFFFFFFFFFFFFFFFFFFFFFFFFFFFFFFF DUP3 SUB PUSH2 0x9BC JUMPI PUSH2 0x9BB PUSH2 0x953 JUMP JUMPDEST JUMPDEST PUSH1 0x1 DUP3 ADD SWAP1 POP SWAP2 SWAP1 POP JUMP JUMPDEST PUSH0 PUSH2 0x9D1 DUP3 PUSH2 0x642 JUMP JUMPDEST SWAP2 POP PUSH2 0x9DC DUP4 PUSH2 0x642 JUMP JUMPDEST SWAP3 POP DUP3 DUP3 ADD SWAP1 POP DUP1 DUP3 GT ISZERO PUSH2 0x9F4 JUMPI PUSH2 0x9F3 PUSH2 0x953 JUMP JUMPDEST JUMPDEST SWAP3 SWAP2 POP POP JUMP JUMPDEST PUSH32 0x41756374696F6E2068617320656E646564000000000000000000000000000000 PUSH0 DUP3 ADD MSTORE POP JUMP JUMPDEST PUSH0 PUSH2 0xA2E PUSH1 0x11 DUP4 PUSH2 0x7E5 JUMP JUMPDEST SWAP2 POP PUSH2 0xA39 DUP3 PUSH2 0x9FA JUMP JUMPDEST PUSH1 0x20 DUP3 ADD SWAP1 POP SWAP2 SWAP1 POP JUMP JUMPDEST PUSH0 PUSH1 0x20 DUP3 ADD SWAP1 POP DUP2 DUP2 SUB PUSH0 DUP4 ADD MSTORE PUSH2 0xA5B DUP2 PUSH2 0xA22 JUMP JUMPDEST SWAP1 POP SWAP2 SWAP1 POP JUMP JUMPDEST PUSH32 0x426964206D75737420626520686967686572207468616E207468652063757272 PUSH0 DUP3 ADD MSTORE PUSH32 0x656E742068696768657374206269640000000000000000000000000000000000 PUSH1 0x20 DUP3 ADD MSTORE POP JUMP JUMPDEST PUSH0 PUSH2 0xABC PUSH1 0x2F DUP4 PUSH2 0x7E5 JUMP JUMPDEST SWAP2 POP PUSH2 0xAC7 DUP3 PUSH2 0xA62 JUMP JUMPDEST PUSH1 0x40 DUP3 ADD SWAP1 POP SWAP2 SWAP1 POP JUMP JUMPDEST PUSH0 PUSH1 0x20 DUP3 ADD SWAP1 POP DUP2 DUP2 SUB PUSH0 DUP4 ADD MSTORE PUSH2 0xAE9 DUP2 PUSH2 0xAB0 JUMP JUMPDEST SWAP1 POP SWAP2 SWAP1 POP JUMP INVALID LOG2 PUSH5 0x6970667358 0x22 SLT KECCAK256 0xAC 0x29 SWAP7 GAS 0xCE 0x1E DUP1 JUMPDEST 0xF 0xED DUP16 JUMP SWAP15 0xF7 EXTCODECOPY 0xDB RETURNDATASIZE EXTCODEHASH 0xBA 0xB4 LOG0 JUMPI 0x4E RETURNDATASIZE CHAINID PUSH12 0x6B93134C739064736F6C6343 STOP ADDMOD SHR STOP CALLER "
				},
				"gasEstimates": {
					"creation": {
						"codeDepositCost": "570800",
						"executionCost": "24869",
						"totalCost": "595669"
					},
					"external": {
						"admin()": "2552",
						"auctions(uint256)": "infinite",
						"createAuction(uint256,uint256)": "infinite",
						"nextAuctionId()": "2491",
						"placeBid(uint256)": "infinite"
					}
				},
				"methodIdentifiers": {
					"admin()": "f851a440",
					"auctions(uint256)": "571a26a0",
					"createAuction(uint256,uint256)": "0121683f",
					"nextAuctionId()": "fc528482",
					"placeBid(uint256)": "9979ef45"
				}
			},
			"storageLayout": {
				"storage": [
					{
						"astId": 21,
						"contract": "contracts/NftAuction.sol:NftAuction",
						"label": "auctions",
						"offset": 0,
						"slot": "0",
						"type": "t_mapping(t_uint256,t_struct(Auction)16_storage)"
					},
					{
						"astId": 23,
						"contract": "contracts/NftAuction.sol:NftAuction",
						"label": "nextAuctionId",
						"offset": 0,
						"slot": "1",
						"type": "t_uint256"
					},
					{
						"astId": 25,
						"contract": "contracts/NftAuction.sol:NftAuction",
						"label": "admin",
						"offset": 0,
						"slot": "2",
						"type": "t_address"
					}
				],
				"types": {
					"t_address": {
						"encoding": "inplace",
						"label": "address",
						"numberOfBytes": "20"
					},
					"t_bool": {
						"encoding": "inplace",
						"label": "bool",
						"numberOfBytes": "1"
					},
					"t_mapping(t_uint256,t_struct(Auction)16_storage)": {
						"encoding": "mapping",
						"key": "t_uint256",
						"label": "mapping(uint256 => struct NftAuction.Auction)",
						"numberOfBytes": "32",
						"value": "t_struct(Auction)16_storage"
					},
					"t_struct(Auction)16_storage": {
						"encoding": "inplace",
						"label": "struct NftAuction.Auction",
						"members": [
							{
								"astId": 3,
								"contract": "contracts/NftAuction.sol:NftAuction",
								"label": "seller",
								"offset": 0,
								"slot": "0",
								"type": "t_address"
							},
							{
								"astId": 5,
								"contract": "contracts/NftAuction.sol:NftAuction",
								"label": "duration",
								"offset": 0,
								"slot": "1",
								"type": "t_uint256"
							},
							{
								"astId": 7,
								"contract": "contracts/NftAuction.sol:NftAuction",
								"label": "startPrice",
								"offset": 0,
								"slot": "2",
								"type": "t_uint256"
							},
							{
								"astId": 9,
								"contract": "contracts/NftAuction.sol:NftAuction",
								"label": "startTime",
								"offset": 0,
								"slot": "3",
								"type": "t_uint256"
							},
							{
								"astId": 11,
								"contract": "contracts/NftAuction.sol:NftAuction",
								"label": "ended",
								"offset": 0,
								"slot": "4",
								"type": "t_bool"
							},
							{
								"astId": 13,
								"contract": "contracts/NftAuction.sol:NftAuction",
								"label": "highestBidder",
								"offset": 1,
								"slot": "4",
								"type": "t_address"
							},
							{
								"astId": 15,
								"contract": "contracts/NftAuction.sol:NftAuction",
								"label": "highestBid",
								"offset": 0,
								"slot": "5",
								"type": "t_uint256"
							}
						],
						"numberOfBytes": "192"
					},
					"t_uint256": {
						"encoding": "inplace",
						"label": "uint256",
						"numberOfBytes": "32"
					}
				}
			},
			"userdoc": {
				"kind": "user",
				"methods": {},
				"version": 1
			}
		}
	}
}