{
	"contracts/NftAuction.sol": {
		"NftAuction": {
			"abi": [
				{
					"inputs": [
						{
							"internalType": "address",
							"name": "target",
							"type": "address"
						}
					],
					"name": "AddressEmptyCode",
					"type": "error"
				},
				{
					"inputs": [
						{
							"internalType": "address",
							"name": "implementation",
							"type": "address"
						}
					],
					"name": "ERC1967InvalidImplementation",
					"type": "error"
				},
				{
					"inputs": [],
					"name": "ERC1967NonPayable",
					"type": "error"
				},
				{
					"inputs": [],
					"name": "FailedCall",
					"type": "error"
				},
				{
					"inputs": [],
					"name": "InvalidInitialization",
					"type": "error"
				},
				{
					"inputs": [],
					"name": "NotInitializing",
					"type": "error"
				},
				{
					"inputs": [],
					"name": "UUPSUnauthorizedCallContext",
					"type": "error"
				},
				{
					"inputs": [
						{
							"internalType": "bytes32",
							"name": "slot",
							"type": "bytes32"
						}
					],
					"name": "UUPSUnsupportedProxiableUUID",
					"type": "error"
				},
				{
					"anonymous": false,
					"inputs": [
						{
							"indexed": false,
							"internalType": "uint64",
							"name": "version",
							"type": "uint64"
						}
					],
					"name": "Initialized",
					"type": "event"
				},
				{
					"anonymous": false,
					"inputs": [
						{
							"indexed": true,
							"internalType": "address",
							"name": "implementation",
							"type": "address"
						}
					],
					"name": "Upgraded",
					"type": "event"
				},
				{
					"inputs": [],
					"name": "UPGRADE_INTERFACE_VERSION",
					"outputs": [
						{
							"internalType": "string",
							"name": "",
							"type": "string"
						}
					],
					"stateMutability": "view",
					"type": "function"
				},
				{
					"inputs": [],
					"name": "admin",
					"outputs": [
						{
							"internalType": "address",
							"name": "",
							"type": "address"
						}
					],
					"stateMutability": "view",
					"type": "function"
				},
				{
					"inputs": [
						{
							"internalType": "uint256",
							"name": "",
							"type": "uint256"
						}
					],
					"name": "auctions",
					"outputs": [
						{
							"internalType": "address",
							"name": "seller",
							"type": "address"
						},
						{
							"internalType": "uint256",
							"name": "duration",
							"type": "uint256"
						},
						{
							"internalType": "uint256",
							"name": "startPrice",
							"type": "uint256"
						},
						{
							"internalType": "uint256",
							"name": "startTime",
							"type": "uint256"
						},
						{
							"internalType": "bool",
							"name": "ended",
							"type": "bool"
						},
						{
							"internalType": "address",
							"name": "highestBidder",
							"type": "address"
						},
						{
							"internalType": "uint256",
							"name": "highestBid",
							"type": "uint256"
						},
						{
							"internalType": "address",
							"name": "nftContract",
							"type": "address"
						},
						{
							"internalType": "uint256",
							"name": "tokenId",
							"type": "uint256"
						}
					],
					"stateMutability": "view",
					"type": "function"
				},
				{
					"inputs": [
						{
							"internalType": "uint256",
							"name": "_duration",
							"type": "uint256"
						},
						{
							"internalType": "uint256",
							"name": "_startPrice",
							"type": "uint256"
						},
						{
							"internalType": "address",
							"name": "_nftAddress",
							"type": "address"
						},
						{
							"internalType": "uint256",
							"name": "_tokenId",
							"type": "uint256"
						}
					],
					"name": "createAuction",
					"outputs": [],
					"stateMutability": "nonpayable",
					"type": "function"
				},
				{
					"inputs": [
						{
							"internalType": "uint256",
							"name": "_auctionID",
							"type": "uint256"
						}
					],
					"name": "endAuction",
					"outputs": [],
					"stateMutability": "nonpayable",
					"type": "function"
				},
				{
					"inputs": [],
					"name": "initialize",
					"outputs": [],
					"stateMutability": "nonpayable",
					"type": "function"
				},
				{
					"inputs": [],
					"name": "nextAuctionId",
					"outputs": [
						{
							"internalType": "uint256",
							"name": "",
							"type": "uint256"
						}
					],
					"stateMutability": "view",
					"type": "function"
				},
				{
					"inputs": [
						{
							"internalType": "uint256",
							"name": "_auctionID",
							"type": "uint256"
						}
					],
					"name": "placeBid",
					"outputs": [],
					"stateMutability": "payable",
					"type": "function"
				},
				{
					"inputs": [],
					"name": "proxiableUUID",
					"outputs": [
						{
							"internalType": "bytes32",
							"name": "",
							"type": "bytes32"
						}
					],
					"stateMutability": "view",
					"type": "function"
				},
				{
					"inputs": [
						{
							"internalType": "address",
							"name": "newImplementation",
							"type": "address"
						},
						{
							"internalType": "bytes",
							"name": "data",
							"type": "bytes"
						}
					],
					"name": "upgradeToAndCall",
					"outputs": [],
					"stateMutability": "payable",
					"type": "function"
				}
			],
			"devdoc": {
				"errors": {
					"AddressEmptyCode(address)": [
						{
							"details": "There's no code at `target` (it is not a contract)."
						}
					],
					"ERC1967InvalidImplementation(address)": [
						{
							"details": "The `implementation` of the proxy is invalid."
						}
					],
					"ERC1967NonPayable()": [
						{
							"details": "An upgrade function sees `msg.value > 0` that may be lost."
						}
					],
					"FailedCall()": [
						{
							"details": "A call to an address target failed. The target may have reverted."
						}
					],
					"InvalidInitialization()": [
						{
							"details": "The contract is already initialized."
						}
					],
					"NotInitializing()": [
						{
							"details": "The contract is not initializing."
						}
					],
					"UUPSUnauthorizedCallContext()": [
						{
							"details": "The call is from an unauthorized context."
						}
					],
					"UUPSUnsupportedProxiableUUID(bytes32)": [
						{
							"details": "The storage `slot` is unsupported as a UUID."
						}
					]
				},
				"events": {
					"Initialized(uint64)": {
						"details": "Triggered when the contract has been initialized or reinitialized."
					},
					"Upgraded(address)": {
						"details": "Emitted when the implementation is upgraded."
					}
				},
				"kind": "dev",
				"methods": {
					"proxiableUUID()": {
						"details": "Implementation of the ERC-1822 {proxiableUUID} function. This returns the storage slot used by the implementation. It is used to validate the implementation's compatibility when performing an upgrade. IMPORTANT: A proxy pointing at a proxiable contract should not be considered proxiable itself, because this risks bricking a proxy that upgrades to it, by delegating to itself until out of gas. Thus it is critical that this function revert if invoked through a proxy. This is guaranteed by the `notDelegated` modifier."
					},
					"upgradeToAndCall(address,bytes)": {
						"custom:oz-upgrades-unsafe-allow-reachable": "delegatecall",
						"details": "Upgrade the implementation of the proxy to `newImplementation`, and subsequently execute the function call encoded in `data`. Calls {_authorizeUpgrade}. Emits an {Upgraded} event."
					}
				},
				"version": 1
			},
			"evm": {
				"assembly": "    /* \"contracts/NftAuction.sol\":289:3650  contract NftAuction is Initializable, UUPSUpgradeable {... */\n  mstore(0x40, 0xa0)\n    /* \"@openzeppelin/contracts-upgradeable/proxy/utils/UUPSUpgradeable.sol\":1171:1175  this */\n  address\n    /* \"@openzeppelin/contracts-upgradeable/proxy/utils/UUPSUpgradeable.sol\":1128:1176  address private immutable __self = address(this) */\n  0xffffffffffffffffffffffffffffffffffffffff\n  and\n  0x80\n  swap1\n  0xffffffffffffffffffffffffffffffffffffffff\n  and\n  dup2\n  mstore\n  pop\n    /* \"contracts/NftAuction.sol\":289:3650  contract NftAuction is Initializable, UUPSUpgradeable {... */\n  callvalue\n  dup1\n  iszero\n  tag_1\n  jumpi\n  revert(0x00, 0x00)\ntag_1:\n  pop\n  mload(0x80)\n  codecopy(0x00, dataOffset(sub_0), dataSize(sub_0))\n  0x00\n  assignImmutable(\"0x980c46aeb242fb2816eec3c43a568cdc6adda404b46e62cce4e3fe7d929881e3\")\n  return(0x00, dataSize(sub_0))\nstop\n\nsub_0: assembly {\n        /* \"contracts/NftAuction.sol\":289:3650  contract NftAuction is Initializable, UUPSUpgradeable {... */\n      mstore(0x40, 0x80)\n      jumpi(tag_1, lt(calldatasize, 0x04))\n      shr(0xe0, calldataload(0x00))\n      dup1\n      0xad3cb1cc\n      gt\n      tag_12\n      jumpi\n      dup1\n      0xad3cb1cc\n      eq\n      tag_7\n      jumpi\n      dup1\n      0xb1cb48ef\n      eq\n      tag_8\n      jumpi\n      dup1\n      0xb9a2de3a\n      eq\n      tag_9\n      jumpi\n      dup1\n      0xf851a440\n      eq\n      tag_10\n      jumpi\n      dup1\n      0xfc528482\n      eq\n      tag_11\n      jumpi\n      jump(tag_1)\n    tag_12:\n      dup1\n      0x4f1ef286\n      eq\n      tag_2\n      jumpi\n      dup1\n      0x52d1902d\n      eq\n      tag_3\n      jumpi\n      dup1\n      0x571a26a0\n      eq\n      tag_4\n      jumpi\n      dup1\n      0x8129fc1c\n      eq\n      tag_5\n      jumpi\n      dup1\n      0x9979ef45\n      eq\n      tag_6\n      jumpi\n    tag_1:\n      revert(0x00, 0x00)\n        /* \"@openzeppelin/contracts-upgradeable/proxy/utils/UUPSUpgradeable.sol\":4161:4375  function upgradeToAndCall(address newImplementation, bytes memory data) public payable virtual onlyProxy {... */\n    tag_2:\n      tag_13\n      0x04\n      dup1\n      calldatasize\n      sub\n      dup2\n      add\n      swap1\n      tag_14\n      swap2\n      swap1\n      tag_15\n      jump\t// in\n    tag_14:\n      tag_16\n      jump\t// in\n    tag_13:\n      stop\n        /* \"@openzeppelin/contracts-upgradeable/proxy/utils/UUPSUpgradeable.sol\":3708:3842  function proxiableUUID() external view virtual notDelegated returns (bytes32) {... */\n    tag_3:\n      callvalue\n      dup1\n      iszero\n      tag_17\n      jumpi\n      revert(0x00, 0x00)\n    tag_17:\n      pop\n      tag_18\n      tag_19\n      jump\t// in\n    tag_18:\n      mload(0x40)\n      tag_20\n      swap2\n      swap1\n      tag_21\n      jump\t// in\n    tag_20:\n      mload(0x40)\n      dup1\n      swap2\n      sub\n      swap1\n      return\n        /* \"contracts/NftAuction.sol\":874:917  mapping(uint256 => Auction) public auctions */\n    tag_4:\n      callvalue\n      dup1\n      iszero\n      tag_22\n      jumpi\n      revert(0x00, 0x00)\n    tag_22:\n      pop\n      tag_23\n      0x04\n      dup1\n      calldatasize\n      sub\n      dup2\n      add\n      swap1\n      tag_24\n      swap2\n      swap1\n      tag_25\n      jump\t// in\n    tag_24:\n      tag_26\n      jump\t// in\n    tag_23:\n      mload(0x40)\n      tag_27\n      swap10\n      swap9\n      swap8\n      swap7\n      swap6\n      swap5\n      swap4\n      swap3\n      swap2\n      swap1\n      tag_28\n      jump\t// in\n    tag_27:\n      mload(0x40)\n      dup1\n      swap2\n      sub\n      swap1\n      return\n        /* \"contracts/NftAuction.sol\":1032:1108  function initialize() initializer public {... */\n    tag_5:\n      callvalue\n      dup1\n      iszero\n      tag_29\n      jumpi\n      revert(0x00, 0x00)\n    tag_29:\n      pop\n      tag_30\n      tag_31\n      jump\t// in\n    tag_30:\n      stop\n        /* \"contracts/NftAuction.sol\":2145:2866  function placeBid(uint256 _auctionID) external payable {... */\n    tag_6:\n      tag_32\n      0x04\n      dup1\n      calldatasize\n      sub\n      dup2\n      add\n      swap1\n      tag_33\n      swap2\n      swap1\n      tag_25\n      jump\t// in\n    tag_33:\n      tag_34\n      jump\t// in\n    tag_32:\n      stop\n        /* \"@openzeppelin/contracts-upgradeable/proxy/utils/UUPSUpgradeable.sol\":1819:1877  string public constant UPGRADE_INTERFACE_VERSION = \"5.0.0\" */\n    tag_7:\n      callvalue\n      dup1\n      iszero\n      tag_35\n      jumpi\n      revert(0x00, 0x00)\n    tag_35:\n      pop\n      tag_36\n      tag_37\n      jump\t// in\n    tag_36:\n      mload(0x40)\n      tag_38\n      swap2\n      swap1\n      tag_39\n      jump\t// in\n    tag_38:\n      mload(0x40)\n      dup1\n      swap2\n      sub\n      swap1\n      return\n        /* \"contracts/NftAuction.sol\":1134:2113  function createAuction(uint256 _duration, uint256 _startPrice, address _nftAddress, uint256 _tokenId) public {... */\n    tag_8:\n      callvalue\n      dup1\n      iszero\n      tag_40\n      jumpi\n      revert(0x00, 0x00)\n    tag_40:\n      pop\n      tag_41\n      0x04\n      dup1\n      calldatasize\n      sub\n      dup2\n      add\n      swap1\n      tag_42\n      swap2\n      swap1\n      tag_43\n      jump\t// in\n    tag_42:\n      tag_44\n      jump\t// in\n    tag_41:\n      stop\n        /* \"contracts/NftAuction.sol\":2893:3448  function endAuction(uint256 _auctionID) external {... */\n    tag_9:\n      callvalue\n      dup1\n      iszero\n      tag_45\n      jumpi\n      revert(0x00, 0x00)\n    tag_45:\n      pop\n      tag_46\n      0x04\n      dup1\n      calldatasize\n      sub\n      dup2\n      add\n      swap1\n      tag_47\n      swap2\n      swap1\n      tag_25\n      jump\t// in\n    tag_47:\n      tag_48\n      jump\t// in\n    tag_46:\n      stop\n        /* \"contracts/NftAuction.sol\":1005:1025  address public admin */\n    tag_10:\n      callvalue\n      dup1\n      iszero\n      tag_49\n      jumpi\n      revert(0x00, 0x00)\n    tag_49:\n      pop\n      tag_50\n      tag_51\n      jump\t// in\n    tag_50:\n      mload(0x40)\n      tag_52\n      swap2\n      swap1\n      tag_53\n      jump\t// in\n    tag_52:\n      mload(0x40)\n      dup1\n      swap2\n      sub\n      swap1\n      return\n        /* \"contracts/NftAuction.sol\":948:976  uint256 public nextAuctionId */\n    tag_11:\n      callvalue\n      dup1\n      iszero\n      tag_54\n      jumpi\n      revert(0x00, 0x00)\n    tag_54:\n      pop\n      tag_55\n      tag_56\n      jump\t// in\n    tag_55:\n      mload(0x40)\n      tag_57\n      swap2\n      swap1\n      tag_58\n      jump\t// in\n    tag_57:\n      mload(0x40)\n      dup1\n      swap2\n      sub\n      swap1\n      return\n        /* \"@openzeppelin/contracts-upgradeable/proxy/utils/UUPSUpgradeable.sol\":4161:4375  function upgradeToAndCall(address newImplementation, bytes memory data) public payable virtual onlyProxy {... */\n    tag_16:\n        /* \"@openzeppelin/contracts-upgradeable/proxy/utils/UUPSUpgradeable.sol\":2655:2668  _checkProxy() */\n      tag_60\n        /* \"@openzeppelin/contracts-upgradeable/proxy/utils/UUPSUpgradeable.sol\":2655:2666  _checkProxy */\n      tag_61\n        /* \"@openzeppelin/contracts-upgradeable/proxy/utils/UUPSUpgradeable.sol\":2655:2668  _checkProxy() */\n      jump\t// in\n    tag_60:\n        /* \"@openzeppelin/contracts-upgradeable/proxy/utils/UUPSUpgradeable.sol\":4276:4312  _authorizeUpgrade(newImplementation) */\n      tag_63\n        /* \"@openzeppelin/contracts-upgradeable/proxy/utils/UUPSUpgradeable.sol\":4294:4311  newImplementation */\n      dup3\n        /* \"@openzeppelin/contracts-upgradeable/proxy/utils/UUPSUpgradeable.sol\":4276:4293  _authorizeUpgrade */\n      tag_64\n        /* \"@openzeppelin/contracts-upgradeable/proxy/utils/UUPSUpgradeable.sol\":4276:4312  _authorizeUpgrade(newImplementation) */\n      jump\t// in\n    tag_63:\n        /* \"@openzeppelin/contracts-upgradeable/proxy/utils/UUPSUpgradeable.sol\":4322:4368  _upgradeToAndCallUUPS(newImplementation, data) */\n      tag_65\n        /* \"@openzeppelin/contracts-upgradeable/proxy/utils/UUPSUpgradeable.sol\":4344:4361  newImplementation */\n      dup3\n        /* \"@openzeppelin/contracts-upgradeable/proxy/utils/UUPSUpgradeable.sol\":4363:4367  data */\n      dup3\n        /* \"@openzeppelin/contracts-upgradeable/proxy/utils/UUPSUpgradeable.sol\":4322:4343  _upgradeToAndCallUUPS */\n      tag_66\n        /* \"@openzeppelin/contracts-upgradeable/proxy/utils/UUPSUpgradeable.sol\":4322:4368  _upgradeToAndCallUUPS(newImplementation, data) */\n      jump\t// in\n    tag_65:\n        /* \"@openzeppelin/contracts-upgradeable/proxy/utils/UUPSUpgradeable.sol\":4161:4375  function upgradeToAndCall(address newImplementation, bytes memory data) public payable virtual onlyProxy {... */\n      pop\n      pop\n      jump\t// out\n        /* \"@openzeppelin/contracts-upgradeable/proxy/utils/UUPSUpgradeable.sol\":3708:3842  function proxiableUUID() external view virtual notDelegated returns (bytes32) {... */\n    tag_19:\n        /* \"@openzeppelin/contracts-upgradeable/proxy/utils/UUPSUpgradeable.sol\":3777:3784  bytes32 */\n      0x00\n        /* \"@openzeppelin/contracts-upgradeable/proxy/utils/UUPSUpgradeable.sol\":2926:2946  _checkNotDelegated() */\n      tag_68\n        /* \"@openzeppelin/contracts-upgradeable/proxy/utils/UUPSUpgradeable.sol\":2926:2944  _checkNotDelegated */\n      tag_69\n        /* \"@openzeppelin/contracts-upgradeable/proxy/utils/UUPSUpgradeable.sol\":2926:2946  _checkNotDelegated() */\n      jump\t// in\n    tag_68:\n        /* \"@openzeppelin/contracts/proxy/ERC1967/ERC1967Utils.sol\":811:877  0x360894a13ba1a3210667c828492db98dca3e2076cc3735a920a3ca505d382bbc */\n      0x360894a13ba1a3210667c828492db98dca3e2076cc3735a920a3ca505d382bbc\n        /* \"@openzeppelin/contracts-upgradeable/proxy/utils/UUPSUpgradeable.sol\":3803:3835  ERC1967Utils.IMPLEMENTATION_SLOT */\n      0x00\n      shl\n        /* \"@openzeppelin/contracts-upgradeable/proxy/utils/UUPSUpgradeable.sol\":3796:3835  return ERC1967Utils.IMPLEMENTATION_SLOT */\n      swap1\n      pop\n        /* \"@openzeppelin/contracts-upgradeable/proxy/utils/UUPSUpgradeable.sol\":3708:3842  function proxiableUUID() external view virtual notDelegated returns (bytes32) {... */\n      swap1\n      jump\t// out\n        /* \"contracts/NftAuction.sol\":874:917  mapping(uint256 => Auction) public auctions */\n    tag_26:\n      mstore(0x20, 0x00)\n      dup1\n      0x00\n      mstore\n      keccak256(0x00, 0x40)\n      0x00\n      swap2\n      pop\n      swap1\n      pop\n      dup1\n      0x00\n      add\n      0x00\n      swap1\n      sload\n      swap1\n      0x0100\n      exp\n      swap1\n      div\n      0xffffffffffffffffffffffffffffffffffffffff\n      and\n      swap1\n      dup1\n      0x01\n      add\n      sload\n      swap1\n      dup1\n      0x02\n      add\n      sload\n      swap1\n      dup1\n      0x03\n      add\n      sload\n      swap1\n      dup1\n      0x04\n      add\n      0x00\n      swap1\n      sload\n      swap1\n      0x0100\n      exp\n      swap1\n      div\n      0xff\n      and\n      swap1\n      dup1\n      0x04\n      add\n      0x01\n      swap1\n      sload\n      swap1\n      0x0100\n      exp\n      swap1\n      div\n      0xffffffffffffffffffffffffffffffffffffffff\n      and\n      swap1\n      dup1\n      0x05\n      add\n      sload\n      swap1\n      dup1\n      0x06\n      add\n      0x00\n      swap1\n      sload\n      swap1\n      0x0100\n      exp\n      swap1\n      div\n      0xffffffffffffffffffffffffffffffffffffffff\n      and\n      swap1\n      dup1\n      0x07\n      add\n      sload\n      swap1\n      pop\n      dup10\n      jump\t// out\n        /* \"contracts/NftAuction.sol\":1032:1108  function initialize() initializer public {... */\n    tag_31:\n        /* \"@openzeppelin/contracts-upgradeable/proxy/utils/Initializable.sol\":4158:4188  InitializableStorage storage $ */\n      0x00\n        /* \"@openzeppelin/contracts-upgradeable/proxy/utils/Initializable.sol\":4191:4217  _getInitializableStorage() */\n      tag_72\n        /* \"@openzeppelin/contracts-upgradeable/proxy/utils/Initializable.sol\":4191:4215  _getInitializableStorage */\n      tag_73\n        /* \"@openzeppelin/contracts-upgradeable/proxy/utils/Initializable.sol\":4191:4217  _getInitializableStorage() */\n      jump\t// in\n    tag_72:\n        /* \"@openzeppelin/contracts-upgradeable/proxy/utils/Initializable.sol\":4158:4217  InitializableStorage storage $ = _getInitializableStorage() */\n      swap1\n      pop\n        /* \"@openzeppelin/contracts-upgradeable/proxy/utils/Initializable.sol\":4279:4298  bool isTopLevelCall */\n      0x00\n        /* \"@openzeppelin/contracts-upgradeable/proxy/utils/Initializable.sol\":4302:4303  $ */\n      dup2\n        /* \"@openzeppelin/contracts-upgradeable/proxy/utils/Initializable.sol\":4302:4317  $._initializing */\n      0x00\n      add\n      0x08\n      swap1\n      sload\n      swap1\n      0x0100\n      exp\n      swap1\n      div\n      0xff\n      and\n        /* \"@openzeppelin/contracts-upgradeable/proxy/utils/Initializable.sol\":4301:4317  !$._initializing */\n      iszero\n        /* \"@openzeppelin/contracts-upgradeable/proxy/utils/Initializable.sol\":4279:4317  bool isTopLevelCall = !$._initializing */\n      swap1\n      pop\n        /* \"@openzeppelin/contracts-upgradeable/proxy/utils/Initializable.sol\":4327:4345  uint64 initialized */\n      0x00\n        /* \"@openzeppelin/contracts-upgradeable/proxy/utils/Initializable.sol\":4348:4349  $ */\n      dup3\n        /* \"@openzeppelin/contracts-upgradeable/proxy/utils/Initializable.sol\":4348:4362  $._initialized */\n      0x00\n      add\n      0x00\n      swap1\n      sload\n      swap1\n      0x0100\n      exp\n      swap1\n      div\n      0xffffffffffffffff\n      and\n        /* \"@openzeppelin/contracts-upgradeable/proxy/utils/Initializable.sol\":4327:4362  uint64 initialized = $._initialized */\n      swap1\n      pop\n        /* \"@openzeppelin/contracts-upgradeable/proxy/utils/Initializable.sol\":4706:4723  bool initialSetup */\n      0x00\n        /* \"@openzeppelin/contracts-upgradeable/proxy/utils/Initializable.sol\":4741:4742  0 */\n      0x00\n        /* \"@openzeppelin/contracts-upgradeable/proxy/utils/Initializable.sol\":4726:4737  initialized */\n      dup3\n        /* \"@openzeppelin/contracts-upgradeable/proxy/utils/Initializable.sol\":4726:4742  initialized == 0 */\n      0xffffffffffffffff\n      and\n      eq\n        /* \"@openzeppelin/contracts-upgradeable/proxy/utils/Initializable.sol\":4726:4760  initialized == 0 && isTopLevelCall */\n      dup1\n      iszero\n      tag_74\n      jumpi\n      pop\n        /* \"@openzeppelin/contracts-upgradeable/proxy/utils/Initializable.sol\":4746:4760  isTopLevelCall */\n      dup3\n        /* \"@openzeppelin/contracts-upgradeable/proxy/utils/Initializable.sol\":4726:4760  initialized == 0 && isTopLevelCall */\n    tag_74:\n        /* \"@openzeppelin/contracts-upgradeable/proxy/utils/Initializable.sol\":4706:4760  bool initialSetup = initialized == 0 && isTopLevelCall */\n      swap1\n      pop\n        /* \"@openzeppelin/contracts-upgradeable/proxy/utils/Initializable.sol\":4770:4787  bool construction */\n      0x00\n        /* \"@openzeppelin/contracts-upgradeable/proxy/utils/Initializable.sol\":4805:4806  1 */\n      0x01\n        /* \"@openzeppelin/contracts-upgradeable/proxy/utils/Initializable.sol\":4790:4801  initialized */\n      dup4\n        /* \"@openzeppelin/contracts-upgradeable/proxy/utils/Initializable.sol\":4790:4806  initialized == 1 */\n      0xffffffffffffffff\n      and\n      eq\n        /* \"@openzeppelin/contracts-upgradeable/proxy/utils/Initializable.sol\":4790:4840  initialized == 1 && address(this).code.length == 0 */\n      dup1\n      iszero\n      tag_75\n      jumpi\n      pop\n        /* \"@openzeppelin/contracts-upgradeable/proxy/utils/Initializable.sol\":4839:4840  0 */\n      0x00\n        /* \"@openzeppelin/contracts-upgradeable/proxy/utils/Initializable.sol\":4818:4822  this */\n      address\n        /* \"@openzeppelin/contracts-upgradeable/proxy/utils/Initializable.sol\":4810:4835  address(this).code.length */\n      0xffffffffffffffffffffffffffffffffffffffff\n      and\n      extcodesize\n        /* \"@openzeppelin/contracts-upgradeable/proxy/utils/Initializable.sol\":4810:4840  address(this).code.length == 0 */\n      eq\n        /* \"@openzeppelin/contracts-upgradeable/proxy/utils/Initializable.sol\":4790:4840  initialized == 1 && address(this).code.length == 0 */\n    tag_75:\n        /* \"@openzeppelin/contracts-upgradeable/proxy/utils/Initializable.sol\":4770:4840  bool construction = initialized == 1 && address(this).code.length == 0 */\n      swap1\n      pop\n        /* \"@openzeppelin/contracts-upgradeable/proxy/utils/Initializable.sol\":4856:4868  initialSetup */\n      dup2\n        /* \"@openzeppelin/contracts-upgradeable/proxy/utils/Initializable.sol\":4855:4868  !initialSetup */\n      iszero\n        /* \"@openzeppelin/contracts-upgradeable/proxy/utils/Initializable.sol\":4855:4885  !initialSetup && !construction */\n      dup1\n      iszero\n      tag_76\n      jumpi\n      pop\n        /* \"@openzeppelin/contracts-upgradeable/proxy/utils/Initializable.sol\":4873:4885  construction */\n      dup1\n        /* \"@openzeppelin/contracts-upgradeable/proxy/utils/Initializable.sol\":4872:4885  !construction */\n      iszero\n        /* \"@openzeppelin/contracts-upgradeable/proxy/utils/Initializable.sol\":4855:4885  !initialSetup && !construction */\n    tag_76:\n        /* \"@openzeppelin/contracts-upgradeable/proxy/utils/Initializable.sol\":4851:4942  if (!initialSetup && !construction) {... */\n      iszero\n      tag_77\n      jumpi\n        /* \"@openzeppelin/contracts-upgradeable/proxy/utils/Initializable.sol\":4908:4931  InvalidInitialization() */\n      mload(0x40)\n      0xf92ee8a900000000000000000000000000000000000000000000000000000000\n      dup2\n      mstore\n      0x04\n      add\n      mload(0x40)\n      dup1\n      swap2\n      sub\n      swap1\n      revert\n        /* \"@openzeppelin/contracts-upgradeable/proxy/utils/Initializable.sol\":4851:4942  if (!initialSetup && !construction) {... */\n    tag_77:\n        /* \"@openzeppelin/contracts-upgradeable/proxy/utils/Initializable.sol\":4968:4969  1 */\n      0x01\n        /* \"@openzeppelin/contracts-upgradeable/proxy/utils/Initializable.sol\":4951:4952  $ */\n      dup6\n        /* \"@openzeppelin/contracts-upgradeable/proxy/utils/Initializable.sol\":4951:4965  $._initialized */\n      0x00\n      add\n      0x00\n        /* \"@openzeppelin/contracts-upgradeable/proxy/utils/Initializable.sol\":4951:4969  $._initialized = 1 */\n      0x0100\n      exp\n      dup2\n      sload\n      dup2\n      0xffffffffffffffff\n      mul\n      not\n      and\n      swap1\n      dup4\n      0xffffffffffffffff\n      and\n      mul\n      or\n      swap1\n      sstore\n      pop\n        /* \"@openzeppelin/contracts-upgradeable/proxy/utils/Initializable.sol\":4983:4997  isTopLevelCall */\n      dup4\n        /* \"@openzeppelin/contracts-upgradeable/proxy/utils/Initializable.sol\":4979:5046  if (isTopLevelCall) {... */\n      iszero\n      tag_78\n      jumpi\n        /* \"@openzeppelin/contracts-upgradeable/proxy/utils/Initializable.sol\":5031:5035  true */\n      0x01\n        /* \"@openzeppelin/contracts-upgradeable/proxy/utils/Initializable.sol\":5013:5014  $ */\n      dup6\n        /* \"@openzeppelin/contracts-upgradeable/proxy/utils/Initializable.sol\":5013:5028  $._initializing */\n      0x00\n      add\n      0x08\n        /* \"@openzeppelin/contracts-upgradeable/proxy/utils/Initializable.sol\":5013:5035  $._initializing = true */\n      0x0100\n      exp\n      dup2\n      sload\n      dup2\n      0xff\n      mul\n      not\n      and\n      swap1\n      dup4\n      iszero\n      iszero\n      mul\n      or\n      swap1\n      sstore\n      pop\n        /* \"@openzeppelin/contracts-upgradeable/proxy/utils/Initializable.sol\":4979:5046  if (isTopLevelCall) {... */\n    tag_78:\n        /* \"contracts/NftAuction.sol\":1091:1101  msg.sender */\n      caller\n        /* \"contracts/NftAuction.sol\":1083:1088  admin */\n      0x02\n      0x00\n        /* \"contracts/NftAuction.sol\":1083:1101  admin = msg.sender */\n      0x0100\n      exp\n      dup2\n      sload\n      dup2\n      0xffffffffffffffffffffffffffffffffffffffff\n      mul\n      not\n      and\n      swap1\n      dup4\n      0xffffffffffffffffffffffffffffffffffffffff\n      and\n      mul\n      or\n      swap1\n      sstore\n      pop\n        /* \"@openzeppelin/contracts-upgradeable/proxy/utils/Initializable.sol\":5070:5084  isTopLevelCall */\n      dup4\n        /* \"@openzeppelin/contracts-upgradeable/proxy/utils/Initializable.sol\":5066:5167  if (isTopLevelCall) {... */\n      iszero\n      tag_80\n      jumpi\n        /* \"@openzeppelin/contracts-upgradeable/proxy/utils/Initializable.sol\":5118:5123  false */\n      0x00\n        /* \"@openzeppelin/contracts-upgradeable/proxy/utils/Initializable.sol\":5100:5101  $ */\n      dup6\n        /* \"@openzeppelin/contracts-upgradeable/proxy/utils/Initializable.sol\":5100:5115  $._initializing */\n      0x00\n      add\n      0x08\n        /* \"@openzeppelin/contracts-upgradeable/proxy/utils/Initializable.sol\":5100:5123  $._initializing = false */\n      0x0100\n      exp\n      dup2\n      sload\n      dup2\n      0xff\n      mul\n      not\n      and\n      swap1\n      dup4\n      iszero\n      iszero\n      mul\n      or\n      swap1\n      sstore\n      pop\n        /* \"@openzeppelin/contracts-upgradeable/proxy/utils/Initializable.sol\":5142:5156  Initialized(1) */\n      0xc7f505b2f371ae2175ee4913f4499e1f2633a7b5936321eed1cdaeb6115181d2\n        /* \"@openzeppelin/contracts-upgradeable/proxy/utils/Initializable.sol\":5154:5155  1 */\n      0x01\n        /* \"@openzeppelin/contracts-upgradeable/proxy/utils/Initializable.sol\":5142:5156  Initialized(1) */\n      mload(0x40)\n      tag_81\n      swap2\n      swap1\n      tag_82\n      jump\t// in\n    tag_81:\n      mload(0x40)\n      dup1\n      swap2\n      sub\n      swap1\n      log1\n        /* \"@openzeppelin/contracts-upgradeable/proxy/utils/Initializable.sol\":5066:5167  if (isTopLevelCall) {... */\n    tag_80:\n        /* \"@openzeppelin/contracts-upgradeable/proxy/utils/Initializable.sol\":4092:5173  {... */\n      pop\n      pop\n      pop\n      pop\n      pop\n        /* \"contracts/NftAuction.sol\":1032:1108  function initialize() initializer public {... */\n      jump\t// out\n        /* \"contracts/NftAuction.sol\":2145:2866  function placeBid(uint256 _auctionID) external payable {... */\n    tag_34:\n        /* \"contracts/NftAuction.sol\":2210:2233  Auction storage auction */\n      0x00\n        /* \"contracts/NftAuction.sol\":2236:2244  auctions */\n      0x00\n        /* \"contracts/NftAuction.sol\":2236:2256  auctions[_auctionID] */\n      0x00\n        /* \"contracts/NftAuction.sol\":2245:2255  _auctionID */\n      dup4\n        /* \"contracts/NftAuction.sol\":2236:2256  auctions[_auctionID] */\n      dup2\n      mstore\n      0x20\n      add\n      swap1\n      dup2\n      mstore\n      0x20\n      add\n      0x00\n      keccak256\n        /* \"contracts/NftAuction.sol\":2210:2256  Auction storage auction = auctions[_auctionID] */\n      swap1\n      pop\n        /* \"contracts/NftAuction.sol\":2317:2324  auction */\n      dup1\n        /* \"contracts/NftAuction.sol\":2317:2330  auction.ended */\n      0x04\n      add\n      0x00\n      swap1\n      sload\n      swap1\n      0x0100\n      exp\n      swap1\n      div\n      0xff\n      and\n        /* \"contracts/NftAuction.sol\":2316:2330  !auction.ended */\n      iszero\n        /* \"contracts/NftAuction.sol\":2316:2388  !auction.ended && auction.startTime + auction.duration > block.timestamp */\n      dup1\n      iszero\n      tag_84\n      jumpi\n      pop\n        /* \"contracts/NftAuction.sol\":2373:2388  block.timestamp */\n      timestamp\n        /* \"contracts/NftAuction.sol\":2354:2361  auction */\n      dup2\n        /* \"contracts/NftAuction.sol\":2354:2370  auction.duration */\n      0x01\n      add\n      sload\n        /* \"contracts/NftAuction.sol\":2334:2341  auction */\n      dup3\n        /* \"contracts/NftAuction.sol\":2334:2351  auction.startTime */\n      0x03\n      add\n      sload\n        /* \"contracts/NftAuction.sol\":2334:2370  auction.startTime + auction.duration */\n      tag_85\n      swap2\n      swap1\n      tag_86\n      jump\t// in\n    tag_85:\n        /* \"contracts/NftAuction.sol\":2334:2388  auction.startTime + auction.duration > block.timestamp */\n      gt\n        /* \"contracts/NftAuction.sol\":2316:2388  !auction.ended && auction.startTime + auction.duration > block.timestamp */\n    tag_84:\n        /* \"contracts/NftAuction.sol\":2308:2410  require(!auction.ended && auction.startTime + auction.duration > block.timestamp, \"Auction has ended\") */\n      tag_87\n      jumpi\n      mload(0x40)\n      0x08c379a000000000000000000000000000000000000000000000000000000000\n      dup2\n      mstore\n      0x04\n      add\n      tag_88\n      swap1\n      tag_89\n      jump\t// in\n    tag_88:\n      mload(0x40)\n      dup1\n      swap2\n      sub\n      swap1\n      revert\n    tag_87:\n        /* \"contracts/NftAuction.sol\":2494:2501  auction */\n      dup1\n        /* \"contracts/NftAuction.sol\":2494:2512  auction.highestBid */\n      0x05\n      add\n      sload\n        /* \"contracts/NftAuction.sol\":2482:2491  msg.value */\n      callvalue\n        /* \"contracts/NftAuction.sol\":2482:2512  msg.value > auction.highestBid */\n      gt\n        /* \"contracts/NftAuction.sol\":2482:2547  msg.value > auction.highestBid && msg.value >= auction.startPrice */\n      dup1\n      iszero\n      tag_90\n      jumpi\n      pop\n        /* \"contracts/NftAuction.sol\":2529:2536  auction */\n      dup1\n        /* \"contracts/NftAuction.sol\":2529:2547  auction.startPrice */\n      0x02\n      add\n      sload\n        /* \"contracts/NftAuction.sol\":2516:2525  msg.value */\n      callvalue\n        /* \"contracts/NftAuction.sol\":2516:2547  msg.value >= auction.startPrice */\n      lt\n      iszero\n        /* \"contracts/NftAuction.sol\":2482:2547  msg.value > auction.highestBid && msg.value >= auction.startPrice */\n    tag_90:\n        /* \"contracts/NftAuction.sol\":2474:2599  require(msg.value > auction.highestBid && msg.value >= auction.startPrice, \"Bid must be higher than the current highest bid\") */\n      tag_91\n      jumpi\n      mload(0x40)\n      0x08c379a000000000000000000000000000000000000000000000000000000000\n      dup2\n      mstore\n      0x04\n      add\n      tag_92\n      swap1\n      tag_93\n      jump\t// in\n    tag_92:\n      mload(0x40)\n      dup1\n      swap2\n      sub\n      swap1\n      revert\n    tag_91:\n        /* \"contracts/NftAuction.sol\":2688:2689  0 */\n      0x00\n        /* \"contracts/NftAuction.sol\":2655:2690  auction.highestBidder != address(0) */\n      0xffffffffffffffffffffffffffffffffffffffff\n      and\n        /* \"contracts/NftAuction.sol\":2655:2662  auction */\n      dup2\n        /* \"contracts/NftAuction.sol\":2655:2676  auction.highestBidder */\n      0x04\n      add\n      0x01\n      swap1\n      sload\n      swap1\n      0x0100\n      exp\n      swap1\n      div\n      0xffffffffffffffffffffffffffffffffffffffff\n      and\n        /* \"contracts/NftAuction.sol\":2655:2690  auction.highestBidder != address(0) */\n      0xffffffffffffffffffffffffffffffffffffffff\n      and\n      eq\n        /* \"contracts/NftAuction.sol\":2651:2776  if (auction.highestBidder != address(0)) {... */\n      tag_94\n      jumpi\n        /* \"contracts/NftAuction.sol\":2714:2721  auction */\n      dup1\n        /* \"contracts/NftAuction.sol\":2714:2735  auction.highestBidder */\n      0x04\n      add\n      0x01\n      swap1\n      sload\n      swap1\n      0x0100\n      exp\n      swap1\n      div\n      0xffffffffffffffffffffffffffffffffffffffff\n      and\n        /* \"contracts/NftAuction.sol\":2706:2745  payable(auction.highestBidder).transfer */\n      0xffffffffffffffffffffffffffffffffffffffff\n      and\n        /* \"contracts/NftAuction.sol\":2706:2765  payable(auction.highestBidder).transfer(auction.highestBid) */\n      0x08fc\n        /* \"contracts/NftAuction.sol\":2746:2753  auction */\n      dup3\n        /* \"contracts/NftAuction.sol\":2746:2764  auction.highestBid */\n      0x05\n      add\n      sload\n        /* \"contracts/NftAuction.sol\":2706:2765  payable(auction.highestBidder).transfer(auction.highestBid) */\n      swap1\n      dup2\n      iszero\n      mul\n      swap1\n      mload(0x40)\n      0x00\n      mload(0x40)\n      dup1\n      dup4\n      sub\n      dup2\n      dup6\n      dup9\n      dup9\n      call\n      swap4\n      pop\n      pop\n      pop\n      pop\n      iszero\n      dup1\n      iszero\n      tag_96\n      jumpi\n      returndatacopy(0x00, 0x00, returndatasize)\n      revert(0x00, returndatasize)\n    tag_96:\n      pop\n        /* \"contracts/NftAuction.sol\":2651:2776  if (auction.highestBidder != address(0)) {... */\n    tag_94:\n        /* \"contracts/NftAuction.sol\":2809:2819  msg.sender */\n      caller\n        /* \"contracts/NftAuction.sol\":2785:2792  auction */\n      dup2\n        /* \"contracts/NftAuction.sol\":2785:2806  auction.highestBidder */\n      0x04\n      add\n      0x01\n        /* \"contracts/NftAuction.sol\":2785:2819  auction.highestBidder = msg.sender */\n      0x0100\n      exp\n      dup2\n      sload\n      dup2\n      0xffffffffffffffffffffffffffffffffffffffff\n      mul\n      not\n      and\n      swap1\n      dup4\n      0xffffffffffffffffffffffffffffffffffffffff\n      and\n      mul\n      or\n      swap1\n      sstore\n      pop\n        /* \"contracts/NftAuction.sol\":2850:2859  msg.value */\n      callvalue\n        /* \"contracts/NftAuction.sol\":2829:2836  auction */\n      dup2\n        /* \"contracts/NftAuction.sol\":2829:2847  auction.highestBid */\n      0x05\n      add\n        /* \"contracts/NftAuction.sol\":2829:2859  auction.highestBid = msg.value */\n      dup2\n      swap1\n      sstore\n      pop\n        /* \"contracts/NftAuction.sol\":2200:2866  {... */\n      pop\n        /* \"contracts/NftAuction.sol\":2145:2866  function placeBid(uint256 _auctionID) external payable {... */\n      pop\n      jump\t// out\n        /* \"@openzeppelin/contracts-upgradeable/proxy/utils/UUPSUpgradeable.sol\":1819:1877  string public constant UPGRADE_INTERFACE_VERSION = \"5.0.0\" */\n    tag_37:\n      mload(0x40)\n      dup1\n      0x40\n      add\n      0x40\n      mstore\n      dup1\n      0x05\n      dup2\n      mstore\n      0x20\n      add\n      0x352e302e30000000000000000000000000000000000000000000000000000000\n      dup2\n      mstore\n      pop\n      dup2\n      jump\t// out\n        /* \"contracts/NftAuction.sol\":1134:2113  function createAuction(uint256 _duration, uint256 _startPrice, address _nftAddress, uint256 _tokenId) public {... */\n    tag_44:\n        /* \"contracts/NftAuction.sol\":1320:1325  admin */\n      0x02\n      0x00\n      swap1\n      sload\n      swap1\n      0x0100\n      exp\n      swap1\n      div\n      0xffffffffffffffffffffffffffffffffffffffff\n      and\n        /* \"contracts/NftAuction.sol\":1306:1325  msg.sender == admin */\n      0xffffffffffffffffffffffffffffffffffffffff\n      and\n        /* \"contracts/NftAuction.sol\":1306:1316  msg.sender */\n      caller\n        /* \"contracts/NftAuction.sol\":1306:1325  msg.sender == admin */\n      0xffffffffffffffffffffffffffffffffffffffff\n      and\n      eq\n        /* \"contracts/NftAuction.sol\":1298:1360  require(msg.sender == admin, \"Only admin can create auctions\") */\n      tag_98\n      jumpi\n      mload(0x40)\n      0x08c379a000000000000000000000000000000000000000000000000000000000\n      dup2\n      mstore\n      0x04\n      add\n      tag_99\n      swap1\n      tag_100\n      jump\t// in\n    tag_99:\n      mload(0x40)\n      dup1\n      swap2\n      sub\n      swap1\n      revert\n    tag_98:\n        /* \"contracts/NftAuction.sol\":1414:1423  1000 * 60 */\n      0xea60\n        /* \"contracts/NftAuction.sol\":1402:1411  _duration */\n      dup5\n        /* \"contracts/NftAuction.sol\":1402:1423  _duration > 1000 * 60 */\n      gt\n        /* \"contracts/NftAuction.sol\":1394:1459  require(_duration > 1000 * 60, \"Duration must be greater than 0\") */\n      tag_101\n      jumpi\n      mload(0x40)\n      0x08c379a000000000000000000000000000000000000000000000000000000000\n      dup2\n      mstore\n      0x04\n      add\n      tag_102\n      swap1\n      tag_103\n      jump\t// in\n    tag_102:\n      mload(0x40)\n      dup1\n      swap2\n      sub\n      swap1\n      revert\n    tag_101:\n        /* \"contracts/NftAuction.sol\":1491:1492  0 */\n      0x00\n        /* \"contracts/NftAuction.sol\":1477:1488  _startPrice */\n      dup4\n        /* \"contracts/NftAuction.sol\":1477:1492  _startPrice > 0 */\n      gt\n        /* \"contracts/NftAuction.sol\":1469:1531  require(_startPrice > 0, \"Start price must be greater than 0\") */\n      tag_104\n      jumpi\n      mload(0x40)\n      0x08c379a000000000000000000000000000000000000000000000000000000000\n      dup2\n      mstore\n      0x04\n      add\n      tag_105\n      swap1\n      tag_106\n      jump\t// in\n    tag_105:\n      mload(0x40)\n      dup1\n      swap2\n      sub\n      swap1\n      revert\n    tag_104:\n        /* \"contracts/NftAuction.sol\":1580:1591  _nftAddress */\n      dup2\n        /* \"contracts/NftAuction.sol\":1572:1600  IERC721(_nftAddress).approve */\n      0xffffffffffffffffffffffffffffffffffffffff\n      and\n      0x095ea7b3\n        /* \"contracts/NftAuction.sol\":1609:1613  this */\n      address\n        /* \"contracts/NftAuction.sol\":1616:1624  _tokenId */\n      dup4\n        /* \"contracts/NftAuction.sol\":1572:1625  IERC721(_nftAddress).approve(address(this), _tokenId) */\n      mload(0x40)\n      dup4\n      0xffffffff\n      and\n      0xe0\n      shl\n      dup2\n      mstore\n      0x04\n      add\n      tag_107\n      swap3\n      swap2\n      swap1\n      tag_108\n      jump\t// in\n    tag_107:\n      0x00\n      mload(0x40)\n      dup1\n      dup4\n      sub\n      dup2\n      0x00\n      dup8\n      dup1\n      extcodesize\n      iszero\n      dup1\n      iszero\n      tag_109\n      jumpi\n      revert(0x00, 0x00)\n    tag_109:\n      pop\n      gas\n      call\n      iszero\n      dup1\n      iszero\n      tag_111\n      jumpi\n      returndatacopy(0x00, 0x00, returndatasize)\n      revert(0x00, returndatasize)\n    tag_111:\n      pop\n      pop\n      pop\n      pop\n        /* \"contracts/NftAuction.sol\":1749:2071  Auction({... */\n      mload(0x40)\n      dup1\n      0x0120\n      add\n      0x40\n      mstore\n      dup1\n        /* \"contracts/NftAuction.sol\":1779:1789  msg.sender */\n      caller\n        /* \"contracts/NftAuction.sol\":1749:2071  Auction({... */\n      0xffffffffffffffffffffffffffffffffffffffff\n      and\n      dup2\n      mstore\n      0x20\n      add\n        /* \"contracts/NftAuction.sol\":1813:1822  _duration */\n      dup6\n        /* \"contracts/NftAuction.sol\":1749:2071  Auction({... */\n      dup2\n      mstore\n      0x20\n      add\n        /* \"contracts/NftAuction.sol\":1848:1859  _startPrice */\n      dup5\n        /* \"contracts/NftAuction.sol\":1749:2071  Auction({... */\n      dup2\n      mstore\n      0x20\n      add\n        /* \"contracts/NftAuction.sol\":1976:1991  block.timestamp */\n      timestamp\n        /* \"contracts/NftAuction.sol\":1749:2071  Auction({... */\n      dup2\n      mstore\n      0x20\n      add\n        /* \"contracts/NftAuction.sol\":1880:1885  false */\n      0x00\n        /* \"contracts/NftAuction.sol\":1749:2071  Auction({... */\n      iszero\n      iszero\n      dup2\n      mstore\n      0x20\n      add\n        /* \"contracts/NftAuction.sol\":1922:1923  0 */\n      0x00\n        /* \"contracts/NftAuction.sol\":1749:2071  Auction({... */\n      0xffffffffffffffffffffffffffffffffffffffff\n      and\n      dup2\n      mstore\n      0x20\n      add\n        /* \"contracts/NftAuction.sol\":1950:1951  0 */\n      0x00\n        /* \"contracts/NftAuction.sol\":1749:2071  Auction({... */\n      dup2\n      mstore\n      0x20\n      add\n        /* \"contracts/NftAuction.sol\":2018:2029  _nftAddress */\n      dup4\n        /* \"contracts/NftAuction.sol\":1749:2071  Auction({... */\n      0xffffffffffffffffffffffffffffffffffffffff\n      and\n      dup2\n      mstore\n      0x20\n      add\n        /* \"contracts/NftAuction.sol\":2052:2060  _tokenId */\n      dup3\n        /* \"contracts/NftAuction.sol\":1749:2071  Auction({... */\n      dup2\n      mstore\n      pop\n        /* \"contracts/NftAuction.sol\":1723:1731  auctions */\n      0x00\n        /* \"contracts/NftAuction.sol\":1723:1746  auctions[nextAuctionId] */\n      0x00\n        /* \"contracts/NftAuction.sol\":1732:1745  nextAuctionId */\n      sload(0x01)\n        /* \"contracts/NftAuction.sol\":1723:1746  auctions[nextAuctionId] */\n      dup2\n      mstore\n      0x20\n      add\n      swap1\n      dup2\n      mstore\n      0x20\n      add\n      0x00\n      keccak256\n        /* \"contracts/NftAuction.sol\":1723:2071  auctions[nextAuctionId] = Auction({... */\n      0x00\n      dup3\n      add\n      mload\n      dup2\n      0x00\n      add\n      exp(0x0100, 0x00)\n      dup2\n      sload\n      dup2\n      0xffffffffffffffffffffffffffffffffffffffff\n      mul\n      not\n      and\n      swap1\n      dup4\n      0xffffffffffffffffffffffffffffffffffffffff\n      and\n      mul\n      or\n      swap1\n      sstore\n      pop\n      0x20\n      dup3\n      add\n      mload\n      dup2\n      0x01\n      add\n      sstore\n      0x40\n      dup3\n      add\n      mload\n      dup2\n      0x02\n      add\n      sstore\n      0x60\n      dup3\n      add\n      mload\n      dup2\n      0x03\n      add\n      sstore\n      0x80\n      dup3\n      add\n      mload\n      dup2\n      0x04\n      add\n      exp(0x0100, 0x00)\n      dup2\n      sload\n      dup2\n      0xff\n      mul\n      not\n      and\n      swap1\n      dup4\n      iszero\n      iszero\n      mul\n      or\n      swap1\n      sstore\n      pop\n      0xa0\n      dup3\n      add\n      mload\n      dup2\n      0x04\n      add\n      exp(0x0100, 0x01)\n      dup2\n      sload\n      dup2\n      0xffffffffffffffffffffffffffffffffffffffff\n      mul\n      not\n      and\n      swap1\n      dup4\n      0xffffffffffffffffffffffffffffffffffffffff\n      and\n      mul\n      or\n      swap1\n      sstore\n      pop\n      0xc0\n      dup3\n      add\n      mload\n      dup2\n      0x05\n      add\n      sstore\n      0xe0\n      dup3\n      add\n      mload\n      dup2\n      0x06\n      add\n      exp(0x0100, 0x00)\n      dup2\n      sload\n      dup2\n      0xffffffffffffffffffffffffffffffffffffffff\n      mul\n      not\n      and\n      swap1\n      dup4\n      0xffffffffffffffffffffffffffffffffffffffff\n      and\n      mul\n      or\n      swap1\n      sstore\n      pop\n      0x0100\n      dup3\n      add\n      mload\n      dup2\n      0x07\n      add\n      sstore\n      swap1\n      pop\n      pop\n        /* \"contracts/NftAuction.sol\":2082:2095  nextAuctionId */\n      0x01\n      0x00\n        /* \"contracts/NftAuction.sol\":2082:2097  nextAuctionId++ */\n      dup2\n      sload\n      dup1\n      swap3\n      swap2\n      swap1\n      tag_112\n      swap1\n      tag_113\n      jump\t// in\n    tag_112:\n      swap2\n      swap1\n      pop\n      sstore\n      pop\n        /* \"contracts/NftAuction.sol\":1134:2113  function createAuction(uint256 _duration, uint256 _startPrice, address _nftAddress, uint256 _tokenId) public {... */\n      pop\n      pop\n      pop\n      pop\n      jump\t// out\n        /* \"contracts/NftAuction.sol\":2893:3448  function endAuction(uint256 _auctionID) external {... */\n    tag_48:\n        /* \"contracts/NftAuction.sol\":2952:2975  Auction storage auction */\n      0x00\n        /* \"contracts/NftAuction.sol\":2978:2986  auctions */\n      0x00\n        /* \"contracts/NftAuction.sol\":2978:2998  auctions[_auctionID] */\n      0x00\n        /* \"contracts/NftAuction.sol\":2987:2997  _auctionID */\n      dup4\n        /* \"contracts/NftAuction.sol\":2978:2998  auctions[_auctionID] */\n      dup2\n      mstore\n      0x20\n      add\n      swap1\n      dup2\n      mstore\n      0x20\n      add\n      0x00\n      keccak256\n        /* \"contracts/NftAuction.sol\":2952:2998  Auction storage auction = auctions[_auctionID] */\n      swap1\n      pop\n        /* \"contracts/NftAuction.sol\":3059:3066  auction */\n      dup1\n        /* \"contracts/NftAuction.sol\":3059:3072  auction.ended */\n      0x04\n      add\n      0x00\n      swap1\n      sload\n      swap1\n      0x0100\n      exp\n      swap1\n      div\n      0xff\n      and\n        /* \"contracts/NftAuction.sol\":3058:3072  !auction.ended */\n      iszero\n        /* \"contracts/NftAuction.sol\":3058:3130  !auction.ended && auction.startTime + auction.duration < block.timestamp */\n      dup1\n      iszero\n      tag_115\n      jumpi\n      pop\n        /* \"contracts/NftAuction.sol\":3115:3130  block.timestamp */\n      timestamp\n        /* \"contracts/NftAuction.sol\":3096:3103  auction */\n      dup2\n        /* \"contracts/NftAuction.sol\":3096:3112  auction.duration */\n      0x01\n      add\n      sload\n        /* \"contracts/NftAuction.sol\":3076:3083  auction */\n      dup3\n        /* \"contracts/NftAuction.sol\":3076:3093  auction.startTime */\n      0x03\n      add\n      sload\n        /* \"contracts/NftAuction.sol\":3076:3112  auction.startTime + auction.duration */\n      tag_116\n      swap2\n      swap1\n      tag_86\n      jump\t// in\n    tag_116:\n        /* \"contracts/NftAuction.sol\":3076:3130  auction.startTime + auction.duration < block.timestamp */\n      lt\n        /* \"contracts/NftAuction.sol\":3058:3130  !auction.ended && auction.startTime + auction.duration < block.timestamp */\n    tag_115:\n        /* \"contracts/NftAuction.sol\":3050:3156  require(!auction.ended && auction.startTime + auction.duration < block.timestamp, \"Auction has not ended\") */\n      tag_117\n      jumpi\n      mload(0x40)\n      0x08c379a000000000000000000000000000000000000000000000000000000000\n      dup2\n      mstore\n      0x04\n      add\n      tag_118\n      swap1\n      tag_119\n      jump\t// in\n    tag_118:\n      mload(0x40)\n      dup1\n      swap2\n      sub\n      swap1\n      revert\n    tag_117:\n        /* \"contracts/NftAuction.sol\":3213:3220  auction */\n      dup1\n        /* \"contracts/NftAuction.sol\":3213:3232  auction.nftContract */\n      0x06\n      add\n      0x00\n      swap1\n      sload\n      swap1\n      0x0100\n      exp\n      swap1\n      div\n      0xffffffffffffffffffffffffffffffffffffffff\n      and\n        /* \"contracts/NftAuction.sol\":3205:3250  IERC721(auction.nftContract).safeTransferFrom */\n      0xffffffffffffffffffffffffffffffffffffffff\n      and\n      0x42842e0e\n        /* \"contracts/NftAuction.sol\":3259:3263  this */\n      address\n        /* \"contracts/NftAuction.sol\":3266:3273  auction */\n      dup4\n        /* \"contracts/NftAuction.sol\":3266:3287  auction.highestBidder */\n      0x04\n      add\n      0x01\n      swap1\n      sload\n      swap1\n      0x0100\n      exp\n      swap1\n      div\n      0xffffffffffffffffffffffffffffffffffffffff\n      and\n        /* \"contracts/NftAuction.sol\":3289:3296  auction */\n      dup5\n        /* \"contracts/NftAuction.sol\":3289:3304  auction.tokenId */\n      0x07\n      add\n      sload\n        /* \"contracts/NftAuction.sol\":3205:3305  IERC721(auction.nftContract).safeTransferFrom(address(this), auction.highestBidder, auction.tokenId) */\n      mload(0x40)\n      dup5\n      0xffffffff\n      and\n      0xe0\n      shl\n      dup2\n      mstore\n      0x04\n      add\n      tag_120\n      swap4\n      swap3\n      swap2\n      swap1\n      tag_121\n      jump\t// in\n    tag_120:\n      0x00\n      mload(0x40)\n      dup1\n      dup4\n      sub\n      dup2\n      0x00\n      dup8\n      dup1\n      extcodesize\n      iszero\n      dup1\n      iszero\n      tag_122\n      jumpi\n      revert(0x00, 0x00)\n    tag_122:\n      pop\n      gas\n      call\n      iszero\n      dup1\n      iszero\n      tag_124\n      jumpi\n      returndatacopy(0x00, 0x00, returndatasize)\n      revert(0x00, returndatasize)\n    tag_124:\n      pop\n      pop\n      pop\n      pop\n        /* \"contracts/NftAuction.sol\":3373:3377  this */\n      address\n        /* \"contracts/NftAuction.sol\":3357:3388  payable(address(this)).transfer */\n      0xffffffffffffffffffffffffffffffffffffffff\n      and\n        /* \"contracts/NftAuction.sol\":3357:3411  payable(address(this)).transfer(address(this).balance) */\n      0x08fc\n        /* \"contracts/NftAuction.sol\":3389:3410  address(this).balance */\n      selfbalance\n        /* \"contracts/NftAuction.sol\":3357:3411  payable(address(this)).transfer(address(this).balance) */\n      swap1\n      dup2\n      iszero\n      mul\n      swap1\n      mload(0x40)\n      0x00\n      mload(0x40)\n      dup1\n      dup4\n      sub\n      dup2\n      dup6\n      dup9\n      dup9\n      call\n      swap4\n      pop\n      pop\n      pop\n      pop\n      iszero\n      dup1\n      iszero\n      tag_126\n      jumpi\n      returndatacopy(0x00, 0x00, returndatasize)\n      revert(0x00, returndatasize)\n    tag_126:\n      pop\n        /* \"contracts/NftAuction.sol\":3437:3441  true */\n      0x01\n        /* \"contracts/NftAuction.sol\":3421:3428  auction */\n      dup2\n        /* \"contracts/NftAuction.sol\":3421:3434  auction.ended */\n      0x04\n      add\n      0x00\n        /* \"contracts/NftAuction.sol\":3421:3441  auction.ended = true */\n      0x0100\n      exp\n      dup2\n      sload\n      dup2\n      0xff\n      mul\n      not\n      and\n      swap1\n      dup4\n      iszero\n      iszero\n      mul\n      or\n      swap1\n      sstore\n      pop\n        /* \"contracts/NftAuction.sol\":2942:3448  {... */\n      pop\n        /* \"contracts/NftAuction.sol\":2893:3448  function endAuction(uint256 _auctionID) external {... */\n      pop\n      jump\t// out\n        /* \"contracts/NftAuction.sol\":1005:1025  address public admin */\n    tag_51:\n      0x02\n      0x00\n      swap1\n      sload\n      swap1\n      0x0100\n      exp\n      swap1\n      div\n      0xffffffffffffffffffffffffffffffffffffffff\n      and\n      dup2\n      jump\t// out\n        /* \"contracts/NftAuction.sol\":948:976  uint256 public nextAuctionId */\n    tag_56:\n      sload(0x01)\n      dup2\n      jump\t// out\n        /* \"@openzeppelin/contracts-upgradeable/proxy/utils/UUPSUpgradeable.sol\":4603:4915  function _checkProxy() internal view virtual {... */\n    tag_61:\n        /* \"@openzeppelin/contracts-upgradeable/proxy/utils/UUPSUpgradeable.sol\":4692:4698  __self */\n      immutable(\"0x980c46aeb242fb2816eec3c43a568cdc6adda404b46e62cce4e3fe7d929881e3\")\n        /* \"@openzeppelin/contracts-upgradeable/proxy/utils/UUPSUpgradeable.sol\":4675:4698  address(this) == __self */\n      0xffffffffffffffffffffffffffffffffffffffff\n      and\n        /* \"@openzeppelin/contracts-upgradeable/proxy/utils/UUPSUpgradeable.sol\":4683:4687  this */\n      address\n        /* \"@openzeppelin/contracts-upgradeable/proxy/utils/UUPSUpgradeable.sol\":4675:4698  address(this) == __self */\n      0xffffffffffffffffffffffffffffffffffffffff\n      and\n      eq\n        /* \"@openzeppelin/contracts-upgradeable/proxy/utils/UUPSUpgradeable.sol\":4675:4795  address(this) == __self || // Must be called through delegatecall... */\n      dup1\n      tag_128\n      jumpi\n      pop\n        /* \"@openzeppelin/contracts-upgradeable/proxy/utils/UUPSUpgradeable.sol\":4789:4795  __self */\n      immutable(\"0x980c46aeb242fb2816eec3c43a568cdc6adda404b46e62cce4e3fe7d929881e3\")\n        /* \"@openzeppelin/contracts-upgradeable/proxy/utils/UUPSUpgradeable.sol\":4753:4795  ERC1967Utils.getImplementation() != __self */\n      0xffffffffffffffffffffffffffffffffffffffff\n      and\n        /* \"@openzeppelin/contracts-upgradeable/proxy/utils/UUPSUpgradeable.sol\":4753:4785  ERC1967Utils.getImplementation() */\n      tag_129\n        /* \"@openzeppelin/contracts-upgradeable/proxy/utils/UUPSUpgradeable.sol\":4753:4783  ERC1967Utils.getImplementation */\n      tag_130\n        /* \"@openzeppelin/contracts-upgradeable/proxy/utils/UUPSUpgradeable.sol\":4753:4785  ERC1967Utils.getImplementation() */\n      jump\t// in\n    tag_129:\n        /* \"@openzeppelin/contracts-upgradeable/proxy/utils/UUPSUpgradeable.sol\":4753:4795  ERC1967Utils.getImplementation() != __self */\n      0xffffffffffffffffffffffffffffffffffffffff\n      and\n      eq\n      iszero\n        /* \"@openzeppelin/contracts-upgradeable/proxy/utils/UUPSUpgradeable.sol\":4675:4795  address(this) == __self || // Must be called through delegatecall... */\n    tag_128:\n        /* \"@openzeppelin/contracts-upgradeable/proxy/utils/UUPSUpgradeable.sol\":4658:4909  if (... */\n      iszero\n      tag_131\n      jumpi\n        /* \"@openzeppelin/contracts-upgradeable/proxy/utils/UUPSUpgradeable.sol\":4869:4898  UUPSUnauthorizedCallContext() */\n      mload(0x40)\n      0xe07c8dba00000000000000000000000000000000000000000000000000000000\n      dup2\n      mstore\n      0x04\n      add\n      mload(0x40)\n      dup1\n      swap2\n      sub\n      swap1\n      revert\n        /* \"@openzeppelin/contracts-upgradeable/proxy/utils/UUPSUpgradeable.sol\":4658:4909  if (... */\n    tag_131:\n        /* \"@openzeppelin/contracts-upgradeable/proxy/utils/UUPSUpgradeable.sol\":4603:4915  function _checkProxy() internal view virtual {... */\n      jump\t// out\n        /* \"contracts/NftAuction.sol\":3455:3648  function _authorizeUpgrade(address newImplementation) internal override view {... */\n    tag_64:\n        /* \"contracts/NftAuction.sol\":3609:3614  admin */\n      0x02\n      0x00\n      swap1\n      sload\n      swap1\n      0x0100\n      exp\n      swap1\n      div\n      0xffffffffffffffffffffffffffffffffffffffff\n      and\n        /* \"contracts/NftAuction.sol\":3595:3614  msg.sender == admin */\n      0xffffffffffffffffffffffffffffffffffffffff\n      and\n        /* \"contracts/NftAuction.sol\":3595:3605  msg.sender */\n      caller\n        /* \"contracts/NftAuction.sol\":3595:3614  msg.sender == admin */\n      0xffffffffffffffffffffffffffffffffffffffff\n      and\n      eq\n        /* \"contracts/NftAuction.sol\":3587:3641  require(msg.sender == admin, \"Only admin can upgrade\") */\n      tag_133\n      jumpi\n      mload(0x40)\n      0x08c379a000000000000000000000000000000000000000000000000000000000\n      dup2\n      mstore\n      0x04\n      add\n      tag_134\n      swap1\n      tag_135\n      jump\t// in\n    tag_134:\n      mload(0x40)\n      dup1\n      swap2\n      sub\n      swap1\n      revert\n    tag_133:\n        /* \"contracts/NftAuction.sol\":3455:3648  function _authorizeUpgrade(address newImplementation) internal override view {... */\n      pop\n      jump\t// out\n        /* \"@openzeppelin/contracts-upgradeable/proxy/utils/UUPSUpgradeable.sol\":6057:6595  function _upgradeToAndCallUUPS(address newImplementation, bytes memory data) private {... */\n    tag_66:\n        /* \"@openzeppelin/contracts-upgradeable/proxy/utils/UUPSUpgradeable.sol\":6174:6191  newImplementation */\n      dup2\n        /* \"@openzeppelin/contracts-upgradeable/proxy/utils/UUPSUpgradeable.sol\":6156:6206  IERC1822Proxiable(newImplementation).proxiableUUID */\n      0xffffffffffffffffffffffffffffffffffffffff\n      and\n      0x52d1902d\n        /* \"@openzeppelin/contracts-upgradeable/proxy/utils/UUPSUpgradeable.sol\":6156:6208  IERC1822Proxiable(newImplementation).proxiableUUID() */\n      mload(0x40)\n      dup2\n      0xffffffff\n      and\n      0xe0\n      shl\n      dup2\n      mstore\n      0x04\n      add\n      0x20\n      mload(0x40)\n      dup1\n      dup4\n      sub\n      dup2\n      dup7\n      gas\n      staticcall\n      swap3\n      pop\n      pop\n      pop\n      dup1\n      iszero\n      tag_137\n      jumpi\n      pop\n      mload(0x40)\n      returndatasize\n      not(0x1f)\n      0x1f\n      dup3\n      add\n      and\n      dup3\n      add\n      dup1\n      0x40\n      mstore\n      pop\n      dup2\n      add\n      swap1\n      tag_138\n      swap2\n      swap1\n      tag_139\n      jump\t// in\n    tag_138:\n      0x01\n    tag_137:\n        /* \"@openzeppelin/contracts-upgradeable/proxy/utils/UUPSUpgradeable.sol\":6152:6589  try IERC1822Proxiable(newImplementation).proxiableUUID() returns (bytes32 slot) {... */\n      tag_140\n      jumpi\n        /* \"@openzeppelin/contracts-upgradeable/proxy/utils/UUPSUpgradeable.sol\":6560:6577  newImplementation */\n      dup2\n        /* \"@openzeppelin/contracts-upgradeable/proxy/utils/UUPSUpgradeable.sol\":6518:6578  ERC1967Utils.ERC1967InvalidImplementation(newImplementation) */\n      mload(0x40)\n      0x4c9c8ce300000000000000000000000000000000000000000000000000000000\n      dup2\n      mstore\n      0x04\n      add\n      tag_144\n      swap2\n      swap1\n      tag_53\n      jump\t// in\n    tag_144:\n      mload(0x40)\n      dup1\n      swap2\n      sub\n      swap1\n      revert\n        /* \"@openzeppelin/contracts-upgradeable/proxy/utils/UUPSUpgradeable.sol\":6152:6589  try IERC1822Proxiable(newImplementation).proxiableUUID() returns (bytes32 slot) {... */\n    tag_140:\n        /* \"@openzeppelin/contracts/proxy/ERC1967/ERC1967Utils.sol\":811:877  0x360894a13ba1a3210667c828492db98dca3e2076cc3735a920a3ca505d382bbc */\n      0x360894a13ba1a3210667c828492db98dca3e2076cc3735a920a3ca505d382bbc\n        /* \"@openzeppelin/contracts-upgradeable/proxy/utils/UUPSUpgradeable.sol\":6258:6290  ERC1967Utils.IMPLEMENTATION_SLOT */\n      0x00\n      shl\n        /* \"@openzeppelin/contracts-upgradeable/proxy/utils/UUPSUpgradeable.sol\":6250:6254  slot */\n      dup2\n        /* \"@openzeppelin/contracts-upgradeable/proxy/utils/UUPSUpgradeable.sol\":6250:6290  slot != ERC1967Utils.IMPLEMENTATION_SLOT */\n      eq\n        /* \"@openzeppelin/contracts-upgradeable/proxy/utils/UUPSUpgradeable.sol\":6246:6366  if (slot != ERC1967Utils.IMPLEMENTATION_SLOT) {... */\n      tag_146\n      jumpi\n        /* \"@openzeppelin/contracts-upgradeable/proxy/utils/UUPSUpgradeable.sol\":6346:6350  slot */\n      dup1\n        /* \"@openzeppelin/contracts-upgradeable/proxy/utils/UUPSUpgradeable.sol\":6317:6351  UUPSUnsupportedProxiableUUID(slot) */\n      mload(0x40)\n      0xaa1d49a400000000000000000000000000000000000000000000000000000000\n      dup2\n      mstore\n      0x04\n      add\n      tag_147\n      swap2\n      swap1\n      tag_21\n      jump\t// in\n    tag_147:\n      mload(0x40)\n      dup1\n      swap2\n      sub\n      swap1\n      revert\n        /* \"@openzeppelin/contracts-upgradeable/proxy/utils/UUPSUpgradeable.sol\":6246:6366  if (slot != ERC1967Utils.IMPLEMENTATION_SLOT) {... */\n    tag_146:\n        /* \"@openzeppelin/contracts-upgradeable/proxy/utils/UUPSUpgradeable.sol\":6379:6433  ERC1967Utils.upgradeToAndCall(newImplementation, data) */\n      tag_148\n        /* \"@openzeppelin/contracts-upgradeable/proxy/utils/UUPSUpgradeable.sol\":6409:6426  newImplementation */\n      dup4\n        /* \"@openzeppelin/contracts-upgradeable/proxy/utils/UUPSUpgradeable.sol\":6428:6432  data */\n      dup4\n        /* \"@openzeppelin/contracts-upgradeable/proxy/utils/UUPSUpgradeable.sol\":6379:6408  ERC1967Utils.upgradeToAndCall */\n      tag_149\n        /* \"@openzeppelin/contracts-upgradeable/proxy/utils/UUPSUpgradeable.sol\":6379:6433  ERC1967Utils.upgradeToAndCall(newImplementation, data) */\n      jump\t// in\n    tag_148:\n        /* \"@openzeppelin/contracts-upgradeable/proxy/utils/UUPSUpgradeable.sol\":6209:6444  returns (bytes32 slot) {... */\n      pop\n        /* \"@openzeppelin/contracts-upgradeable/proxy/utils/UUPSUpgradeable.sol\":6057:6595  function _upgradeToAndCallUUPS(address newImplementation, bytes memory data) private {... */\n      pop\n      pop\n      jump\t// out\n        /* \"@openzeppelin/contracts-upgradeable/proxy/utils/UUPSUpgradeable.sol\":5032:5245  function _checkNotDelegated() internal view virtual {... */\n    tag_69:\n        /* \"@openzeppelin/contracts-upgradeable/proxy/utils/UUPSUpgradeable.sol\":5115:5121  __self */\n      immutable(\"0x980c46aeb242fb2816eec3c43a568cdc6adda404b46e62cce4e3fe7d929881e3\")\n        /* \"@openzeppelin/contracts-upgradeable/proxy/utils/UUPSUpgradeable.sol\":5098:5121  address(this) != __self */\n      0xffffffffffffffffffffffffffffffffffffffff\n      and\n        /* \"@openzeppelin/contracts-upgradeable/proxy/utils/UUPSUpgradeable.sol\":5106:5110  this */\n      address\n        /* \"@openzeppelin/contracts-upgradeable/proxy/utils/UUPSUpgradeable.sol\":5098:5121  address(this) != __self */\n      0xffffffffffffffffffffffffffffffffffffffff\n      and\n      eq\n        /* \"@openzeppelin/contracts-upgradeable/proxy/utils/UUPSUpgradeable.sol\":5094:5239  if (address(this) != __self) {... */\n      tag_151\n      jumpi\n        /* \"@openzeppelin/contracts-upgradeable/proxy/utils/UUPSUpgradeable.sol\":5199:5228  UUPSUnauthorizedCallContext() */\n      mload(0x40)\n      0xe07c8dba00000000000000000000000000000000000000000000000000000000\n      dup2\n      mstore\n      0x04\n      add\n      mload(0x40)\n      dup1\n      swap2\n      sub\n      swap1\n      revert\n        /* \"@openzeppelin/contracts-upgradeable/proxy/utils/UUPSUpgradeable.sol\":5094:5239  if (address(this) != __self) {... */\n    tag_151:\n        /* \"@openzeppelin/contracts-upgradeable/proxy/utils/UUPSUpgradeable.sol\":5032:5245  function _checkNotDelegated() internal view virtual {... */\n      jump\t// out\n        /* \"@openzeppelin/contracts-upgradeable/proxy/utils/Initializable.sol\":8737:8907  function _getInitializableStorage() private pure returns (InitializableStorage storage $) {... */\n    tag_73:\n        /* \"@openzeppelin/contracts-upgradeable/proxy/utils/Initializable.sol\":8795:8825  InitializableStorage storage $ */\n      0x00\n        /* \"@openzeppelin/contracts-upgradeable/proxy/utils/Initializable.sol\":8870:8891  INITIALIZABLE_STORAGE */\n      0xf0c57e16840df040f15088dc2f81fe391c3923bec73e23a9662efc9c229c6a00\n        /* \"@openzeppelin/contracts-upgradeable/proxy/utils/Initializable.sol\":8860:8891  $.slot := INITIALIZABLE_STORAGE */\n      swap1\n      pop\n        /* \"@openzeppelin/contracts-upgradeable/proxy/utils/Initializable.sol\":8737:8907  function _getInitializableStorage() private pure returns (InitializableStorage storage $) {... */\n      swap1\n      jump\t// out\n        /* \"@openzeppelin/contracts/proxy/ERC1967/ERC1967Utils.sol\":1441:1579  function getImplementation() internal view returns (address) {... */\n    tag_130:\n        /* \"@openzeppelin/contracts/proxy/ERC1967/ERC1967Utils.sol\":1493:1500  address */\n      0x00\n        /* \"@openzeppelin/contracts/proxy/ERC1967/ERC1967Utils.sol\":1519:1566  StorageSlot.getAddressSlot(IMPLEMENTATION_SLOT) */\n      tag_154\n        /* \"@openzeppelin/contracts/proxy/ERC1967/ERC1967Utils.sol\":811:877  0x360894a13ba1a3210667c828492db98dca3e2076cc3735a920a3ca505d382bbc */\n      0x360894a13ba1a3210667c828492db98dca3e2076cc3735a920a3ca505d382bbc\n        /* \"@openzeppelin/contracts/proxy/ERC1967/ERC1967Utils.sol\":1546:1565  IMPLEMENTATION_SLOT */\n      0x00\n      shl\n        /* \"@openzeppelin/contracts/proxy/ERC1967/ERC1967Utils.sol\":1519:1545  StorageSlot.getAddressSlot */\n      tag_155\n        /* \"@openzeppelin/contracts/proxy/ERC1967/ERC1967Utils.sol\":1519:1566  StorageSlot.getAddressSlot(IMPLEMENTATION_SLOT) */\n      jump\t// in\n    tag_154:\n        /* \"@openzeppelin/contracts/proxy/ERC1967/ERC1967Utils.sol\":1519:1572  StorageSlot.getAddressSlot(IMPLEMENTATION_SLOT).value */\n      0x00\n      add\n      0x00\n      swap1\n      sload\n      swap1\n      0x0100\n      exp\n      swap1\n      div\n      0xffffffffffffffffffffffffffffffffffffffff\n      and\n        /* \"@openzeppelin/contracts/proxy/ERC1967/ERC1967Utils.sol\":1512:1572  return StorageSlot.getAddressSlot(IMPLEMENTATION_SLOT).value */\n      swap1\n      pop\n        /* \"@openzeppelin/contracts/proxy/ERC1967/ERC1967Utils.sol\":1441:1579  function getImplementation() internal view returns (address) {... */\n      swap1\n      jump\t// out\n        /* \"@openzeppelin/contracts/proxy/ERC1967/ERC1967Utils.sol\":2264:2608  function upgradeToAndCall(address newImplementation, bytes memory data) internal {... */\n    tag_149:\n        /* \"@openzeppelin/contracts/proxy/ERC1967/ERC1967Utils.sol\":2355:2392  _setImplementation(newImplementation) */\n      tag_157\n        /* \"@openzeppelin/contracts/proxy/ERC1967/ERC1967Utils.sol\":2374:2391  newImplementation */\n      dup3\n        /* \"@openzeppelin/contracts/proxy/ERC1967/ERC1967Utils.sol\":2355:2373  _setImplementation */\n      tag_158\n        /* \"@openzeppelin/contracts/proxy/ERC1967/ERC1967Utils.sol\":2355:2392  _setImplementation(newImplementation) */\n      jump\t// in\n    tag_157:\n        /* \"@openzeppelin/contracts/proxy/ERC1967/ERC1967Utils.sol\":2425:2442  newImplementation */\n      dup2\n        /* \"@openzeppelin/contracts/proxy/ERC1967/ERC1967Utils.sol\":2407:2443  IERC1967.Upgraded(newImplementation) */\n      0xffffffffffffffffffffffffffffffffffffffff\n      and\n      0xbc7cd75a20ee27fd9adebab32041f755214dbc6bffa90cc0225b39da2e5c2d3b\n      mload(0x40)\n      mload(0x40)\n      dup1\n      swap2\n      sub\n      swap1\n      log2\n        /* \"@openzeppelin/contracts/proxy/ERC1967/ERC1967Utils.sol\":2472:2473  0 */\n      0x00\n        /* \"@openzeppelin/contracts/proxy/ERC1967/ERC1967Utils.sol\":2458:2462  data */\n      dup2\n        /* \"@openzeppelin/contracts/proxy/ERC1967/ERC1967Utils.sol\":2458:2469  data.length */\n      mload\n        /* \"@openzeppelin/contracts/proxy/ERC1967/ERC1967Utils.sol\":2458:2473  data.length > 0 */\n      gt\n        /* \"@openzeppelin/contracts/proxy/ERC1967/ERC1967Utils.sol\":2454:2602  if (data.length > 0) {... */\n      iszero\n      tag_159\n      jumpi\n        /* \"@openzeppelin/contracts/proxy/ERC1967/ERC1967Utils.sol\":2489:2542  Address.functionDelegateCall(newImplementation, data) */\n      tag_160\n        /* \"@openzeppelin/contracts/proxy/ERC1967/ERC1967Utils.sol\":2518:2535  newImplementation */\n      dup3\n        /* \"@openzeppelin/contracts/proxy/ERC1967/ERC1967Utils.sol\":2537:2541  data */\n      dup3\n        /* \"@openzeppelin/contracts/proxy/ERC1967/ERC1967Utils.sol\":2489:2517  Address.functionDelegateCall */\n      tag_161\n        /* \"@openzeppelin/contracts/proxy/ERC1967/ERC1967Utils.sol\":2489:2542  Address.functionDelegateCall(newImplementation, data) */\n      jump\t// in\n    tag_160:\n      pop\n        /* \"@openzeppelin/contracts/proxy/ERC1967/ERC1967Utils.sol\":2454:2602  if (data.length > 0) {... */\n      jump(tag_162)\n    tag_159:\n        /* \"@openzeppelin/contracts/proxy/ERC1967/ERC1967Utils.sol\":2573:2591  _checkNonPayable() */\n      tag_163\n        /* \"@openzeppelin/contracts/proxy/ERC1967/ERC1967Utils.sol\":2573:2589  _checkNonPayable */\n      tag_164\n        /* \"@openzeppelin/contracts/proxy/ERC1967/ERC1967Utils.sol\":2573:2591  _checkNonPayable() */\n      jump\t// in\n    tag_163:\n        /* \"@openzeppelin/contracts/proxy/ERC1967/ERC1967Utils.sol\":2454:2602  if (data.length > 0) {... */\n    tag_162:\n        /* \"@openzeppelin/contracts/proxy/ERC1967/ERC1967Utils.sol\":2264:2608  function upgradeToAndCall(address newImplementation, bytes memory data) internal {... */\n      pop\n      pop\n      jump\t// out\n        /* \"@openzeppelin/contracts/utils/StorageSlot.sol\":1899:2062  function getAddressSlot(bytes32 slot) internal pure returns (AddressSlot storage r) {... */\n    tag_155:\n        /* \"@openzeppelin/contracts/utils/StorageSlot.sol\":1960:1981  AddressSlot storage r */\n      0x00\n        /* \"@openzeppelin/contracts/utils/StorageSlot.sol\":2042:2046  slot */\n      dup2\n        /* \"@openzeppelin/contracts/utils/StorageSlot.sol\":2032:2046  r.slot := slot */\n      swap1\n      pop\n        /* \"@openzeppelin/contracts/utils/StorageSlot.sol\":1899:2062  function getAddressSlot(bytes32 slot) internal pure returns (AddressSlot storage r) {... */\n      swap2\n      swap1\n      pop\n      jump\t// out\n        /* \"@openzeppelin/contracts/proxy/ERC1967/ERC1967Utils.sol\":1671:1952  function _setImplementation(address newImplementation) private {... */\n    tag_158:\n        /* \"@openzeppelin/contracts/proxy/ERC1967/ERC1967Utils.sol\":1781:1782  0 */\n      0x00\n        /* \"@openzeppelin/contracts/proxy/ERC1967/ERC1967Utils.sol\":1748:1765  newImplementation */\n      dup2\n        /* \"@openzeppelin/contracts/proxy/ERC1967/ERC1967Utils.sol\":1748:1777  newImplementation.code.length */\n      0xffffffffffffffffffffffffffffffffffffffff\n      and\n      extcodesize\n        /* \"@openzeppelin/contracts/proxy/ERC1967/ERC1967Utils.sol\":1748:1782  newImplementation.code.length == 0 */\n      sub\n        /* \"@openzeppelin/contracts/proxy/ERC1967/ERC1967Utils.sol\":1744:1863  if (newImplementation.code.length == 0) {... */\n      tag_167\n      jumpi\n        /* \"@openzeppelin/contracts/proxy/ERC1967/ERC1967Utils.sol\":1834:1851  newImplementation */\n      dup1\n        /* \"@openzeppelin/contracts/proxy/ERC1967/ERC1967Utils.sol\":1805:1852  ERC1967InvalidImplementation(newImplementation) */\n      mload(0x40)\n      0x4c9c8ce300000000000000000000000000000000000000000000000000000000\n      dup2\n      mstore\n      0x04\n      add\n      tag_168\n      swap2\n      swap1\n      tag_53\n      jump\t// in\n    tag_168:\n      mload(0x40)\n      dup1\n      swap2\n      sub\n      swap1\n      revert\n        /* \"@openzeppelin/contracts/proxy/ERC1967/ERC1967Utils.sol\":1744:1863  if (newImplementation.code.length == 0) {... */\n    tag_167:\n        /* \"@openzeppelin/contracts/proxy/ERC1967/ERC1967Utils.sol\":1928:1945  newImplementation */\n      dup1\n        /* \"@openzeppelin/contracts/proxy/ERC1967/ERC1967Utils.sol\":1872:1919  StorageSlot.getAddressSlot(IMPLEMENTATION_SLOT) */\n      tag_169\n        /* \"@openzeppelin/contracts/proxy/ERC1967/ERC1967Utils.sol\":811:877  0x360894a13ba1a3210667c828492db98dca3e2076cc3735a920a3ca505d382bbc */\n      0x360894a13ba1a3210667c828492db98dca3e2076cc3735a920a3ca505d382bbc\n        /* \"@openzeppelin/contracts/proxy/ERC1967/ERC1967Utils.sol\":1899:1918  IMPLEMENTATION_SLOT */\n      0x00\n      shl\n        /* \"@openzeppelin/contracts/proxy/ERC1967/ERC1967Utils.sol\":1872:1898  StorageSlot.getAddressSlot */\n      tag_155\n        /* \"@openzeppelin/contracts/proxy/ERC1967/ERC1967Utils.sol\":1872:1919  StorageSlot.getAddressSlot(IMPLEMENTATION_SLOT) */\n      jump\t// in\n    tag_169:\n        /* \"@openzeppelin/contracts/proxy/ERC1967/ERC1967Utils.sol\":1872:1925  StorageSlot.getAddressSlot(IMPLEMENTATION_SLOT).value */\n      0x00\n      add\n      0x00\n        /* \"@openzeppelin/contracts/proxy/ERC1967/ERC1967Utils.sol\":1872:1945  StorageSlot.getAddressSlot(IMPLEMENTATION_SLOT).value = newImplementation */\n      0x0100\n      exp\n      dup2\n      sload\n      dup2\n      0xffffffffffffffffffffffffffffffffffffffff\n      mul\n      not\n      and\n      swap1\n      dup4\n      0xffffffffffffffffffffffffffffffffffffffff\n      and\n      mul\n      or\n      swap1\n      sstore\n      pop\n        /* \"@openzeppelin/contracts/proxy/ERC1967/ERC1967Utils.sol\":1671:1952  function _setImplementation(address newImplementation) private {... */\n      pop\n      jump\t// out\n        /* \"@openzeppelin/contracts/utils/Address.sol\":3916:4169  function functionDelegateCall(address target, bytes memory data) internal returns (bytes memory) {... */\n    tag_161:\n        /* \"@openzeppelin/contracts/utils/Address.sol\":3999:4011  bytes memory */\n      0x60\n        /* \"@openzeppelin/contracts/utils/Address.sol\":4024:4036  bool success */\n      0x00\n        /* \"@openzeppelin/contracts/utils/Address.sol\":4038:4061  bytes memory returndata */\n      0x00\n        /* \"@openzeppelin/contracts/utils/Address.sol\":4065:4071  target */\n      dup5\n        /* \"@openzeppelin/contracts/utils/Address.sol\":4065:4084  target.delegatecall */\n      0xffffffffffffffffffffffffffffffffffffffff\n      and\n        /* \"@openzeppelin/contracts/utils/Address.sol\":4085:4089  data */\n      dup5\n        /* \"@openzeppelin/contracts/utils/Address.sol\":4065:4090  target.delegatecall(data) */\n      mload(0x40)\n      tag_171\n      swap2\n      swap1\n      tag_172\n      jump\t// in\n    tag_171:\n      0x00\n      mload(0x40)\n      dup1\n      dup4\n      sub\n      dup2\n      dup6\n      gas\n      delegatecall\n      swap2\n      pop\n      pop\n      returndatasize\n      dup1\n      0x00\n      dup2\n      eq\n      tag_175\n      jumpi\n      mload(0x40)\n      swap2\n      pop\n      and(add(returndatasize, 0x3f), not(0x1f))\n      dup3\n      add\n      0x40\n      mstore\n      returndatasize\n      dup3\n      mstore\n      returndatasize\n      0x00\n      0x20\n      dup5\n      add\n      returndatacopy\n      jump(tag_174)\n    tag_175:\n      0x60\n      swap2\n      pop\n    tag_174:\n      pop\n        /* \"@openzeppelin/contracts/utils/Address.sol\":4023:4090  (bool success, bytes memory returndata) = target.delegatecall(data) */\n      swap2\n      pop\n      swap2\n      pop\n        /* \"@openzeppelin/contracts/utils/Address.sol\":4107:4162  verifyCallResultFromTarget(target, success, returndata) */\n      tag_176\n        /* \"@openzeppelin/contracts/utils/Address.sol\":4134:4140  target */\n      dup6\n        /* \"@openzeppelin/contracts/utils/Address.sol\":4142:4149  success */\n      dup4\n        /* \"@openzeppelin/contracts/utils/Address.sol\":4151:4161  returndata */\n      dup4\n        /* \"@openzeppelin/contracts/utils/Address.sol\":4107:4133  verifyCallResultFromTarget */\n      tag_177\n        /* \"@openzeppelin/contracts/utils/Address.sol\":4107:4162  verifyCallResultFromTarget(target, success, returndata) */\n      jump\t// in\n    tag_176:\n        /* \"@openzeppelin/contracts/utils/Address.sol\":4100:4162  return verifyCallResultFromTarget(target, success, returndata) */\n      swap3\n      pop\n      pop\n      pop\n        /* \"@openzeppelin/contracts/utils/Address.sol\":3916:4169  function functionDelegateCall(address target, bytes memory data) internal returns (bytes memory) {... */\n      swap3\n      swap2\n      pop\n      pop\n      jump\t// out\n        /* \"@openzeppelin/contracts/proxy/ERC1967/ERC1967Utils.sol\":6113:6235  function _checkNonPayable() private {... */\n    tag_164:\n        /* \"@openzeppelin/contracts/proxy/ERC1967/ERC1967Utils.sol\":6175:6176  0 */\n      0x00\n        /* \"@openzeppelin/contracts/proxy/ERC1967/ERC1967Utils.sol\":6163:6172  msg.value */\n      callvalue\n        /* \"@openzeppelin/contracts/proxy/ERC1967/ERC1967Utils.sol\":6163:6176  msg.value > 0 */\n      gt\n        /* \"@openzeppelin/contracts/proxy/ERC1967/ERC1967Utils.sol\":6159:6229  if (msg.value > 0) {... */\n      iszero\n      tag_179\n      jumpi\n        /* \"@openzeppelin/contracts/proxy/ERC1967/ERC1967Utils.sol\":6199:6218  ERC1967NonPayable() */\n      mload(0x40)\n      0xb398979f00000000000000000000000000000000000000000000000000000000\n      dup2\n      mstore\n      0x04\n      add\n      mload(0x40)\n      dup1\n      swap2\n      sub\n      swap1\n      revert\n        /* \"@openzeppelin/contracts/proxy/ERC1967/ERC1967Utils.sol\":6159:6229  if (msg.value > 0) {... */\n    tag_179:\n        /* \"@openzeppelin/contracts/proxy/ERC1967/ERC1967Utils.sol\":6113:6235  function _checkNonPayable() private {... */\n      jump\t// out\n        /* \"@openzeppelin/contracts/utils/Address.sol\":4437:5019  function verifyCallResultFromTarget(... */\n    tag_177:\n        /* \"@openzeppelin/contracts/utils/Address.sol\":4581:4593  bytes memory */\n      0x60\n        /* \"@openzeppelin/contracts/utils/Address.sol\":4610:4617  success */\n      dup3\n        /* \"@openzeppelin/contracts/utils/Address.sol\":4605:5013  if (!success) {... */\n      tag_181\n      jumpi\n        /* \"@openzeppelin/contracts/utils/Address.sol\":4633:4652  _revert(returndata) */\n      tag_182\n        /* \"@openzeppelin/contracts/utils/Address.sol\":4641:4651  returndata */\n      dup3\n        /* \"@openzeppelin/contracts/utils/Address.sol\":4633:4640  _revert */\n      tag_183\n        /* \"@openzeppelin/contracts/utils/Address.sol\":4633:4652  _revert(returndata) */\n      jump\t// in\n    tag_182:\n        /* \"@openzeppelin/contracts/utils/Address.sol\":4605:5013  if (!success) {... */\n      jump(tag_184)\n    tag_181:\n        /* \"@openzeppelin/contracts/utils/Address.sol\":4878:4879  0 */\n      0x00\n        /* \"@openzeppelin/contracts/utils/Address.sol\":4857:4867  returndata */\n      dup3\n        /* \"@openzeppelin/contracts/utils/Address.sol\":4857:4874  returndata.length */\n      mload\n        /* \"@openzeppelin/contracts/utils/Address.sol\":4857:4879  returndata.length == 0 */\n      eq\n        /* \"@openzeppelin/contracts/utils/Address.sol\":4857:4906  returndata.length == 0 && target.code.length == 0 */\n      dup1\n      iszero\n      tag_185\n      jumpi\n      pop\n        /* \"@openzeppelin/contracts/utils/Address.sol\":4905:4906  0 */\n      0x00\n        /* \"@openzeppelin/contracts/utils/Address.sol\":4883:4889  target */\n      dup5\n        /* \"@openzeppelin/contracts/utils/Address.sol\":4883:4901  target.code.length */\n      0xffffffffffffffffffffffffffffffffffffffff\n      and\n      extcodesize\n        /* \"@openzeppelin/contracts/utils/Address.sol\":4883:4906  target.code.length == 0 */\n      eq\n        /* \"@openzeppelin/contracts/utils/Address.sol\":4857:4906  returndata.length == 0 && target.code.length == 0 */\n    tag_185:\n        /* \"@openzeppelin/contracts/utils/Address.sol\":4853:4972  if (returndata.length == 0 && target.code.length == 0) {... */\n      iszero\n      tag_186\n      jumpi\n        /* \"@openzeppelin/contracts/utils/Address.sol\":4950:4956  target */\n      dup4\n        /* \"@openzeppelin/contracts/utils/Address.sol\":4933:4957  AddressEmptyCode(target) */\n      mload(0x40)\n      0x9996b31500000000000000000000000000000000000000000000000000000000\n      dup2\n      mstore\n      0x04\n      add\n      tag_187\n      swap2\n      swap1\n      tag_53\n      jump\t// in\n    tag_187:\n      mload(0x40)\n      dup1\n      swap2\n      sub\n      swap1\n      revert\n        /* \"@openzeppelin/contracts/utils/Address.sol\":4853:4972  if (returndata.length == 0 && target.code.length == 0) {... */\n    tag_186:\n        /* \"@openzeppelin/contracts/utils/Address.sol\":4992:5002  returndata */\n      dup2\n        /* \"@openzeppelin/contracts/utils/Address.sol\":4985:5002  return returndata */\n      swap1\n      pop\n      jump(tag_180)\n        /* \"@openzeppelin/contracts/utils/Address.sol\":4605:5013  if (!success) {... */\n    tag_184:\n        /* \"@openzeppelin/contracts/utils/Address.sol\":4437:5019  function verifyCallResultFromTarget(... */\n    tag_180:\n      swap4\n      swap3\n      pop\n      pop\n      pop\n      jump\t// out\n        /* \"@openzeppelin/contracts/utils/Address.sol\":5559:6046  function _revert(bytes memory returndata) private pure {... */\n    tag_183:\n        /* \"@openzeppelin/contracts/utils/Address.sol\":5710:5711  0 */\n      0x00\n        /* \"@openzeppelin/contracts/utils/Address.sol\":5690:5700  returndata */\n      dup2\n        /* \"@openzeppelin/contracts/utils/Address.sol\":5690:5707  returndata.length */\n      mload\n        /* \"@openzeppelin/contracts/utils/Address.sol\":5690:5711  returndata.length > 0 */\n      gt\n        /* \"@openzeppelin/contracts/utils/Address.sol\":5686:6040  if (returndata.length > 0) {... */\n      iszero\n      tag_189\n      jumpi\n        /* \"@openzeppelin/contracts/utils/Address.sol\":5887:5897  returndata */\n      dup1\n        /* \"@openzeppelin/contracts/utils/Address.sol\":5881:5898  mload(returndata) */\n      mload\n        /* \"@openzeppelin/contracts/utils/Address.sol\":5943:5958  returndata_size */\n      dup1\n        /* \"@openzeppelin/contracts/utils/Address.sol\":5930:5940  returndata */\n      dup3\n        /* \"@openzeppelin/contracts/utils/Address.sol\":5926:5928  32 */\n      0x20\n        /* \"@openzeppelin/contracts/utils/Address.sol\":5922:5941  add(32, returndata) */\n      add\n        /* \"@openzeppelin/contracts/utils/Address.sol\":5915:5959  revert(add(32, returndata), returndata_size) */\n      revert\n        /* \"@openzeppelin/contracts/utils/Address.sol\":5686:6040  if (returndata.length > 0) {... */\n    tag_189:\n        /* \"@openzeppelin/contracts/utils/Address.sol\":6010:6029  Errors.FailedCall() */\n      mload(0x40)\n      0xd6bda27500000000000000000000000000000000000000000000000000000000\n      dup2\n      mstore\n      0x04\n      add\n      mload(0x40)\n      dup1\n      swap2\n      sub\n      swap1\n      revert\n        /* \"#utility.yul\":7:82   */\n    tag_191:\n        /* \"#utility.yul\":40:46   */\n      0x00\n        /* \"#utility.yul\":73:75   */\n      0x40\n        /* \"#utility.yul\":67:76   */\n      mload\n        /* \"#utility.yul\":57:76   */\n      swap1\n      pop\n        /* \"#utility.yul\":7:82   */\n      swap1\n      jump\t// out\n        /* \"#utility.yul\":88:205   */\n    tag_192:\n        /* \"#utility.yul\":197:198   */\n      0x00\n        /* \"#utility.yul\":194:195   */\n      0x00\n        /* \"#utility.yul\":187:199   */\n      revert\n        /* \"#utility.yul\":211:328   */\n    tag_193:\n        /* \"#utility.yul\":320:321   */\n      0x00\n        /* \"#utility.yul\":317:318   */\n      0x00\n        /* \"#utility.yul\":310:322   */\n      revert\n        /* \"#utility.yul\":334:460   */\n    tag_194:\n        /* \"#utility.yul\":371:378   */\n      0x00\n        /* \"#utility.yul\":411:453   */\n      0xffffffffffffffffffffffffffffffffffffffff\n        /* \"#utility.yul\":404:409   */\n      dup3\n        /* \"#utility.yul\":400:454   */\n      and\n        /* \"#utility.yul\":389:454   */\n      swap1\n      pop\n        /* \"#utility.yul\":334:460   */\n      swap2\n      swap1\n      pop\n      jump\t// out\n        /* \"#utility.yul\":466:562   */\n    tag_195:\n        /* \"#utility.yul\":503:510   */\n      0x00\n        /* \"#utility.yul\":532:556   */\n      tag_252\n        /* \"#utility.yul\":550:555   */\n      dup3\n        /* \"#utility.yul\":532:556   */\n      tag_194\n      jump\t// in\n    tag_252:\n        /* \"#utility.yul\":521:556   */\n      swap1\n      pop\n        /* \"#utility.yul\":466:562   */\n      swap2\n      swap1\n      pop\n      jump\t// out\n        /* \"#utility.yul\":568:690   */\n    tag_196:\n        /* \"#utility.yul\":641:665   */\n      tag_254\n        /* \"#utility.yul\":659:664   */\n      dup2\n        /* \"#utility.yul\":641:665   */\n      tag_195\n      jump\t// in\n    tag_254:\n        /* \"#utility.yul\":634:639   */\n      dup2\n        /* \"#utility.yul\":631:666   */\n      eq\n        /* \"#utility.yul\":621:684   */\n      tag_255\n      jumpi\n        /* \"#utility.yul\":680:681   */\n      0x00\n        /* \"#utility.yul\":677:678   */\n      0x00\n        /* \"#utility.yul\":670:682   */\n      revert\n        /* \"#utility.yul\":621:684   */\n    tag_255:\n        /* \"#utility.yul\":568:690   */\n      pop\n      jump\t// out\n        /* \"#utility.yul\":696:835   */\n    tag_197:\n        /* \"#utility.yul\":742:747   */\n      0x00\n        /* \"#utility.yul\":780:786   */\n      dup2\n        /* \"#utility.yul\":767:787   */\n      calldataload\n        /* \"#utility.yul\":758:787   */\n      swap1\n      pop\n        /* \"#utility.yul\":796:829   */\n      tag_257\n        /* \"#utility.yul\":823:828   */\n      dup2\n        /* \"#utility.yul\":796:829   */\n      tag_196\n      jump\t// in\n    tag_257:\n        /* \"#utility.yul\":696:835   */\n      swap3\n      swap2\n      pop\n      pop\n      jump\t// out\n        /* \"#utility.yul\":841:958   */\n    tag_198:\n        /* \"#utility.yul\":950:951   */\n      0x00\n        /* \"#utility.yul\":947:948   */\n      0x00\n        /* \"#utility.yul\":940:952   */\n      revert\n        /* \"#utility.yul\":964:1081   */\n    tag_199:\n        /* \"#utility.yul\":1073:1074   */\n      0x00\n        /* \"#utility.yul\":1070:1071   */\n      0x00\n        /* \"#utility.yul\":1063:1075   */\n      revert\n        /* \"#utility.yul\":1087:1189   */\n    tag_200:\n        /* \"#utility.yul\":1128:1134   */\n      0x00\n        /* \"#utility.yul\":1179:1181   */\n      0x1f\n        /* \"#utility.yul\":1175:1182   */\n      not\n        /* \"#utility.yul\":1170:1172   */\n      0x1f\n        /* \"#utility.yul\":1163:1168   */\n      dup4\n        /* \"#utility.yul\":1159:1173   */\n      add\n        /* \"#utility.yul\":1155:1183   */\n      and\n        /* \"#utility.yul\":1145:1183   */\n      swap1\n      pop\n        /* \"#utility.yul\":1087:1189   */\n      swap2\n      swap1\n      pop\n      jump\t// out\n        /* \"#utility.yul\":1195:1375   */\n    tag_201:\n        /* \"#utility.yul\":1243:1320   */\n      0x4e487b7100000000000000000000000000000000000000000000000000000000\n        /* \"#utility.yul\":1240:1241   */\n      0x00\n        /* \"#utility.yul\":1233:1321   */\n      mstore\n        /* \"#utility.yul\":1340:1344   */\n      0x41\n        /* \"#utility.yul\":1337:1338   */\n      0x04\n        /* \"#utility.yul\":1330:1345   */\n      mstore\n        /* \"#utility.yul\":1364:1368   */\n      0x24\n        /* \"#utility.yul\":1361:1362   */\n      0x00\n        /* \"#utility.yul\":1354:1369   */\n      revert\n        /* \"#utility.yul\":1381:1662   */\n    tag_202:\n        /* \"#utility.yul\":1464:1491   */\n      tag_263\n        /* \"#utility.yul\":1486:1490   */\n      dup3\n        /* \"#utility.yul\":1464:1491   */\n      tag_200\n      jump\t// in\n    tag_263:\n        /* \"#utility.yul\":1456:1462   */\n      dup2\n        /* \"#utility.yul\":1452:1492   */\n      add\n        /* \"#utility.yul\":1594:1600   */\n      dup2\n        /* \"#utility.yul\":1582:1592   */\n      dup2\n        /* \"#utility.yul\":1579:1601   */\n      lt\n        /* \"#utility.yul\":1558:1576   */\n      0xffffffffffffffff\n        /* \"#utility.yul\":1546:1556   */\n      dup3\n        /* \"#utility.yul\":1543:1577   */\n      gt\n        /* \"#utility.yul\":1540:1602   */\n      or\n        /* \"#utility.yul\":1537:1625   */\n      iszero\n      tag_264\n      jumpi\n        /* \"#utility.yul\":1605:1623   */\n      tag_265\n      tag_201\n      jump\t// in\n    tag_265:\n        /* \"#utility.yul\":1537:1625   */\n    tag_264:\n        /* \"#utility.yul\":1645:1655   */\n      dup1\n        /* \"#utility.yul\":1641:1643   */\n      0x40\n        /* \"#utility.yul\":1634:1656   */\n      mstore\n        /* \"#utility.yul\":1424:1662   */\n      pop\n        /* \"#utility.yul\":1381:1662   */\n      pop\n      pop\n      jump\t// out\n        /* \"#utility.yul\":1668:1797   */\n    tag_203:\n        /* \"#utility.yul\":1702:1708   */\n      0x00\n        /* \"#utility.yul\":1729:1749   */\n      tag_267\n      tag_191\n      jump\t// in\n    tag_267:\n        /* \"#utility.yul\":1719:1749   */\n      swap1\n      pop\n        /* \"#utility.yul\":1758:1791   */\n      tag_268\n        /* \"#utility.yul\":1786:1790   */\n      dup3\n        /* \"#utility.yul\":1778:1784   */\n      dup3\n        /* \"#utility.yul\":1758:1791   */\n      tag_202\n      jump\t// in\n    tag_268:\n        /* \"#utility.yul\":1668:1797   */\n      swap2\n      swap1\n      pop\n      jump\t// out\n        /* \"#utility.yul\":1803:2110   */\n    tag_204:\n        /* \"#utility.yul\":1864:1868   */\n      0x00\n        /* \"#utility.yul\":1954:1972   */\n      0xffffffffffffffff\n        /* \"#utility.yul\":1946:1952   */\n      dup3\n        /* \"#utility.yul\":1943:1973   */\n      gt\n        /* \"#utility.yul\":1940:1996   */\n      iszero\n      tag_270\n      jumpi\n        /* \"#utility.yul\":1976:1994   */\n      tag_271\n      tag_201\n      jump\t// in\n    tag_271:\n        /* \"#utility.yul\":1940:1996   */\n    tag_270:\n        /* \"#utility.yul\":2014:2043   */\n      tag_272\n        /* \"#utility.yul\":2036:2042   */\n      dup3\n        /* \"#utility.yul\":2014:2043   */\n      tag_200\n      jump\t// in\n    tag_272:\n        /* \"#utility.yul\":2006:2043   */\n      swap1\n      pop\n        /* \"#utility.yul\":2098:2102   */\n      0x20\n        /* \"#utility.yul\":2092:2096   */\n      dup2\n        /* \"#utility.yul\":2088:2103   */\n      add\n        /* \"#utility.yul\":2080:2103   */\n      swap1\n      pop\n        /* \"#utility.yul\":1803:2110   */\n      swap2\n      swap1\n      pop\n      jump\t// out\n        /* \"#utility.yul\":2116:2264   */\n    tag_205:\n        /* \"#utility.yul\":2214:2220   */\n      dup3\n        /* \"#utility.yul\":2209:2212   */\n      dup2\n        /* \"#utility.yul\":2204:2207   */\n      dup4\n        /* \"#utility.yul\":2191:2221   */\n      calldatacopy\n        /* \"#utility.yul\":2255:2256   */\n      0x00\n        /* \"#utility.yul\":2246:2252   */\n      dup4\n        /* \"#utility.yul\":2241:2244   */\n      dup4\n        /* \"#utility.yul\":2237:2253   */\n      add\n        /* \"#utility.yul\":2230:2257   */\n      mstore\n        /* \"#utility.yul\":2116:2264   */\n      pop\n      pop\n      pop\n      jump\t// out\n        /* \"#utility.yul\":2270:2693   */\n    tag_206:\n        /* \"#utility.yul\":2347:2352   */\n      0x00\n        /* \"#utility.yul\":2372:2437   */\n      tag_275\n        /* \"#utility.yul\":2388:2436   */\n      tag_276\n        /* \"#utility.yul\":2429:2435   */\n      dup5\n        /* \"#utility.yul\":2388:2436   */\n      tag_204\n      jump\t// in\n    tag_276:\n        /* \"#utility.yul\":2372:2437   */\n      tag_203\n      jump\t// in\n    tag_275:\n        /* \"#utility.yul\":2363:2437   */\n      swap1\n      pop\n        /* \"#utility.yul\":2460:2466   */\n      dup3\n        /* \"#utility.yul\":2453:2458   */\n      dup2\n        /* \"#utility.yul\":2446:2467   */\n      mstore\n        /* \"#utility.yul\":2498:2502   */\n      0x20\n        /* \"#utility.yul\":2491:2496   */\n      dup2\n        /* \"#utility.yul\":2487:2503   */\n      add\n        /* \"#utility.yul\":2536:2539   */\n      dup5\n        /* \"#utility.yul\":2527:2533   */\n      dup5\n        /* \"#utility.yul\":2522:2525   */\n      dup5\n        /* \"#utility.yul\":2518:2534   */\n      add\n        /* \"#utility.yul\":2515:2540   */\n      gt\n        /* \"#utility.yul\":2512:2624   */\n      iszero\n      tag_277\n      jumpi\n        /* \"#utility.yul\":2543:2622   */\n      tag_278\n      tag_199\n      jump\t// in\n    tag_278:\n        /* \"#utility.yul\":2512:2624   */\n    tag_277:\n        /* \"#utility.yul\":2633:2687   */\n      tag_279\n        /* \"#utility.yul\":2680:2686   */\n      dup5\n        /* \"#utility.yul\":2675:2678   */\n      dup3\n        /* \"#utility.yul\":2670:2673   */\n      dup6\n        /* \"#utility.yul\":2633:2687   */\n      tag_205\n      jump\t// in\n    tag_279:\n        /* \"#utility.yul\":2353:2693   */\n      pop\n        /* \"#utility.yul\":2270:2693   */\n      swap4\n      swap3\n      pop\n      pop\n      pop\n      jump\t// out\n        /* \"#utility.yul\":2712:3050   */\n    tag_207:\n        /* \"#utility.yul\":2767:2772   */\n      0x00\n        /* \"#utility.yul\":2816:2819   */\n      dup3\n        /* \"#utility.yul\":2809:2813   */\n      0x1f\n        /* \"#utility.yul\":2801:2807   */\n      dup4\n        /* \"#utility.yul\":2797:2814   */\n      add\n        /* \"#utility.yul\":2793:2820   */\n      slt\n        /* \"#utility.yul\":2783:2905   */\n      tag_281\n      jumpi\n        /* \"#utility.yul\":2824:2903   */\n      tag_282\n      tag_198\n      jump\t// in\n    tag_282:\n        /* \"#utility.yul\":2783:2905   */\n    tag_281:\n        /* \"#utility.yul\":2941:2947   */\n      dup2\n        /* \"#utility.yul\":2928:2948   */\n      calldataload\n        /* \"#utility.yul\":2966:3044   */\n      tag_283\n        /* \"#utility.yul\":3040:3043   */\n      dup5\n        /* \"#utility.yul\":3032:3038   */\n      dup3\n        /* \"#utility.yul\":3025:3029   */\n      0x20\n        /* \"#utility.yul\":3017:3023   */\n      dup7\n        /* \"#utility.yul\":3013:3030   */\n      add\n        /* \"#utility.yul\":2966:3044   */\n      tag_206\n      jump\t// in\n    tag_283:\n        /* \"#utility.yul\":2957:3044   */\n      swap2\n      pop\n        /* \"#utility.yul\":2773:3050   */\n      pop\n        /* \"#utility.yul\":2712:3050   */\n      swap3\n      swap2\n      pop\n      pop\n      jump\t// out\n        /* \"#utility.yul\":3056:3708   */\n    tag_15:\n        /* \"#utility.yul\":3133:3139   */\n      0x00\n        /* \"#utility.yul\":3141:3147   */\n      0x00\n        /* \"#utility.yul\":3190:3192   */\n      0x40\n        /* \"#utility.yul\":3178:3187   */\n      dup4\n        /* \"#utility.yul\":3169:3176   */\n      dup6\n        /* \"#utility.yul\":3165:3188   */\n      sub\n        /* \"#utility.yul\":3161:3193   */\n      slt\n        /* \"#utility.yul\":3158:3277   */\n      iszero\n      tag_285\n      jumpi\n        /* \"#utility.yul\":3196:3275   */\n      tag_286\n      tag_192\n      jump\t// in\n    tag_286:\n        /* \"#utility.yul\":3158:3277   */\n    tag_285:\n        /* \"#utility.yul\":3316:3317   */\n      0x00\n        /* \"#utility.yul\":3341:3394   */\n      tag_287\n        /* \"#utility.yul\":3386:3393   */\n      dup6\n        /* \"#utility.yul\":3377:3383   */\n      dup3\n        /* \"#utility.yul\":3366:3375   */\n      dup7\n        /* \"#utility.yul\":3362:3384   */\n      add\n        /* \"#utility.yul\":3341:3394   */\n      tag_197\n      jump\t// in\n    tag_287:\n        /* \"#utility.yul\":3331:3394   */\n      swap3\n      pop\n        /* \"#utility.yul\":3287:3404   */\n      pop\n        /* \"#utility.yul\":3471:3473   */\n      0x20\n        /* \"#utility.yul\":3460:3469   */\n      dup4\n        /* \"#utility.yul\":3456:3474   */\n      add\n        /* \"#utility.yul\":3443:3475   */\n      calldataload\n        /* \"#utility.yul\":3502:3520   */\n      0xffffffffffffffff\n        /* \"#utility.yul\":3494:3500   */\n      dup2\n        /* \"#utility.yul\":3491:3521   */\n      gt\n        /* \"#utility.yul\":3488:3605   */\n      iszero\n      tag_288\n      jumpi\n        /* \"#utility.yul\":3524:3603   */\n      tag_289\n      tag_193\n      jump\t// in\n    tag_289:\n        /* \"#utility.yul\":3488:3605   */\n    tag_288:\n        /* \"#utility.yul\":3629:3691   */\n      tag_290\n        /* \"#utility.yul\":3683:3690   */\n      dup6\n        /* \"#utility.yul\":3674:3680   */\n      dup3\n        /* \"#utility.yul\":3663:3672   */\n      dup7\n        /* \"#utility.yul\":3659:3681   */\n      add\n        /* \"#utility.yul\":3629:3691   */\n      tag_207\n      jump\t// in\n    tag_290:\n        /* \"#utility.yul\":3619:3691   */\n      swap2\n      pop\n        /* \"#utility.yul\":3414:3701   */\n      pop\n        /* \"#utility.yul\":3056:3708   */\n      swap3\n      pop\n      swap3\n      swap1\n      pop\n      jump\t// out\n        /* \"#utility.yul\":3714:3791   */\n    tag_208:\n        /* \"#utility.yul\":3751:3758   */\n      0x00\n        /* \"#utility.yul\":3780:3785   */\n      dup2\n        /* \"#utility.yul\":3769:3785   */\n      swap1\n      pop\n        /* \"#utility.yul\":3714:3791   */\n      swap2\n      swap1\n      pop\n      jump\t// out\n        /* \"#utility.yul\":3797:3915   */\n    tag_209:\n        /* \"#utility.yul\":3884:3908   */\n      tag_293\n        /* \"#utility.yul\":3902:3907   */\n      dup2\n        /* \"#utility.yul\":3884:3908   */\n      tag_208\n      jump\t// in\n    tag_293:\n        /* \"#utility.yul\":3879:3882   */\n      dup3\n        /* \"#utility.yul\":3872:3909   */\n      mstore\n        /* \"#utility.yul\":3797:3915   */\n      pop\n      pop\n      jump\t// out\n        /* \"#utility.yul\":3921:4143   */\n    tag_21:\n        /* \"#utility.yul\":4014:4018   */\n      0x00\n        /* \"#utility.yul\":4052:4054   */\n      0x20\n        /* \"#utility.yul\":4041:4050   */\n      dup3\n        /* \"#utility.yul\":4037:4055   */\n      add\n        /* \"#utility.yul\":4029:4055   */\n      swap1\n      pop\n        /* \"#utility.yul\":4065:4136   */\n      tag_295\n        /* \"#utility.yul\":4133:4134   */\n      0x00\n        /* \"#utility.yul\":4122:4131   */\n      dup4\n        /* \"#utility.yul\":4118:4135   */\n      add\n        /* \"#utility.yul\":4109:4115   */\n      dup5\n        /* \"#utility.yul\":4065:4136   */\n      tag_209\n      jump\t// in\n    tag_295:\n        /* \"#utility.yul\":3921:4143   */\n      swap3\n      swap2\n      pop\n      pop\n      jump\t// out\n        /* \"#utility.yul\":4149:4226   */\n    tag_210:\n        /* \"#utility.yul\":4186:4193   */\n      0x00\n        /* \"#utility.yul\":4215:4220   */\n      dup2\n        /* \"#utility.yul\":4204:4220   */\n      swap1\n      pop\n        /* \"#utility.yul\":4149:4226   */\n      swap2\n      swap1\n      pop\n      jump\t// out\n        /* \"#utility.yul\":4232:4354   */\n    tag_211:\n        /* \"#utility.yul\":4305:4329   */\n      tag_298\n        /* \"#utility.yul\":4323:4328   */\n      dup2\n        /* \"#utility.yul\":4305:4329   */\n      tag_210\n      jump\t// in\n    tag_298:\n        /* \"#utility.yul\":4298:4303   */\n      dup2\n        /* \"#utility.yul\":4295:4330   */\n      eq\n        /* \"#utility.yul\":4285:4348   */\n      tag_299\n      jumpi\n        /* \"#utility.yul\":4344:4345   */\n      0x00\n        /* \"#utility.yul\":4341:4342   */\n      0x00\n        /* \"#utility.yul\":4334:4346   */\n      revert\n        /* \"#utility.yul\":4285:4348   */\n    tag_299:\n        /* \"#utility.yul\":4232:4354   */\n      pop\n      jump\t// out\n        /* \"#utility.yul\":4360:4499   */\n    tag_212:\n        /* \"#utility.yul\":4406:4411   */\n      0x00\n        /* \"#utility.yul\":4444:4450   */\n      dup2\n        /* \"#utility.yul\":4431:4451   */\n      calldataload\n        /* \"#utility.yul\":4422:4451   */\n      swap1\n      pop\n        /* \"#utility.yul\":4460:4493   */\n      tag_301\n        /* \"#utility.yul\":4487:4492   */\n      dup2\n        /* \"#utility.yul\":4460:4493   */\n      tag_211\n      jump\t// in\n    tag_301:\n        /* \"#utility.yul\":4360:4499   */\n      swap3\n      swap2\n      pop\n      pop\n      jump\t// out\n        /* \"#utility.yul\":4505:4834   */\n    tag_25:\n        /* \"#utility.yul\":4564:4570   */\n      0x00\n        /* \"#utility.yul\":4613:4615   */\n      0x20\n        /* \"#utility.yul\":4601:4610   */\n      dup3\n        /* \"#utility.yul\":4592:4599   */\n      dup5\n        /* \"#utility.yul\":4588:4611   */\n      sub\n        /* \"#utility.yul\":4584:4616   */\n      slt\n        /* \"#utility.yul\":4581:4700   */\n      iszero\n      tag_303\n      jumpi\n        /* \"#utility.yul\":4619:4698   */\n      tag_304\n      tag_192\n      jump\t// in\n    tag_304:\n        /* \"#utility.yul\":4581:4700   */\n    tag_303:\n        /* \"#utility.yul\":4739:4740   */\n      0x00\n        /* \"#utility.yul\":4764:4817   */\n      tag_305\n        /* \"#utility.yul\":4809:4816   */\n      dup5\n        /* \"#utility.yul\":4800:4806   */\n      dup3\n        /* \"#utility.yul\":4789:4798   */\n      dup6\n        /* \"#utility.yul\":4785:4807   */\n      add\n        /* \"#utility.yul\":4764:4817   */\n      tag_212\n      jump\t// in\n    tag_305:\n        /* \"#utility.yul\":4754:4817   */\n      swap2\n      pop\n        /* \"#utility.yul\":4710:4827   */\n      pop\n        /* \"#utility.yul\":4505:4834   */\n      swap3\n      swap2\n      pop\n      pop\n      jump\t// out\n        /* \"#utility.yul\":4840:4958   */\n    tag_213:\n        /* \"#utility.yul\":4927:4951   */\n      tag_307\n        /* \"#utility.yul\":4945:4950   */\n      dup2\n        /* \"#utility.yul\":4927:4951   */\n      tag_195\n      jump\t// in\n    tag_307:\n        /* \"#utility.yul\":4922:4925   */\n      dup3\n        /* \"#utility.yul\":4915:4952   */\n      mstore\n        /* \"#utility.yul\":4840:4958   */\n      pop\n      pop\n      jump\t// out\n        /* \"#utility.yul\":4964:5082   */\n    tag_214:\n        /* \"#utility.yul\":5051:5075   */\n      tag_309\n        /* \"#utility.yul\":5069:5074   */\n      dup2\n        /* \"#utility.yul\":5051:5075   */\n      tag_210\n      jump\t// in\n    tag_309:\n        /* \"#utility.yul\":5046:5049   */\n      dup3\n        /* \"#utility.yul\":5039:5076   */\n      mstore\n        /* \"#utility.yul\":4964:5082   */\n      pop\n      pop\n      jump\t// out\n        /* \"#utility.yul\":5088:5178   */\n    tag_215:\n        /* \"#utility.yul\":5122:5129   */\n      0x00\n        /* \"#utility.yul\":5165:5170   */\n      dup2\n        /* \"#utility.yul\":5158:5171   */\n      iszero\n        /* \"#utility.yul\":5151:5172   */\n      iszero\n        /* \"#utility.yul\":5140:5172   */\n      swap1\n      pop\n        /* \"#utility.yul\":5088:5178   */\n      swap2\n      swap1\n      pop\n      jump\t// out\n        /* \"#utility.yul\":5184:5293   */\n    tag_216:\n        /* \"#utility.yul\":5265:5286   */\n      tag_312\n        /* \"#utility.yul\":5280:5285   */\n      dup2\n        /* \"#utility.yul\":5265:5286   */\n      tag_215\n      jump\t// in\n    tag_312:\n        /* \"#utility.yul\":5260:5263   */\n      dup3\n        /* \"#utility.yul\":5253:5287   */\n      mstore\n        /* \"#utility.yul\":5184:5293   */\n      pop\n      pop\n      jump\t// out\n        /* \"#utility.yul\":5299:6395   */\n    tag_28:\n        /* \"#utility.yul\":5610:5614   */\n      0x00\n        /* \"#utility.yul\":5648:5651   */\n      0x0120\n        /* \"#utility.yul\":5637:5646   */\n      dup3\n        /* \"#utility.yul\":5633:5652   */\n      add\n        /* \"#utility.yul\":5625:5652   */\n      swap1\n      pop\n        /* \"#utility.yul\":5662:5733   */\n      tag_314\n        /* \"#utility.yul\":5730:5731   */\n      0x00\n        /* \"#utility.yul\":5719:5728   */\n      dup4\n        /* \"#utility.yul\":5715:5732   */\n      add\n        /* \"#utility.yul\":5706:5712   */\n      dup13\n        /* \"#utility.yul\":5662:5733   */\n      tag_213\n      jump\t// in\n    tag_314:\n        /* \"#utility.yul\":5743:5815   */\n      tag_315\n        /* \"#utility.yul\":5811:5813   */\n      0x20\n        /* \"#utility.yul\":5800:5809   */\n      dup4\n        /* \"#utility.yul\":5796:5814   */\n      add\n        /* \"#utility.yul\":5787:5793   */\n      dup12\n        /* \"#utility.yul\":5743:5815   */\n      tag_214\n      jump\t// in\n    tag_315:\n        /* \"#utility.yul\":5825:5897   */\n      tag_316\n        /* \"#utility.yul\":5893:5895   */\n      0x40\n        /* \"#utility.yul\":5882:5891   */\n      dup4\n        /* \"#utility.yul\":5878:5896   */\n      add\n        /* \"#utility.yul\":5869:5875   */\n      dup11\n        /* \"#utility.yul\":5825:5897   */\n      tag_214\n      jump\t// in\n    tag_316:\n        /* \"#utility.yul\":5907:5979   */\n      tag_317\n        /* \"#utility.yul\":5975:5977   */\n      0x60\n        /* \"#utility.yul\":5964:5973   */\n      dup4\n        /* \"#utility.yul\":5960:5978   */\n      add\n        /* \"#utility.yul\":5951:5957   */\n      dup10\n        /* \"#utility.yul\":5907:5979   */\n      tag_214\n      jump\t// in\n    tag_317:\n        /* \"#utility.yul\":5989:6056   */\n      tag_318\n        /* \"#utility.yul\":6051:6054   */\n      0x80\n        /* \"#utility.yul\":6040:6049   */\n      dup4\n        /* \"#utility.yul\":6036:6055   */\n      add\n        /* \"#utility.yul\":6027:6033   */\n      dup9\n        /* \"#utility.yul\":5989:6056   */\n      tag_216\n      jump\t// in\n    tag_318:\n        /* \"#utility.yul\":6066:6139   */\n      tag_319\n        /* \"#utility.yul\":6134:6137   */\n      0xa0\n        /* \"#utility.yul\":6123:6132   */\n      dup4\n        /* \"#utility.yul\":6119:6138   */\n      add\n        /* \"#utility.yul\":6110:6116   */\n      dup8\n        /* \"#utility.yul\":6066:6139   */\n      tag_213\n      jump\t// in\n    tag_319:\n        /* \"#utility.yul\":6149:6222   */\n      tag_320\n        /* \"#utility.yul\":6217:6220   */\n      0xc0\n        /* \"#utility.yul\":6206:6215   */\n      dup4\n        /* \"#utility.yul\":6202:6221   */\n      add\n        /* \"#utility.yul\":6193:6199   */\n      dup7\n        /* \"#utility.yul\":6149:6222   */\n      tag_214\n      jump\t// in\n    tag_320:\n        /* \"#utility.yul\":6232:6305   */\n      tag_321\n        /* \"#utility.yul\":6300:6303   */\n      0xe0\n        /* \"#utility.yul\":6289:6298   */\n      dup4\n        /* \"#utility.yul\":6285:6304   */\n      add\n        /* \"#utility.yul\":6276:6282   */\n      dup6\n        /* \"#utility.yul\":6232:6305   */\n      tag_213\n      jump\t// in\n    tag_321:\n        /* \"#utility.yul\":6315:6388   */\n      tag_322\n        /* \"#utility.yul\":6383:6386   */\n      0x0100\n        /* \"#utility.yul\":6372:6381   */\n      dup4\n        /* \"#utility.yul\":6368:6387   */\n      add\n        /* \"#utility.yul\":6359:6365   */\n      dup5\n        /* \"#utility.yul\":6315:6388   */\n      tag_214\n      jump\t// in\n    tag_322:\n        /* \"#utility.yul\":5299:6395   */\n      swap11\n      swap10\n      pop\n      pop\n      pop\n      pop\n      pop\n      pop\n      pop\n      pop\n      pop\n      pop\n      jump\t// out\n        /* \"#utility.yul\":6401:6500   */\n    tag_217:\n        /* \"#utility.yul\":6453:6459   */\n      0x00\n        /* \"#utility.yul\":6487:6492   */\n      dup2\n        /* \"#utility.yul\":6481:6493   */\n      mload\n        /* \"#utility.yul\":6471:6493   */\n      swap1\n      pop\n        /* \"#utility.yul\":6401:6500   */\n      swap2\n      swap1\n      pop\n      jump\t// out\n        /* \"#utility.yul\":6506:6675   */\n    tag_218:\n        /* \"#utility.yul\":6590:6601   */\n      0x00\n        /* \"#utility.yul\":6624:6630   */\n      dup3\n        /* \"#utility.yul\":6619:6622   */\n      dup3\n        /* \"#utility.yul\":6612:6631   */\n      mstore\n        /* \"#utility.yul\":6664:6668   */\n      0x20\n        /* \"#utility.yul\":6659:6662   */\n      dup3\n        /* \"#utility.yul\":6655:6669   */\n      add\n        /* \"#utility.yul\":6640:6669   */\n      swap1\n      pop\n        /* \"#utility.yul\":6506:6675   */\n      swap3\n      swap2\n      pop\n      pop\n      jump\t// out\n        /* \"#utility.yul\":6681:6820   */\n    tag_219:\n        /* \"#utility.yul\":6770:6776   */\n      dup3\n        /* \"#utility.yul\":6765:6768   */\n      dup2\n        /* \"#utility.yul\":6760:6763   */\n      dup4\n        /* \"#utility.yul\":6754:6777   */\n      mcopy\n        /* \"#utility.yul\":6811:6812   */\n      0x00\n        /* \"#utility.yul\":6802:6808   */\n      dup4\n        /* \"#utility.yul\":6797:6800   */\n      dup4\n        /* \"#utility.yul\":6793:6809   */\n      add\n        /* \"#utility.yul\":6786:6813   */\n      mstore\n        /* \"#utility.yul\":6681:6820   */\n      pop\n      pop\n      pop\n      jump\t// out\n        /* \"#utility.yul\":6826:7203   */\n    tag_220:\n        /* \"#utility.yul\":6914:6917   */\n      0x00\n        /* \"#utility.yul\":6942:6981   */\n      tag_327\n        /* \"#utility.yul\":6975:6980   */\n      dup3\n        /* \"#utility.yul\":6942:6981   */\n      tag_217\n      jump\t// in\n    tag_327:\n        /* \"#utility.yul\":6997:7068   */\n      tag_328\n        /* \"#utility.yul\":7061:7067   */\n      dup2\n        /* \"#utility.yul\":7056:7059   */\n      dup6\n        /* \"#utility.yul\":6997:7068   */\n      tag_218\n      jump\t// in\n    tag_328:\n        /* \"#utility.yul\":6990:7068   */\n      swap4\n      pop\n        /* \"#utility.yul\":7077:7142   */\n      tag_329\n        /* \"#utility.yul\":7135:7141   */\n      dup2\n        /* \"#utility.yul\":7130:7133   */\n      dup6\n        /* \"#utility.yul\":7123:7127   */\n      0x20\n        /* \"#utility.yul\":7116:7121   */\n      dup7\n        /* \"#utility.yul\":7112:7128   */\n      add\n        /* \"#utility.yul\":7077:7142   */\n      tag_219\n      jump\t// in\n    tag_329:\n        /* \"#utility.yul\":7167:7196   */\n      tag_330\n        /* \"#utility.yul\":7189:7195   */\n      dup2\n        /* \"#utility.yul\":7167:7196   */\n      tag_200\n      jump\t// in\n    tag_330:\n        /* \"#utility.yul\":7162:7165   */\n      dup5\n        /* \"#utility.yul\":7158:7197   */\n      add\n        /* \"#utility.yul\":7151:7197   */\n      swap2\n      pop\n        /* \"#utility.yul\":6918:7203   */\n      pop\n        /* \"#utility.yul\":6826:7203   */\n      swap3\n      swap2\n      pop\n      pop\n      jump\t// out\n        /* \"#utility.yul\":7209:7522   */\n    tag_39:\n        /* \"#utility.yul\":7322:7326   */\n      0x00\n        /* \"#utility.yul\":7360:7362   */\n      0x20\n        /* \"#utility.yul\":7349:7358   */\n      dup3\n        /* \"#utility.yul\":7345:7363   */\n      add\n        /* \"#utility.yul\":7337:7363   */\n      swap1\n      pop\n        /* \"#utility.yul\":7409:7418   */\n      dup2\n        /* \"#utility.yul\":7403:7407   */\n      dup2\n        /* \"#utility.yul\":7399:7419   */\n      sub\n        /* \"#utility.yul\":7395:7396   */\n      0x00\n        /* \"#utility.yul\":7384:7393   */\n      dup4\n        /* \"#utility.yul\":7380:7397   */\n      add\n        /* \"#utility.yul\":7373:7420   */\n      mstore\n        /* \"#utility.yul\":7437:7515   */\n      tag_332\n        /* \"#utility.yul\":7510:7514   */\n      dup2\n        /* \"#utility.yul\":7501:7507   */\n      dup5\n        /* \"#utility.yul\":7437:7515   */\n      tag_220\n      jump\t// in\n    tag_332:\n        /* \"#utility.yul\":7429:7515   */\n      swap1\n      pop\n        /* \"#utility.yul\":7209:7522   */\n      swap3\n      swap2\n      pop\n      pop\n      jump\t// out\n        /* \"#utility.yul\":7528:8293   */\n    tag_43:\n        /* \"#utility.yul\":7614:7620   */\n      0x00\n        /* \"#utility.yul\":7622:7628   */\n      0x00\n        /* \"#utility.yul\":7630:7636   */\n      0x00\n        /* \"#utility.yul\":7638:7644   */\n      0x00\n        /* \"#utility.yul\":7687:7690   */\n      0x80\n        /* \"#utility.yul\":7675:7684   */\n      dup6\n        /* \"#utility.yul\":7666:7673   */\n      dup8\n        /* \"#utility.yul\":7662:7685   */\n      sub\n        /* \"#utility.yul\":7658:7691   */\n      slt\n        /* \"#utility.yul\":7655:7775   */\n      iszero\n      tag_334\n      jumpi\n        /* \"#utility.yul\":7694:7773   */\n      tag_335\n      tag_192\n      jump\t// in\n    tag_335:\n        /* \"#utility.yul\":7655:7775   */\n    tag_334:\n        /* \"#utility.yul\":7814:7815   */\n      0x00\n        /* \"#utility.yul\":7839:7892   */\n      tag_336\n        /* \"#utility.yul\":7884:7891   */\n      dup8\n        /* \"#utility.yul\":7875:7881   */\n      dup3\n        /* \"#utility.yul\":7864:7873   */\n      dup9\n        /* \"#utility.yul\":7860:7882   */\n      add\n        /* \"#utility.yul\":7839:7892   */\n      tag_212\n      jump\t// in\n    tag_336:\n        /* \"#utility.yul\":7829:7892   */\n      swap5\n      pop\n        /* \"#utility.yul\":7785:7902   */\n      pop\n        /* \"#utility.yul\":7941:7943   */\n      0x20\n        /* \"#utility.yul\":7967:8020   */\n      tag_337\n        /* \"#utility.yul\":8012:8019   */\n      dup8\n        /* \"#utility.yul\":8003:8009   */\n      dup3\n        /* \"#utility.yul\":7992:8001   */\n      dup9\n        /* \"#utility.yul\":7988:8010   */\n      add\n        /* \"#utility.yul\":7967:8020   */\n      tag_212\n      jump\t// in\n    tag_337:\n        /* \"#utility.yul\":7957:8020   */\n      swap4\n      pop\n        /* \"#utility.yul\":7912:8030   */\n      pop\n        /* \"#utility.yul\":8069:8071   */\n      0x40\n        /* \"#utility.yul\":8095:8148   */\n      tag_338\n        /* \"#utility.yul\":8140:8147   */\n      dup8\n        /* \"#utility.yul\":8131:8137   */\n      dup3\n        /* \"#utility.yul\":8120:8129   */\n      dup9\n        /* \"#utility.yul\":8116:8138   */\n      add\n        /* \"#utility.yul\":8095:8148   */\n      tag_197\n      jump\t// in\n    tag_338:\n        /* \"#utility.yul\":8085:8148   */\n      swap3\n      pop\n        /* \"#utility.yul\":8040:8158   */\n      pop\n        /* \"#utility.yul\":8197:8199   */\n      0x60\n        /* \"#utility.yul\":8223:8276   */\n      tag_339\n        /* \"#utility.yul\":8268:8275   */\n      dup8\n        /* \"#utility.yul\":8259:8265   */\n      dup3\n        /* \"#utility.yul\":8248:8257   */\n      dup9\n        /* \"#utility.yul\":8244:8266   */\n      add\n        /* \"#utility.yul\":8223:8276   */\n      tag_212\n      jump\t// in\n    tag_339:\n        /* \"#utility.yul\":8213:8276   */\n      swap2\n      pop\n        /* \"#utility.yul\":8168:8286   */\n      pop\n        /* \"#utility.yul\":7528:8293   */\n      swap3\n      swap6\n      swap2\n      swap5\n      pop\n      swap3\n      pop\n      jump\t// out\n        /* \"#utility.yul\":8299:8521   */\n    tag_53:\n        /* \"#utility.yul\":8392:8396   */\n      0x00\n        /* \"#utility.yul\":8430:8432   */\n      0x20\n        /* \"#utility.yul\":8419:8428   */\n      dup3\n        /* \"#utility.yul\":8415:8433   */\n      add\n        /* \"#utility.yul\":8407:8433   */\n      swap1\n      pop\n        /* \"#utility.yul\":8443:8514   */\n      tag_341\n        /* \"#utility.yul\":8511:8512   */\n      0x00\n        /* \"#utility.yul\":8500:8509   */\n      dup4\n        /* \"#utility.yul\":8496:8513   */\n      add\n        /* \"#utility.yul\":8487:8493   */\n      dup5\n        /* \"#utility.yul\":8443:8514   */\n      tag_213\n      jump\t// in\n    tag_341:\n        /* \"#utility.yul\":8299:8521   */\n      swap3\n      swap2\n      pop\n      pop\n      jump\t// out\n        /* \"#utility.yul\":8527:8749   */\n    tag_58:\n        /* \"#utility.yul\":8620:8624   */\n      0x00\n        /* \"#utility.yul\":8658:8660   */\n      0x20\n        /* \"#utility.yul\":8647:8656   */\n      dup3\n        /* \"#utility.yul\":8643:8661   */\n      add\n        /* \"#utility.yul\":8635:8661   */\n      swap1\n      pop\n        /* \"#utility.yul\":8671:8742   */\n      tag_343\n        /* \"#utility.yul\":8739:8740   */\n      0x00\n        /* \"#utility.yul\":8728:8737   */\n      dup4\n        /* \"#utility.yul\":8724:8741   */\n      add\n        /* \"#utility.yul\":8715:8721   */\n      dup5\n        /* \"#utility.yul\":8671:8742   */\n      tag_214\n      jump\t// in\n    tag_343:\n        /* \"#utility.yul\":8527:8749   */\n      swap3\n      swap2\n      pop\n      pop\n      jump\t// out\n        /* \"#utility.yul\":8755:8840   */\n    tag_221:\n        /* \"#utility.yul\":8800:8807   */\n      0x00\n        /* \"#utility.yul\":8829:8834   */\n      dup2\n        /* \"#utility.yul\":8818:8834   */\n      swap1\n      pop\n        /* \"#utility.yul\":8755:8840   */\n      swap2\n      swap1\n      pop\n      jump\t// out\n        /* \"#utility.yul\":8846:8947   */\n    tag_222:\n        /* \"#utility.yul\":8882:8889   */\n      0x00\n        /* \"#utility.yul\":8922:8940   */\n      0xffffffffffffffff\n        /* \"#utility.yul\":8915:8920   */\n      dup3\n        /* \"#utility.yul\":8911:8941   */\n      and\n        /* \"#utility.yul\":8900:8941   */\n      swap1\n      pop\n        /* \"#utility.yul\":8846:8947   */\n      swap2\n      swap1\n      pop\n      jump\t// out\n        /* \"#utility.yul\":8953:9013   */\n    tag_223:\n        /* \"#utility.yul\":8981:8984   */\n      0x00\n        /* \"#utility.yul\":9002:9007   */\n      dup2\n        /* \"#utility.yul\":8995:9007   */\n      swap1\n      pop\n        /* \"#utility.yul\":8953:9013   */\n      swap2\n      swap1\n      pop\n      jump\t// out\n        /* \"#utility.yul\":9019:9175   */\n    tag_224:\n        /* \"#utility.yul\":9076:9085   */\n      0x00\n        /* \"#utility.yul\":9109:9169   */\n      tag_348\n        /* \"#utility.yul\":9126:9168   */\n      tag_349\n        /* \"#utility.yul\":9135:9167   */\n      tag_350\n        /* \"#utility.yul\":9161:9166   */\n      dup5\n        /* \"#utility.yul\":9135:9167   */\n      tag_221\n      jump\t// in\n    tag_350:\n        /* \"#utility.yul\":9126:9168   */\n      tag_223\n      jump\t// in\n    tag_349:\n        /* \"#utility.yul\":9109:9169   */\n      tag_222\n      jump\t// in\n    tag_348:\n        /* \"#utility.yul\":9096:9169   */\n      swap1\n      pop\n        /* \"#utility.yul\":9019:9175   */\n      swap2\n      swap1\n      pop\n      jump\t// out\n        /* \"#utility.yul\":9181:9326   */\n    tag_225:\n        /* \"#utility.yul\":9275:9319   */\n      tag_352\n        /* \"#utility.yul\":9313:9318   */\n      dup2\n        /* \"#utility.yul\":9275:9319   */\n      tag_224\n      jump\t// in\n    tag_352:\n        /* \"#utility.yul\":9270:9273   */\n      dup3\n        /* \"#utility.yul\":9263:9320   */\n      mstore\n        /* \"#utility.yul\":9181:9326   */\n      pop\n      pop\n      jump\t// out\n        /* \"#utility.yul\":9332:9568   */\n    tag_82:\n        /* \"#utility.yul\":9432:9436   */\n      0x00\n        /* \"#utility.yul\":9470:9472   */\n      0x20\n        /* \"#utility.yul\":9459:9468   */\n      dup3\n        /* \"#utility.yul\":9455:9473   */\n      add\n        /* \"#utility.yul\":9447:9473   */\n      swap1\n      pop\n        /* \"#utility.yul\":9483:9561   */\n      tag_354\n        /* \"#utility.yul\":9558:9559   */\n      0x00\n        /* \"#utility.yul\":9547:9556   */\n      dup4\n        /* \"#utility.yul\":9543:9560   */\n      add\n        /* \"#utility.yul\":9534:9540   */\n      dup5\n        /* \"#utility.yul\":9483:9561   */\n      tag_225\n      jump\t// in\n    tag_354:\n        /* \"#utility.yul\":9332:9568   */\n      swap3\n      swap2\n      pop\n      pop\n      jump\t// out\n        /* \"#utility.yul\":9574:9754   */\n    tag_226:\n        /* \"#utility.yul\":9622:9699   */\n      0x4e487b7100000000000000000000000000000000000000000000000000000000\n        /* \"#utility.yul\":9619:9620   */\n      0x00\n        /* \"#utility.yul\":9612:9700   */\n      mstore\n        /* \"#utility.yul\":9719:9723   */\n      0x11\n        /* \"#utility.yul\":9716:9717   */\n      0x04\n        /* \"#utility.yul\":9709:9724   */\n      mstore\n        /* \"#utility.yul\":9743:9747   */\n      0x24\n        /* \"#utility.yul\":9740:9741   */\n      0x00\n        /* \"#utility.yul\":9733:9748   */\n      revert\n        /* \"#utility.yul\":9760:9951   */\n    tag_86:\n        /* \"#utility.yul\":9800:9803   */\n      0x00\n        /* \"#utility.yul\":9819:9839   */\n      tag_357\n        /* \"#utility.yul\":9837:9838   */\n      dup3\n        /* \"#utility.yul\":9819:9839   */\n      tag_210\n      jump\t// in\n    tag_357:\n        /* \"#utility.yul\":9814:9839   */\n      swap2\n      pop\n        /* \"#utility.yul\":9853:9873   */\n      tag_358\n        /* \"#utility.yul\":9871:9872   */\n      dup4\n        /* \"#utility.yul\":9853:9873   */\n      tag_210\n      jump\t// in\n    tag_358:\n        /* \"#utility.yul\":9848:9873   */\n      swap3\n      pop\n        /* \"#utility.yul\":9896:9897   */\n      dup3\n        /* \"#utility.yul\":9893:9894   */\n      dup3\n        /* \"#utility.yul\":9889:9898   */\n      add\n        /* \"#utility.yul\":9882:9898   */\n      swap1\n      pop\n        /* \"#utility.yul\":9917:9920   */\n      dup1\n        /* \"#utility.yul\":9914:9915   */\n      dup3\n        /* \"#utility.yul\":9911:9921   */\n      gt\n        /* \"#utility.yul\":9908:9944   */\n      iszero\n      tag_359\n      jumpi\n        /* \"#utility.yul\":9924:9942   */\n      tag_360\n      tag_226\n      jump\t// in\n    tag_360:\n        /* \"#utility.yul\":9908:9944   */\n    tag_359:\n        /* \"#utility.yul\":9760:9951   */\n      swap3\n      swap2\n      pop\n      pop\n      jump\t// out\n        /* \"#utility.yul\":9957:10124   */\n    tag_227:\n        /* \"#utility.yul\":10097:10116   */\n      0x41756374696f6e2068617320656e646564000000000000000000000000000000\n        /* \"#utility.yul\":10093:10094   */\n      0x00\n        /* \"#utility.yul\":10085:10091   */\n      dup3\n        /* \"#utility.yul\":10081:10095   */\n      add\n        /* \"#utility.yul\":10074:10117   */\n      mstore\n        /* \"#utility.yul\":9957:10124   */\n      pop\n      jump\t// out\n        /* \"#utility.yul\":10130:10496   */\n    tag_228:\n        /* \"#utility.yul\":10272:10275   */\n      0x00\n        /* \"#utility.yul\":10293:10360   */\n      tag_363\n        /* \"#utility.yul\":10357:10359   */\n      0x11\n        /* \"#utility.yul\":10352:10355   */\n      dup4\n        /* \"#utility.yul\":10293:10360   */\n      tag_218\n      jump\t// in\n    tag_363:\n        /* \"#utility.yul\":10286:10360   */\n      swap2\n      pop\n        /* \"#utility.yul\":10369:10462   */\n      tag_364\n        /* \"#utility.yul\":10458:10461   */\n      dup3\n        /* \"#utility.yul\":10369:10462   */\n      tag_227\n      jump\t// in\n    tag_364:\n        /* \"#utility.yul\":10487:10489   */\n      0x20\n        /* \"#utility.yul\":10482:10485   */\n      dup3\n        /* \"#utility.yul\":10478:10490   */\n      add\n        /* \"#utility.yul\":10471:10490   */\n      swap1\n      pop\n        /* \"#utility.yul\":10130:10496   */\n      swap2\n      swap1\n      pop\n      jump\t// out\n        /* \"#utility.yul\":10502:10921   */\n    tag_89:\n        /* \"#utility.yul\":10668:10672   */\n      0x00\n        /* \"#utility.yul\":10706:10708   */\n      0x20\n        /* \"#utility.yul\":10695:10704   */\n      dup3\n        /* \"#utility.yul\":10691:10709   */\n      add\n        /* \"#utility.yul\":10683:10709   */\n      swap1\n      pop\n        /* \"#utility.yul\":10755:10764   */\n      dup2\n        /* \"#utility.yul\":10749:10753   */\n      dup2\n        /* \"#utility.yul\":10745:10765   */\n      sub\n        /* \"#utility.yul\":10741:10742   */\n      0x00\n        /* \"#utility.yul\":10730:10739   */\n      dup4\n        /* \"#utility.yul\":10726:10743   */\n      add\n        /* \"#utility.yul\":10719:10766   */\n      mstore\n        /* \"#utility.yul\":10783:10914   */\n      tag_366\n        /* \"#utility.yul\":10909:10913   */\n      dup2\n        /* \"#utility.yul\":10783:10914   */\n      tag_228\n      jump\t// in\n    tag_366:\n        /* \"#utility.yul\":10775:10914   */\n      swap1\n      pop\n        /* \"#utility.yul\":10502:10921   */\n      swap2\n      swap1\n      pop\n      jump\t// out\n        /* \"#utility.yul\":10927:11161   */\n    tag_229:\n        /* \"#utility.yul\":11067:11101   */\n      0x426964206d75737420626520686967686572207468616e207468652063757272\n        /* \"#utility.yul\":11063:11064   */\n      0x00\n        /* \"#utility.yul\":11055:11061   */\n      dup3\n        /* \"#utility.yul\":11051:11065   */\n      add\n        /* \"#utility.yul\":11044:11102   */\n      mstore\n        /* \"#utility.yul\":11136:11153   */\n      0x656e742068696768657374206269640000000000000000000000000000000000\n        /* \"#utility.yul\":11131:11133   */\n      0x20\n        /* \"#utility.yul\":11123:11129   */\n      dup3\n        /* \"#utility.yul\":11119:11134   */\n      add\n        /* \"#utility.yul\":11112:11154   */\n      mstore\n        /* \"#utility.yul\":10927:11161   */\n      pop\n      jump\t// out\n        /* \"#utility.yul\":11167:11533   */\n    tag_230:\n        /* \"#utility.yul\":11309:11312   */\n      0x00\n        /* \"#utility.yul\":11330:11397   */\n      tag_369\n        /* \"#utility.yul\":11394:11396   */\n      0x2f\n        /* \"#utility.yul\":11389:11392   */\n      dup4\n        /* \"#utility.yul\":11330:11397   */\n      tag_218\n      jump\t// in\n    tag_369:\n        /* \"#utility.yul\":11323:11397   */\n      swap2\n      pop\n        /* \"#utility.yul\":11406:11499   */\n      tag_370\n        /* \"#utility.yul\":11495:11498   */\n      dup3\n        /* \"#utility.yul\":11406:11499   */\n      tag_229\n      jump\t// in\n    tag_370:\n        /* \"#utility.yul\":11524:11526   */\n      0x40\n        /* \"#utility.yul\":11519:11522   */\n      dup3\n        /* \"#utility.yul\":11515:11527   */\n      add\n        /* \"#utility.yul\":11508:11527   */\n      swap1\n      pop\n        /* \"#utility.yul\":11167:11533   */\n      swap2\n      swap1\n      pop\n      jump\t// out\n        /* \"#utility.yul\":11539:11958   */\n    tag_93:\n        /* \"#utility.yul\":11705:11709   */\n      0x00\n        /* \"#utility.yul\":11743:11745   */\n      0x20\n        /* \"#utility.yul\":11732:11741   */\n      dup3\n        /* \"#utility.yul\":11728:11746   */\n      add\n        /* \"#utility.yul\":11720:11746   */\n      swap1\n      pop\n        /* \"#utility.yul\":11792:11801   */\n      dup2\n        /* \"#utility.yul\":11786:11790   */\n      dup2\n        /* \"#utility.yul\":11782:11802   */\n      sub\n        /* \"#utility.yul\":11778:11779   */\n      0x00\n        /* \"#utility.yul\":11767:11776   */\n      dup4\n        /* \"#utility.yul\":11763:11780   */\n      add\n        /* \"#utility.yul\":11756:11803   */\n      mstore\n        /* \"#utility.yul\":11820:11951   */\n      tag_372\n        /* \"#utility.yul\":11946:11950   */\n      dup2\n        /* \"#utility.yul\":11820:11951   */\n      tag_230\n      jump\t// in\n    tag_372:\n        /* \"#utility.yul\":11812:11951   */\n      swap1\n      pop\n        /* \"#utility.yul\":11539:11958   */\n      swap2\n      swap1\n      pop\n      jump\t// out\n        /* \"#utility.yul\":11964:12144   */\n    tag_231:\n        /* \"#utility.yul\":12104:12136   */\n      0x4f6e6c792061646d696e2063616e206372656174652061756374696f6e730000\n        /* \"#utility.yul\":12100:12101   */\n      0x00\n        /* \"#utility.yul\":12092:12098   */\n      dup3\n        /* \"#utility.yul\":12088:12102   */\n      add\n        /* \"#utility.yul\":12081:12137   */\n      mstore\n        /* \"#utility.yul\":11964:12144   */\n      pop\n      jump\t// out\n        /* \"#utility.yul\":12150:12516   */\n    tag_232:\n        /* \"#utility.yul\":12292:12295   */\n      0x00\n        /* \"#utility.yul\":12313:12380   */\n      tag_375\n        /* \"#utility.yul\":12377:12379   */\n      0x1e\n        /* \"#utility.yul\":12372:12375   */\n      dup4\n        /* \"#utility.yul\":12313:12380   */\n      tag_218\n      jump\t// in\n    tag_375:\n        /* \"#utility.yul\":12306:12380   */\n      swap2\n      pop\n        /* \"#utility.yul\":12389:12482   */\n      tag_376\n        /* \"#utility.yul\":12478:12481   */\n      dup3\n        /* \"#utility.yul\":12389:12482   */\n      tag_231\n      jump\t// in\n    tag_376:\n        /* \"#utility.yul\":12507:12509   */\n      0x20\n        /* \"#utility.yul\":12502:12505   */\n      dup3\n        /* \"#utility.yul\":12498:12510   */\n      add\n        /* \"#utility.yul\":12491:12510   */\n      swap1\n      pop\n        /* \"#utility.yul\":12150:12516   */\n      swap2\n      swap1\n      pop\n      jump\t// out\n        /* \"#utility.yul\":12522:12941   */\n    tag_100:\n        /* \"#utility.yul\":12688:12692   */\n      0x00\n        /* \"#utility.yul\":12726:12728   */\n      0x20\n        /* \"#utility.yul\":12715:12724   */\n      dup3\n        /* \"#utility.yul\":12711:12729   */\n      add\n        /* \"#utility.yul\":12703:12729   */\n      swap1\n      pop\n        /* \"#utility.yul\":12775:12784   */\n      dup2\n        /* \"#utility.yul\":12769:12773   */\n      dup2\n        /* \"#utility.yul\":12765:12785   */\n      sub\n        /* \"#utility.yul\":12761:12762   */\n      0x00\n        /* \"#utility.yul\":12750:12759   */\n      dup4\n        /* \"#utility.yul\":12746:12763   */\n      add\n        /* \"#utility.yul\":12739:12786   */\n      mstore\n        /* \"#utility.yul\":12803:12934   */\n      tag_378\n        /* \"#utility.yul\":12929:12933   */\n      dup2\n        /* \"#utility.yul\":12803:12934   */\n      tag_232\n      jump\t// in\n    tag_378:\n        /* \"#utility.yul\":12795:12934   */\n      swap1\n      pop\n        /* \"#utility.yul\":12522:12941   */\n      swap2\n      swap1\n      pop\n      jump\t// out\n        /* \"#utility.yul\":12947:13128   */\n    tag_233:\n        /* \"#utility.yul\":13087:13120   */\n      0x4475726174696f6e206d7573742062652067726561746572207468616e203000\n        /* \"#utility.yul\":13083:13084   */\n      0x00\n        /* \"#utility.yul\":13075:13081   */\n      dup3\n        /* \"#utility.yul\":13071:13085   */\n      add\n        /* \"#utility.yul\":13064:13121   */\n      mstore\n        /* \"#utility.yul\":12947:13128   */\n      pop\n      jump\t// out\n        /* \"#utility.yul\":13134:13500   */\n    tag_234:\n        /* \"#utility.yul\":13276:13279   */\n      0x00\n        /* \"#utility.yul\":13297:13364   */\n      tag_381\n        /* \"#utility.yul\":13361:13363   */\n      0x1f\n        /* \"#utility.yul\":13356:13359   */\n      dup4\n        /* \"#utility.yul\":13297:13364   */\n      tag_218\n      jump\t// in\n    tag_381:\n        /* \"#utility.yul\":13290:13364   */\n      swap2\n      pop\n        /* \"#utility.yul\":13373:13466   */\n      tag_382\n        /* \"#utility.yul\":13462:13465   */\n      dup3\n        /* \"#utility.yul\":13373:13466   */\n      tag_233\n      jump\t// in\n    tag_382:\n        /* \"#utility.yul\":13491:13493   */\n      0x20\n        /* \"#utility.yul\":13486:13489   */\n      dup3\n        /* \"#utility.yul\":13482:13494   */\n      add\n        /* \"#utility.yul\":13475:13494   */\n      swap1\n      pop\n        /* \"#utility.yul\":13134:13500   */\n      swap2\n      swap1\n      pop\n      jump\t// out\n        /* \"#utility.yul\":13506:13925   */\n    tag_103:\n        /* \"#utility.yul\":13672:13676   */\n      0x00\n        /* \"#utility.yul\":13710:13712   */\n      0x20\n        /* \"#utility.yul\":13699:13708   */\n      dup3\n        /* \"#utility.yul\":13695:13713   */\n      add\n        /* \"#utility.yul\":13687:13713   */\n      swap1\n      pop\n        /* \"#utility.yul\":13759:13768   */\n      dup2\n        /* \"#utility.yul\":13753:13757   */\n      dup2\n        /* \"#utility.yul\":13749:13769   */\n      sub\n        /* \"#utility.yul\":13745:13746   */\n      0x00\n        /* \"#utility.yul\":13734:13743   */\n      dup4\n        /* \"#utility.yul\":13730:13747   */\n      add\n        /* \"#utility.yul\":13723:13770   */\n      mstore\n        /* \"#utility.yul\":13787:13918   */\n      tag_384\n        /* \"#utility.yul\":13913:13917   */\n      dup2\n        /* \"#utility.yul\":13787:13918   */\n      tag_234\n      jump\t// in\n    tag_384:\n        /* \"#utility.yul\":13779:13918   */\n      swap1\n      pop\n        /* \"#utility.yul\":13506:13925   */\n      swap2\n      swap1\n      pop\n      jump\t// out\n        /* \"#utility.yul\":13931:14152   */\n    tag_235:\n        /* \"#utility.yul\":14071:14105   */\n      0x5374617274207072696365206d7573742062652067726561746572207468616e\n        /* \"#utility.yul\":14067:14068   */\n      0x00\n        /* \"#utility.yul\":14059:14065   */\n      dup3\n        /* \"#utility.yul\":14055:14069   */\n      add\n        /* \"#utility.yul\":14048:14106   */\n      mstore\n        /* \"#utility.yul\":14140:14144   */\n      0x2030000000000000000000000000000000000000000000000000000000000000\n        /* \"#utility.yul\":14135:14137   */\n      0x20\n        /* \"#utility.yul\":14127:14133   */\n      dup3\n        /* \"#utility.yul\":14123:14138   */\n      add\n        /* \"#utility.yul\":14116:14145   */\n      mstore\n        /* \"#utility.yul\":13931:14152   */\n      pop\n      jump\t// out\n        /* \"#utility.yul\":14158:14524   */\n    tag_236:\n        /* \"#utility.yul\":14300:14303   */\n      0x00\n        /* \"#utility.yul\":14321:14388   */\n      tag_387\n        /* \"#utility.yul\":14385:14387   */\n      0x22\n        /* \"#utility.yul\":14380:14383   */\n      dup4\n        /* \"#utility.yul\":14321:14388   */\n      tag_218\n      jump\t// in\n    tag_387:\n        /* \"#utility.yul\":14314:14388   */\n      swap2\n      pop\n        /* \"#utility.yul\":14397:14490   */\n      tag_388\n        /* \"#utility.yul\":14486:14489   */\n      dup3\n        /* \"#utility.yul\":14397:14490   */\n      tag_235\n      jump\t// in\n    tag_388:\n        /* \"#utility.yul\":14515:14517   */\n      0x40\n        /* \"#utility.yul\":14510:14513   */\n      dup3\n        /* \"#utility.yul\":14506:14518   */\n      add\n        /* \"#utility.yul\":14499:14518   */\n      swap1\n      pop\n        /* \"#utility.yul\":14158:14524   */\n      swap2\n      swap1\n      pop\n      jump\t// out\n        /* \"#utility.yul\":14530:14949   */\n    tag_106:\n        /* \"#utility.yul\":14696:14700   */\n      0x00\n        /* \"#utility.yul\":14734:14736   */\n      0x20\n        /* \"#utility.yul\":14723:14732   */\n      dup3\n        /* \"#utility.yul\":14719:14737   */\n      add\n        /* \"#utility.yul\":14711:14737   */\n      swap1\n      pop\n        /* \"#utility.yul\":14783:14792   */\n      dup2\n        /* \"#utility.yul\":14777:14781   */\n      dup2\n        /* \"#utility.yul\":14773:14793   */\n      sub\n        /* \"#utility.yul\":14769:14770   */\n      0x00\n        /* \"#utility.yul\":14758:14767   */\n      dup4\n        /* \"#utility.yul\":14754:14771   */\n      add\n        /* \"#utility.yul\":14747:14794   */\n      mstore\n        /* \"#utility.yul\":14811:14942   */\n      tag_390\n        /* \"#utility.yul\":14937:14941   */\n      dup2\n        /* \"#utility.yul\":14811:14942   */\n      tag_236\n      jump\t// in\n    tag_390:\n        /* \"#utility.yul\":14803:14942   */\n      swap1\n      pop\n        /* \"#utility.yul\":14530:14949   */\n      swap2\n      swap1\n      pop\n      jump\t// out\n        /* \"#utility.yul\":14955:15287   */\n    tag_108:\n        /* \"#utility.yul\":15076:15080   */\n      0x00\n        /* \"#utility.yul\":15114:15116   */\n      0x40\n        /* \"#utility.yul\":15103:15112   */\n      dup3\n        /* \"#utility.yul\":15099:15117   */\n      add\n        /* \"#utility.yul\":15091:15117   */\n      swap1\n      pop\n        /* \"#utility.yul\":15127:15198   */\n      tag_392\n        /* \"#utility.yul\":15195:15196   */\n      0x00\n        /* \"#utility.yul\":15184:15193   */\n      dup4\n        /* \"#utility.yul\":15180:15197   */\n      add\n        /* \"#utility.yul\":15171:15177   */\n      dup6\n        /* \"#utility.yul\":15127:15198   */\n      tag_213\n      jump\t// in\n    tag_392:\n        /* \"#utility.yul\":15208:15280   */\n      tag_393\n        /* \"#utility.yul\":15276:15278   */\n      0x20\n        /* \"#utility.yul\":15265:15274   */\n      dup4\n        /* \"#utility.yul\":15261:15279   */\n      add\n        /* \"#utility.yul\":15252:15258   */\n      dup5\n        /* \"#utility.yul\":15208:15280   */\n      tag_214\n      jump\t// in\n    tag_393:\n        /* \"#utility.yul\":14955:15287   */\n      swap4\n      swap3\n      pop\n      pop\n      pop\n      jump\t// out\n        /* \"#utility.yul\":15293:15526   */\n    tag_113:\n        /* \"#utility.yul\":15332:15335   */\n      0x00\n        /* \"#utility.yul\":15355:15379   */\n      tag_395\n        /* \"#utility.yul\":15373:15378   */\n      dup3\n        /* \"#utility.yul\":15355:15379   */\n      tag_210\n      jump\t// in\n    tag_395:\n        /* \"#utility.yul\":15346:15379   */\n      swap2\n      pop\n        /* \"#utility.yul\":15401:15467   */\n      0xffffffffffffffffffffffffffffffffffffffffffffffffffffffffffffffff\n        /* \"#utility.yul\":15394:15399   */\n      dup3\n        /* \"#utility.yul\":15391:15468   */\n      sub\n        /* \"#utility.yul\":15388:15491   */\n      tag_396\n      jumpi\n        /* \"#utility.yul\":15471:15489   */\n      tag_397\n      tag_226\n      jump\t// in\n    tag_397:\n        /* \"#utility.yul\":15388:15491   */\n    tag_396:\n        /* \"#utility.yul\":15518:15519   */\n      0x01\n        /* \"#utility.yul\":15511:15516   */\n      dup3\n        /* \"#utility.yul\":15507:15520   */\n      add\n        /* \"#utility.yul\":15500:15520   */\n      swap1\n      pop\n        /* \"#utility.yul\":15293:15526   */\n      swap2\n      swap1\n      pop\n      jump\t// out\n        /* \"#utility.yul\":15532:15703   */\n    tag_237:\n        /* \"#utility.yul\":15672:15695   */\n      0x41756374696f6e20686173206e6f7420656e6465640000000000000000000000\n        /* \"#utility.yul\":15668:15669   */\n      0x00\n        /* \"#utility.yul\":15660:15666   */\n      dup3\n        /* \"#utility.yul\":15656:15670   */\n      add\n        /* \"#utility.yul\":15649:15696   */\n      mstore\n        /* \"#utility.yul\":15532:15703   */\n      pop\n      jump\t// out\n        /* \"#utility.yul\":15709:16075   */\n    tag_238:\n        /* \"#utility.yul\":15851:15854   */\n      0x00\n        /* \"#utility.yul\":15872:15939   */\n      tag_400\n        /* \"#utility.yul\":15936:15938   */\n      0x15\n        /* \"#utility.yul\":15931:15934   */\n      dup4\n        /* \"#utility.yul\":15872:15939   */\n      tag_218\n      jump\t// in\n    tag_400:\n        /* \"#utility.yul\":15865:15939   */\n      swap2\n      pop\n        /* \"#utility.yul\":15948:16041   */\n      tag_401\n        /* \"#utility.yul\":16037:16040   */\n      dup3\n        /* \"#utility.yul\":15948:16041   */\n      tag_237\n      jump\t// in\n    tag_401:\n        /* \"#utility.yul\":16066:16068   */\n      0x20\n        /* \"#utility.yul\":16061:16064   */\n      dup3\n        /* \"#utility.yul\":16057:16069   */\n      add\n        /* \"#utility.yul\":16050:16069   */\n      swap1\n      pop\n        /* \"#utility.yul\":15709:16075   */\n      swap2\n      swap1\n      pop\n      jump\t// out\n        /* \"#utility.yul\":16081:16500   */\n    tag_119:\n        /* \"#utility.yul\":16247:16251   */\n      0x00\n        /* \"#utility.yul\":16285:16287   */\n      0x20\n        /* \"#utility.yul\":16274:16283   */\n      dup3\n        /* \"#utility.yul\":16270:16288   */\n      add\n        /* \"#utility.yul\":16262:16288   */\n      swap1\n      pop\n        /* \"#utility.yul\":16334:16343   */\n      dup2\n        /* \"#utility.yul\":16328:16332   */\n      dup2\n        /* \"#utility.yul\":16324:16344   */\n      sub\n        /* \"#utility.yul\":16320:16321   */\n      0x00\n        /* \"#utility.yul\":16309:16318   */\n      dup4\n        /* \"#utility.yul\":16305:16322   */\n      add\n        /* \"#utility.yul\":16298:16345   */\n      mstore\n        /* \"#utility.yul\":16362:16493   */\n      tag_403\n        /* \"#utility.yul\":16488:16492   */\n      dup2\n        /* \"#utility.yul\":16362:16493   */\n      tag_238\n      jump\t// in\n    tag_403:\n        /* \"#utility.yul\":16354:16493   */\n      swap1\n      pop\n        /* \"#utility.yul\":16081:16500   */\n      swap2\n      swap1\n      pop\n      jump\t// out\n        /* \"#utility.yul\":16506:16948   */\n    tag_121:\n        /* \"#utility.yul\":16655:16659   */\n      0x00\n        /* \"#utility.yul\":16693:16695   */\n      0x60\n        /* \"#utility.yul\":16682:16691   */\n      dup3\n        /* \"#utility.yul\":16678:16696   */\n      add\n        /* \"#utility.yul\":16670:16696   */\n      swap1\n      pop\n        /* \"#utility.yul\":16706:16777   */\n      tag_405\n        /* \"#utility.yul\":16774:16775   */\n      0x00\n        /* \"#utility.yul\":16763:16772   */\n      dup4\n        /* \"#utility.yul\":16759:16776   */\n      add\n        /* \"#utility.yul\":16750:16756   */\n      dup7\n        /* \"#utility.yul\":16706:16777   */\n      tag_213\n      jump\t// in\n    tag_405:\n        /* \"#utility.yul\":16787:16859   */\n      tag_406\n        /* \"#utility.yul\":16855:16857   */\n      0x20\n        /* \"#utility.yul\":16844:16853   */\n      dup4\n        /* \"#utility.yul\":16840:16858   */\n      add\n        /* \"#utility.yul\":16831:16837   */\n      dup6\n        /* \"#utility.yul\":16787:16859   */\n      tag_213\n      jump\t// in\n    tag_406:\n        /* \"#utility.yul\":16869:16941   */\n      tag_407\n        /* \"#utility.yul\":16937:16939   */\n      0x40\n        /* \"#utility.yul\":16926:16935   */\n      dup4\n        /* \"#utility.yul\":16922:16940   */\n      add\n        /* \"#utility.yul\":16913:16919   */\n      dup5\n        /* \"#utility.yul\":16869:16941   */\n      tag_214\n      jump\t// in\n    tag_407:\n        /* \"#utility.yul\":16506:16948   */\n      swap5\n      swap4\n      pop\n      pop\n      pop\n      pop\n      jump\t// out\n        /* \"#utility.yul\":16954:17126   */\n    tag_239:\n        /* \"#utility.yul\":17094:17118   */\n      0x4f6e6c792061646d696e2063616e207570677261646500000000000000000000\n        /* \"#utility.yul\":17090:17091   */\n      0x00\n        /* \"#utility.yul\":17082:17088   */\n      dup3\n        /* \"#utility.yul\":17078:17092   */\n      add\n        /* \"#utility.yul\":17071:17119   */\n      mstore\n        /* \"#utility.yul\":16954:17126   */\n      pop\n      jump\t// out\n        /* \"#utility.yul\":17132:17498   */\n    tag_240:\n        /* \"#utility.yul\":17274:17277   */\n      0x00\n        /* \"#utility.yul\":17295:17362   */\n      tag_410\n        /* \"#utility.yul\":17359:17361   */\n      0x16\n        /* \"#utility.yul\":17354:17357   */\n      dup4\n        /* \"#utility.yul\":17295:17362   */\n      tag_218\n      jump\t// in\n    tag_410:\n        /* \"#utility.yul\":17288:17362   */\n      swap2\n      pop\n        /* \"#utility.yul\":17371:17464   */\n      tag_411\n        /* \"#utility.yul\":17460:17463   */\n      dup3\n        /* \"#utility.yul\":17371:17464   */\n      tag_239\n      jump\t// in\n    tag_411:\n        /* \"#utility.yul\":17489:17491   */\n      0x20\n        /* \"#utility.yul\":17484:17487   */\n      dup3\n        /* \"#utility.yul\":17480:17492   */\n      add\n        /* \"#utility.yul\":17473:17492   */\n      swap1\n      pop\n        /* \"#utility.yul\":17132:17498   */\n      swap2\n      swap1\n      pop\n      jump\t// out\n        /* \"#utility.yul\":17504:17923   */\n    tag_135:\n        /* \"#utility.yul\":17670:17674   */\n      0x00\n        /* \"#utility.yul\":17708:17710   */\n      0x20\n        /* \"#utility.yul\":17697:17706   */\n      dup3\n        /* \"#utility.yul\":17693:17711   */\n      add\n        /* \"#utility.yul\":17685:17711   */\n      swap1\n      pop\n        /* \"#utility.yul\":17757:17766   */\n      dup2\n        /* \"#utility.yul\":17751:17755   */\n      dup2\n        /* \"#utility.yul\":17747:17767   */\n      sub\n        /* \"#utility.yul\":17743:17744   */\n      0x00\n        /* \"#utility.yul\":17732:17741   */\n      dup4\n        /* \"#utility.yul\":17728:17745   */\n      add\n        /* \"#utility.yul\":17721:17768   */\n      mstore\n        /* \"#utility.yul\":17785:17916   */\n      tag_413\n        /* \"#utility.yul\":17911:17915   */\n      dup2\n        /* \"#utility.yul\":17785:17916   */\n      tag_240\n      jump\t// in\n    tag_413:\n        /* \"#utility.yul\":17777:17916   */\n      swap1\n      pop\n        /* \"#utility.yul\":17504:17923   */\n      swap2\n      swap1\n      pop\n      jump\t// out\n        /* \"#utility.yul\":17929:18051   */\n    tag_241:\n        /* \"#utility.yul\":18002:18026   */\n      tag_415\n        /* \"#utility.yul\":18020:18025   */\n      dup2\n        /* \"#utility.yul\":18002:18026   */\n      tag_208\n      jump\t// in\n    tag_415:\n        /* \"#utility.yul\":17995:18000   */\n      dup2\n        /* \"#utility.yul\":17992:18027   */\n      eq\n        /* \"#utility.yul\":17982:18045   */\n      tag_416\n      jumpi\n        /* \"#utility.yul\":18041:18042   */\n      0x00\n        /* \"#utility.yul\":18038:18039   */\n      0x00\n        /* \"#utility.yul\":18031:18043   */\n      revert\n        /* \"#utility.yul\":17982:18045   */\n    tag_416:\n        /* \"#utility.yul\":17929:18051   */\n      pop\n      jump\t// out\n        /* \"#utility.yul\":18057:18200   */\n    tag_242:\n        /* \"#utility.yul\":18114:18119   */\n      0x00\n        /* \"#utility.yul\":18145:18151   */\n      dup2\n        /* \"#utility.yul\":18139:18152   */\n      mload\n        /* \"#utility.yul\":18130:18152   */\n      swap1\n      pop\n        /* \"#utility.yul\":18161:18194   */\n      tag_418\n        /* \"#utility.yul\":18188:18193   */\n      dup2\n        /* \"#utility.yul\":18161:18194   */\n      tag_241\n      jump\t// in\n    tag_418:\n        /* \"#utility.yul\":18057:18200   */\n      swap3\n      swap2\n      pop\n      pop\n      jump\t// out\n        /* \"#utility.yul\":18206:18557   */\n    tag_139:\n        /* \"#utility.yul\":18276:18282   */\n      0x00\n        /* \"#utility.yul\":18325:18327   */\n      0x20\n        /* \"#utility.yul\":18313:18322   */\n      dup3\n        /* \"#utility.yul\":18304:18311   */\n      dup5\n        /* \"#utility.yul\":18300:18323   */\n      sub\n        /* \"#utility.yul\":18296:18328   */\n      slt\n        /* \"#utility.yul\":18293:18412   */\n      iszero\n      tag_420\n      jumpi\n        /* \"#utility.yul\":18331:18410   */\n      tag_421\n      tag_192\n      jump\t// in\n    tag_421:\n        /* \"#utility.yul\":18293:18412   */\n    tag_420:\n        /* \"#utility.yul\":18451:18452   */\n      0x00\n        /* \"#utility.yul\":18476:18540   */\n      tag_422\n        /* \"#utility.yul\":18532:18539   */\n      dup5\n        /* \"#utility.yul\":18523:18529   */\n      dup3\n        /* \"#utility.yul\":18512:18521   */\n      dup6\n        /* \"#utility.yul\":18508:18530   */\n      add\n        /* \"#utility.yul\":18476:18540   */\n      tag_242\n      jump\t// in\n    tag_422:\n        /* \"#utility.yul\":18466:18540   */\n      swap2\n      pop\n        /* \"#utility.yul\":18422:18550   */\n      pop\n        /* \"#utility.yul\":18206:18557   */\n      swap3\n      swap2\n      pop\n      pop\n      jump\t// out\n        /* \"#utility.yul\":18563:18661   */\n    tag_243:\n        /* \"#utility.yul\":18614:18620   */\n      0x00\n        /* \"#utility.yul\":18648:18653   */\n      dup2\n        /* \"#utility.yul\":18642:18654   */\n      mload\n        /* \"#utility.yul\":18632:18654   */\n      swap1\n      pop\n        /* \"#utility.yul\":18563:18661   */\n      swap2\n      swap1\n      pop\n      jump\t// out\n        /* \"#utility.yul\":18667:18814   */\n    tag_244:\n        /* \"#utility.yul\":18768:18779   */\n      0x00\n        /* \"#utility.yul\":18805:18808   */\n      dup2\n        /* \"#utility.yul\":18790:18808   */\n      swap1\n      pop\n        /* \"#utility.yul\":18667:18814   */\n      swap3\n      swap2\n      pop\n      pop\n      jump\t// out\n        /* \"#utility.yul\":18820:19206   */\n    tag_245:\n        /* \"#utility.yul\":18924:18927   */\n      0x00\n        /* \"#utility.yul\":18952:18990   */\n      tag_426\n        /* \"#utility.yul\":18984:18989   */\n      dup3\n        /* \"#utility.yul\":18952:18990   */\n      tag_243\n      jump\t// in\n    tag_426:\n        /* \"#utility.yul\":19006:19094   */\n      tag_427\n        /* \"#utility.yul\":19087:19093   */\n      dup2\n        /* \"#utility.yul\":19082:19085   */\n      dup6\n        /* \"#utility.yul\":19006:19094   */\n      tag_244\n      jump\t// in\n    tag_427:\n        /* \"#utility.yul\":18999:19094   */\n      swap4\n      pop\n        /* \"#utility.yul\":19103:19168   */\n      tag_428\n        /* \"#utility.yul\":19161:19167   */\n      dup2\n        /* \"#utility.yul\":19156:19159   */\n      dup6\n        /* \"#utility.yul\":19149:19153   */\n      0x20\n        /* \"#utility.yul\":19142:19147   */\n      dup7\n        /* \"#utility.yul\":19138:19154   */\n      add\n        /* \"#utility.yul\":19103:19168   */\n      tag_219\n      jump\t// in\n    tag_428:\n        /* \"#utility.yul\":19193:19199   */\n      dup1\n        /* \"#utility.yul\":19188:19191   */\n      dup5\n        /* \"#utility.yul\":19184:19200   */\n      add\n        /* \"#utility.yul\":19177:19200   */\n      swap2\n      pop\n        /* \"#utility.yul\":18928:19206   */\n      pop\n        /* \"#utility.yul\":18820:19206   */\n      swap3\n      swap2\n      pop\n      pop\n      jump\t// out\n        /* \"#utility.yul\":19212:19483   */\n    tag_172:\n        /* \"#utility.yul\":19342:19345   */\n      0x00\n        /* \"#utility.yul\":19364:19457   */\n      tag_430\n        /* \"#utility.yul\":19453:19456   */\n      dup3\n        /* \"#utility.yul\":19444:19450   */\n      dup5\n        /* \"#utility.yul\":19364:19457   */\n      tag_245\n      jump\t// in\n    tag_430:\n        /* \"#utility.yul\":19357:19457   */\n      swap2\n      pop\n        /* \"#utility.yul\":19474:19477   */\n      dup2\n        /* \"#utility.yul\":19467:19477   */\n      swap1\n      pop\n        /* \"#utility.yul\":19212:19483   */\n      swap3\n      swap2\n      pop\n      pop\n      jump\t// out\n\n    auxdata: 0xa2646970667358221220f025e92b2725f2578b1f1e646ab9c0f4b322ca91560df6bed98274701a52414164736f6c634300081c0033\n}\n",
				"bytecode": {
					"linkReferences": {},
					"object": "60a06040523073ffffffffffffffffffffffffffffffffffffffff1660809073ffffffffffffffffffffffffffffffffffffffff168152503480156041575f5ffd5b50608051611c646100685f395f8181610c1b01528181610c700152610eb10152611c645ff3fe608060405260043610610090575f3560e01c8063ad3cb1cc11610058578063ad3cb1cc14610150578063b1cb48ef1461017a578063b9a2de3a146101a2578063f851a440146101ca578063fc528482146101f457610090565b80634f1ef2861461009457806352d1902d146100b0578063571a26a0146100da5780638129fc1c1461011e5780639979ef4514610134575b5f5ffd5b6100ae60048036038101906100a99190611428565b61021e565b005b3480156100bb575f5ffd5b506100c461023d565b6040516100d1919061149a565b60405180910390f35b3480156100e5575f5ffd5b5061010060048036038101906100fb91906114e6565b61026e565b60405161011599989796959493929190611549565b60405180910390f35b348015610129575f5ffd5b50610132610321565b005b61014e600480360381019061014991906114e6565b6104d8565b005b34801561015b575f5ffd5b506101646106c4565b6040516101719190611634565b60405180910390f35b348015610185575f5ffd5b506101a0600480360381019061019b9190611654565b6106fd565b005b3480156101ad575f5ffd5b506101c860048036038101906101c391906114e6565b610a53565b005b3480156101d5575f5ffd5b506101de610bee565b6040516101eb91906116b8565b60405180910390f35b3480156101ff575f5ffd5b50610208610c13565b60405161021591906116d1565b60405180910390f35b610226610c19565b61022f82610cff565b6102398282610d91565b5050565b5f610246610eaf565b7f360894a13ba1a3210667c828492db98dca3e2076cc3735a920a3ca505d382bbc5f1b905090565b5f602052805f5260405f205f91509050805f015f9054906101000a900473ffffffffffffffffffffffffffffffffffffffff1690806001015490806002015490806003015490806004015f9054906101000a900460ff16908060040160019054906101000a900473ffffffffffffffffffffffffffffffffffffffff1690806005015490806006015f9054906101000a900473ffffffffffffffffffffffffffffffffffffffff16908060070154905089565b5f61032a610f36565b90505f815f0160089054906101000a900460ff161590505f825f015f9054906101000a900467ffffffffffffffff1690505f5f8267ffffffffffffffff161480156103725750825b90505f60018367ffffffffffffffff161480156103a557505f3073ffffffffffffffffffffffffffffffffffffffff163b145b9050811580156103b3575080155b156103ea576040517ff92ee8a900000000000000000000000000000000000000000000000000000000815260040160405180910390fd5b6001855f015f6101000a81548167ffffffffffffffff021916908367ffffffffffffffff1602179055508315610437576001855f0160086101000a81548160ff0219169083151502179055505b3360025f6101000a81548173ffffffffffffffffffffffffffffffffffffffff021916908373ffffffffffffffffffffffffffffffffffffffff16021790555083156104d1575f855f0160086101000a81548160ff0219169083151502179055507fc7f505b2f371ae2175ee4913f4499e1f2633a7b5936321eed1cdaeb6115181d260016040516104c8919061173f565b60405180910390a15b5050505050565b5f5f5f8381526020019081526020015f209050806004015f9054906101000a900460ff1615801561051b575042816001015482600301546105199190611785565b115b61055a576040517f08c379a000000000000000000000000000000000000000000000000000000000815260040161055190611802565b60405180910390fd5b806005015434118015610571575080600201543410155b6105b0576040517f08c379a00000000000000000000000000000000000000000000000000000000081526004016105a790611890565b60405180910390fd5b5f73ffffffffffffffffffffffffffffffffffffffff168160040160019054906101000a900473ffffffffffffffffffffffffffffffffffffffff1673ffffffffffffffffffffffffffffffffffffffff1614610674578060040160019054906101000a900473ffffffffffffffffffffffffffffffffffffffff1673ffffffffffffffffffffffffffffffffffffffff166108fc826005015490811502906040515f60405180830381858888f19350505050158015610672573d5f5f3e3d5ffd5b505b338160040160016101000a81548173ffffffffffffffffffffffffffffffffffffffff021916908373ffffffffffffffffffffffffffffffffffffffff1602179055503481600501819055505050565b6040518060400160405280600581526020017f352e302e3000000000000000000000000000000000000000000000000000000081525081565b60025f9054906101000a900473ffffffffffffffffffffffffffffffffffffffff1673ffffffffffffffffffffffffffffffffffffffff163373ffffffffffffffffffffffffffffffffffffffff161461078c576040517f08c379a0000000000000000000000000000000000000000000000000000000008152600401610783906118f8565b60405180910390fd5b61ea6084116107d0576040517f08c379a00000000000000000000000000000000000000000000000000000000081526004016107c790611960565b60405180910390fd5b5f8311610812576040517f08c379a0000000000000000000000000000000000000000000000000000000008152600401610809906119ee565b60405180910390fd5b8173ffffffffffffffffffffffffffffffffffffffff1663095ea7b330836040518363ffffffff1660e01b815260040161084d929190611a0c565b5f604051808303815f87803b158015610864575f5ffd5b505af1158015610876573d5f5f3e3d5ffd5b505050506040518061012001604052803373ffffffffffffffffffffffffffffffffffffffff1681526020018581526020018481526020014281526020015f151581526020015f73ffffffffffffffffffffffffffffffffffffffff1681526020015f81526020018373ffffffffffffffffffffffffffffffffffffffff168152602001828152505f5f60015481526020019081526020015f205f820151815f015f6101000a81548173ffffffffffffffffffffffffffffffffffffffff021916908373ffffffffffffffffffffffffffffffffffffffff1602179055506020820151816001015560408201518160020155606082015181600301556080820151816004015f6101000a81548160ff02191690831515021790555060a08201518160040160016101000a81548173ffffffffffffffffffffffffffffffffffffffff021916908373ffffffffffffffffffffffffffffffffffffffff16021790555060c0820151816005015560e0820151816006015f6101000a81548173ffffffffffffffffffffffffffffffffffffffff021916908373ffffffffffffffffffffffffffffffffffffffff160217905550610100820151816007015590505060015f815480929190610a4890611a33565b919050555050505050565b5f5f5f8381526020019081526020015f209050806004015f9054906101000a900460ff16158015610a9657504281600101548260030154610a949190611785565b105b610ad5576040517f08c379a0000000000000000000000000000000000000000000000000000000008152600401610acc90611ac4565b60405180910390fd5b806006015f9054906101000a900473ffffffffffffffffffffffffffffffffffffffff1673ffffffffffffffffffffffffffffffffffffffff166342842e0e308360040160019054906101000a900473ffffffffffffffffffffffffffffffffffffffff1684600701546040518463ffffffff1660e01b8152600401610b5d93929190611ae2565b5f604051808303815f87803b158015610b74575f5ffd5b505af1158015610b86573d5f5f3e3d5ffd5b505050503073ffffffffffffffffffffffffffffffffffffffff166108fc4790811502906040515f60405180830381858888f19350505050158015610bcd573d5f5f3e3d5ffd5b506001816004015f6101000a81548160ff0219169083151502179055505050565b60025f9054906101000a900473ffffffffffffffffffffffffffffffffffffffff1681565b60015481565b7f000000000000000000000000000000000000000000000000000000000000000073ffffffffffffffffffffffffffffffffffffffff163073ffffffffffffffffffffffffffffffffffffffff161480610cc657507f000000000000000000000000000000000000000000000000000000000000000073ffffffffffffffffffffffffffffffffffffffff16610cad610f5d565b73ffffffffffffffffffffffffffffffffffffffff1614155b15610cfd576040517fe07c8dba00000000000000000000000000000000000000000000000000000000815260040160405180910390fd5b565b60025f9054906101000a900473ffffffffffffffffffffffffffffffffffffffff1673ffffffffffffffffffffffffffffffffffffffff163373ffffffffffffffffffffffffffffffffffffffff1614610d8e576040517f08c379a0000000000000000000000000000000000000000000000000000000008152600401610d8590611b61565b60405180910390fd5b50565b8173ffffffffffffffffffffffffffffffffffffffff166352d1902d6040518163ffffffff1660e01b8152600401602060405180830381865afa925050508015610df957506040513d601f19601f82011682018060405250810190610df69190611ba9565b60015b610e3a57816040517f4c9c8ce3000000000000000000000000000000000000000000000000000000008152600401610e3191906116b8565b60405180910390fd5b7f360894a13ba1a3210667c828492db98dca3e2076cc3735a920a3ca505d382bbc5f1b8114610ea057806040517faa1d49a4000000000000000000000000000000000000000000000000000000008152600401610e97919061149a565b60405180910390fd5b610eaa8383610fb0565b505050565b7f000000000000000000000000000000000000000000000000000000000000000073ffffffffffffffffffffffffffffffffffffffff163073ffffffffffffffffffffffffffffffffffffffff1614610f34576040517fe07c8dba00000000000000000000000000000000000000000000000000000000815260040160405180910390fd5b565b5f7ff0c57e16840df040f15088dc2f81fe391c3923bec73e23a9662efc9c229c6a00905090565b5f610f897f360894a13ba1a3210667c828492db98dca3e2076cc3735a920a3ca505d382bbc5f1b611022565b5f015f9054906101000a900473ffffffffffffffffffffffffffffffffffffffff16905090565b610fb98261102b565b8173ffffffffffffffffffffffffffffffffffffffff167fbc7cd75a20ee27fd9adebab32041f755214dbc6bffa90cc0225b39da2e5c2d3b60405160405180910390a25f815111156110155761100f82826110f4565b5061101e565b61101d611174565b5b5050565b5f819050919050565b5f8173ffffffffffffffffffffffffffffffffffffffff163b0361108657806040517f4c9c8ce300000000000000000000000000000000000000000000000000000000815260040161107d91906116b8565b60405180910390fd5b806110b27f360894a13ba1a3210667c828492db98dca3e2076cc3735a920a3ca505d382bbc5f1b611022565b5f015f6101000a81548173ffffffffffffffffffffffffffffffffffffffff021916908373ffffffffffffffffffffffffffffffffffffffff16021790555050565b60605f5f8473ffffffffffffffffffffffffffffffffffffffff168460405161111d9190611c18565b5f60405180830381855af49150503d805f8114611155576040519150601f19603f3d011682016040523d82523d5f602084013e61115a565b606091505b509150915061116a8583836111b0565b9250505092915050565b5f3411156111ae576040517fb398979f00000000000000000000000000000000000000000000000000000000815260040160405180910390fd5b565b6060826111c5576111c08261123d565b611235565b5f82511480156111eb57505f8473ffffffffffffffffffffffffffffffffffffffff163b145b1561122d57836040517f9996b31500000000000000000000000000000000000000000000000000000000815260040161122491906116b8565b60405180910390fd5b819050611236565b5b9392505050565b5f8151111561124f5780518082602001fd5b6040517fd6bda27500000000000000000000000000000000000000000000000000000000815260040160405180910390fd5b5f604051905090565b5f5ffd5b5f5ffd5b5f73ffffffffffffffffffffffffffffffffffffffff82169050919050565b5f6112bb82611292565b9050919050565b6112cb816112b1565b81146112d5575f5ffd5b50565b5f813590506112e6816112c2565b92915050565b5f5ffd5b5f5ffd5b5f601f19601f8301169050919050565b7f4e487b71000000000000000000000000000000000000000000000000000000005f52604160045260245ffd5b61133a826112f4565b810181811067ffffffffffffffff8211171561135957611358611304565b5b80604052505050565b5f61136b611281565b90506113778282611331565b919050565b5f67ffffffffffffffff82111561139657611395611304565b5b61139f826112f4565b9050602081019050919050565b828183375f83830152505050565b5f6113cc6113c78461137c565b611362565b9050828152602081018484840111156113e8576113e76112f0565b5b6113f38482856113ac565b509392505050565b5f82601f83011261140f5761140e6112ec565b5b813561141f8482602086016113ba565b91505092915050565b5f5f6040838503121561143e5761143d61128a565b5b5f61144b858286016112d8565b925050602083013567ffffffffffffffff81111561146c5761146b61128e565b5b611478858286016113fb565b9150509250929050565b5f819050919050565b61149481611482565b82525050565b5f6020820190506114ad5f83018461148b565b92915050565b5f819050919050565b6114c5816114b3565b81146114cf575f5ffd5b50565b5f813590506114e0816114bc565b92915050565b5f602082840312156114fb576114fa61128a565b5b5f611508848285016114d2565b91505092915050565b61151a816112b1565b82525050565b611529816114b3565b82525050565b5f8115159050919050565b6115438161152f565b82525050565b5f6101208201905061155d5f83018c611511565b61156a602083018b611520565b611577604083018a611520565b6115846060830189611520565b611591608083018861153a565b61159e60a0830187611511565b6115ab60c0830186611520565b6115b860e0830185611511565b6115c6610100830184611520565b9a9950505050505050505050565b5f81519050919050565b5f82825260208201905092915050565b8281835e5f83830152505050565b5f611606826115d4565b61161081856115de565b93506116208185602086016115ee565b611629816112f4565b840191505092915050565b5f6020820190508181035f83015261164c81846115fc565b905092915050565b5f5f5f5f6080858703121561166c5761166b61128a565b5b5f611679878288016114d2565b945050602061168a878288016114d2565b935050604061169b878288016112d8565b92505060606116ac878288016114d2565b91505092959194509250565b5f6020820190506116cb5f830184611511565b92915050565b5f6020820190506116e45f830184611520565b92915050565b5f819050919050565b5f67ffffffffffffffff82169050919050565b5f819050919050565b5f61172961172461171f846116ea565b611706565b6116f3565b9050919050565b6117398161170f565b82525050565b5f6020820190506117525f830184611730565b92915050565b7f4e487b71000000000000000000000000000000000000000000000000000000005f52601160045260245ffd5b5f61178f826114b3565b915061179a836114b3565b92508282019050808211156117b2576117b1611758565b5b92915050565b7f41756374696f6e2068617320656e6465640000000000000000000000000000005f82015250565b5f6117ec6011836115de565b91506117f7826117b8565b602082019050919050565b5f6020820190508181035f830152611819816117e0565b9050919050565b7f426964206d75737420626520686967686572207468616e2074686520637572725f8201527f656e742068696768657374206269640000000000000000000000000000000000602082015250565b5f61187a602f836115de565b915061188582611820565b604082019050919050565b5f6020820190508181035f8301526118a78161186e565b9050919050565b7f4f6e6c792061646d696e2063616e206372656174652061756374696f6e7300005f82015250565b5f6118e2601e836115de565b91506118ed826118ae565b602082019050919050565b5f6020820190508181035f83015261190f816118d6565b9050919050565b7f4475726174696f6e206d7573742062652067726561746572207468616e2030005f82015250565b5f61194a601f836115de565b915061195582611916565b602082019050919050565b5f6020820190508181035f8301526119778161193e565b9050919050565b7f5374617274207072696365206d7573742062652067726561746572207468616e5f8201527f2030000000000000000000000000000000000000000000000000000000000000602082015250565b5f6119d86022836115de565b91506119e38261197e565b604082019050919050565b5f6020820190508181035f830152611a05816119cc565b9050919050565b5f604082019050611a1f5f830185611511565b611a2c6020830184611520565b9392505050565b5f611a3d826114b3565b91507fffffffffffffffffffffffffffffffffffffffffffffffffffffffffffffffff8203611a6f57611a6e611758565b5b600182019050919050565b7f41756374696f6e20686173206e6f7420656e64656400000000000000000000005f82015250565b5f611aae6015836115de565b9150611ab982611a7a565b602082019050919050565b5f6020820190508181035f830152611adb81611aa2565b9050919050565b5f606082019050611af55f830186611511565b611b026020830185611511565b611b0f6040830184611520565b949350505050565b7f4f6e6c792061646d696e2063616e2075706772616465000000000000000000005f82015250565b5f611b4b6016836115de565b9150611b5682611b17565b602082019050919050565b5f6020820190508181035f830152611b7881611b3f565b9050919050565b611b8881611482565b8114611b92575f5ffd5b50565b5f81519050611ba381611b7f565b92915050565b5f60208284031215611bbe57611bbd61128a565b5b5f611bcb84828501611b95565b91505092915050565b5f81519050919050565b5f81905092915050565b5f611bf282611bd4565b611bfc8185611bde565b9350611c0c8185602086016115ee565b80840191505092915050565b5f611c238284611be8565b91508190509291505056fea2646970667358221220f025e92b2725f2578b1f1e646ab9c0f4b322ca91560df6bed98274701a52414164736f6c634300081c0033",
					"opcodes": "PUSH1 0xA0 PUSH1 0x40 MSTORE ADDRESS PUSH20 0xFFFFFFFFFFFFFFFFFFFFFFFFFFFFFFFFFFFFFFFF AND PUSH1 0x80 SWAP1 PUSH20 0xFFFFFFFFFFFFFFFFFFFFFFFFFFFFFFFFFFFFFFFF AND DUP2 MSTORE POP CALLVALUE DUP1 ISZERO PUSH1 0x41 JUMPI PUSH0 PUSH0 REVERT JUMPDEST POP PUSH1 0x80 MLOAD PUSH2 0x1C64 PUSH2 0x68 PUSH0 CODECOPY PUSH0 DUP2 DUP2 PUSH2 0xC1B ADD MSTORE DUP2 DUP2 PUSH2 0xC70 ADD MSTORE PUSH2 0xEB1 ADD MSTORE PUSH2 0x1C64 PUSH0 RETURN INVALID PUSH1 0x80 PUSH1 0x40 MSTORE PUSH1 0x4 CALLDATASIZE LT PUSH2 0x90 JUMPI PUSH0 CALLDATALOAD PUSH1 0xE0 SHR DUP1 PUSH4 0xAD3CB1CC GT PUSH2 0x58 JUMPI DUP1 PUSH4 0xAD3CB1CC EQ PUSH2 0x150 JUMPI DUP1 PUSH4 0xB1CB48EF EQ PUSH2 0x17A JUMPI DUP1 PUSH4 0xB9A2DE3A EQ PUSH2 0x1A2 JUMPI DUP1 PUSH4 0xF851A440 EQ PUSH2 0x1CA JUMPI DUP1 PUSH4 0xFC528482 EQ PUSH2 0x1F4 JUMPI PUSH2 0x90 JUMP JUMPDEST DUP1 PUSH4 0x4F1EF286 EQ PUSH2 0x94 JUMPI DUP1 PUSH4 0x52D1902D EQ PUSH2 0xB0 JUMPI DUP1 PUSH4 0x571A26A0 EQ PUSH2 0xDA JUMPI DUP1 PUSH4 0x8129FC1C EQ PUSH2 0x11E JUMPI DUP1 PUSH4 0x9979EF45 EQ PUSH2 0x134 JUMPI JUMPDEST PUSH0 PUSH0 REVERT JUMPDEST PUSH2 0xAE PUSH1 0x4 DUP1 CALLDATASIZE SUB DUP2 ADD SWAP1 PUSH2 0xA9 SWAP2 SWAP1 PUSH2 0x1428 JUMP JUMPDEST PUSH2 0x21E JUMP JUMPDEST STOP JUMPDEST CALLVALUE DUP1 ISZERO PUSH2 0xBB JUMPI PUSH0 PUSH0 REVERT JUMPDEST POP PUSH2 0xC4 PUSH2 0x23D JUMP JUMPDEST PUSH1 0x40 MLOAD PUSH2 0xD1 SWAP2 SWAP1 PUSH2 0x149A JUMP JUMPDEST PUSH1 0x40 MLOAD DUP1 SWAP2 SUB SWAP1 RETURN JUMPDEST CALLVALUE DUP1 ISZERO PUSH2 0xE5 JUMPI PUSH0 PUSH0 REVERT JUMPDEST POP PUSH2 0x100 PUSH1 0x4 DUP1 CALLDATASIZE SUB DUP2 ADD SWAP1 PUSH2 0xFB SWAP2 SWAP1 PUSH2 0x14E6 JUMP JUMPDEST PUSH2 0x26E JUMP JUMPDEST PUSH1 0x40 MLOAD PUSH2 0x115 SWAP10 SWAP9 SWAP8 SWAP7 SWAP6 SWAP5 SWAP4 SWAP3 SWAP2 SWAP1 PUSH2 0x1549 JUMP JUMPDEST PUSH1 0x40 MLOAD DUP1 SWAP2 SUB SWAP1 RETURN JUMPDEST CALLVALUE DUP1 ISZERO PUSH2 0x129 JUMPI PUSH0 PUSH0 REVERT JUMPDEST POP PUSH2 0x132 PUSH2 0x321 JUMP JUMPDEST STOP JUMPDEST PUSH2 0x14E PUSH1 0x4 DUP1 CALLDATASIZE SUB DUP2 ADD SWAP1 PUSH2 0x149 SWAP2 SWAP1 PUSH2 0x14E6 JUMP JUMPDEST PUSH2 0x4D8 JUMP JUMPDEST STOP JUMPDEST CALLVALUE DUP1 ISZERO PUSH2 0x15B JUMPI PUSH0 PUSH0 REVERT JUMPDEST POP PUSH2 0x164 PUSH2 0x6C4 JUMP JUMPDEST PUSH1 0x40 MLOAD PUSH2 0x171 SWAP2 SWAP1 PUSH2 0x1634 JUMP JUMPDEST PUSH1 0x40 MLOAD DUP1 SWAP2 SUB SWAP1 RETURN JUMPDEST CALLVALUE DUP1 ISZERO PUSH2 0x185 JUMPI PUSH0 PUSH0 REVERT JUMPDEST POP PUSH2 0x1A0 PUSH1 0x4 DUP1 CALLDATASIZE SUB DUP2 ADD SWAP1 PUSH2 0x19B SWAP2 SWAP1 PUSH2 0x1654 JUMP JUMPDEST PUSH2 0x6FD JUMP JUMPDEST STOP JUMPDEST CALLVALUE DUP1 ISZERO PUSH2 0x1AD JUMPI PUSH0 PUSH0 REVERT JUMPDEST POP PUSH2 0x1C8 PUSH1 0x4 DUP1 CALLDATASIZE SUB DUP2 ADD SWAP1 PUSH2 0x1C3 SWAP2 SWAP1 PUSH2 0x14E6 JUMP JUMPDEST PUSH2 0xA53 JUMP JUMPDEST STOP JUMPDEST CALLVALUE DUP1 ISZERO PUSH2 0x1D5 JUMPI PUSH0 PUSH0 REVERT JUMPDEST POP PUSH2 0x1DE PUSH2 0xBEE JUMP JUMPDEST PUSH1 0x40 MLOAD PUSH2 0x1EB SWAP2 SWAP1 PUSH2 0x16B8 JUMP JUMPDEST PUSH1 0x40 MLOAD DUP1 SWAP2 SUB SWAP1 RETURN JUMPDEST CALLVALUE DUP1 ISZERO PUSH2 0x1FF JUMPI PUSH0 PUSH0 REVERT JUMPDEST POP PUSH2 0x208 PUSH2 0xC13 JUMP JUMPDEST PUSH1 0x40 MLOAD PUSH2 0x215 SWAP2 SWAP1 PUSH2 0x16D1 JUMP JUMPDEST PUSH1 0x40 MLOAD DUP1 SWAP2 SUB SWAP1 RETURN JUMPDEST PUSH2 0x226 PUSH2 0xC19 JUMP JUMPDEST PUSH2 0x22F DUP3 PUSH2 0xCFF JUMP JUMPDEST PUSH2 0x239 DUP3 DUP3 PUSH2 0xD91 JUMP JUMPDEST POP POP JUMP JUMPDEST PUSH0 PUSH2 0x246 PUSH2 0xEAF JUMP JUMPDEST PUSH32 0x360894A13BA1A3210667C828492DB98DCA3E2076CC3735A920A3CA505D382BBC PUSH0 SHL SWAP1 POP SWAP1 JUMP JUMPDEST PUSH0 PUSH1 0x20 MSTORE DUP1 PUSH0 MSTORE PUSH1 0x40 PUSH0 KECCAK256 PUSH0 SWAP2 POP SWAP1 POP DUP1 PUSH0 ADD PUSH0 SWAP1 SLOAD SWAP1 PUSH2 0x100 EXP SWAP1 DIV PUSH20 0xFFFFFFFFFFFFFFFFFFFFFFFFFFFFFFFFFFFFFFFF AND SWAP1 DUP1 PUSH1 0x1 ADD SLOAD SWAP1 DUP1 PUSH1 0x2 ADD SLOAD SWAP1 DUP1 PUSH1 0x3 ADD SLOAD SWAP1 DUP1 PUSH1 0x4 ADD PUSH0 SWAP1 SLOAD SWAP1 PUSH2 0x100 EXP SWAP1 DIV PUSH1 0xFF AND SWAP1 DUP1 PUSH1 0x4 ADD PUSH1 0x1 SWAP1 SLOAD SWAP1 PUSH2 0x100 EXP SWAP1 DIV PUSH20 0xFFFFFFFFFFFFFFFFFFFFFFFFFFFFFFFFFFFFFFFF AND SWAP1 DUP1 PUSH1 0x5 ADD SLOAD SWAP1 DUP1 PUSH1 0x6 ADD PUSH0 SWAP1 SLOAD SWAP1 PUSH2 0x100 EXP SWAP1 DIV PUSH20 0xFFFFFFFFFFFFFFFFFFFFFFFFFFFFFFFFFFFFFFFF AND SWAP1 DUP1 PUSH1 0x7 ADD SLOAD SWAP1 POP DUP10 JUMP JUMPDEST PUSH0 PUSH2 0x32A PUSH2 0xF36 JUMP JUMPDEST SWAP1 POP PUSH0 DUP2 PUSH0 ADD PUSH1 0x8 SWAP1 SLOAD SWAP1 PUSH2 0x100 EXP SWAP1 DIV PUSH1 0xFF AND ISZERO SWAP1 POP PUSH0 DUP3 PUSH0 ADD PUSH0 SWAP1 SLOAD SWAP1 PUSH2 0x100 EXP SWAP1 DIV PUSH8 0xFFFFFFFFFFFFFFFF AND SWAP1 POP PUSH0 PUSH0 DUP3 PUSH8 0xFFFFFFFFFFFFFFFF AND EQ DUP1 ISZERO PUSH2 0x372 JUMPI POP DUP3 JUMPDEST SWAP1 POP PUSH0 PUSH1 0x1 DUP4 PUSH8 0xFFFFFFFFFFFFFFFF AND EQ DUP1 ISZERO PUSH2 0x3A5 JUMPI POP PUSH0 ADDRESS PUSH20 0xFFFFFFFFFFFFFFFFFFFFFFFFFFFFFFFFFFFFFFFF AND EXTCODESIZE EQ JUMPDEST SWAP1 POP DUP2 ISZERO DUP1 ISZERO PUSH2 0x3B3 JUMPI POP DUP1 ISZERO JUMPDEST ISZERO PUSH2 0x3EA JUMPI PUSH1 0x40 MLOAD PUSH32 0xF92EE8A900000000000000000000000000000000000000000000000000000000 DUP2 MSTORE PUSH1 0x4 ADD PUSH1 0x40 MLOAD DUP1 SWAP2 SUB SWAP1 REVERT JUMPDEST PUSH1 0x1 DUP6 PUSH0 ADD PUSH0 PUSH2 0x100 EXP DUP2 SLOAD DUP2 PUSH8 0xFFFFFFFFFFFFFFFF MUL NOT AND SWAP1 DUP4 PUSH8 0xFFFFFFFFFFFFFFFF AND MUL OR SWAP1 SSTORE POP DUP4 ISZERO PUSH2 0x437 JUMPI PUSH1 0x1 DUP6 PUSH0 ADD PUSH1 0x8 PUSH2 0x100 EXP DUP2 SLOAD DUP2 PUSH1 0xFF MUL NOT AND SWAP1 DUP4 ISZERO ISZERO MUL OR SWAP1 SSTORE POP JUMPDEST CALLER PUSH1 0x2 PUSH0 PUSH2 0x100 EXP DUP2 SLOAD DUP2 PUSH20 0xFFFFFFFFFFFFFFFFFFFFFFFFFFFFFFFFFFFFFFFF MUL NOT AND SWAP1 DUP4 PUSH20 0xFFFFFFFFFFFFFFFFFFFFFFFFFFFFFFFFFFFFFFFF AND MUL OR SWAP1 SSTORE POP DUP4 ISZERO PUSH2 0x4D1 JUMPI PUSH0 DUP6 PUSH0 ADD PUSH1 0x8 PUSH2 0x100 EXP DUP2 SLOAD DUP2 PUSH1 0xFF MUL NOT AND SWAP1 DUP4 ISZERO ISZERO MUL OR SWAP1 SSTORE POP PUSH32 0xC7F505B2F371AE2175EE4913F4499E1F2633A7B5936321EED1CDAEB6115181D2 PUSH1 0x1 PUSH1 0x40 MLOAD PUSH2 0x4C8 SWAP2 SWAP1 PUSH2 0x173F JUMP JUMPDEST PUSH1 0x40 MLOAD DUP1 SWAP2 SUB SWAP1 LOG1 JUMPDEST POP POP POP POP POP JUMP JUMPDEST PUSH0 PUSH0 PUSH0 DUP4 DUP2 MSTORE PUSH1 0x20 ADD SWAP1 DUP2 MSTORE PUSH1 0x20 ADD PUSH0 KECCAK256 SWAP1 POP DUP1 PUSH1 0x4 ADD PUSH0 SWAP1 SLOAD SWAP1 PUSH2 0x100 EXP SWAP1 DIV PUSH1 0xFF AND ISZERO DUP1 ISZERO PUSH2 0x51B JUMPI POP TIMESTAMP DUP2 PUSH1 0x1 ADD SLOAD DUP3 PUSH1 0x3 ADD SLOAD PUSH2 0x519 SWAP2 SWAP1 PUSH2 0x1785 JUMP JUMPDEST GT JUMPDEST PUSH2 0x55A JUMPI PUSH1 0x40 MLOAD PUSH32 0x8C379A000000000000000000000000000000000000000000000000000000000 DUP2 MSTORE PUSH1 0x4 ADD PUSH2 0x551 SWAP1 PUSH2 0x1802 JUMP JUMPDEST PUSH1 0x40 MLOAD DUP1 SWAP2 SUB SWAP1 REVERT JUMPDEST DUP1 PUSH1 0x5 ADD SLOAD CALLVALUE GT DUP1 ISZERO PUSH2 0x571 JUMPI POP DUP1 PUSH1 0x2 ADD SLOAD CALLVALUE LT ISZERO JUMPDEST PUSH2 0x5B0 JUMPI PUSH1 0x40 MLOAD PUSH32 0x8C379A000000000000000000000000000000000000000000000000000000000 DUP2 MSTORE PUSH1 0x4 ADD PUSH2 0x5A7 SWAP1 PUSH2 0x1890 JUMP JUMPDEST PUSH1 0x40 MLOAD DUP1 SWAP2 SUB SWAP1 REVERT JUMPDEST PUSH0 PUSH20 0xFFFFFFFFFFFFFFFFFFFFFFFFFFFFFFFFFFFFFFFF AND DUP2 PUSH1 0x4 ADD PUSH1 0x1 SWAP1 SLOAD SWAP1 PUSH2 0x100 EXP SWAP1 DIV PUSH20 0xFFFFFFFFFFFFFFFFFFFFFFFFFFFFFFFFFFFFFFFF AND PUSH20 0xFFFFFFFFFFFFFFFFFFFFFFFFFFFFFFFFFFFFFFFF AND EQ PUSH2 0x674 JUMPI DUP1 PUSH1 0x4 ADD PUSH1 0x1 SWAP1 SLOAD SWAP1 PUSH2 0x100 EXP SWAP1 DIV PUSH20 0xFFFFFFFFFFFFFFFFFFFFFFFFFFFFFFFFFFFFFFFF AND PUSH20 0xFFFFFFFFFFFFFFFFFFFFFFFFFFFFFFFFFFFFFFFF AND PUSH2 0x8FC DUP3 PUSH1 0x5 ADD SLOAD SWAP1 DUP2 ISZERO MUL SWAP1 PUSH1 0x40 MLOAD PUSH0 PUSH1 0x40 MLOAD DUP1 DUP4 SUB DUP2 DUP6 DUP9 DUP9 CALL SWAP4 POP POP POP POP ISZERO DUP1 ISZERO PUSH2 0x672 JUMPI RETURNDATASIZE PUSH0 PUSH0 RETURNDATACOPY RETURNDATASIZE PUSH0 REVERT JUMPDEST POP JUMPDEST CALLER DUP2 PUSH1 0x4 ADD PUSH1 0x1 PUSH2 0x100 EXP DUP2 SLOAD DUP2 PUSH20 0xFFFFFFFFFFFFFFFFFFFFFFFFFFFFFFFFFFFFFFFF MUL NOT AND SWAP1 DUP4 PUSH20 0xFFFFFFFFFFFFFFFFFFFFFFFFFFFFFFFFFFFFFFFF AND MUL OR SWAP1 SSTORE POP CALLVALUE DUP2 PUSH1 0x5 ADD DUP2 SWAP1 SSTORE POP POP POP JUMP JUMPDEST PUSH1 0x40 MLOAD DUP1 PUSH1 0x40 ADD PUSH1 0x40 MSTORE DUP1 PUSH1 0x5 DUP2 MSTORE PUSH1 0x20 ADD PUSH32 0x352E302E30000000000000000000000000000000000000000000000000000000 DUP2 MSTORE POP DUP2 JUMP JUMPDEST PUSH1 0x2 PUSH0 SWAP1 SLOAD SWAP1 PUSH2 0x100 EXP SWAP1 DIV PUSH20 0xFFFFFFFFFFFFFFFFFFFFFFFFFFFFFFFFFFFFFFFF AND PUSH20 0xFFFFFFFFFFFFFFFFFFFFFFFFFFFFFFFFFFFFFFFF AND CALLER PUSH20 0xFFFFFFFFFFFFFFFFFFFFFFFFFFFFFFFFFFFFFFFF AND EQ PUSH2 0x78C JUMPI PUSH1 0x40 MLOAD PUSH32 0x8C379A000000000000000000000000000000000000000000000000000000000 DUP2 MSTORE PUSH1 0x4 ADD PUSH2 0x783 SWAP1 PUSH2 0x18F8 JUMP JUMPDEST PUSH1 0x40 MLOAD DUP1 SWAP2 SUB SWAP1 REVERT JUMPDEST PUSH2 0xEA60 DUP5 GT PUSH2 0x7D0 JUMPI PUSH1 0x40 MLOAD PUSH32 0x8C379A000000000000000000000000000000000000000000000000000000000 DUP2 MSTORE PUSH1 0x4 ADD PUSH2 0x7C7 SWAP1 PUSH2 0x1960 JUMP JUMPDEST PUSH1 0x40 MLOAD DUP1 SWAP2 SUB SWAP1 REVERT JUMPDEST PUSH0 DUP4 GT PUSH2 0x812 JUMPI PUSH1 0x40 MLOAD PUSH32 0x8C379A000000000000000000000000000000000000000000000000000000000 DUP2 MSTORE PUSH1 0x4 ADD PUSH2 0x809 SWAP1 PUSH2 0x19EE JUMP JUMPDEST PUSH1 0x40 MLOAD DUP1 SWAP2 SUB SWAP1 REVERT JUMPDEST DUP2 PUSH20 0xFFFFFFFFFFFFFFFFFFFFFFFFFFFFFFFFFFFFFFFF AND PUSH4 0x95EA7B3 ADDRESS DUP4 PUSH1 0x40 MLOAD DUP4 PUSH4 0xFFFFFFFF AND PUSH1 0xE0 SHL DUP2 MSTORE PUSH1 0x4 ADD PUSH2 0x84D SWAP3 SWAP2 SWAP1 PUSH2 0x1A0C JUMP JUMPDEST PUSH0 PUSH1 0x40 MLOAD DUP1 DUP4 SUB DUP2 PUSH0 DUP8 DUP1 EXTCODESIZE ISZERO DUP1 ISZERO PUSH2 0x864 JUMPI PUSH0 PUSH0 REVERT JUMPDEST POP GAS CALL ISZERO DUP1 ISZERO PUSH2 0x876 JUMPI RETURNDATASIZE PUSH0 PUSH0 RETURNDATACOPY RETURNDATASIZE PUSH0 REVERT JUMPDEST POP POP POP POP PUSH1 0x40 MLOAD DUP1 PUSH2 0x120 ADD PUSH1 0x40 MSTORE DUP1 CALLER PUSH20 0xFFFFFFFFFFFFFFFFFFFFFFFFFFFFFFFFFFFFFFFF AND DUP2 MSTORE PUSH1 0x20 ADD DUP6 DUP2 MSTORE PUSH1 0x20 ADD DUP5 DUP2 MSTORE PUSH1 0x20 ADD TIMESTAMP DUP2 MSTORE PUSH1 0x20 ADD PUSH0 ISZERO ISZERO DUP2 MSTORE PUSH1 0x20 ADD PUSH0 PUSH20 0xFFFFFFFFFFFFFFFFFFFFFFFFFFFFFFFFFFFFFFFF AND DUP2 MSTORE PUSH1 0x20 ADD PUSH0 DUP2 MSTORE PUSH1 0x20 ADD DUP4 PUSH20 0xFFFFFFFFFFFFFFFFFFFFFFFFFFFFFFFFFFFFFFFF AND DUP2 MSTORE PUSH1 0x20 ADD DUP3 DUP2 MSTORE POP PUSH0 PUSH0 PUSH1 0x1 SLOAD DUP2 MSTORE PUSH1 0x20 ADD SWAP1 DUP2 MSTORE PUSH1 0x20 ADD PUSH0 KECCAK256 PUSH0 DUP3 ADD MLOAD DUP2 PUSH0 ADD PUSH0 PUSH2 0x100 EXP DUP2 SLOAD DUP2 PUSH20 0xFFFFFFFFFFFFFFFFFFFFFFFFFFFFFFFFFFFFFFFF MUL NOT AND SWAP1 DUP4 PUSH20 0xFFFFFFFFFFFFFFFFFFFFFFFFFFFFFFFFFFFFFFFF AND MUL OR SWAP1 SSTORE POP PUSH1 0x20 DUP3 ADD MLOAD DUP2 PUSH1 0x1 ADD SSTORE PUSH1 0x40 DUP3 ADD MLOAD DUP2 PUSH1 0x2 ADD SSTORE PUSH1 0x60 DUP3 ADD MLOAD DUP2 PUSH1 0x3 ADD SSTORE PUSH1 0x80 DUP3 ADD MLOAD DUP2 PUSH1 0x4 ADD PUSH0 PUSH2 0x100 EXP DUP2 SLOAD DUP2 PUSH1 0xFF MUL NOT AND SWAP1 DUP4 ISZERO ISZERO MUL OR SWAP1 SSTORE POP PUSH1 0xA0 DUP3 ADD MLOAD DUP2 PUSH1 0x4 ADD PUSH1 0x1 PUSH2 0x100 EXP DUP2 SLOAD DUP2 PUSH20 0xFFFFFFFFFFFFFFFFFFFFFFFFFFFFFFFFFFFFFFFF MUL NOT AND SWAP1 DUP4 PUSH20 0xFFFFFFFFFFFFFFFFFFFFFFFFFFFFFFFFFFFFFFFF AND MUL OR SWAP1 SSTORE POP PUSH1 0xC0 DUP3 ADD MLOAD DUP2 PUSH1 0x5 ADD SSTORE PUSH1 0xE0 DUP3 ADD MLOAD DUP2 PUSH1 0x6 ADD PUSH0 PUSH2 0x100 EXP DUP2 SLOAD DUP2 PUSH20 0xFFFFFFFFFFFFFFFFFFFFFFFFFFFFFFFFFFFFFFFF MUL NOT AND SWAP1 DUP4 PUSH20 0xFFFFFFFFFFFFFFFFFFFFFFFFFFFFFFFFFFFFFFFF AND MUL OR SWAP1 SSTORE POP PUSH2 0x100 DUP3 ADD MLOAD DUP2 PUSH1 0x7 ADD SSTORE SWAP1 POP POP PUSH1 0x1 PUSH0 DUP2 SLOAD DUP1 SWAP3 SWAP2 SWAP1 PUSH2 0xA48 SWAP1 PUSH2 0x1A33 JUMP JUMPDEST SWAP2 SWAP1 POP SSTORE POP POP POP POP POP JUMP JUMPDEST PUSH0 PUSH0 PUSH0 DUP4 DUP2 MSTORE PUSH1 0x20 ADD SWAP1 DUP2 MSTORE PUSH1 0x20 ADD PUSH0 KECCAK256 SWAP1 POP DUP1 PUSH1 0x4 ADD PUSH0 SWAP1 SLOAD SWAP1 PUSH2 0x100 EXP SWAP1 DIV PUSH1 0xFF AND ISZERO DUP1 ISZERO PUSH2 0xA96 JUMPI POP TIMESTAMP DUP2 PUSH1 0x1 ADD SLOAD DUP3 PUSH1 0x3 ADD SLOAD PUSH2 0xA94 SWAP2 SWAP1 PUSH2 0x1785 JUMP JUMPDEST LT JUMPDEST PUSH2 0xAD5 JUMPI PUSH1 0x40 MLOAD PUSH32 0x8C379A000000000000000000000000000000000000000000000000000000000 DUP2 MSTORE PUSH1 0x4 ADD PUSH2 0xACC SWAP1 PUSH2 0x1AC4 JUMP JUMPDEST PUSH1 0x40 MLOAD DUP1 SWAP2 SUB SWAP1 REVERT JUMPDEST DUP1 PUSH1 0x6 ADD PUSH0 SWAP1 SLOAD SWAP1 PUSH2 0x100 EXP SWAP1 DIV PUSH20 0xFFFFFFFFFFFFFFFFFFFFFFFFFFFFFFFFFFFFFFFF AND PUSH20 0xFFFFFFFFFFFFFFFFFFFFFFFFFFFFFFFFFFFFFFFF AND PUSH4 0x42842E0E ADDRESS DUP4 PUSH1 0x4 ADD PUSH1 0x1 SWAP1 SLOAD SWAP1 PUSH2 0x100 EXP SWAP1 DIV PUSH20 0xFFFFFFFFFFFFFFFFFFFFFFFFFFFFFFFFFFFFFFFF AND DUP5 PUSH1 0x7 ADD SLOAD PUSH1 0x40 MLOAD DUP5 PUSH4 0xFFFFFFFF AND PUSH1 0xE0 SHL DUP2 MSTORE PUSH1 0x4 ADD PUSH2 0xB5D SWAP4 SWAP3 SWAP2 SWAP1 PUSH2 0x1AE2 JUMP JUMPDEST PUSH0 PUSH1 0x40 MLOAD DUP1 DUP4 SUB DUP2 PUSH0 DUP8 DUP1 EXTCODESIZE ISZERO DUP1 ISZERO PUSH2 0xB74 JUMPI PUSH0 PUSH0 REVERT JUMPDEST POP GAS CALL ISZERO DUP1 ISZERO PUSH2 0xB86 JUMPI RETURNDATASIZE PUSH0 PUSH0 RETURNDATACOPY RETURNDATASIZE PUSH0 REVERT JUMPDEST POP POP POP POP ADDRESS PUSH20 0xFFFFFFFFFFFFFFFFFFFFFFFFFFFFFFFFFFFFFFFF AND PUSH2 0x8FC SELFBALANCE SWAP1 DUP2 ISZERO MUL SWAP1 PUSH1 0x40 MLOAD PUSH0 PUSH1 0x40 MLOAD DUP1 DUP4 SUB DUP2 DUP6 DUP9 DUP9 CALL SWAP4 POP POP POP POP ISZERO DUP1 ISZERO PUSH2 0xBCD JUMPI RETURNDATASIZE PUSH0 PUSH0 RETURNDATACOPY RETURNDATASIZE PUSH0 REVERT JUMPDEST POP PUSH1 0x1 DUP2 PUSH1 0x4 ADD PUSH0 PUSH2 0x100 EXP DUP2 SLOAD DUP2 PUSH1 0xFF MUL NOT AND SWAP1 DUP4 ISZERO ISZERO MUL OR SWAP1 SSTORE POP POP POP JUMP JUMPDEST PUSH1 0x2 PUSH0 SWAP1 SLOAD SWAP1 PUSH2 0x100 EXP SWAP1 DIV PUSH20 0xFFFFFFFFFFFFFFFFFFFFFFFFFFFFFFFFFFFFFFFF AND DUP2 JUMP JUMPDEST PUSH1 0x1 SLOAD DUP2 JUMP JUMPDEST PUSH32 0x0 PUSH20 0xFFFFFFFFFFFFFFFFFFFFFFFFFFFFFFFFFFFFFFFF AND ADDRESS PUSH20 0xFFFFFFFFFFFFFFFFFFFFFFFFFFFFFFFFFFFFFFFF AND EQ DUP1 PUSH2 0xCC6 JUMPI POP PUSH32 0x0 PUSH20 0xFFFFFFFFFFFFFFFFFFFFFFFFFFFFFFFFFFFFFFFF AND PUSH2 0xCAD PUSH2 0xF5D JUMP JUMPDEST PUSH20 0xFFFFFFFFFFFFFFFFFFFFFFFFFFFFFFFFFFFFFFFF AND EQ ISZERO JUMPDEST ISZERO PUSH2 0xCFD JUMPI PUSH1 0x40 MLOAD PUSH32 0xE07C8DBA00000000000000000000000000000000000000000000000000000000 DUP2 MSTORE PUSH1 0x4 ADD PUSH1 0x40 MLOAD DUP1 SWAP2 SUB SWAP1 REVERT JUMPDEST JUMP JUMPDEST PUSH1 0x2 PUSH0 SWAP1 SLOAD SWAP1 PUSH2 0x100 EXP SWAP1 DIV PUSH20 0xFFFFFFFFFFFFFFFFFFFFFFFFFFFFFFFFFFFFFFFF AND PUSH20 0xFFFFFFFFFFFFFFFFFFFFFFFFFFFFFFFFFFFFFFFF AND CALLER PUSH20 0xFFFFFFFFFFFFFFFFFFFFFFFFFFFFFFFFFFFFFFFF AND EQ PUSH2 0xD8E JUMPI PUSH1 0x40 MLOAD PUSH32 0x8C379A000000000000000000000000000000000000000000000000000000000 DUP2 MSTORE PUSH1 0x4 ADD PUSH2 0xD85 SWAP1 PUSH2 0x1B61 JUMP JUMPDEST PUSH1 0x40 MLOAD DUP1 SWAP2 SUB SWAP1 REVERT JUMPDEST POP JUMP JUMPDEST DUP2 PUSH20 0xFFFFFFFFFFFFFFFFFFFFFFFFFFFFFFFFFFFFFFFF AND PUSH4 0x52D1902D PUSH1 0x40 MLOAD DUP2 PUSH4 0xFFFFFFFF AND PUSH1 0xE0 SHL DUP2 MSTORE PUSH1 0x4 ADD PUSH1 0x20 PUSH1 0x40 MLOAD DUP1 DUP4 SUB DUP2 DUP7 GAS STATICCALL SWAP3 POP POP POP DUP1 ISZERO PUSH2 0xDF9 JUMPI POP PUSH1 0x40 MLOAD RETURNDATASIZE PUSH1 0x1F NOT PUSH1 0x1F DUP3 ADD AND DUP3 ADD DUP1 PUSH1 0x40 MSTORE POP DUP2 ADD SWAP1 PUSH2 0xDF6 SWAP2 SWAP1 PUSH2 0x1BA9 JUMP JUMPDEST PUSH1 0x1 JUMPDEST PUSH2 0xE3A JUMPI DUP2 PUSH1 0x40 MLOAD PUSH32 0x4C9C8CE300000000000000000000000000000000000000000000000000000000 DUP2 MSTORE PUSH1 0x4 ADD PUSH2 0xE31 SWAP2 SWAP1 PUSH2 0x16B8 JUMP JUMPDEST PUSH1 0x40 MLOAD DUP1 SWAP2 SUB SWAP1 REVERT JUMPDEST PUSH32 0x360894A13BA1A3210667C828492DB98DCA3E2076CC3735A920A3CA505D382BBC PUSH0 SHL DUP2 EQ PUSH2 0xEA0 JUMPI DUP1 PUSH1 0x40 MLOAD PUSH32 0xAA1D49A400000000000000000000000000000000000000000000000000000000 DUP2 MSTORE PUSH1 0x4 ADD PUSH2 0xE97 SWAP2 SWAP1 PUSH2 0x149A JUMP JUMPDEST PUSH1 0x40 MLOAD DUP1 SWAP2 SUB SWAP1 REVERT JUMPDEST PUSH2 0xEAA DUP4 DUP4 PUSH2 0xFB0 JUMP JUMPDEST POP POP POP JUMP JUMPDEST PUSH32 0x0 PUSH20 0xFFFFFFFFFFFFFFFFFFFFFFFFFFFFFFFFFFFFFFFF AND ADDRESS PUSH20 0xFFFFFFFFFFFFFFFFFFFFFFFFFFFFFFFFFFFFFFFF AND EQ PUSH2 0xF34 JUMPI PUSH1 0x40 MLOAD PUSH32 0xE07C8DBA00000000000000000000000000000000000000000000000000000000 DUP2 MSTORE PUSH1 0x4 ADD PUSH1 0x40 MLOAD DUP1 SWAP2 SUB SWAP1 REVERT JUMPDEST JUMP JUMPDEST PUSH0 PUSH32 0xF0C57E16840DF040F15088DC2F81FE391C3923BEC73E23A9662EFC9C229C6A00 SWAP1 POP SWAP1 JUMP JUMPDEST PUSH0 PUSH2 0xF89 PUSH32 0x360894A13BA1A3210667C828492DB98DCA3E2076CC3735A920A3CA505D382BBC PUSH0 SHL PUSH2 0x1022 JUMP JUMPDEST PUSH0 ADD PUSH0 SWAP1 SLOAD SWAP1 PUSH2 0x100 EXP SWAP1 DIV PUSH20 0xFFFFFFFFFFFFFFFFFFFFFFFFFFFFFFFFFFFFFFFF AND SWAP1 POP SWAP1 JUMP JUMPDEST PUSH2 0xFB9 DUP3 PUSH2 0x102B JUMP JUMPDEST DUP2 PUSH20 0xFFFFFFFFFFFFFFFFFFFFFFFFFFFFFFFFFFFFFFFF AND PUSH32 0xBC7CD75A20EE27FD9ADEBAB32041F755214DBC6BFFA90CC0225B39DA2E5C2D3B PUSH1 0x40 MLOAD PUSH1 0x40 MLOAD DUP1 SWAP2 SUB SWAP1 LOG2 PUSH0 DUP2 MLOAD GT ISZERO PUSH2 0x1015 JUMPI PUSH2 0x100F DUP3 DUP3 PUSH2 0x10F4 JUMP JUMPDEST POP PUSH2 0x101E JUMP JUMPDEST PUSH2 0x101D PUSH2 0x1174 JUMP JUMPDEST JUMPDEST POP POP JUMP JUMPDEST PUSH0 DUP2 SWAP1 POP SWAP2 SWAP1 POP JUMP JUMPDEST PUSH0 DUP2 PUSH20 0xFFFFFFFFFFFFFFFFFFFFFFFFFFFFFFFFFFFFFFFF AND EXTCODESIZE SUB PUSH2 0x1086 JUMPI DUP1 PUSH1 0x40 MLOAD PUSH32 0x4C9C8CE300000000000000000000000000000000000000000000000000000000 DUP2 MSTORE PUSH1 0x4 ADD PUSH2 0x107D SWAP2 SWAP1 PUSH2 0x16B8 JUMP JUMPDEST PUSH1 0x40 MLOAD DUP1 SWAP2 SUB SWAP1 REVERT JUMPDEST DUP1 PUSH2 0x10B2 PUSH32 0x360894A13BA1A3210667C828492DB98DCA3E2076CC3735A920A3CA505D382BBC PUSH0 SHL PUSH2 0x1022 JUMP JUMPDEST PUSH0 ADD PUSH0 PUSH2 0x100 EXP DUP2 SLOAD DUP2 PUSH20 0xFFFFFFFFFFFFFFFFFFFFFFFFFFFFFFFFFFFFFFFF MUL NOT AND SWAP1 DUP4 PUSH20 0xFFFFFFFFFFFFFFFFFFFFFFFFFFFFFFFFFFFFFFFF AND MUL OR SWAP1 SSTORE POP POP JUMP JUMPDEST PUSH1 0x60 PUSH0 PUSH0 DUP5 PUSH20 0xFFFFFFFFFFFFFFFFFFFFFFFFFFFFFFFFFFFFFFFF AND DUP5 PUSH1 0x40 MLOAD PUSH2 0x111D SWAP2 SWAP1 PUSH2 0x1C18 JUMP JUMPDEST PUSH0 PUSH1 0x40 MLOAD DUP1 DUP4 SUB DUP2 DUP6 GAS DELEGATECALL SWAP2 POP POP RETURNDATASIZE DUP1 PUSH0 DUP2 EQ PUSH2 0x1155 JUMPI PUSH1 0x40 MLOAD SWAP2 POP PUSH1 0x1F NOT PUSH1 0x3F RETURNDATASIZE ADD AND DUP3 ADD PUSH1 0x40 MSTORE RETURNDATASIZE DUP3 MSTORE RETURNDATASIZE PUSH0 PUSH1 0x20 DUP5 ADD RETURNDATACOPY PUSH2 0x115A JUMP JUMPDEST PUSH1 0x60 SWAP2 POP JUMPDEST POP SWAP2 POP SWAP2 POP PUSH2 0x116A DUP6 DUP4 DUP4 PUSH2 0x11B0 JUMP JUMPDEST SWAP3 POP POP POP SWAP3 SWAP2 POP POP JUMP JUMPDEST PUSH0 CALLVALUE GT ISZERO PUSH2 0x11AE JUMPI PUSH1 0x40 MLOAD PUSH32 0xB398979F00000000000000000000000000000000000000000000000000000000 DUP2 MSTORE PUSH1 0x4 ADD PUSH1 0x40 MLOAD DUP1 SWAP2 SUB SWAP1 REVERT JUMPDEST JUMP JUMPDEST PUSH1 0x60 DUP3 PUSH2 0x11C5 JUMPI PUSH2 0x11C0 DUP3 PUSH2 0x123D JUMP JUMPDEST PUSH2 0x1235 JUMP JUMPDEST PUSH0 DUP3 MLOAD EQ DUP1 ISZERO PUSH2 0x11EB JUMPI POP PUSH0 DUP5 PUSH20 0xFFFFFFFFFFFFFFFFFFFFFFFFFFFFFFFFFFFFFFFF AND EXTCODESIZE EQ JUMPDEST ISZERO PUSH2 0x122D JUMPI DUP4 PUSH1 0x40 MLOAD PUSH32 0x9996B31500000000000000000000000000000000000000000000000000000000 DUP2 MSTORE PUSH1 0x4 ADD PUSH2 0x1224 SWAP2 SWAP1 PUSH2 0x16B8 JUMP JUMPDEST PUSH1 0x40 MLOAD DUP1 SWAP2 SUB SWAP1 REVERT JUMPDEST DUP2 SWAP1 POP PUSH2 0x1236 JUMP JUMPDEST JUMPDEST SWAP4 SWAP3 POP POP POP JUMP JUMPDEST PUSH0 DUP2 MLOAD GT ISZERO PUSH2 0x124F JUMPI DUP1 MLOAD DUP1 DUP3 PUSH1 0x20 ADD REVERT JUMPDEST PUSH1 0x40 MLOAD PUSH32 0xD6BDA27500000000000000000000000000000000000000000000000000000000 DUP2 MSTORE PUSH1 0x4 ADD PUSH1 0x40 MLOAD DUP1 SWAP2 SUB SWAP1 REVERT JUMPDEST PUSH0 PUSH1 0x40 MLOAD SWAP1 POP SWAP1 JUMP JUMPDEST PUSH0 PUSH0 REVERT JUMPDEST PUSH0 PUSH0 REVERT JUMPDEST PUSH0 PUSH20 0xFFFFFFFFFFFFFFFFFFFFFFFFFFFFFFFFFFFFFFFF DUP3 AND SWAP1 POP SWAP2 SWAP1 POP JUMP JUMPDEST PUSH0 PUSH2 0x12BB DUP3 PUSH2 0x1292 JUMP JUMPDEST SWAP1 POP SWAP2 SWAP1 POP JUMP JUMPDEST PUSH2 0x12CB DUP2 PUSH2 0x12B1 JUMP JUMPDEST DUP2 EQ PUSH2 0x12D5 JUMPI PUSH0 PUSH0 REVERT JUMPDEST POP JUMP JUMPDEST PUSH0 DUP2 CALLDATALOAD SWAP1 POP PUSH2 0x12E6 DUP2 PUSH2 0x12C2 JUMP JUMPDEST SWAP3 SWAP2 POP POP JUMP JUMPDEST PUSH0 PUSH0 REVERT JUMPDEST PUSH0 PUSH0 REVERT JUMPDEST PUSH0 PUSH1 0x1F NOT PUSH1 0x1F DUP4 ADD AND SWAP1 POP SWAP2 SWAP1 POP JUMP JUMPDEST PUSH32 0x4E487B7100000000000000000000000000000000000000000000000000000000 PUSH0 MSTORE PUSH1 0x41 PUSH1 0x4 MSTORE PUSH1 0x24 PUSH0 REVERT JUMPDEST PUSH2 0x133A DUP3 PUSH2 0x12F4 JUMP JUMPDEST DUP2 ADD DUP2 DUP2 LT PUSH8 0xFFFFFFFFFFFFFFFF DUP3 GT OR ISZERO PUSH2 0x1359 JUMPI PUSH2 0x1358 PUSH2 0x1304 JUMP JUMPDEST JUMPDEST DUP1 PUSH1 0x40 MSTORE POP POP POP JUMP JUMPDEST PUSH0 PUSH2 0x136B PUSH2 0x1281 JUMP JUMPDEST SWAP1 POP PUSH2 0x1377 DUP3 DUP3 PUSH2 0x1331 JUMP JUMPDEST SWAP2 SWAP1 POP JUMP JUMPDEST PUSH0 PUSH8 0xFFFFFFFFFFFFFFFF DUP3 GT ISZERO PUSH2 0x1396 JUMPI PUSH2 0x1395 PUSH2 0x1304 JUMP JUMPDEST JUMPDEST PUSH2 0x139F DUP3 PUSH2 0x12F4 JUMP JUMPDEST SWAP1 POP PUSH1 0x20 DUP2 ADD SWAP1 POP SWAP2 SWAP1 POP JUMP JUMPDEST DUP3 DUP2 DUP4 CALLDATACOPY PUSH0 DUP4 DUP4 ADD MSTORE POP POP POP JUMP JUMPDEST PUSH0 PUSH2 0x13CC PUSH2 0x13C7 DUP5 PUSH2 0x137C JUMP JUMPDEST PUSH2 0x1362 JUMP JUMPDEST SWAP1 POP DUP3 DUP2 MSTORE PUSH1 0x20 DUP2 ADD DUP5 DUP5 DUP5 ADD GT ISZERO PUSH2 0x13E8 JUMPI PUSH2 0x13E7 PUSH2 0x12F0 JUMP JUMPDEST JUMPDEST PUSH2 0x13F3 DUP5 DUP3 DUP6 PUSH2 0x13AC JUMP JUMPDEST POP SWAP4 SWAP3 POP POP POP JUMP JUMPDEST PUSH0 DUP3 PUSH1 0x1F DUP4 ADD SLT PUSH2 0x140F JUMPI PUSH2 0x140E PUSH2 0x12EC JUMP JUMPDEST JUMPDEST DUP2 CALLDATALOAD PUSH2 0x141F DUP5 DUP3 PUSH1 0x20 DUP7 ADD PUSH2 0x13BA JUMP JUMPDEST SWAP2 POP POP SWAP3 SWAP2 POP POP JUMP JUMPDEST PUSH0 PUSH0 PUSH1 0x40 DUP4 DUP6 SUB SLT ISZERO PUSH2 0x143E JUMPI PUSH2 0x143D PUSH2 0x128A JUMP JUMPDEST JUMPDEST PUSH0 PUSH2 0x144B DUP6 DUP3 DUP7 ADD PUSH2 0x12D8 JUMP JUMPDEST SWAP3 POP POP PUSH1 0x20 DUP4 ADD CALLDATALOAD PUSH8 0xFFFFFFFFFFFFFFFF DUP2 GT ISZERO PUSH2 0x146C JUMPI PUSH2 0x146B PUSH2 0x128E JUMP JUMPDEST JUMPDEST PUSH2 0x1478 DUP6 DUP3 DUP7 ADD PUSH2 0x13FB JUMP JUMPDEST SWAP2 POP POP SWAP3 POP SWAP3 SWAP1 POP JUMP JUMPDEST PUSH0 DUP2 SWAP1 POP SWAP2 SWAP1 POP JUMP JUMPDEST PUSH2 0x1494 DUP2 PUSH2 0x1482 JUMP JUMPDEST DUP3 MSTORE POP POP JUMP JUMPDEST PUSH0 PUSH1 0x20 DUP3 ADD SWAP1 POP PUSH2 0x14AD PUSH0 DUP4 ADD DUP5 PUSH2 0x148B JUMP JUMPDEST SWAP3 SWAP2 POP POP JUMP JUMPDEST PUSH0 DUP2 SWAP1 POP SWAP2 SWAP1 POP JUMP JUMPDEST PUSH2 0x14C5 DUP2 PUSH2 0x14B3 JUMP JUMPDEST DUP2 EQ PUSH2 0x14CF JUMPI PUSH0 PUSH0 REVERT JUMPDEST POP JUMP JUMPDEST PUSH0 DUP2 CALLDATALOAD SWAP1 POP PUSH2 0x14E0 DUP2 PUSH2 0x14BC JUMP JUMPDEST SWAP3 SWAP2 POP POP JUMP JUMPDEST PUSH0 PUSH1 0x20 DUP3 DUP5 SUB SLT ISZERO PUSH2 0x14FB JUMPI PUSH2 0x14FA PUSH2 0x128A JUMP JUMPDEST JUMPDEST PUSH0 PUSH2 0x1508 DUP5 DUP3 DUP6 ADD PUSH2 0x14D2 JUMP JUMPDEST SWAP2 POP POP SWAP3 SWAP2 POP POP JUMP JUMPDEST PUSH2 0x151A DUP2 PUSH2 0x12B1 JUMP JUMPDEST DUP3 MSTORE POP POP JUMP JUMPDEST PUSH2 0x1529 DUP2 PUSH2 0x14B3 JUMP JUMPDEST DUP3 MSTORE POP POP JUMP JUMPDEST PUSH0 DUP2 ISZERO ISZERO SWAP1 POP SWAP2 SWAP1 POP JUMP JUMPDEST PUSH2 0x1543 DUP2 PUSH2 0x152F JUMP JUMPDEST DUP3 MSTORE POP POP JUMP JUMPDEST PUSH0 PUSH2 0x120 DUP3 ADD SWAP1 POP PUSH2 0x155D PUSH0 DUP4 ADD DUP13 PUSH2 0x1511 JUMP JUMPDEST PUSH2 0x156A PUSH1 0x20 DUP4 ADD DUP12 PUSH2 0x1520 JUMP JUMPDEST PUSH2 0x1577 PUSH1 0x40 DUP4 ADD DUP11 PUSH2 0x1520 JUMP JUMPDEST PUSH2 0x1584 PUSH1 0x60 DUP4 ADD DUP10 PUSH2 0x1520 JUMP JUMPDEST PUSH2 0x1591 PUSH1 0x80 DUP4 ADD DUP9 PUSH2 0x153A JUMP JUMPDEST PUSH2 0x159E PUSH1 0xA0 DUP4 ADD DUP8 PUSH2 0x1511 JUMP JUMPDEST PUSH2 0x15AB PUSH1 0xC0 DUP4 ADD DUP7 PUSH2 0x1520 JUMP JUMPDEST PUSH2 0x15B8 PUSH1 0xE0 DUP4 ADD DUP6 PUSH2 0x1511 JUMP JUMPDEST PUSH2 0x15C6 PUSH2 0x100 DUP4 ADD DUP5 PUSH2 0x1520 JUMP JUMPDEST SWAP11 SWAP10 POP POP POP POP POP POP POP POP POP POP JUMP JUMPDEST PUSH0 DUP2 MLOAD SWAP1 POP SWAP2 SWAP1 POP JUMP JUMPDEST PUSH0 DUP3 DUP3 MSTORE PUSH1 0x20 DUP3 ADD SWAP1 POP SWAP3 SWAP2 POP POP JUMP JUMPDEST DUP3 DUP2 DUP4 MCOPY PUSH0 DUP4 DUP4 ADD MSTORE POP POP POP JUMP JUMPDEST PUSH0 PUSH2 0x1606 DUP3 PUSH2 0x15D4 JUMP JUMPDEST PUSH2 0x1610 DUP2 DUP6 PUSH2 0x15DE JUMP JUMPDEST SWAP4 POP PUSH2 0x1620 DUP2 DUP6 PUSH1 0x20 DUP7 ADD PUSH2 0x15EE JUMP JUMPDEST PUSH2 0x1629 DUP2 PUSH2 0x12F4 JUMP JUMPDEST DUP5 ADD SWAP2 POP POP SWAP3 SWAP2 POP POP JUMP JUMPDEST PUSH0 PUSH1 0x20 DUP3 ADD SWAP1 POP DUP2 DUP2 SUB PUSH0 DUP4 ADD MSTORE PUSH2 0x164C DUP2 DUP5 PUSH2 0x15FC JUMP JUMPDEST SWAP1 POP SWAP3 SWAP2 POP POP JUMP JUMPDEST PUSH0 PUSH0 PUSH0 PUSH0 PUSH1 0x80 DUP6 DUP8 SUB SLT ISZERO PUSH2 0x166C JUMPI PUSH2 0x166B PUSH2 0x128A JUMP JUMPDEST JUMPDEST PUSH0 PUSH2 0x1679 DUP8 DUP3 DUP9 ADD PUSH2 0x14D2 JUMP JUMPDEST SWAP5 POP POP PUSH1 0x20 PUSH2 0x168A DUP8 DUP3 DUP9 ADD PUSH2 0x14D2 JUMP JUMPDEST SWAP4 POP POP PUSH1 0x40 PUSH2 0x169B DUP8 DUP3 DUP9 ADD PUSH2 0x12D8 JUMP JUMPDEST SWAP3 POP POP PUSH1 0x60 PUSH2 0x16AC DUP8 DUP3 DUP9 ADD PUSH2 0x14D2 JUMP JUMPDEST SWAP2 POP POP SWAP3 SWAP6 SWAP2 SWAP5 POP SWAP3 POP JUMP JUMPDEST PUSH0 PUSH1 0x20 DUP3 ADD SWAP1 POP PUSH2 0x16CB PUSH0 DUP4 ADD DUP5 PUSH2 0x1511 JUMP JUMPDEST SWAP3 SWAP2 POP POP JUMP JUMPDEST PUSH0 PUSH1 0x20 DUP3 ADD SWAP1 POP PUSH2 0x16E4 PUSH0 DUP4 ADD DUP5 PUSH2 0x1520 JUMP JUMPDEST SWAP3 SWAP2 POP POP JUMP JUMPDEST PUSH0 DUP2 SWAP1 POP SWAP2 SWAP1 POP JUMP JUMPDEST PUSH0 PUSH8 0xFFFFFFFFFFFFFFFF DUP3 AND SWAP1 POP SWAP2 SWAP1 POP JUMP JUMPDEST PUSH0 DUP2 SWAP1 POP SWAP2 SWAP1 POP JUMP JUMPDEST PUSH0 PUSH2 0x1729 PUSH2 0x1724 PUSH2 0x171F DUP5 PUSH2 0x16EA JUMP JUMPDEST PUSH2 0x1706 JUMP JUMPDEST PUSH2 0x16F3 JUMP JUMPDEST SWAP1 POP SWAP2 SWAP1 POP JUMP JUMPDEST PUSH2 0x1739 DUP2 PUSH2 0x170F JUMP JUMPDEST DUP3 MSTORE POP POP JUMP JUMPDEST PUSH0 PUSH1 0x20 DUP3 ADD SWAP1 POP PUSH2 0x1752 PUSH0 DUP4 ADD DUP5 PUSH2 0x1730 JUMP JUMPDEST SWAP3 SWAP2 POP POP JUMP JUMPDEST PUSH32 0x4E487B7100000000000000000000000000000000000000000000000000000000 PUSH0 MSTORE PUSH1 0x11 PUSH1 0x4 MSTORE PUSH1 0x24 PUSH0 REVERT JUMPDEST PUSH0 PUSH2 0x178F DUP3 PUSH2 0x14B3 JUMP JUMPDEST SWAP2 POP PUSH2 0x179A DUP4 PUSH2 0x14B3 JUMP JUMPDEST SWAP3 POP DUP3 DUP3 ADD SWAP1 POP DUP1 DUP3 GT ISZERO PUSH2 0x17B2 JUMPI PUSH2 0x17B1 PUSH2 0x1758 JUMP JUMPDEST JUMPDEST SWAP3 SWAP2 POP POP JUMP JUMPDEST PUSH32 0x41756374696F6E2068617320656E646564000000000000000000000000000000 PUSH0 DUP3 ADD MSTORE POP JUMP JUMPDEST PUSH0 PUSH2 0x17EC PUSH1 0x11 DUP4 PUSH2 0x15DE JUMP JUMPDEST SWAP2 POP PUSH2 0x17F7 DUP3 PUSH2 0x17B8 JUMP JUMPDEST PUSH1 0x20 DUP3 ADD SWAP1 POP SWAP2 SWAP1 POP JUMP JUMPDEST PUSH0 PUSH1 0x20 DUP3 ADD SWAP1 POP DUP2 DUP2 SUB PUSH0 DUP4 ADD MSTORE PUSH2 0x1819 DUP2 PUSH2 0x17E0 JUMP JUMPDEST SWAP1 POP SWAP2 SWAP1 POP JUMP JUMPDEST PUSH32 0x426964206D75737420626520686967686572207468616E207468652063757272 PUSH0 DUP3 ADD MSTORE PUSH32 0x656E742068696768657374206269640000000000000000000000000000000000 PUSH1 0x20 DUP3 ADD MSTORE POP JUMP JUMPDEST PUSH0 PUSH2 0x187A PUSH1 0x2F DUP4 PUSH2 0x15DE JUMP JUMPDEST SWAP2 POP PUSH2 0x1885 DUP3 PUSH2 0x1820 JUMP JUMPDEST PUSH1 0x40 DUP3 ADD SWAP1 POP SWAP2 SWAP1 POP JUMP JUMPDEST PUSH0 PUSH1 0x20 DUP3 ADD SWAP1 POP DUP2 DUP2 SUB PUSH0 DUP4 ADD MSTORE PUSH2 0x18A7 DUP2 PUSH2 0x186E JUMP JUMPDEST SWAP1 POP SWAP2 SWAP1 POP JUMP JUMPDEST PUSH32 0x4F6E6C792061646D696E2063616E206372656174652061756374696F6E730000 PUSH0 DUP3 ADD MSTORE POP JUMP JUMPDEST PUSH0 PUSH2 0x18E2 PUSH1 0x1E DUP4 PUSH2 0x15DE JUMP JUMPDEST SWAP2 POP PUSH2 0x18ED DUP3 PUSH2 0x18AE JUMP JUMPDEST PUSH1 0x20 DUP3 ADD SWAP1 POP SWAP2 SWAP1 POP JUMP JUMPDEST PUSH0 PUSH1 0x20 DUP3 ADD SWAP1 POP DUP2 DUP2 SUB PUSH0 DUP4 ADD MSTORE PUSH2 0x190F DUP2 PUSH2 0x18D6 JUMP JUMPDEST SWAP1 POP SWAP2 SWAP1 POP JUMP JUMPDEST PUSH32 0x4475726174696F6E206D7573742062652067726561746572207468616E203000 PUSH0 DUP3 ADD MSTORE POP JUMP JUMPDEST PUSH0 PUSH2 0x194A PUSH1 0x1F DUP4 PUSH2 0x15DE JUMP JUMPDEST SWAP2 POP PUSH2 0x1955 DUP3 PUSH2 0x1916 JUMP JUMPDEST PUSH1 0x20 DUP3 ADD SWAP1 POP SWAP2 SWAP1 POP JUMP JUMPDEST PUSH0 PUSH1 0x20 DUP3 ADD SWAP1 POP DUP2 DUP2 SUB PUSH0 DUP4 ADD MSTORE PUSH2 0x1977 DUP2 PUSH2 0x193E JUMP JUMPDEST SWAP1 POP SWAP2 SWAP1 POP JUMP JUMPDEST PUSH32 0x5374617274207072696365206D7573742062652067726561746572207468616E PUSH0 DUP3 ADD MSTORE PUSH32 0x2030000000000000000000000000000000000000000000000000000000000000 PUSH1 0x20 DUP3 ADD MSTORE POP JUMP JUMPDEST PUSH0 PUSH2 0x19D8 PUSH1 0x22 DUP4 PUSH2 0x15DE JUMP JUMPDEST SWAP2 POP PUSH2 0x19E3 DUP3 PUSH2 0x197E JUMP JUMPDEST PUSH1 0x40 DUP3 ADD SWAP1 POP SWAP2 SWAP1 POP JUMP JUMPDEST PUSH0 PUSH1 0x20 DUP3 ADD SWAP1 POP DUP2 DUP2 SUB PUSH0 DUP4 ADD MSTORE PUSH2 0x1A05 DUP2 PUSH2 0x19CC JUMP JUMPDEST SWAP1 POP SWAP2 SWAP1 POP JUMP JUMPDEST PUSH0 PUSH1 0x40 DUP3 ADD SWAP1 POP PUSH2 0x1A1F PUSH0 DUP4 ADD DUP6 PUSH2 0x1511 JUMP JUMPDEST PUSH2 0x1A2C PUSH1 0x20 DUP4 ADD DUP5 PUSH2 0x1520 JUMP JUMPDEST SWAP4 SWAP3 POP POP POP JUMP JUMPDEST PUSH0 PUSH2 0x1A3D DUP3 PUSH2 0x14B3 JUMP JUMPDEST SWAP2 POP PUSH32 0xFFFFFFFFFFFFFFFFFFFFFFFFFFFFFFFFFFFFFFFFFFFFFFFFFFFFFFFFFFFFFFFF DUP3 SUB PUSH2 0x1A6F JUMPI PUSH2 0x1A6E PUSH2 0x1758 JUMP JUMPDEST JUMPDEST PUSH1 0x1 DUP3 ADD SWAP1 POP SWAP2 SWAP1 POP JUMP JUMPDEST PUSH32 0x41756374696F6E20686173206E6F7420656E6465640000000000000000000000 PUSH0 DUP3 ADD MSTORE POP JUMP JUMPDEST PUSH0 PUSH2 0x1AAE PUSH1 0x15 DUP4 PUSH2 0x15DE JUMP JUMPDEST SWAP2 POP PUSH2 0x1AB9 DUP3 PUSH2 0x1A7A JUMP JUMPDEST PUSH1 0x20 DUP3 ADD SWAP1 POP SWAP2 SWAP1 POP JUMP JUMPDEST PUSH0 PUSH1 0x20 DUP3 ADD SWAP1 POP DUP2 DUP2 SUB PUSH0 DUP4 ADD MSTORE PUSH2 0x1ADB DUP2 PUSH2 0x1AA2 JUMP JUMPDEST SWAP1 POP SWAP2 SWAP1 POP JUMP JUMPDEST PUSH0 PUSH1 0x60 DUP3 ADD SWAP1 POP PUSH2 0x1AF5 PUSH0 DUP4 ADD DUP7 PUSH2 0x1511 JUMP JUMPDEST PUSH2 0x1B02 PUSH1 0x20 DUP4 ADD DUP6 PUSH2 0x1511 JUMP JUMPDEST PUSH2 0x1B0F PUSH1 0x40 DUP4 ADD DUP5 PUSH2 0x1520 JUMP JUMPDEST SWAP5 SWAP4 POP POP POP POP JUMP JUMPDEST PUSH32 0x4F6E6C792061646D696E2063616E207570677261646500000000000000000000 PUSH0 DUP3 ADD MSTORE POP JUMP JUMPDEST PUSH0 PUSH2 0x1B4B PUSH1 0x16 DUP4 PUSH2 0x15DE JUMP JUMPDEST SWAP2 POP PUSH2 0x1B56 DUP3 PUSH2 0x1B17 JUMP JUMPDEST PUSH1 0x20 DUP3 ADD SWAP1 POP SWAP2 SWAP1 POP JUMP JUMPDEST PUSH0 PUSH1 0x20 DUP3 ADD SWAP1 POP DUP2 DUP2 SUB PUSH0 DUP4 ADD MSTORE PUSH2 0x1B78 DUP2 PUSH2 0x1B3F JUMP JUMPDEST SWAP1 POP SWAP2 SWAP1 POP JUMP JUMPDEST PUSH2 0x1B88 DUP2 PUSH2 0x1482 JUMP JUMPDEST DUP2 EQ PUSH2 0x1B92 JUMPI PUSH0 PUSH0 REVERT JUMPDEST POP JUMP JUMPDEST PUSH0 DUP2 MLOAD SWAP1 POP PUSH2 0x1BA3 DUP2 PUSH2 0x1B7F JUMP JUMPDEST SWAP3 SWAP2 POP POP JUMP JUMPDEST PUSH0 PUSH1 0x20 DUP3 DUP5 SUB SLT ISZERO PUSH2 0x1BBE JUMPI PUSH2 0x1BBD PUSH2 0x128A JUMP JUMPDEST JUMPDEST PUSH0 PUSH2 0x1BCB DUP5 DUP3 DUP6 ADD PUSH2 0x1B95 JUMP JUMPDEST SWAP2 POP POP SWAP3 SWAP2 POP POP JUMP JUMPDEST PUSH0 DUP2 MLOAD SWAP1 POP SWAP2 SWAP1 POP JUMP JUMPDEST PUSH0 DUP2 SWAP1 POP SWAP3 SWAP2 POP POP JUMP JUMPDEST PUSH0 PUSH2 0x1BF2 DUP3 PUSH2 0x1BD4 JUMP JUMPDEST PUSH2 0x1BFC DUP2 DUP6 PUSH2 0x1BDE JUMP JUMPDEST SWAP4 POP PUSH2 0x1C0C DUP2 DUP6 PUSH1 0x20 DUP7 ADD PUSH2 0x15EE JUMP JUMPDEST DUP1 DUP5 ADD SWAP2 POP POP SWAP3 SWAP2 POP POP JUMP JUMPDEST PUSH0 PUSH2 0x1C23 DUP3 DUP5 PUSH2 0x1BE8 JUMP JUMPDEST SWAP2 POP DUP2 SWAP1 POP SWAP3 SWAP2 POP POP JUMP INVALID LOG2 PUSH5 0x6970667358 0x22 SLT KECCAK256 CREATE 0x25 0xE9 0x2B 0x27 0x25 CALLCODE JUMPI DUP12 0x1F 0x1E PUSH5 0x6AB9C0F4B3 0x22 0xCA SWAP2 JUMP 0xD 0xF6 0xBE 0xD9 DUP3 PUSH21 0x701A52414164736F6C634300081C00330000000000 "
				},
				"gasEstimates": {
					"creation": {
						"codeDepositCost": "1453600",
						"executionCost": "infinite",
						"totalCost": "infinite"
					},
					"external": {
						"UPGRADE_INTERFACE_VERSION()": "infinite",
						"admin()": "2574",
						"auctions(uint256)": "infinite",
						"createAuction(uint256,uint256,address,uint256)": "infinite",
						"endAuction(uint256)": "infinite",
						"initialize()": "105911",
						"nextAuctionId()": "2513",
						"placeBid(uint256)": "infinite",
						"proxiableUUID()": "infinite",
						"upgradeToAndCall(address,bytes)": "infinite"
					},
					"internal": {
						"_authorizeUpgrade(address)": "infinite"
					}
				},
				"methodIdentifiers": {
					"UPGRADE_INTERFACE_VERSION()": "ad3cb1cc",
					"admin()": "f851a440",
					"auctions(uint256)": "571a26a0",
					"createAuction(uint256,uint256,address,uint256)": "b1cb48ef",
					"endAuction(uint256)": "b9a2de3a",
					"initialize()": "8129fc1c",
					"nextAuctionId()": "fc528482",
					"placeBid(uint256)": "9979ef45",
					"proxiableUUID()": "52d1902d",
					"upgradeToAndCall(address,bytes)": "4f1ef286"
				}
			},
			"storageLayout": {
				"storage": [
					{
						"astId": 1338,
						"contract": "contracts/NftAuction.sol:NftAuction",
						"label": "auctions",
						"offset": 0,
						"slot": "0",
						"type": "t_mapping(t_uint256,t_struct(Auction)1333_storage)"
					},
					{
						"astId": 1340,
						"contract": "contracts/NftAuction.sol:NftAuction",
						"label": "nextAuctionId",
						"offset": 0,
						"slot": "1",
						"type": "t_uint256"
					},
					{
						"astId": 1342,
						"contract": "contracts/NftAuction.sol:NftAuction",
						"label": "admin",
						"offset": 0,
						"slot": "2",
						"type": "t_address"
					}
				],
				"types": {
					"t_address": {
						"encoding": "inplace",
						"label": "address",
						"numberOfBytes": "20"
					},
					"t_bool": {
						"encoding": "inplace",
						"label": "bool",
						"numberOfBytes": "1"
					},
					"t_mapping(t_uint256,t_struct(Auction)1333_storage)": {
						"encoding": "mapping",
						"key": "t_uint256",
						"label": "mapping(uint256 => struct NftAuction.Auction)",
						"numberOfBytes": "32",
						"value": "t_struct(Auction)1333_storage"
					},
					"t_struct(Auction)1333_storage": {
						"encoding": "inplace",
						"label": "struct NftAuction.Auction",
						"members": [
							{
								"astId": 1316,
								"contract": "contracts/NftAuction.sol:NftAuction",
								"label": "seller",
								"offset": 0,
								"slot": "0",
								"type": "t_address"
							},
							{
								"astId": 1318,
								"contract": "contracts/NftAuction.sol:NftAuction",
								"label": "duration",
								"offset": 0,
								"slot": "1",
								"type": "t_uint256"
							},
							{
								"astId": 1320,
								"contract": "contracts/NftAuction.sol:NftAuction",
								"label": "startPrice",
								"offset": 0,
								"slot": "2",
								"type": "t_uint256"
							},
							{
								"astId": 1322,
								"contract": "contracts/NftAuction.sol:NftAuction",
								"label": "startTime",
								"offset": 0,
								"slot": "3",
								"type": "t_uint256"
							},
							{
								"astId": 1324,
								"contract": "contracts/NftAuction.sol:NftAuction",
								"label": "ended",
								"offset": 0,
								"slot": "4",
								"type": "t_bool"
							},
							{
								"astId": 1326,
								"contract": "contracts/NftAuction.sol:NftAuction",
								"label": "highestBidder",
								"offset": 1,
								"slot": "4",
								"type": "t_address"
							},
							{
								"astId": 1328,
								"contract": "contracts/NftAuction.sol:NftAuction",
								"label": "highestBid",
								"offset": 0,
								"slot": "5",
								"type": "t_uint256"
							},
							{
								"astId": 1330,
								"contract": "contracts/NftAuction.sol:NftAuction",
								"label": "nftContract",
								"offset": 0,
								"slot": "6",
								"type": "t_address"
							},
							{
								"astId": 1332,
								"contract": "contracts/NftAuction.sol:NftAuction",
								"label": "tokenId",
								"offset": 0,
								"slot": "7",
								"type": "t_uint256"
							}
						],
						"numberOfBytes": "256"
					},
					"t_uint256": {
						"encoding": "inplace",
						"label": "uint256",
						"numberOfBytes": "32"
					}
				}
			},
			"userdoc": {
				"kind": "user",
				"methods": {},
				"version": 1
			}
		}
	}
}